{
  "address": "0x47cc8261C01987D9cfA53B8984b26FC28D324Ccf",
  "abi": [
    {
      "inputs": [
        {
          "internalType": "address",
          "name": "_cake",
          "type": "address"
        },
        {
          "internalType": "address",
          "name": "_maha",
          "type": "address"
        },
        {
          "internalType": "address",
          "name": "_odos",
          "type": "address"
        },
        {
          "internalType": "address",
          "name": "_weth",
          "type": "address"
        },
        {
          "internalType": "address",
          "name": "_thena",
          "type": "address"
        }
      ],
      "stateMutability": "nonpayable",
      "type": "constructor"
    },
    {
      "inputs": [],
      "name": "AccessControlBadConfirmation",
      "type": "error"
    },
    {
      "inputs": [
        {
          "internalType": "address",
          "name": "account",
          "type": "address"
        },
        {
          "internalType": "bytes32",
          "name": "neededRole",
          "type": "bytes32"
        }
      ],
      "name": "AccessControlUnauthorizedAccount",
      "type": "error"
    },
    {
      "inputs": [],
      "name": "ReentrancyGuardReentrantCall",
      "type": "error"
    },
    {
      "inputs": [
        {
          "internalType": "address",
          "name": "token",
          "type": "address"
        }
      ],
      "name": "SafeERC20FailedOperation",
      "type": "error"
    },
    {
      "anonymous": false,
      "inputs": [
        {
          "indexed": false,
          "internalType": "uint256",
          "name": "amount",
          "type": "uint256"
        }
      ],
      "name": "ETHCollected",
      "type": "event"
    },
    {
      "anonymous": false,
      "inputs": [
        {
          "indexed": false,
          "internalType": "uint256",
          "name": "amount",
          "type": "uint256"
        }
      ],
      "name": "ETHReceived",
      "type": "event"
    },
    {
      "anonymous": false,
      "inputs": [
        {
          "indexed": false,
          "internalType": "uint256",
          "name": "cakeAmount",
          "type": "uint256"
        },
        {
          "indexed": false,
          "internalType": "uint256",
          "name": "mahaAmount",
          "type": "uint256"
        }
      ],
      "name": "FeesSwapped",
      "type": "event"
    },
    {
      "anonymous": false,
      "inputs": [
        {
          "indexed": true,
          "internalType": "bytes32",
          "name": "role",
          "type": "bytes32"
        },
        {
          "indexed": true,
          "internalType": "bytes32",
          "name": "previousAdminRole",
          "type": "bytes32"
        },
        {
          "indexed": true,
          "internalType": "bytes32",
          "name": "newAdminRole",
          "type": "bytes32"
        }
      ],
      "name": "RoleAdminChanged",
      "type": "event"
    },
    {
      "anonymous": false,
      "inputs": [
        {
          "indexed": true,
          "internalType": "bytes32",
          "name": "role",
          "type": "bytes32"
        },
        {
          "indexed": true,
          "internalType": "address",
          "name": "account",
          "type": "address"
        },
        {
          "indexed": true,
          "internalType": "address",
          "name": "sender",
          "type": "address"
        }
      ],
      "name": "RoleGranted",
      "type": "event"
    },
    {
      "anonymous": false,
      "inputs": [
        {
          "indexed": true,
          "internalType": "bytes32",
          "name": "role",
          "type": "bytes32"
        },
        {
          "indexed": true,
          "internalType": "address",
          "name": "account",
          "type": "address"
        },
        {
          "indexed": true,
          "internalType": "address",
          "name": "sender",
          "type": "address"
        }
      ],
      "name": "RoleRevoked",
      "type": "event"
    },
    {
      "anonymous": false,
      "inputs": [
        {
          "indexed": false,
          "internalType": "bool",
          "name": "isPaused",
          "type": "bool"
        }
      ],
      "name": "SwapPausedToggled",
      "type": "event"
    },
    {
      "anonymous": false,
      "inputs": [
        {
          "indexed": false,
          "internalType": "address",
          "name": "token",
          "type": "address"
        },
        {
          "indexed": false,
          "internalType": "uint256",
          "name": "amount",
          "type": "uint256"
        }
      ],
      "name": "TokensCollected",
      "type": "event"
    },
    {
      "inputs": [],
      "name": "CAKE",
      "outputs": [
        {
          "internalType": "contract IERC20",
          "name": "",
          "type": "address"
        }
      ],
      "stateMutability": "view",
      "type": "function"
    },
    {
      "inputs": [],
      "name": "DEAD",
      "outputs": [
        {
          "internalType": "address",
          "name": "",
          "type": "address"
        }
      ],
      "stateMutability": "view",
      "type": "function"
    },
    {
      "inputs": [],
      "name": "DEFAULT_ADMIN_ROLE",
      "outputs": [
        {
          "internalType": "bytes32",
          "name": "",
          "type": "bytes32"
        }
      ],
      "stateMutability": "view",
      "type": "function"
    },
    {
      "inputs": [],
      "name": "MAHA",
      "outputs": [
        {
          "internalType": "contract IERC20",
          "name": "",
          "type": "address"
        }
      ],
      "stateMutability": "view",
      "type": "function"
    },
    {
      "inputs": [],
      "name": "ODOS",
      "outputs": [
        {
          "internalType": "address",
          "name": "",
          "type": "address"
        }
      ],
      "stateMutability": "view",
      "type": "function"
    },
    {
      "inputs": [],
      "name": "OPERATOR_ROLE",
      "outputs": [
        {
          "internalType": "bytes32",
          "name": "",
          "type": "bytes32"
        }
      ],
      "stateMutability": "view",
      "type": "function"
    },
    {
      "inputs": [],
      "name": "THENA",
      "outputs": [
        {
          "internalType": "contract IERC20",
          "name": "",
          "type": "address"
        }
      ],
      "stateMutability": "view",
      "type": "function"
    },
    {
      "inputs": [],
      "name": "WETH",
      "outputs": [
        {
          "internalType": "contract IWETH9",
          "name": "",
          "type": "address"
        }
      ],
      "stateMutability": "view",
      "type": "function"
    },
    {
      "inputs": [],
      "name": "cakeBurnt",
      "outputs": [
        {
          "internalType": "uint256",
          "name": "",
          "type": "uint256"
        }
      ],
      "stateMutability": "view",
      "type": "function"
    },
    {
      "inputs": [
        {
          "internalType": "uint256",
          "name": "amount",
          "type": "uint256"
        }
      ],
      "name": "collectETH",
      "outputs": [],
      "stateMutability": "nonpayable",
      "type": "function"
    },
    {
      "inputs": [
        {
          "internalType": "address",
          "name": "token",
          "type": "address"
        },
        {
          "internalType": "uint256",
          "name": "amount",
          "type": "uint256"
        }
      ],
      "name": "collectToken",
      "outputs": [],
      "stateMutability": "nonpayable",
      "type": "function"
    },
    {
      "inputs": [
        {
          "internalType": "bytes32",
          "name": "role",
          "type": "bytes32"
        }
      ],
      "name": "getRoleAdmin",
      "outputs": [
        {
          "internalType": "bytes32",
          "name": "",
          "type": "bytes32"
        }
      ],
      "stateMutability": "view",
      "type": "function"
    },
    {
      "inputs": [
        {
          "internalType": "bytes32",
          "name": "role",
          "type": "bytes32"
        },
        {
          "internalType": "uint256",
          "name": "index",
          "type": "uint256"
        }
      ],
      "name": "getRoleMember",
      "outputs": [
        {
          "internalType": "address",
          "name": "",
          "type": "address"
        }
      ],
      "stateMutability": "view",
      "type": "function"
    },
    {
      "inputs": [
        {
          "internalType": "bytes32",
          "name": "role",
          "type": "bytes32"
        }
      ],
      "name": "getRoleMemberCount",
      "outputs": [
        {
          "internalType": "uint256",
          "name": "",
          "type": "uint256"
        }
      ],
      "stateMutability": "view",
      "type": "function"
    },
    {
      "inputs": [
        {
          "internalType": "bytes32",
          "name": "role",
          "type": "bytes32"
        }
      ],
      "name": "getRoleMembers",
      "outputs": [
        {
          "internalType": "address[]",
          "name": "",
          "type": "address[]"
        }
      ],
      "stateMutability": "view",
      "type": "function"
    },
    {
      "inputs": [
        {
          "internalType": "bytes32",
          "name": "role",
          "type": "bytes32"
        },
        {
          "internalType": "address",
          "name": "account",
          "type": "address"
        }
      ],
      "name": "grantRole",
      "outputs": [],
      "stateMutability": "nonpayable",
      "type": "function"
    },
    {
      "inputs": [
        {
          "internalType": "bytes32",
          "name": "role",
          "type": "bytes32"
        },
        {
          "internalType": "address",
          "name": "account",
          "type": "address"
        }
      ],
      "name": "hasRole",
      "outputs": [
        {
          "internalType": "bool",
          "name": "",
          "type": "bool"
        }
      ],
      "stateMutability": "view",
      "type": "function"
    },
    {
      "inputs": [],
      "name": "mahaBurnt",
      "outputs": [
        {
          "internalType": "uint256",
          "name": "",
          "type": "uint256"
        }
      ],
      "stateMutability": "view",
      "type": "function"
    },
    {
      "inputs": [
        {
          "internalType": "bytes32",
          "name": "role",
          "type": "bytes32"
        },
        {
          "internalType": "address",
          "name": "callerConfirmation",
          "type": "address"
        }
      ],
      "name": "renounceRole",
      "outputs": [],
      "stateMutability": "nonpayable",
      "type": "function"
    },
    {
      "inputs": [
        {
          "internalType": "bytes32",
          "name": "role",
          "type": "bytes32"
        },
        {
          "internalType": "address",
          "name": "account",
          "type": "address"
        }
      ],
      "name": "revokeRole",
      "outputs": [],
      "stateMutability": "nonpayable",
      "type": "function"
    },
    {
      "inputs": [
        {
          "internalType": "bytes4",
          "name": "interfaceId",
          "type": "bytes4"
        }
      ],
      "name": "supportsInterface",
      "outputs": [
        {
          "internalType": "bool",
          "name": "",
          "type": "bool"
        }
      ],
      "stateMutability": "view",
      "type": "function"
    },
    {
      "inputs": [
        {
          "internalType": "contract IERC20[]",
          "name": "_tokens",
          "type": "address[]"
        },
        {
          "internalType": "bytes",
          "name": "odosSwapData",
          "type": "bytes"
        }
      ],
      "name": "swapFeesToTargets",
      "outputs": [],
      "stateMutability": "nonpayable",
      "type": "function"
    },
    {
      "inputs": [],
      "name": "swapPaused",
      "outputs": [
        {
          "internalType": "bool",
          "name": "",
          "type": "bool"
        }
      ],
      "stateMutability": "view",
      "type": "function"
    },
    {
      "inputs": [],
      "name": "thenaBurnt",
      "outputs": [
        {
          "internalType": "uint256",
          "name": "",
          "type": "uint256"
        }
      ],
      "stateMutability": "view",
      "type": "function"
    },
    {
      "inputs": [],
      "name": "toggleSwapPause",
      "outputs": [],
      "stateMutability": "nonpayable",
      "type": "function"
    },
    {
      "stateMutability": "payable",
      "type": "receive"
    }
  ],
  "transactionHash": "0x8d0e3200a041a72f8a19e6bc08c882e5d0d9d68f44e946238d046c0cbb715dcf",
  "args": [
    "0x0e09fabb73bd3ade0a17ecc321fd13a19e81ce82",
    "0x6a661312938d22a2a0e27f585073e4406903990a",
    "0x89b8aa89fdd0507a99d334cbe3c808fafc7d850e",
    "0xbb4CdB9CBd36B01bD1cBaEBF2De08d9173bc095c",
    "0xf4c8e32eadec4bfe97e0f595add0f4450a863a11"
  ],
  "numDeployments": 1,
  "solcInputHash": "9326df4f4c0627ea5e7f6f63ba84ba86",
  "bytecode": "0x61012060405234801561001157600080fd5b50604051611b6f380380611b6f833981016040819052610030916101f1565b60016002556001600160a01b0380861660a05284811660c05281811660e05282811661010052831660805261006660003361009c565b506100917f97667070c54ef182b0f5858b034beac1b6f3089aa2d3188bb1e8929f4fa9b9293361009c565b505050505050610256565b6000806100a984846100d4565b905080156100cb5760008481526001602052604090206100c9908461017e565b505b90505b92915050565b6000828152602081815260408083206001600160a01b038516845290915281205460ff16610176576000838152602081815260408083206001600160a01b03861684529091529020805460ff1916600117905561012e3390565b6001600160a01b0316826001600160a01b0316847f2f8788117e7eff1d82e926ec794901d17c78024a50270940304540a733656f0d60405160405180910390a45060016100ce565b5060006100ce565b60006100cb836001600160a01b0384166000818152600183016020526040812054610176575081546001818101845560008481526020808220909301849055845484825282860190935260409020919091556100ce565b80516001600160a01b03811681146101ec57600080fd5b919050565b600080600080600060a0868803121561020957600080fd5b610212866101d5565b9450610220602087016101d5565b935061022e604087016101d5565b925061023c606087016101d5565b915061024a608087016101d5565b90509295509295909350565b60805160a05160c05160e051610100516118966102d9600039600081816101db015261052a01526000818161035201528181610b670152610c8f0152600081816105c901528181610ad90152610c3b0152600081816103fa01528181610a430152610be70152600081816103c6015281816108b6015261096001526118966000f3fe60806040526004361061019a5760003560e01c80639010d07c116100e1578063ad5c46481161008a578063d547741f11610064578063d547741f14610582578063e1171567146105a2578063f3a1c9d9146105b7578063f5b541a6146105eb57600080fd5b8063ad5c464814610518578063c6890f7d1461054c578063ca15c8731461056257600080fd5b8063a217fddf116100bb578063a217fddf146104b6578063a3246ad3146104cb578063a3d409fe146104f857600080fd5b80639010d07c1461043257806391d14854146104525780639e1daa9c1461049657600080fd5b80632ba14d631161014357806349df106b1161011d57806349df106b146103b45780634ca6ef28146103e85780636b0503ba1461041c57600080fd5b80632ba14d63146103405780632f2ff15d1461037457806336568abe1461039457600080fd5b8063245a4e7211610174578063245a4e72146102d6578063248a9ca3146102f057806326969b5f1461032057600080fd5b806301ffc9a71461024f57806303fd2a4514610284578063104b1d5d146102b257600080fd5b3661024a5734156101d9576040513481527f27f12abfe35860a9a927b465bb3d4a9c23c8428174b83f278fe45ed7b4da26629060200160405180910390a15b7f00000000000000000000000000000000000000000000000000000000000000006001600160a01b031663d0e30db0346040518263ffffffff1660e01b81526004016000604051808303818588803b15801561023457600080fd5b505af1158015610248573d6000803e3d6000fd5b005b600080fd5b34801561025b57600080fd5b5061026f61026a3660046114e5565b61061f565b60405190151581526020015b60405180910390f35b34801561029057600080fd5b5061029a61dead81565b6040516001600160a01b03909116815260200161027b565b3480156102be57600080fd5b506102c860045481565b60405190815260200161027b565b3480156102e257600080fd5b5060065461026f9060ff1681565b3480156102fc57600080fd5b506102c861030b366004611527565b60009081526020819052604090206001015490565b34801561032c57600080fd5b5061024861033b366004611555565b61067b565b34801561034c57600080fd5b5061029a7f000000000000000000000000000000000000000000000000000000000000000081565b34801561038057600080fd5b5061024861038f366004611581565b61073d565b3480156103a057600080fd5b506102486103af366004611581565b610768565b3480156103c057600080fd5b5061029a7f000000000000000000000000000000000000000000000000000000000000000081565b3480156103f457600080fd5b5061029a7f000000000000000000000000000000000000000000000000000000000000000081565b34801561042857600080fd5b506102c860055481565b34801561043e57600080fd5b5061029a61044d3660046115b1565b6107b9565b34801561045e57600080fd5b5061026f61046d366004611581565b6000918252602082815260408084206001600160a01b0393909316845291905290205460ff1690565b3480156104a257600080fd5b506102486104b1366004611642565b6107d8565b3480156104c257600080fd5b506102c8600081565b3480156104d757600080fd5b506104eb6104e6366004611527565b610d18565b60405161027b9190611761565b34801561050457600080fd5b50610248610513366004611527565b610d32565b34801561052457600080fd5b5061029a7f000000000000000000000000000000000000000000000000000000000000000081565b34801561055857600080fd5b506102c860035481565b34801561056e57600080fd5b506102c861057d366004611527565b610e55565b34801561058e57600080fd5b5061024861059d366004611581565b610e6c565b3480156105ae57600080fd5b50610248610e91565b3480156105c357600080fd5b5061029a7f000000000000000000000000000000000000000000000000000000000000000081565b3480156105f757600080fd5b506102c87f97667070c54ef182b0f5858b034beac1b6f3089aa2d3188bb1e8929f4fa9b92981565b60007fffffffff0000000000000000000000000000000000000000000000000000000082167f5a05180f000000000000000000000000000000000000000000000000000000001480610675575061067582610eea565b92915050565b600061068681610f81565b6001600160a01b0383166106e15760405162461bcd60e51b815260206004820152601560248201527f496e76616c696420746f6b656e2061646472657373000000000000000000000060448201526064015b60405180910390fd5b6106f56001600160a01b0384163384610f8e565b604080516001600160a01b0385168152602081018490527f9381e53ffdc9733a6783a6f8665be3f89c231bb81a6771996ed553b4e75c0fe391015b60405180910390a1505050565b60008281526020819052604090206001015461075881610f81565b610762838361100e565b50505050565b6001600160a01b03811633146107aa576040517f6697b23200000000000000000000000000000000000000000000000000000000815260040160405180910390fd5b6107b48282611043565b505050565b60008281526001602052604081206107d19083611070565b9392505050565b6107e061107c565b7f97667070c54ef182b0f5858b034beac1b6f3089aa2d3188bb1e8929f4fa9b92961080a81610f81565b60065460ff161561085d5760405162461bcd60e51b815260206004820152601260248201527f5377617070696e6720697320706175736564000000000000000000000000000060448201526064016106d8565b60005b845181101561095b5784818151811061087b5761087b6117ad565b60209081029190910101516040517f095ea7b30000000000000000000000000000000000000000000000000000000081526001600160a01b037f0000000000000000000000000000000000000000000000000000000000000000811660048301527fffffffffffffffffffffffffffffffffffffffffffffffffffffffffffffffff60248301529091169063095ea7b3906044016020604051808303816000875af115801561092e573d6000803e3d6000fd5b505050506040513d601f19601f8201168201806040525081019061095291906117c3565b50600101610860565b5060007f00000000000000000000000000000000000000000000000000000000000000006001600160a01b031684846040516109989291906117e5565b6000604051808303816000865af19150503d80600081146109d5576040519150601f19603f3d011682016040523d82523d6000602084013e6109da565b606091505b5050905080610a2b5760405162461bcd60e51b815260206004820152600b60248201527f53776170206661696c656400000000000000000000000000000000000000000060448201526064016106d8565b6040516370a0823160e01b81523060048201526000907f00000000000000000000000000000000000000000000000000000000000000006001600160a01b0316906370a0823190602401602060405180830381865afa158015610a92573d6000803e3d6000fd5b505050506040513d601f19601f82011682018060405250810190610ab691906117f5565b6040516370a0823160e01b81523060048201529091506000906001600160a01b037f000000000000000000000000000000000000000000000000000000000000000016906370a0823190602401602060405180830381865afa158015610b20573d6000803e3d6000fd5b505050506040513d601f19601f82011682018060405250810190610b4491906117f5565b6040516370a0823160e01b81523060048201529091506000906001600160a01b037f000000000000000000000000000000000000000000000000000000000000000016906370a0823190602401602060405180830381865afa158015610bae573d6000803e3d6000fd5b505050506040513d601f19601f82011682018060405250810190610bd291906117f5565b90508215610c2857610c106001600160a01b037f00000000000000000000000000000000000000000000000000000000000000001661dead85610f8e565b8260036000828254610c229190611824565b90915550505b8115610c7c57610c646001600160a01b037f00000000000000000000000000000000000000000000000000000000000000001661dead84610f8e565b8160046000828254610c769190611824565b90915550505b8015610cd057610cb86001600160a01b037f00000000000000000000000000000000000000000000000000000000000000001661dead83610f8e565b8060056000828254610cca9190611824565b90915550505b60408051848152602081018490527fc464fdce7a0e5a4d78f5ee58872850db207f393238be3832a66026c4999d9b55910160405180910390a150505050506107b46001600255565b6000818152600160205260409020606090610675906110bd565b6000610d3d81610f81565b47821115610d8d5760405162461bcd60e51b815260206004820152601860248201527f496e73756666696369656e74204554482062616c616e6365000000000000000060448201526064016106d8565b604051600090339084908381818185875af1925050503d8060008114610dcf576040519150601f19603f3d011682016040523d82523d6000602084013e610dd4565b606091505b5050905080610e255760405162461bcd60e51b815260206004820152601360248201527f455448207472616e73666572206661696c65640000000000000000000000000060448201526064016106d8565b6040518381527fcd8923373bd045cdc9c3e88dd2bb2bc2c41aef18772b927e19960c175d939daa90602001610730565b6000818152600160205260408120610675906110ca565b600082815260208190526040902060010154610e8781610f81565b6107628383611043565b6000610e9c81610f81565b6006805460ff8082161560ff1990921682179092556040519116151581527f5f9e9f0e5251e145a1b67da55b592254ec0c92ec6df4f51210052fec6e07a0019060200160405180910390a150565b60007fffffffff0000000000000000000000000000000000000000000000000000000082167f7965db0b00000000000000000000000000000000000000000000000000000000148061067557507f01ffc9a7000000000000000000000000000000000000000000000000000000007fffffffff00000000000000000000000000000000000000000000000000000000831614610675565b610f8b81336110d4565b50565b604080516001600160a01b038416602482015260448082018490528251808303909101815260649091019091526020810180517bffffffffffffffffffffffffffffffffffffffffffffffffffffffff167fa9059cbb000000000000000000000000000000000000000000000000000000001790526107b4908490611144565b60008061101b84846111ce565b905080156107d157600084815260016020526040902061103b9084611278565b509392505050565b600080611050848461128d565b905080156107d157600084815260016020526040902061103b9084611310565b60006107d18383611325565b60028054036110b7576040517f3ee5aeb500000000000000000000000000000000000000000000000000000000815260040160405180910390fd5b60028055565b606060006107d18361134f565b6000610675825490565b6000828152602081815260408083206001600160a01b038516845290915290205460ff16611140576040517fe2517d3f0000000000000000000000000000000000000000000000000000000081526001600160a01b0382166004820152602481018390526044016106d8565b5050565b600080602060008451602086016000885af180611167576040513d6000823e3d81fd5b50506000513d9150811561117f57806001141561118c565b6001600160a01b0384163b155b15610762576040517f5274afe70000000000000000000000000000000000000000000000000000000081526001600160a01b03851660048201526024016106d8565b6000828152602081815260408083206001600160a01b038516845290915281205460ff16611270576000838152602081815260408083206001600160a01b03861684529091529020805460ff191660011790556112283390565b6001600160a01b0316826001600160a01b0316847f2f8788117e7eff1d82e926ec794901d17c78024a50270940304540a733656f0d60405160405180910390a4506001610675565b506000610675565b60006107d1836001600160a01b0384166113ab565b6000828152602081815260408083206001600160a01b038516845290915281205460ff1615611270576000838152602081815260408083206001600160a01b0386168085529252808320805460ff1916905551339286917ff6391f5c32d9c69d2a47ea670b442974b53935d1edc7fd64eb21e047a839171b9190a4506001610675565b60006107d1836001600160a01b0384166113f2565b600082600001828154811061133c5761133c6117ad565b9060005260206000200154905092915050565b60608160000180548060200260200160405190810160405280929190818152602001828054801561139f57602002820191906000526020600020905b81548152602001906001019080831161138b575b50505050509050919050565b600081815260018301602052604081205461127057508154600181810184556000848152602080822090930184905584548482528286019093526040902091909155610675565b600081815260018301602052604081205480156114db576000611416600183611837565b855490915060009061142a90600190611837565b905080821461148f57600086600001828154811061144a5761144a6117ad565b906000526020600020015490508087600001848154811061146d5761146d6117ad565b6000918252602080832090910192909255918252600188019052604090208390555b85548690806114a0576114a061184a565b600190038181906000526020600020016000905590558560010160008681526020019081526020016000206000905560019350505050610675565b6000915050610675565b6000602082840312156114f757600080fd5b81357fffffffff00000000000000000000000000000000000000000000000000000000811681146107d157600080fd5b60006020828403121561153957600080fd5b5035919050565b6001600160a01b0381168114610f8b57600080fd5b6000806040838503121561156857600080fd5b823561157381611540565b946020939093013593505050565b6000806040838503121561159457600080fd5b8235915060208301356115a681611540565b809150509250929050565b600080604083850312156115c457600080fd5b50508035926020909101359150565b634e487b7160e01b600052604160045260246000fd5b80356115f481611540565b919050565b60008083601f84011261160b57600080fd5b50813567ffffffffffffffff81111561162357600080fd5b60208301915083602082850101111561163b57600080fd5b9250929050565b60008060006040848603121561165757600080fd5b833567ffffffffffffffff81111561166e57600080fd5b8401601f8101861361167f57600080fd5b803567ffffffffffffffff811115611699576116996115d3565b8060051b6040517fffffffffffffffffffffffffffffffffffffffffffffffffffffffffffffffe0603f830116810181811067ffffffffffffffff821117156116e4576116e46115d3565b60405291825260208184018101929081018984111561170257600080fd5b6020850194505b838510156117285761171a856115e9565b815260209485019401611709565b509550505050602084013567ffffffffffffffff81111561174857600080fd5b611754868287016115f9565b9497909650939450505050565b602080825282518282018190526000918401906040840190835b818110156117a25783516001600160a01b031683526020938401939092019160010161177b565b509095945050505050565b634e487b7160e01b600052603260045260246000fd5b6000602082840312156117d557600080fd5b815180151581146107d157600080fd5b8183823760009101908152919050565b60006020828403121561180757600080fd5b5051919050565b634e487b7160e01b600052601160045260246000fd5b808201808211156106755761067561180e565b818103818111156106755761067561180e565b634e487b7160e01b600052603160045260246000fdfea264697066735822122045dfd872f70d29204f35b74a9e5eeb61aa78c05c50436e2fe30814702473012c64736f6c634300081c0033",
  "devdoc": {
    "errors": {
      "AccessControlBadConfirmation()": [
        {
          "details": "The caller of a function is not the expected one. NOTE: Don't confuse with {AccessControlUnauthorizedAccount}."
        }
      ],
      "AccessControlUnauthorizedAccount(address,bytes32)": [
        {
          "details": "The `account` is missing a role."
        }
      ],
      "ReentrancyGuardReentrantCall()": [
        {
          "details": "Unauthorized reentrant call."
        }
      ],
      "SafeERC20FailedOperation(address)": [
        {
          "details": "An operation with an ERC-20 token failed."
        }
      ]
    },
    "events": {
      "ETHCollected(uint256)": {
        "params": {
          "amount": "Amount of ETH collected"
        }
      },
      "ETHReceived(uint256)": {
        "params": {
          "amount": "Amount of ETH received"
        }
      },
      "FeesSwapped(uint256,uint256)": {
        "params": {
          "cakeAmount": "Amount of CAKE tokens burned",
          "mahaAmount": "Amount of MAHA tokens burned"
        }
      },
      "RoleAdminChanged(bytes32,bytes32,bytes32)": {
        "details": "Emitted when `newAdminRole` is set as ``role``'s admin role, replacing `previousAdminRole` `DEFAULT_ADMIN_ROLE` is the starting admin for all roles, despite {RoleAdminChanged} not being emitted signaling this."
      },
      "RoleGranted(bytes32,address,address)": {
        "details": "Emitted when `account` is granted `role`. `sender` is the account that originated the contract call. This account bears the admin role (for the granted role). Expected in cases where the role was granted using the internal {AccessControl-_grantRole}."
      },
      "RoleRevoked(bytes32,address,address)": {
        "details": "Emitted when `account` is revoked `role`. `sender` is the account that originated the contract call:   - if using `revokeRole`, it is the admin role bearer   - if using `renounceRole`, it is the role bearer (i.e. `account`)"
      },
      "SwapPausedToggled(bool)": {
        "params": {
          "isPaused": "New pause state"
        }
      },
      "TokensCollected(address,uint256)": {
        "params": {
          "amount": "Amount collected",
          "token": "Address of collected token"
        }
      }
    },
    "kind": "dev",
    "methods": {
      "collectETH(uint256)": {
        "details": "Can only be called by admin",
        "params": {
          "amount": "Amount of ETH to collect"
        }
      },
      "collectToken(address,uint256)": {
        "details": "Can only be called by admin",
        "params": {
          "amount": "Amount of tokens to collect",
          "token": "Address of token to collect"
        }
      },
      "constructor": {
        "params": {
          "_cake": "Address of CAKE token",
          "_maha": "Address of MAHA token",
          "_odos": "Address of ODOS router",
          "_thena": "Address of THENA token",
          "_weth": "Address of WETH token"
        }
      },
      "getRoleAdmin(bytes32)": {
        "details": "Returns the admin role that controls `role`. See {grantRole} and {revokeRole}. To change a role's admin, use {_setRoleAdmin}."
      },
      "getRoleMember(bytes32,uint256)": {
        "details": "Returns one of the accounts that have `role`. `index` must be a value between 0 and {getRoleMemberCount}, non-inclusive. Role bearers are not sorted in any particular way, and their ordering may change at any point. WARNING: When using {getRoleMember} and {getRoleMemberCount}, make sure you perform all queries on the same block. See the following https://forum.openzeppelin.com/t/iterating-over-elements-on-enumerableset-in-openzeppelin-contracts/2296[forum post] for more information."
      },
      "getRoleMemberCount(bytes32)": {
        "details": "Returns the number of accounts that have `role`. Can be used together with {getRoleMember} to enumerate all bearers of a role."
      },
      "getRoleMembers(bytes32)": {
        "details": "Return all accounts that have `role` WARNING: This operation will copy the entire storage to memory, which can be quite expensive. This is designed to mostly be used by view accessors that are queried without any gas fees. Developers should keep in mind that this function has an unbounded cost, and using it as part of a state-changing function may render the function uncallable if the set grows to a point where copying to memory consumes too much gas to fit in a block."
      },
      "grantRole(bytes32,address)": {
        "details": "Grants `role` to `account`. If `account` had not been already granted `role`, emits a {RoleGranted} event. Requirements: - the caller must have ``role``'s admin role. May emit a {RoleGranted} event."
      },
      "hasRole(bytes32,address)": {
        "details": "Returns `true` if `account` has been granted `role`."
      },
      "renounceRole(bytes32,address)": {
        "details": "Revokes `role` from the calling account. Roles are often managed via {grantRole} and {revokeRole}: this function's purpose is to provide a mechanism for accounts to lose their privileges if they are compromised (such as when a trusted device is misplaced). If the calling account had been revoked `role`, emits a {RoleRevoked} event. Requirements: - the caller must be `callerConfirmation`. May emit a {RoleRevoked} event."
      },
      "revokeRole(bytes32,address)": {
        "details": "Revokes `role` from `account`. If `account` had been granted `role`, emits a {RoleRevoked} event. Requirements: - the caller must have ``role``'s admin role. May emit a {RoleRevoked} event."
      },
      "supportsInterface(bytes4)": {
        "details": "See {IERC165-supportsInterface}."
      },
      "swapFeesToTargets(address[],bytes)": {
        "details": "Can only be called by operator when not paused",
        "params": {
          "_tokens": "Array of token addresses to swap",
          "odosSwapData": "Encoded swap data for ODOS router"
        }
      },
      "toggleSwapPause()": {
        "details": "Can only be called by admin"
      }
    },
    "title": "FeeCollector - Contract for collecting and burning fees in CAKE and MAHA tokens",
    "version": 1
  },
  "userdoc": {
    "events": {
      "ETHCollected(uint256)": {
        "notice": "Emitted when ETH is collected by admin"
      },
      "ETHReceived(uint256)": {
        "notice": "Emitted when ETH is received by the contract"
      },
      "FeesSwapped(uint256,uint256)": {
        "notice": "Emitted when fees are swapped and burned"
      },
      "SwapPausedToggled(bool)": {
        "notice": "Emitted when swap pause state is toggled"
      },
      "TokensCollected(address,uint256)": {
        "notice": "Emitted when tokens are collected by admin"
      }
    },
    "kind": "user",
    "methods": {
      "CAKE()": {
        "notice": "CAKE token contract"
      },
      "DEAD()": {
        "notice": "Dead address where tokens are sent to be burned"
      },
      "MAHA()": {
        "notice": "MAHA token contract"
      },
      "ODOS()": {
        "notice": "Address of the ODOS router contract"
      },
      "OPERATOR_ROLE()": {
        "notice": "Role identifier for operators who can execute fee swaps"
      },
      "THENA()": {
        "notice": "THENA token contract"
      },
      "WETH()": {
        "notice": "WETH token contract"
      },
      "cakeBurnt()": {
        "notice": "Total amount of CAKE tokens that have been burned"
      },
      "collectETH(uint256)": {
        "notice": "Allows admin to collect ETH from the contract"
      },
      "collectToken(address,uint256)": {
        "notice": "Allows admin to collect any tokens from the contract"
      },
      "constructor": {
        "notice": "Initializes the contract with token addresses"
      },
      "mahaBurnt()": {
        "notice": "Total amount of MAHA tokens that have been burned"
      },
      "swapFeesToTargets(address[],bytes)": {
        "notice": "Swaps collected fees to CAKE and MAHA and burns them"
      },
      "swapPaused()": {
        "notice": "Flag indicating if swapping is currently paused"
      },
      "thenaBurnt()": {
        "notice": "Total amount of THENA tokens that have been burned"
      },
      "toggleSwapPause()": {
        "notice": "Toggles the pause state for swapping"
      }
    },
    "notice": "Handles fee collection, swapping via ODOS, and burning of tokens",
    "version": 1
  },
  "storageLayout": {
    "storage": [
      {
        "astId": 2125,
        "contract": "contracts/FeeCollector.sol:FeeCollector",
        "label": "_roles",
        "offset": 0,
        "slot": "0",
        "type": "t_mapping(t_bytes32,t_struct(RoleData)2120_storage)"
      },
      {
        "astId": 2647,
        "contract": "contracts/FeeCollector.sol:FeeCollector",
        "label": "_roleMembers",
        "offset": 0,
        "slot": "1",
        "type": "t_mapping(t_bytes32,t_struct(AddressSet)12037_storage)"
      },
      {
        "astId": 5197,
        "contract": "contracts/FeeCollector.sol:FeeCollector",
        "label": "_status",
        "offset": 0,
        "slot": "2",
        "type": "t_uint256"
      },
      {
        "astId": 14647,
        "contract": "contracts/FeeCollector.sol:FeeCollector",
        "label": "cakeBurnt",
        "offset": 0,
        "slot": "3",
        "type": "t_uint256"
      },
      {
        "astId": 14650,
        "contract": "contracts/FeeCollector.sol:FeeCollector",
        "label": "mahaBurnt",
        "offset": 0,
        "slot": "4",
        "type": "t_uint256"
      },
      {
        "astId": 14653,
        "contract": "contracts/FeeCollector.sol:FeeCollector",
        "label": "thenaBurnt",
        "offset": 0,
        "slot": "5",
        "type": "t_uint256"
      },
      {
        "astId": 14656,
        "contract": "contracts/FeeCollector.sol:FeeCollector",
        "label": "swapPaused",
        "offset": 0,
        "slot": "6",
        "type": "t_bool"
      }
    ],
    "types": {
      "t_address": {
        "encoding": "inplace",
        "label": "address",
        "numberOfBytes": "20"
      },
      "t_array(t_bytes32)dyn_storage": {
        "base": "t_bytes32",
        "encoding": "dynamic_array",
        "label": "bytes32[]",
        "numberOfBytes": "32"
      },
      "t_bool": {
        "encoding": "inplace",
        "label": "bool",
        "numberOfBytes": "1"
      },
      "t_bytes32": {
        "encoding": "inplace",
        "label": "bytes32",
        "numberOfBytes": "32"
      },
      "t_mapping(t_address,t_bool)": {
        "encoding": "mapping",
        "key": "t_address",
        "label": "mapping(address => bool)",
        "numberOfBytes": "32",
        "value": "t_bool"
      },
      "t_mapping(t_bytes32,t_struct(AddressSet)12037_storage)": {
        "encoding": "mapping",
        "key": "t_bytes32",
        "label": "mapping(bytes32 => struct EnumerableSet.AddressSet)",
        "numberOfBytes": "32",
        "value": "t_struct(AddressSet)12037_storage"
      },
      "t_mapping(t_bytes32,t_struct(RoleData)2120_storage)": {
        "encoding": "mapping",
        "key": "t_bytes32",
        "label": "mapping(bytes32 => struct AccessControl.RoleData)",
        "numberOfBytes": "32",
        "value": "t_struct(RoleData)2120_storage"
      },
      "t_mapping(t_bytes32,t_uint256)": {
        "encoding": "mapping",
        "key": "t_bytes32",
        "label": "mapping(bytes32 => uint256)",
        "numberOfBytes": "32",
        "value": "t_uint256"
      },
      "t_struct(AddressSet)12037_storage": {
        "encoding": "inplace",
        "label": "struct EnumerableSet.AddressSet",
        "members": [
          {
            "astId": 12036,
            "contract": "contracts/FeeCollector.sol:FeeCollector",
            "label": "_inner",
            "offset": 0,
            "slot": "0",
            "type": "t_struct(Set)11722_storage"
          }
        ],
        "numberOfBytes": "64"
      },
      "t_struct(RoleData)2120_storage": {
        "encoding": "inplace",
        "label": "struct AccessControl.RoleData",
        "members": [
          {
            "astId": 2117,
            "contract": "contracts/FeeCollector.sol:FeeCollector",
            "label": "hasRole",
            "offset": 0,
            "slot": "0",
            "type": "t_mapping(t_address,t_bool)"
          },
          {
            "astId": 2119,
            "contract": "contracts/FeeCollector.sol:FeeCollector",
            "label": "adminRole",
            "offset": 0,
            "slot": "1",
            "type": "t_bytes32"
          }
        ],
        "numberOfBytes": "64"
      },
      "t_struct(Set)11722_storage": {
        "encoding": "inplace",
        "label": "struct EnumerableSet.Set",
        "members": [
          {
            "astId": 11717,
            "contract": "contracts/FeeCollector.sol:FeeCollector",
            "label": "_values",
            "offset": 0,
            "slot": "0",
            "type": "t_array(t_bytes32)dyn_storage"
          },
          {
            "astId": 11721,
            "contract": "contracts/FeeCollector.sol:FeeCollector",
            "label": "_positions",
            "offset": 0,
            "slot": "1",
            "type": "t_mapping(t_bytes32,t_uint256)"
          }
        ],
        "numberOfBytes": "64"
      },
      "t_uint256": {
        "encoding": "inplace",
        "label": "uint256",
        "numberOfBytes": "32"
      }
    }
  }
}