{
  "address": "0xe0f2D43b8A8316214b4581Ea32F563DdE2358E63",
  "abi": [
    {
      "inputs": [
        {
          "internalType": "address",
          "name": "_cake",
          "type": "address"
        },
        {
          "internalType": "address",
          "name": "_maha",
          "type": "address"
        },
        {
          "internalType": "address",
          "name": "_odos",
          "type": "address"
        },
        {
          "internalType": "address",
          "name": "_weth",
          "type": "address"
        }
      ],
      "stateMutability": "nonpayable",
      "type": "constructor"
    },
    {
      "inputs": [],
      "name": "AccessControlBadConfirmation",
      "type": "error"
    },
    {
      "inputs": [
        {
          "internalType": "address",
          "name": "account",
          "type": "address"
        },
        {
          "internalType": "bytes32",
          "name": "neededRole",
          "type": "bytes32"
        }
      ],
      "name": "AccessControlUnauthorizedAccount",
      "type": "error"
    },
    {
      "inputs": [],
      "name": "ReentrancyGuardReentrantCall",
      "type": "error"
    },
    {
      "inputs": [
        {
          "internalType": "address",
          "name": "token",
          "type": "address"
        }
      ],
      "name": "SafeERC20FailedOperation",
      "type": "error"
    },
    {
      "anonymous": false,
      "inputs": [
        {
          "indexed": false,
          "internalType": "uint256",
          "name": "amount",
          "type": "uint256"
        }
      ],
      "name": "ETHCollected",
      "type": "event"
    },
    {
      "anonymous": false,
      "inputs": [
        {
          "indexed": false,
          "internalType": "uint256",
          "name": "amount",
          "type": "uint256"
        }
      ],
      "name": "ETHReceived",
      "type": "event"
    },
    {
      "anonymous": false,
      "inputs": [
        {
          "indexed": false,
          "internalType": "uint256",
          "name": "cakeAmount",
          "type": "uint256"
        },
        {
          "indexed": false,
          "internalType": "uint256",
          "name": "mahaAmount",
          "type": "uint256"
        }
      ],
      "name": "FeesSwapped",
      "type": "event"
    },
    {
      "anonymous": false,
      "inputs": [
        {
          "indexed": true,
          "internalType": "bytes32",
          "name": "role",
          "type": "bytes32"
        },
        {
          "indexed": true,
          "internalType": "bytes32",
          "name": "previousAdminRole",
          "type": "bytes32"
        },
        {
          "indexed": true,
          "internalType": "bytes32",
          "name": "newAdminRole",
          "type": "bytes32"
        }
      ],
      "name": "RoleAdminChanged",
      "type": "event"
    },
    {
      "anonymous": false,
      "inputs": [
        {
          "indexed": true,
          "internalType": "bytes32",
          "name": "role",
          "type": "bytes32"
        },
        {
          "indexed": true,
          "internalType": "address",
          "name": "account",
          "type": "address"
        },
        {
          "indexed": true,
          "internalType": "address",
          "name": "sender",
          "type": "address"
        }
      ],
      "name": "RoleGranted",
      "type": "event"
    },
    {
      "anonymous": false,
      "inputs": [
        {
          "indexed": true,
          "internalType": "bytes32",
          "name": "role",
          "type": "bytes32"
        },
        {
          "indexed": true,
          "internalType": "address",
          "name": "account",
          "type": "address"
        },
        {
          "indexed": true,
          "internalType": "address",
          "name": "sender",
          "type": "address"
        }
      ],
      "name": "RoleRevoked",
      "type": "event"
    },
    {
      "anonymous": false,
      "inputs": [
        {
          "indexed": false,
          "internalType": "bool",
          "name": "isPaused",
          "type": "bool"
        }
      ],
      "name": "SwapPausedToggled",
      "type": "event"
    },
    {
      "anonymous": false,
      "inputs": [
        {
          "indexed": false,
          "internalType": "address",
          "name": "token",
          "type": "address"
        },
        {
          "indexed": false,
          "internalType": "uint256",
          "name": "amount",
          "type": "uint256"
        }
      ],
      "name": "TokensCollected",
      "type": "event"
    },
    {
      "inputs": [],
      "name": "CAKE",
      "outputs": [
        {
          "internalType": "contract IERC20",
          "name": "",
          "type": "address"
        }
      ],
      "stateMutability": "view",
      "type": "function"
    },
    {
      "inputs": [],
      "name": "DEAD",
      "outputs": [
        {
          "internalType": "address",
          "name": "",
          "type": "address"
        }
      ],
      "stateMutability": "view",
      "type": "function"
    },
    {
      "inputs": [],
      "name": "DEFAULT_ADMIN_ROLE",
      "outputs": [
        {
          "internalType": "bytes32",
          "name": "",
          "type": "bytes32"
        }
      ],
      "stateMutability": "view",
      "type": "function"
    },
    {
      "inputs": [],
      "name": "MAHA",
      "outputs": [
        {
          "internalType": "contract IERC20",
          "name": "",
          "type": "address"
        }
      ],
      "stateMutability": "view",
      "type": "function"
    },
    {
      "inputs": [],
      "name": "ODOS",
      "outputs": [
        {
          "internalType": "address",
          "name": "",
          "type": "address"
        }
      ],
      "stateMutability": "view",
      "type": "function"
    },
    {
      "inputs": [],
      "name": "OPERATOR_ROLE",
      "outputs": [
        {
          "internalType": "bytes32",
          "name": "",
          "type": "bytes32"
        }
      ],
      "stateMutability": "view",
      "type": "function"
    },
    {
      "inputs": [],
      "name": "WETH",
      "outputs": [
        {
          "internalType": "contract IWETH9",
          "name": "",
          "type": "address"
        }
      ],
      "stateMutability": "view",
      "type": "function"
    },
    {
      "inputs": [],
      "name": "cakeBurnt",
      "outputs": [
        {
          "internalType": "uint256",
          "name": "",
          "type": "uint256"
        }
      ],
      "stateMutability": "view",
      "type": "function"
    },
    {
      "inputs": [
        {
          "internalType": "uint256",
          "name": "amount",
          "type": "uint256"
        }
      ],
      "name": "collectETH",
      "outputs": [],
      "stateMutability": "nonpayable",
      "type": "function"
    },
    {
      "inputs": [
        {
          "internalType": "address",
          "name": "token",
          "type": "address"
        },
        {
          "internalType": "uint256",
          "name": "amount",
          "type": "uint256"
        }
      ],
      "name": "collectToken",
      "outputs": [],
      "stateMutability": "nonpayable",
      "type": "function"
    },
    {
      "inputs": [
        {
          "internalType": "bytes32",
          "name": "role",
          "type": "bytes32"
        }
      ],
      "name": "getRoleAdmin",
      "outputs": [
        {
          "internalType": "bytes32",
          "name": "",
          "type": "bytes32"
        }
      ],
      "stateMutability": "view",
      "type": "function"
    },
    {
      "inputs": [
        {
          "internalType": "bytes32",
          "name": "role",
          "type": "bytes32"
        },
        {
          "internalType": "uint256",
          "name": "index",
          "type": "uint256"
        }
      ],
      "name": "getRoleMember",
      "outputs": [
        {
          "internalType": "address",
          "name": "",
          "type": "address"
        }
      ],
      "stateMutability": "view",
      "type": "function"
    },
    {
      "inputs": [
        {
          "internalType": "bytes32",
          "name": "role",
          "type": "bytes32"
        }
      ],
      "name": "getRoleMemberCount",
      "outputs": [
        {
          "internalType": "uint256",
          "name": "",
          "type": "uint256"
        }
      ],
      "stateMutability": "view",
      "type": "function"
    },
    {
      "inputs": [
        {
          "internalType": "bytes32",
          "name": "role",
          "type": "bytes32"
        }
      ],
      "name": "getRoleMembers",
      "outputs": [
        {
          "internalType": "address[]",
          "name": "",
          "type": "address[]"
        }
      ],
      "stateMutability": "view",
      "type": "function"
    },
    {
      "inputs": [
        {
          "internalType": "bytes32",
          "name": "role",
          "type": "bytes32"
        },
        {
          "internalType": "address",
          "name": "account",
          "type": "address"
        }
      ],
      "name": "grantRole",
      "outputs": [],
      "stateMutability": "nonpayable",
      "type": "function"
    },
    {
      "inputs": [
        {
          "internalType": "bytes32",
          "name": "role",
          "type": "bytes32"
        },
        {
          "internalType": "address",
          "name": "account",
          "type": "address"
        }
      ],
      "name": "hasRole",
      "outputs": [
        {
          "internalType": "bool",
          "name": "",
          "type": "bool"
        }
      ],
      "stateMutability": "view",
      "type": "function"
    },
    {
      "inputs": [],
      "name": "mahaBurnt",
      "outputs": [
        {
          "internalType": "uint256",
          "name": "",
          "type": "uint256"
        }
      ],
      "stateMutability": "view",
      "type": "function"
    },
    {
      "inputs": [
        {
          "internalType": "bytes32",
          "name": "role",
          "type": "bytes32"
        },
        {
          "internalType": "address",
          "name": "callerConfirmation",
          "type": "address"
        }
      ],
      "name": "renounceRole",
      "outputs": [],
      "stateMutability": "nonpayable",
      "type": "function"
    },
    {
      "inputs": [
        {
          "internalType": "bytes32",
          "name": "role",
          "type": "bytes32"
        },
        {
          "internalType": "address",
          "name": "account",
          "type": "address"
        }
      ],
      "name": "revokeRole",
      "outputs": [],
      "stateMutability": "nonpayable",
      "type": "function"
    },
    {
      "inputs": [
        {
          "internalType": "bytes4",
          "name": "interfaceId",
          "type": "bytes4"
        }
      ],
      "name": "supportsInterface",
      "outputs": [
        {
          "internalType": "bool",
          "name": "",
          "type": "bool"
        }
      ],
      "stateMutability": "view",
      "type": "function"
    },
    {
      "inputs": [
        {
          "internalType": "contract IERC20[]",
          "name": "_tokens",
          "type": "address[]"
        },
        {
          "internalType": "bytes",
          "name": "odosSwapData",
          "type": "bytes"
        }
      ],
      "name": "swapFeesToTargets",
      "outputs": [],
      "stateMutability": "nonpayable",
      "type": "function"
    },
    {
      "inputs": [],
      "name": "swapPaused",
      "outputs": [
        {
          "internalType": "bool",
          "name": "",
          "type": "bool"
        }
      ],
      "stateMutability": "view",
      "type": "function"
    },
    {
      "inputs": [],
      "name": "toggleSwapPause",
      "outputs": [],
      "stateMutability": "nonpayable",
      "type": "function"
    },
    {
      "stateMutability": "payable",
      "type": "receive"
    }
  ],
  "transactionHash": "0x263d1416b321816ac960a436835bb75c594f8a204551631df704cc150d42d6e2",
  "args": [
    "0x0e09fabb73bd3ade0a17ecc321fd13a19e81ce82",
    "0x6a661312938d22a2a0e27f585073e4406903990a",
    "0x89b8aa89fdd0507a99d334cbe3c808fafc7d850e",
    "0xbb4CdB9CBd36B01bD1cBaEBF2De08d9173bc095c"
  ],
  "numDeployments": 1,
  "solcInputHash": "13313c6c6f08572ebb7e7e1a6d133abf",
  "bytecode": "0x61010060405234801561001157600080fd5b5060405161195e38038061195e833981016040819052610030916101e9565b60016002556001600160a01b0380851660a05283811660c05281811660e052821660805261005f600033610094565b5061008a7f97667070c54ef182b0f5858b034beac1b6f3089aa2d3188bb1e8929f4fa9b92933610094565b505050505061023d565b6000806100a184846100cc565b905080156100c35760008481526001602052604090206100c19084610176565b505b90505b92915050565b6000828152602081815260408083206001600160a01b038516845290915281205460ff1661016e576000838152602081815260408083206001600160a01b03861684529091529020805460ff191660011790556101263390565b6001600160a01b0316826001600160a01b0316847f2f8788117e7eff1d82e926ec794901d17c78024a50270940304540a733656f0d60405160405180910390a45060016100c6565b5060006100c6565b60006100c3836001600160a01b038416600081815260018301602052604081205461016e575081546001818101845560008481526020808220909301849055845484825282860190935260409020919091556100c6565b80516001600160a01b03811681146101e457600080fd5b919050565b600080600080608085870312156101ff57600080fd5b610208856101cd565b9350610216602086016101cd565b9250610224604086016101cd565b9150610232606086016101cd565b905092959194509250565b60805160a05160c05160e0516116b76102a7600039600081816101c501526104ca01526000818161056901528181610a430152610b170152600081816103b0015281816109ad0152610ac301526000818161037c0152818161083e01526108ca01526116b76000f3fe6080604052600436106101845760003560e01c806391d14854116100d6578063c6890f7d1161007f578063e117156711610059578063e117156714610542578063f3a1c9d914610557578063f5b541a61461058b57600080fd5b8063c6890f7d146104ec578063ca15c87314610502578063d547741f1461052257600080fd5b8063a3246ad3116100b0578063a3246ad31461046b578063a3d409fe14610498578063ad5c4648146104b857600080fd5b806391d14854146103f25780639e1daa9c14610436578063a217fddf1461045657600080fd5b806326969b5f1161013857806349df106b1161011257806349df106b1461036a5780634ca6ef281461039e5780639010d07c146103d257600080fd5b806326969b5f1461030a5780632f2ff15d1461032a57806336568abe1461034a57600080fd5b8063104b1d5d11610169578063104b1d5d1461029c578063245a4e72146102c0578063248a9ca3146102da57600080fd5b806301ffc9a71461023957806303fd2a451461026e57600080fd5b366102345734156101c3576040513481527f27f12abfe35860a9a927b465bb3d4a9c23c8428174b83f278fe45ed7b4da26629060200160405180910390a15b7f00000000000000000000000000000000000000000000000000000000000000006001600160a01b031663d0e30db0346040518263ffffffff1660e01b81526004016000604051808303818588803b15801561021e57600080fd5b505af1158015610232573d6000803e3d6000fd5b005b600080fd5b34801561024557600080fd5b5061025961025436600461133c565b6105bf565b60405190151581526020015b60405180910390f35b34801561027a57600080fd5b5061028461dead81565b6040516001600160a01b039091168152602001610265565b3480156102a857600080fd5b506102b260045481565b604051908152602001610265565b3480156102cc57600080fd5b506005546102599060ff1681565b3480156102e657600080fd5b506102b26102f5366004611366565b60009081526020819052604090206001015490565b34801561031657600080fd5b50610232610325366004611394565b610603565b34801561033657600080fd5b506102326103453660046113c0565b6106c5565b34801561035657600080fd5b506102326103653660046113c0565b6106f0565b34801561037657600080fd5b506102847f000000000000000000000000000000000000000000000000000000000000000081565b3480156103aa57600080fd5b506102847f000000000000000000000000000000000000000000000000000000000000000081565b3480156103de57600080fd5b506102846103ed3660046113f0565b610741565b3480156103fe57600080fd5b5061025961040d3660046113c0565b6000918252602082815260408084206001600160a01b0393909316845291905290205460ff1690565b34801561044257600080fd5b50610232610451366004611481565b610760565b34801561046257600080fd5b506102b2600081565b34801561047757600080fd5b5061048b610486366004611366565b610b9f565b6040516102659190611582565b3480156104a457600080fd5b506102326104b3366004611366565b610bb9565b3480156104c457600080fd5b506102847f000000000000000000000000000000000000000000000000000000000000000081565b3480156104f857600080fd5b506102b260035481565b34801561050e57600080fd5b506102b261051d366004611366565b610cdc565b34801561052e57600080fd5b5061023261053d3660046113c0565b610cf3565b34801561054e57600080fd5b50610232610d18565b34801561056357600080fd5b506102847f000000000000000000000000000000000000000000000000000000000000000081565b34801561059757600080fd5b506102b27f97667070c54ef182b0f5858b034beac1b6f3089aa2d3188bb1e8929f4fa9b92981565b60006001600160e01b031982167f5a05180f0000000000000000000000000000000000000000000000000000000014806105fd57506105fd82610d71565b92915050565b600061060e81610dd8565b6001600160a01b0383166106695760405162461bcd60e51b815260206004820152601560248201527f496e76616c696420746f6b656e2061646472657373000000000000000000000060448201526064015b60405180910390fd5b61067d6001600160a01b0384163384610de5565b604080516001600160a01b0385168152602081018490527f9381e53ffdc9733a6783a6f8665be3f89c231bb81a6771996ed553b4e75c0fe391015b60405180910390a1505050565b6000828152602081905260409020600101546106e081610dd8565b6106ea8383610e65565b50505050565b6001600160a01b0381163314610732576040517f6697b23200000000000000000000000000000000000000000000000000000000815260040160405180910390fd5b61073c8282610e9a565b505050565b60008281526001602052604081206107599083610ec7565b9392505050565b610768610ed3565b7f97667070c54ef182b0f5858b034beac1b6f3089aa2d3188bb1e8929f4fa9b92961079281610dd8565b60055460ff16156107e55760405162461bcd60e51b815260206004820152601260248201527f5377617070696e672069732070617573656400000000000000000000000000006044820152606401610660565b60005b84518110156108c557848181518110610803576108036115ce565b60209081029190910101516040517f095ea7b30000000000000000000000000000000000000000000000000000000081526001600160a01b037f00000000000000000000000000000000000000000000000000000000000000008116600483015260001960248301529091169063095ea7b3906044016020604051808303816000875af1158015610898573d6000803e3d6000fd5b505050506040513d601f19601f820116820180604052508101906108bc91906115e4565b506001016107e8565b5060007f00000000000000000000000000000000000000000000000000000000000000006001600160a01b03168484604051610902929190611606565b6000604051808303816000865af19150503d806000811461093f576040519150601f19603f3d011682016040523d82523d6000602084013e610944565b606091505b50509050806109955760405162461bcd60e51b815260206004820152600b60248201527f53776170206661696c65640000000000000000000000000000000000000000006044820152606401610660565b6040516370a0823160e01b81523060048201526000907f00000000000000000000000000000000000000000000000000000000000000006001600160a01b0316906370a0823190602401602060405180830381865afa1580156109fc573d6000803e3d6000fd5b505050506040513d601f19601f82011682018060405250810190610a209190611616565b6040516370a0823160e01b81523060048201529091506000906001600160a01b037f000000000000000000000000000000000000000000000000000000000000000016906370a0823190602401602060405180830381865afa158015610a8a573d6000803e3d6000fd5b505050506040513d601f19601f82011682018060405250810190610aae9190611616565b90508115610b0457610aec6001600160a01b037f00000000000000000000000000000000000000000000000000000000000000001661dead84610de5565b8160036000828254610afe9190611645565b90915550505b8015610b5857610b406001600160a01b037f00000000000000000000000000000000000000000000000000000000000000001661dead83610de5565b8060046000828254610b529190611645565b90915550505b60408051838152602081018390527fc464fdce7a0e5a4d78f5ee58872850db207f393238be3832a66026c4999d9b55910160405180910390a15050505061073c6001600255565b60008181526001602052604090206060906105fd90610f14565b6000610bc481610dd8565b47821115610c145760405162461bcd60e51b815260206004820152601860248201527f496e73756666696369656e74204554482062616c616e636500000000000000006044820152606401610660565b604051600090339084908381818185875af1925050503d8060008114610c56576040519150601f19603f3d011682016040523d82523d6000602084013e610c5b565b606091505b5050905080610cac5760405162461bcd60e51b815260206004820152601360248201527f455448207472616e73666572206661696c6564000000000000000000000000006044820152606401610660565b6040518381527fcd8923373bd045cdc9c3e88dd2bb2bc2c41aef18772b927e19960c175d939daa906020016106b8565b60008181526001602052604081206105fd90610f21565b600082815260208190526040902060010154610d0e81610dd8565b6106ea8383610e9a565b6000610d2381610dd8565b6005805460ff8082161560ff1990921682179092556040519116151581527f5f9e9f0e5251e145a1b67da55b592254ec0c92ec6df4f51210052fec6e07a0019060200160405180910390a150565b60006001600160e01b031982167f7965db0b0000000000000000000000000000000000000000000000000000000014806105fd57507f01ffc9a7000000000000000000000000000000000000000000000000000000006001600160e01b03198316146105fd565b610de28133610f2b565b50565b604080516001600160a01b038416602482015260448082018490528251808303909101815260649091019091526020810180517bffffffffffffffffffffffffffffffffffffffffffffffffffffffff167fa9059cbb0000000000000000000000000000000000000000000000000000000017905261073c908490610f9b565b600080610e728484611025565b90508015610759576000848152600160205260409020610e9290846110cf565b509392505050565b600080610ea784846110e4565b90508015610759576000848152600160205260409020610e929084611167565b6000610759838361117c565b6002805403610f0e576040517f3ee5aeb500000000000000000000000000000000000000000000000000000000815260040160405180910390fd5b60028055565b60606000610759836111a6565b60006105fd825490565b6000828152602081815260408083206001600160a01b038516845290915290205460ff16610f97576040517fe2517d3f0000000000000000000000000000000000000000000000000000000081526001600160a01b038216600482015260248101839052604401610660565b5050565b600080602060008451602086016000885af180610fbe576040513d6000823e3d81fd5b50506000513d91508115610fd6578060011415610fe3565b6001600160a01b0384163b155b156106ea576040517f5274afe70000000000000000000000000000000000000000000000000000000081526001600160a01b0385166004820152602401610660565b6000828152602081815260408083206001600160a01b038516845290915281205460ff166110c7576000838152602081815260408083206001600160a01b03861684529091529020805460ff1916600117905561107f3390565b6001600160a01b0316826001600160a01b0316847f2f8788117e7eff1d82e926ec794901d17c78024a50270940304540a733656f0d60405160405180910390a45060016105fd565b5060006105fd565b6000610759836001600160a01b038416611202565b6000828152602081815260408083206001600160a01b038516845290915281205460ff16156110c7576000838152602081815260408083206001600160a01b0386168085529252808320805460ff1916905551339286917ff6391f5c32d9c69d2a47ea670b442974b53935d1edc7fd64eb21e047a839171b9190a45060016105fd565b6000610759836001600160a01b038416611249565b6000826000018281548110611193576111936115ce565b9060005260206000200154905092915050565b6060816000018054806020026020016040519081016040528092919081815260200182805480156111f657602002820191906000526020600020905b8154815260200190600101908083116111e2575b50505050509050919050565b60008181526001830160205260408120546110c7575081546001818101845560008481526020808220909301849055845484825282860190935260409020919091556105fd565b6000818152600183016020526040812054801561133257600061126d600183611658565b855490915060009061128190600190611658565b90508082146112e65760008660000182815481106112a1576112a16115ce565b90600052602060002001549050808760000184815481106112c4576112c46115ce565b6000918252602080832090910192909255918252600188019052604090208390555b85548690806112f7576112f761166b565b6001900381819060005260206000200160009055905585600101600086815260200190815260200160002060009055600193505050506105fd565b60009150506105fd565b60006020828403121561134e57600080fd5b81356001600160e01b03198116811461075957600080fd5b60006020828403121561137857600080fd5b5035919050565b6001600160a01b0381168114610de257600080fd5b600080604083850312156113a757600080fd5b82356113b28161137f565b946020939093013593505050565b600080604083850312156113d357600080fd5b8235915060208301356113e58161137f565b809150509250929050565b6000806040838503121561140357600080fd5b50508035926020909101359150565b634e487b7160e01b600052604160045260246000fd5b80356114338161137f565b919050565b60008083601f84011261144a57600080fd5b50813567ffffffffffffffff81111561146257600080fd5b60208301915083602082850101111561147a57600080fd5b9250929050565b60008060006040848603121561149657600080fd5b833567ffffffffffffffff8111156114ad57600080fd5b8401601f810186136114be57600080fd5b803567ffffffffffffffff8111156114d8576114d8611412565b8060051b604051601f19603f830116810181811067ffffffffffffffff8211171561150557611505611412565b60405291825260208184018101929081018984111561152357600080fd5b6020850194505b838510156115495761153b85611428565b81526020948501940161152a565b509550505050602084013567ffffffffffffffff81111561156957600080fd5b61157586828701611438565b9497909650939450505050565b602080825282518282018190526000918401906040840190835b818110156115c35783516001600160a01b031683526020938401939092019160010161159c565b509095945050505050565b634e487b7160e01b600052603260045260246000fd5b6000602082840312156115f657600080fd5b8151801515811461075957600080fd5b8183823760009101908152919050565b60006020828403121561162857600080fd5b5051919050565b634e487b7160e01b600052601160045260246000fd5b808201808211156105fd576105fd61162f565b818103818111156105fd576105fd61162f565b634e487b7160e01b600052603160045260246000fdfea2646970667358221220c379dae0da0c39ba4cd22a8347aa26bc621170441881125ec0b27ba15787f9c564736f6c634300081c0033",
  "devdoc": {
    "errors": {
      "AccessControlBadConfirmation()": [
        {
          "details": "The caller of a function is not the expected one. NOTE: Don't confuse with {AccessControlUnauthorizedAccount}."
        }
      ],
      "AccessControlUnauthorizedAccount(address,bytes32)": [
        {
          "details": "The `account` is missing a role."
        }
      ],
      "ReentrancyGuardReentrantCall()": [
        {
          "details": "Unauthorized reentrant call."
        }
      ],
      "SafeERC20FailedOperation(address)": [
        {
          "details": "An operation with an ERC-20 token failed."
        }
      ]
    },
    "events": {
      "ETHCollected(uint256)": {
        "params": {
          "amount": "Amount of ETH collected"
        }
      },
      "ETHReceived(uint256)": {
        "params": {
          "amount": "Amount of ETH received"
        }
      },
      "FeesSwapped(uint256,uint256)": {
        "params": {
          "cakeAmount": "Amount of CAKE tokens burned",
          "mahaAmount": "Amount of MAHA tokens burned"
        }
      },
      "RoleAdminChanged(bytes32,bytes32,bytes32)": {
        "details": "Emitted when `newAdminRole` is set as ``role``'s admin role, replacing `previousAdminRole` `DEFAULT_ADMIN_ROLE` is the starting admin for all roles, despite {RoleAdminChanged} not being emitted signaling this."
      },
      "RoleGranted(bytes32,address,address)": {
        "details": "Emitted when `account` is granted `role`. `sender` is the account that originated the contract call. This account bears the admin role (for the granted role). Expected in cases where the role was granted using the internal {AccessControl-_grantRole}."
      },
      "RoleRevoked(bytes32,address,address)": {
        "details": "Emitted when `account` is revoked `role`. `sender` is the account that originated the contract call:   - if using `revokeRole`, it is the admin role bearer   - if using `renounceRole`, it is the role bearer (i.e. `account`)"
      },
      "SwapPausedToggled(bool)": {
        "params": {
          "isPaused": "New pause state"
        }
      },
      "TokensCollected(address,uint256)": {
        "params": {
          "amount": "Amount collected",
          "token": "Address of collected token"
        }
      }
    },
    "kind": "dev",
    "methods": {
      "collectETH(uint256)": {
        "details": "Can only be called by admin",
        "params": {
          "amount": "Amount of ETH to collect"
        }
      },
      "collectToken(address,uint256)": {
        "details": "Can only be called by admin",
        "params": {
          "amount": "Amount of tokens to collect",
          "token": "Address of token to collect"
        }
      },
      "constructor": {
        "params": {
          "_cake": "Address of CAKE token",
          "_maha": "Address of MAHA token",
          "_odos": "Address of ODOS router",
          "_weth": "Address of WETH token"
        }
      },
      "getRoleAdmin(bytes32)": {
        "details": "Returns the admin role that controls `role`. See {grantRole} and {revokeRole}. To change a role's admin, use {_setRoleAdmin}."
      },
      "getRoleMember(bytes32,uint256)": {
        "details": "Returns one of the accounts that have `role`. `index` must be a value between 0 and {getRoleMemberCount}, non-inclusive. Role bearers are not sorted in any particular way, and their ordering may change at any point. WARNING: When using {getRoleMember} and {getRoleMemberCount}, make sure you perform all queries on the same block. See the following https://forum.openzeppelin.com/t/iterating-over-elements-on-enumerableset-in-openzeppelin-contracts/2296[forum post] for more information."
      },
      "getRoleMemberCount(bytes32)": {
        "details": "Returns the number of accounts that have `role`. Can be used together with {getRoleMember} to enumerate all bearers of a role."
      },
      "getRoleMembers(bytes32)": {
        "details": "Return all accounts that have `role` WARNING: This operation will copy the entire storage to memory, which can be quite expensive. This is designed to mostly be used by view accessors that are queried without any gas fees. Developers should keep in mind that this function has an unbounded cost, and using it as part of a state-changing function may render the function uncallable if the set grows to a point where copying to memory consumes too much gas to fit in a block."
      },
      "grantRole(bytes32,address)": {
        "details": "Grants `role` to `account`. If `account` had not been already granted `role`, emits a {RoleGranted} event. Requirements: - the caller must have ``role``'s admin role. May emit a {RoleGranted} event."
      },
      "hasRole(bytes32,address)": {
        "details": "Returns `true` if `account` has been granted `role`."
      },
      "renounceRole(bytes32,address)": {
        "details": "Revokes `role` from the calling account. Roles are often managed via {grantRole} and {revokeRole}: this function's purpose is to provide a mechanism for accounts to lose their privileges if they are compromised (such as when a trusted device is misplaced). If the calling account had been revoked `role`, emits a {RoleRevoked} event. Requirements: - the caller must be `callerConfirmation`. May emit a {RoleRevoked} event."
      },
      "revokeRole(bytes32,address)": {
        "details": "Revokes `role` from `account`. If `account` had been granted `role`, emits a {RoleRevoked} event. Requirements: - the caller must have ``role``'s admin role. May emit a {RoleRevoked} event."
      },
      "supportsInterface(bytes4)": {
        "details": "See {IERC165-supportsInterface}."
      },
      "swapFeesToTargets(address[],bytes)": {
        "details": "Can only be called by operator when not paused",
        "params": {
          "_tokens": "Array of token addresses to swap",
          "odosSwapData": "Encoded swap data for ODOS router"
        }
      },
      "toggleSwapPause()": {
        "details": "Can only be called by admin"
      }
    },
    "title": "FeeCollector - Contract for collecting and burning fees in CAKE and MAHA tokens",
    "version": 1
  },
  "userdoc": {
    "events": {
      "ETHCollected(uint256)": {
        "notice": "Emitted when ETH is collected by admin"
      },
      "ETHReceived(uint256)": {
        "notice": "Emitted when ETH is received by the contract"
      },
      "FeesSwapped(uint256,uint256)": {
        "notice": "Emitted when fees are swapped and burned"
      },
      "SwapPausedToggled(bool)": {
        "notice": "Emitted when swap pause state is toggled"
      },
      "TokensCollected(address,uint256)": {
        "notice": "Emitted when tokens are collected by admin"
      }
    },
    "kind": "user",
    "methods": {
      "CAKE()": {
        "notice": "CAKE token contract"
      },
      "DEAD()": {
        "notice": "Dead address where tokens are sent to be burned"
      },
      "MAHA()": {
        "notice": "MAHA token contract"
      },
      "ODOS()": {
        "notice": "Address of the ODOS router contract"
      },
      "OPERATOR_ROLE()": {
        "notice": "Role identifier for operators who can execute fee swaps"
      },
      "WETH()": {
        "notice": "WETH token contract"
      },
      "cakeBurnt()": {
        "notice": "Total amount of CAKE tokens that have been burned"
      },
      "collectETH(uint256)": {
        "notice": "Allows admin to collect ETH from the contract"
      },
      "collectToken(address,uint256)": {
        "notice": "Allows admin to collect any tokens from the contract"
      },
      "constructor": {
        "notice": "Initializes the contract with token addresses"
      },
      "mahaBurnt()": {
        "notice": "Total amount of MAHA tokens that have been burned"
      },
      "swapFeesToTargets(address[],bytes)": {
        "notice": "Swaps collected fees to CAKE and MAHA and burns them"
      },
      "swapPaused()": {
        "notice": "Flag indicating if swapping is currently paused"
      },
      "toggleSwapPause()": {
        "notice": "Toggles the pause state for swapping"
      }
    },
    "notice": "Handles fee collection, swapping via ODOS, and burning of tokens",
    "version": 1
  },
  "storageLayout": {
    "storage": [
      {
        "astId": 2125,
        "contract": "contracts/FeeCollector.sol:FeeCollector",
        "label": "_roles",
        "offset": 0,
        "slot": "0",
        "type": "t_mapping(t_bytes32,t_struct(RoleData)2120_storage)"
      },
      {
        "astId": 2647,
        "contract": "contracts/FeeCollector.sol:FeeCollector",
        "label": "_roleMembers",
        "offset": 0,
        "slot": "1",
        "type": "t_mapping(t_bytes32,t_struct(AddressSet)12037_storage)"
      },
      {
        "astId": 5197,
        "contract": "contracts/FeeCollector.sol:FeeCollector",
        "label": "_status",
        "offset": 0,
        "slot": "2",
        "type": "t_uint256"
      },
      {
        "astId": 14643,
        "contract": "contracts/FeeCollector.sol:FeeCollector",
        "label": "cakeBurnt",
        "offset": 0,
        "slot": "3",
        "type": "t_uint256"
      },
      {
        "astId": 14646,
        "contract": "contracts/FeeCollector.sol:FeeCollector",
        "label": "mahaBurnt",
        "offset": 0,
        "slot": "4",
        "type": "t_uint256"
      },
      {
        "astId": 14649,
        "contract": "contracts/FeeCollector.sol:FeeCollector",
        "label": "swapPaused",
        "offset": 0,
        "slot": "5",
        "type": "t_bool"
      }
    ],
    "types": {
      "t_address": {
        "encoding": "inplace",
        "label": "address",
        "numberOfBytes": "20"
      },
      "t_array(t_bytes32)dyn_storage": {
        "base": "t_bytes32",
        "encoding": "dynamic_array",
        "label": "bytes32[]",
        "numberOfBytes": "32"
      },
      "t_bool": {
        "encoding": "inplace",
        "label": "bool",
        "numberOfBytes": "1"
      },
      "t_bytes32": {
        "encoding": "inplace",
        "label": "bytes32",
        "numberOfBytes": "32"
      },
      "t_mapping(t_address,t_bool)": {
        "encoding": "mapping",
        "key": "t_address",
        "label": "mapping(address => bool)",
        "numberOfBytes": "32",
        "value": "t_bool"
      },
      "t_mapping(t_bytes32,t_struct(AddressSet)12037_storage)": {
        "encoding": "mapping",
        "key": "t_bytes32",
        "label": "mapping(bytes32 => struct EnumerableSet.AddressSet)",
        "numberOfBytes": "32",
        "value": "t_struct(AddressSet)12037_storage"
      },
      "t_mapping(t_bytes32,t_struct(RoleData)2120_storage)": {
        "encoding": "mapping",
        "key": "t_bytes32",
        "label": "mapping(bytes32 => struct AccessControl.RoleData)",
        "numberOfBytes": "32",
        "value": "t_struct(RoleData)2120_storage"
      },
      "t_mapping(t_bytes32,t_uint256)": {
        "encoding": "mapping",
        "key": "t_bytes32",
        "label": "mapping(bytes32 => uint256)",
        "numberOfBytes": "32",
        "value": "t_uint256"
      },
      "t_struct(AddressSet)12037_storage": {
        "encoding": "inplace",
        "label": "struct EnumerableSet.AddressSet",
        "members": [
          {
            "astId": 12036,
            "contract": "contracts/FeeCollector.sol:FeeCollector",
            "label": "_inner",
            "offset": 0,
            "slot": "0",
            "type": "t_struct(Set)11722_storage"
          }
        ],
        "numberOfBytes": "64"
      },
      "t_struct(RoleData)2120_storage": {
        "encoding": "inplace",
        "label": "struct AccessControl.RoleData",
        "members": [
          {
            "astId": 2117,
            "contract": "contracts/FeeCollector.sol:FeeCollector",
            "label": "hasRole",
            "offset": 0,
            "slot": "0",
            "type": "t_mapping(t_address,t_bool)"
          },
          {
            "astId": 2119,
            "contract": "contracts/FeeCollector.sol:FeeCollector",
            "label": "adminRole",
            "offset": 0,
            "slot": "1",
            "type": "t_bytes32"
          }
        ],
        "numberOfBytes": "64"
      },
      "t_struct(Set)11722_storage": {
        "encoding": "inplace",
        "label": "struct EnumerableSet.Set",
        "members": [
          {
            "astId": 11717,
            "contract": "contracts/FeeCollector.sol:FeeCollector",
            "label": "_values",
            "offset": 0,
            "slot": "0",
            "type": "t_array(t_bytes32)dyn_storage"
          },
          {
            "astId": 11721,
            "contract": "contracts/FeeCollector.sol:FeeCollector",
            "label": "_positions",
            "offset": 0,
            "slot": "1",
            "type": "t_mapping(t_bytes32,t_uint256)"
          }
        ],
        "numberOfBytes": "64"
      },
      "t_uint256": {
        "encoding": "inplace",
        "label": "uint256",
        "numberOfBytes": "32"
      }
    }
  }
}