{
  "address": "0x3aFBD987b75a78e8f9D7aEFe37f0CB256Bbe8091",
  "abi": [
    {
      "inputs": [
        {
          "internalType": "address",
          "name": "_launchpad",
          "type": "address"
        },
        {
          "internalType": "address",
          "name": "_poolFactory",
          "type": "address"
        },
        {
          "internalType": "address",
          "name": "_swapRouter",
          "type": "address"
        },
        {
          "internalType": "address",
          "name": "_WETH9",
          "type": "address"
        },
        {
          "internalType": "address",
          "name": "_locker",
          "type": "address"
        },
        {
          "internalType": "address",
          "name": "_nftPositionManager",
          "type": "address"
        }
      ],
      "stateMutability": "nonpayable",
      "type": "constructor"
    },
    {
      "inputs": [
        {
          "internalType": "address",
          "name": "token",
          "type": "address"
        }
      ],
      "name": "SafeERC20FailedOperation",
      "type": "error"
    },
    {
      "inputs": [],
      "name": "WETH9",
      "outputs": [
        {
          "internalType": "contract IWETH9",
          "name": "",
          "type": "address"
        }
      ],
      "stateMutability": "view",
      "type": "function"
    },
    {
      "inputs": [
        {
          "components": [
            {
              "internalType": "contract IERC20",
              "name": "tokenBase",
              "type": "address"
            },
            {
              "internalType": "contract IERC20",
              "name": "tokenQuote",
              "type": "address"
            },
            {
              "internalType": "int24",
              "name": "tick0",
              "type": "int24"
            },
            {
              "internalType": "int24",
              "name": "tick1",
              "type": "int24"
            },
            {
              "internalType": "int24",
              "name": "tick2",
              "type": "int24"
            },
            {
              "internalType": "uint24",
              "name": "fee",
              "type": "uint24"
            },
            {
              "internalType": "int24",
              "name": "tickSpacing",
              "type": "int24"
            },
            {
              "internalType": "uint256",
              "name": "totalAmount",
              "type": "uint256"
            },
            {
              "internalType": "uint256",
              "name": "graduationAmount",
              "type": "uint256"
            }
          ],
          "internalType": "struct ICLMMAdapter.AddLiquidityParams",
          "name": "_params",
          "type": "tuple"
        }
      ],
      "name": "addSingleSidedLiquidity",
      "outputs": [
        {
          "internalType": "address",
          "name": "",
          "type": "address"
        }
      ],
      "stateMutability": "nonpayable",
      "type": "function"
    },
    {
      "inputs": [],
      "name": "clPoolFactory",
      "outputs": [
        {
          "internalType": "contract IClPoolFactory",
          "name": "",
          "type": "address"
        }
      ],
      "stateMutability": "view",
      "type": "function"
    },
    {
      "inputs": [
        {
          "internalType": "address",
          "name": "_token",
          "type": "address"
        }
      ],
      "name": "claimFees",
      "outputs": [
        {
          "internalType": "uint256",
          "name": "fee0",
          "type": "uint256"
        },
        {
          "internalType": "uint256",
          "name": "fee1",
          "type": "uint256"
        }
      ],
      "stateMutability": "nonpayable",
      "type": "function"
    },
    {
      "inputs": [],
      "name": "launchpad",
      "outputs": [
        {
          "internalType": "address",
          "name": "",
          "type": "address"
        }
      ],
      "stateMutability": "view",
      "type": "function"
    },
    {
      "inputs": [],
      "name": "locker",
      "outputs": [
        {
          "internalType": "address",
          "name": "",
          "type": "address"
        }
      ],
      "stateMutability": "view",
      "type": "function"
    },
    {
      "inputs": [],
      "name": "nftPositionManager",
      "outputs": [
        {
          "internalType": "contract IERC721",
          "name": "",
          "type": "address"
        }
      ],
      "stateMutability": "view",
      "type": "function"
    },
    {
      "inputs": [],
      "name": "swapRouter",
      "outputs": [
        {
          "internalType": "contract ICLSwapRouter",
          "name": "",
          "type": "address"
        }
      ],
      "stateMutability": "view",
      "type": "function"
    },
    {
      "inputs": [
        {
          "internalType": "contract IERC20",
          "name": "_tokenIn",
          "type": "address"
        },
        {
          "internalType": "contract IERC20",
          "name": "_tokenOut",
          "type": "address"
        },
        {
          "internalType": "uint256",
          "name": "_amountIn",
          "type": "uint256"
        },
        {
          "internalType": "uint256",
          "name": "_minAmountOut",
          "type": "uint256"
        },
        {
          "internalType": "uint24",
          "name": "_fee",
          "type": "uint24"
        }
      ],
      "name": "swapWithExactInput",
      "outputs": [
        {
          "internalType": "uint256",
          "name": "amountOut",
          "type": "uint256"
        }
      ],
      "stateMutability": "nonpayable",
      "type": "function"
    },
    {
      "inputs": [
        {
          "internalType": "contract IERC20",
          "name": "_tokenIn",
          "type": "address"
        },
        {
          "internalType": "contract IERC20",
          "name": "_tokenOut",
          "type": "address"
        },
        {
          "internalType": "uint256",
          "name": "_amountOut",
          "type": "uint256"
        },
        {
          "internalType": "uint256",
          "name": "_maxAmountIn",
          "type": "uint256"
        },
        {
          "internalType": "uint24",
          "name": "_fee",
          "type": "uint24"
        }
      ],
      "name": "swapWithExactOutput",
      "outputs": [
        {
          "internalType": "uint256",
          "name": "amountIn",
          "type": "uint256"
        }
      ],
      "stateMutability": "nonpayable",
      "type": "function"
    },
    {
      "inputs": [
        {
          "internalType": "contract IERC20",
          "name": "token",
          "type": "address"
        },
        {
          "internalType": "uint256",
          "name": "index",
          "type": "uint256"
        }
      ],
      "name": "tokenToLockId",
      "outputs": [
        {
          "internalType": "uint256",
          "name": "lockId",
          "type": "uint256"
        }
      ],
      "stateMutability": "view",
      "type": "function"
    },
    {
      "stateMutability": "payable",
      "type": "receive"
    }
  ],
  "transactionHash": "0x04152d4af02bf9e0063207957b966aaa27107ccdffedf967527e7d241ba1f3c1",
  "args": [
    "0xc6A671a7f5ed641c2f7aB7E2d2F587d671a5A637",
    "0x0BFbCF9fa4f9C56B0F40a671Ad40E0805A091865",
    "0x1b81D678ffb9C0263b24A97847620C99d213eB14",
    "0xbb4CdB9CBd36B01bD1cBaEBF2De08d9173bc095c",
    "0x25c9C4B56E820e0DEA438b145284F02D9Ca9Bd52",
    "0x46A15B0b27311cedF172AB29E4f4766fbE7F4364"
  ],
  "numDeployments": 1,
  "solcInputHash": "ca01714a7490eb550412d5b46b9ffc17",
  "bytecode": "0x608060405234801561001057600080fd5b506040516119aa3803806119aa83398101604081905261002f91610134565b61003d86848487858a610048565b5050505050506101a8565b60008054306001600160a01b0319918216179091556002805482166001600160a01b038481169190911790915560018054831689831617815560048054841688841690811782556005805486168886169081179091556003805487168a871617905560068054909616948b169490941790945560405163a22cb46560e01b81529081019390935260248301529063a22cb46590604401600060405180830381600087803b1580156100f857600080fd5b505af115801561010c573d6000803e3d6000fd5b50505050505050505050565b80516001600160a01b038116811461012f57600080fd5b919050565b60008060008060008060c0878903121561014d57600080fd5b61015687610118565b955061016460208801610118565b945061017260408801610118565b935061018060608801610118565b925061018e60808801610118565b915061019c60a08801610118565b90509295509295509295565b6117f3806101b76000396000f3fe6080604052600436106100c05760003560e01c8063a4aa863411610074578063f375b5de1161004e578063f375b5de1461020c578063f584d5d01461022c578063ff64fb641461024c57600080fd5b8063a4aa8634146101ac578063c31c9c07146101cc578063d7b96d4e146101ec57600080fd5b806335f99d22116100a557806335f99d221461013e5780634aa4a4fc1461016c578063843978881461018c57600080fd5b806302669b52146100cc57806315a0ea6a1461010957600080fd5b366100c757005b600080fd5b3480156100d857600080fd5b506001546100ec906001600160a01b031681565b6040516001600160a01b0390911681526020015b60405180910390f35b34801561011557600080fd5b5061012961012436600461130d565b610284565b60408051928352602083019190915201610100565b34801561014a57600080fd5b5061015e610159366004611354565b610518565b604051908152602001610100565b34801561017857600080fd5b506006546100ec906001600160a01b031681565b34801561019857600080fd5b506005546100ec906001600160a01b031681565b3480156101b857600080fd5b506100ec6101c7366004611412565b610680565b3480156101d857600080fd5b506003546100ec906001600160a01b031681565b3480156101f857600080fd5b506004546100ec906001600160a01b031681565b34801561021857600080fd5b506002546100ec906001600160a01b031681565b34801561023857600080fd5b5061015e610247366004611354565b61079a565b34801561025857600080fd5b5061015e6102673660046114be565b600760209081526000928352604080842090915290825290205481565b60015460009081906001600160a01b03163314610302576040517f08c379a000000000000000000000000000000000000000000000000000000000815260206004820152600a60248201527f216c61756e63687061640000000000000000000000000000000000000000000060448201526064015b60405180910390fd5b6001600160a01b038316600090815260076020908152604080832083805290915280822054600183529082205490918061033b8461090c565b9150915060008061034b8561090c565b909250905061035a8285611519565b97506103668184611519565b6001546040517f3df8a4680000000000000000000000000000000000000000000000000000000081526001600160a01b038c8116600483015292995060009290911690633df8a46890602401602060405180830381865afa1580156103cf573d6000803e3d6000fd5b505050506040513d601f19601f820116820180604052508101906103f39190611532565b6040517fa9059cbb000000000000000000000000000000000000000000000000000000008152336004820152602481018b90529091506001600160a01b038b169063a9059cbb906044016020604051808303816000875af115801561045c573d6000803e3d6000fd5b505050506040513d601f19601f82011682018060405250810190610480919061154f565b506040517fa9059cbb000000000000000000000000000000000000000000000000000000008152336004820152602481018990526001600160a01b0382169063a9059cbb906044016020604051808303816000875af11580156104e7573d6000803e3d6000fd5b505050506040513d601f19601f8201168201806040525081019061050b919061154f565b5050505050505050915091565b600061052f6001600160a01b0387163330876109c6565b60035460405163095ea7b360e01b81526001600160a01b03918216600482015260001960248201529087169063095ea7b3906044016020604051808303816000875af1158015610583573d6000803e3d6000fd5b505050506040513d601f19601f820116820180604052508101906105a7919061154f565b5060035460408051610100810182526001600160a01b038981168252888116602083015262ffffff86168284015233606083015242608083015260a0820188905260c08201879052600060e083015291517f414bf389000000000000000000000000000000000000000000000000000000008152919092169163414bf3899161063391906004016115f3565b6020604051808303816000875af1158015610652573d6000803e3d6000fd5b505050506040513d601f19601f820116820180604052508101906106769190611602565b9695505050505050565b6001546000906001600160a01b031633146106f7576040517f08c379a000000000000000000000000000000000000000000000000000000000815260206004820152600a60248201527f216c61756e63687061640000000000000000000000000000000000000000000060448201526064016102f9565b60006107126001846040015161070d919061161b565b610a48565b9050600061072e846000015185602001518660a0015185610d29565b905061075984600001518560200151866040015187606001518860a001518961010001516000610e4d565b5061079284600001518560200151866060015187608001518860a001518961010001518a60e0015161078b919061165c565b6001610e4d565b509392505050565b60006107b16001600160a01b0387163330866109c6565b60035460405163095ea7b360e01b81526001600160a01b03918216600482015260001960248201529087169063095ea7b3906044016020604051808303816000875af1158015610805573d6000803e3d6000fd5b505050506040513d601f19601f82011682018060405250810190610829919061154f565b5060035460408051610100810182526001600160a01b038981168252888116602083015262ffffff86168284015233606083015242608083015260a0820188905260c08201879052600060e083015291517fdb3e2198000000000000000000000000000000000000000000000000000000008152919092169163db3e2198916108b591906004016115f3565b6020604051808303816000875af11580156108d4573d6000803e3d6000fd5b505050506040513d601f19601f820116820180604052508101906108f89190611602565b905061090386610fed565b95945050505050565b600480546040517f260e12b00000000000000000000000000000000000000000000000000000000081529182018390523060248301526fffffffffffffffffffffffffffffffff60448301819052606483015260009182916001600160a01b03169063260e12b0906084016080604051808303816000875af1158015610996573d6000803e3d6000fd5b505050506040513d601f19601f820116820180604052508101906109ba919061166f565b50919590945092505050565b6040516001600160a01b038481166024830152838116604483015260648201839052610a429186918216906323b872dd906084015b604051602081830303815290604052915060e01b6020820180517bffffffffffffffffffffffffffffffffffffffffffffffffffffffff8381831617835250505050611097565b50505050565b60020b600060ff82901d80830118620d89e8811115610a8b57610a8b7f8b86327a0000000000000000000000000000000000000000000000000000000084611121565b7001fffcb933bd6fad37aa2d162d1a5940016001821602700100000000000000000000000000000000186002821615610ad4576ffff97272373d413259a46990580e213a0260801c5b6004821615610af3576ffff2e50f5f656932ef12357cf3c7fdcc0260801c5b6008821615610b12576fffe5caca7e10e4e61c3624eaa0941cd00260801c5b6010821615610b31576fffcb9843d60f6159c9db58835c9266440260801c5b6020821615610b50576fff973b41fa98c081472e6896dfb254c00260801c5b6040821615610b6f576fff2ea16466c96a3843ec78b326b528610260801c5b6080821615610b8e576ffe5dee046a99a2a811c461f1969c30530260801c5b610100821615610bae576ffcbe86c7900a88aedcffc83b479aa3a40260801c5b610200821615610bce576ff987a7253ac413176f2b074cf7815e540260801c5b610400821615610bee576ff3392b0822b70005940c7a398e4b70f30260801c5b610800821615610c0e576fe7159475a2c29b7443b29c7fa6e889d90260801c5b611000821615610c2e576fd097f3bdfd2022b8845ad8f792aa58250260801c5b612000821615610c4e576fa9f746462d870fdf8a65dc1f90e061e50260801c5b614000821615610c6e576f70d869a156d2a1b890bb3df62baf32f70260801c5b618000821615610c8e576f31be135f97d08fd981231505542fcfa60260801c5b62010000821615610caf576f09aa508b5b7a84e1c677de54f3e99bc90260801c5b62020000821615610ccf576e5d6af8dedb81196699c329225ee6040260801c5b62040000821615610cee576d2216e584f5fa1ea926041bedfe980260801c5b62080000821615610d0b576b048a170391f7dc42444e8fa20260801c5b6000841315610d1957600019045b63ffffffff0160201c9392505050565b6002546040517fa16712950000000000000000000000000000000000000000000000000000000081526001600160a01b038681166004830152858116602483015262ffffff85166044830152600092839291169063a1671295906064016020604051808303816000875af1158015610da5573d6000803e3d6000fd5b505050506040513d601f19601f82011682018060405250810190610dc99190611532565b6040517ff637731d0000000000000000000000000000000000000000000000000000000081526001600160a01b0385811660048301529193508392509082169063f637731d90602401600060405180830381600087803b158015610e2c57600080fd5b505af1158015610e40573d6000803e3d6000fd5b5050505050949350505050565b600080610e5e898989898989611132565b9050600460009054906101000a90046001600160a01b03166001600160a01b0316636518a0b36040518163ffffffff1660e01b8152600401602060405180830381865afa158015610eb3573d6000803e3d6000fd5b505050506040513d601f19601f82011682018060405250810190610ed79190611602565b600480546005546040517f87d8de3d0000000000000000000000000000000000000000000000000000000081526001600160a01b03918216938101939093526024830185905230604484018190526064840152600019608484015260c060a4840152600360c48401527f4c4c50000000000000000000000000000000000000000000000000000000000060e484015292945091909116906387d8de3d90610104016020604051808303816000875af1158015610f97573d6000803e3d6000fd5b505050506040513d601f19601f82011682018060405250810190610fbb9190611602565b50506001600160a01b039097166000908152600760209081526040808320938352929052208690555093949350505050565b6040517f70a082310000000000000000000000000000000000000000000000000000000081523060048201526000906001600160a01b038316906370a0823190602401602060405180830381865afa15801561104d573d6000803e3d6000fd5b505050506040513d601f19601f820116820180604052508101906110719190611602565b90508060000361107f575050565b6110936001600160a01b03831633836112bf565b5050565b600080602060008451602086016000885af1806110ba576040513d6000823e3d81fd5b50506000513d915081156110d25780600114156110df565b6001600160a01b0384163b155b15610a42576040517f5274afe70000000000000000000000000000000000000000000000000000000081526001600160a01b03851660048201526024016102f9565b816000528060020b60045260246000fd5b60006111496001600160a01b0388163330856109c6565b60055460405163095ea7b360e01b81526001600160a01b039182166004820152602481018490529088169063095ea7b3906044016020604051808303816000875af115801561119c573d6000803e3d6000fd5b505050506040513d601f19601f820116820180604052508101906111c0919061154f565b5060408051610160810182526001600160a01b03808a168252888116602083015262ffffff861682840152600288810b606084015287900b608083015260a08201859052600060c0830181905260e0830181905261010083018190525481166101208301524261014083015260055492517f883164560000000000000000000000000000000000000000000000000000000081529192169063883164569061126c9084906004016116a5565b6080604051808303816000875af115801561128b573d6000803e3d6000fd5b505050506040513d601f19601f820116820180604052508101906112af9190611769565b50919a9950505050505050505050565b6040516001600160a01b038381166024830152604482018390526112f091859182169063a9059cbb906064016109fb565b505050565b6001600160a01b038116811461130a57600080fd5b50565b60006020828403121561131f57600080fd5b813561132a816112f5565b9392505050565b803561133c816112f5565b919050565b803562ffffff8116811461133c57600080fd5b600080600080600060a0868803121561136c57600080fd5b8535611377816112f5565b94506020860135611387816112f5565b935060408601359250606086013591506113a360808701611341565b90509295509295909350565b604051610120810167ffffffffffffffff811182821017156113fa577f4e487b7100000000000000000000000000000000000000000000000000000000600052604160045260246000fd5b60405290565b8035600281900b811461133c57600080fd5b600061012082840312801561142657600080fd5b5061142f6113af565b61143883611331565b815261144660208401611331565b602082015261145760408401611400565b604082015261146860608401611400565b606082015261147960808401611400565b608082015261148a60a08401611341565b60a082015261149b60c08401611400565b60c082015260e08381013590820152610100928301359281019290925250919050565b600080604083850312156114d157600080fd5b82356114dc816112f5565b946020939093013593505050565b7f4e487b7100000000000000000000000000000000000000000000000000000000600052601160045260246000fd5b8082018082111561152c5761152c6114ea565b92915050565b60006020828403121561154457600080fd5b815161132a816112f5565b60006020828403121561156157600080fd5b8151801515811461132a57600080fd5b6001600160a01b0381511682526001600160a01b03602082015116602083015262ffffff604082015116604083015260608101516115ba60608401826001600160a01b03169052565b506080810151608083015260a081015160a083015260c081015160c083015260e08101516112f060e08401826001600160a01b03169052565b610100810161152c8284611571565b60006020828403121561161457600080fd5b5051919050565b600282810b9082900b037fffffffffffffffffffffffffffffffffffffffffffffffffffffffffff8000008112627fffff8213171561152c5761152c6114ea565b8181038181111561152c5761152c6114ea565b6000806000806080858703121561168557600080fd5b505082516020840151604085015160609095015191969095509092509050565b81516001600160a01b03168152610160810160208301516116d160208401826001600160a01b03169052565b5060408301516116e8604084018262ffffff169052565b5060608301516116fd606084018260020b9052565b506080830151611712608084018260020b9052565b5060a083015160a083015260c083015160c083015260e083015160e08301526101008301516101008301526101208301516117596101208401826001600160a01b03169052565b5061014092830151919092015290565b6000806000806080858703121561177f57600080fd5b845160208601519094506fffffffffffffffffffffffffffffffff811681146117a757600080fd5b604086015160609096015194979096509250505056fea26469706673582212206a2690784f14af3d935c2212f0bb2ecd519502e887b5b6bbd457f84d7399135864736f6c634300081c0033",
  "devdoc": {
    "errors": {
      "SafeERC20FailedOperation(address)": [
        {
          "details": "An operation with an ERC-20 token failed."
        }
      ]
    },
    "kind": "dev",
    "methods": {
      "addSingleSidedLiquidity((address,address,int24,int24,int24,uint24,int24,uint256,uint256))": {
        "details": "Provides liquidity across three ticks with different amounts",
        "returns": {
          "_0": "The address of the pool"
        }
      },
      "claimFees(address)": {
        "params": {
          "_token": "The token address to claim fees for"
        },
        "returns": {
          "fee0": "The amount of token0 fees to claim",
          "fee1": "The amount of token1 fees to claim"
        }
      },
      "swapWithExactInput(address,address,uint256,uint256,uint24)": {
        "params": {
          "_amountIn": "The amount of tokens to swap",
          "_minAmountOut": "The minimum amount of tokens to receive",
          "_tokenIn": "The token to swap",
          "_tokenOut": "The token to receive"
        },
        "returns": {
          "amountOut": "The amount of tokens received"
        }
      },
      "swapWithExactOutput(address,address,uint256,uint256,uint24)": {
        "params": {
          "_amountOut": "The amount of tokens to swap",
          "_maxAmountIn": "The maximum amount of tokens to receive",
          "_tokenIn": "The token to swap",
          "_tokenOut": "The token to receive"
        },
        "returns": {
          "amountIn": "The amount of tokens received"
        }
      }
    },
    "version": 1
  },
  "userdoc": {
    "kind": "user",
    "methods": {
      "addSingleSidedLiquidity((address,address,int24,int24,int24,uint24,int24,uint256,uint256))": {
        "notice": "Add single-sided liquidity to a concentrated pool"
      },
      "claimFees(address)": {
        "notice": "Claim accumulated fees from the pool"
      },
      "launchpad()": {
        "notice": "Returns the address of the Launchpad contract"
      },
      "swapWithExactInput(address,address,uint256,uint256,uint24)": {
        "notice": "Swap a token with exact input"
      },
      "swapWithExactOutput(address,address,uint256,uint256,uint24)": {
        "notice": "Swap a token with exact output"
      }
    },
    "version": 1
  },
  "storageLayout": {
    "storage": [
      {
        "astId": 14705,
        "contract": "contracts/launchpad/clmm/adapters/PancakeAdapter.sol:PancakeAdapter",
        "label": "_me",
        "offset": 0,
        "slot": "0",
        "type": "t_address"
      },
      {
        "astId": 14707,
        "contract": "contracts/launchpad/clmm/adapters/PancakeAdapter.sol:PancakeAdapter",
        "label": "launchpad",
        "offset": 0,
        "slot": "1",
        "type": "t_address"
      },
      {
        "astId": 14710,
        "contract": "contracts/launchpad/clmm/adapters/PancakeAdapter.sol:PancakeAdapter",
        "label": "clPoolFactory",
        "offset": 0,
        "slot": "2",
        "type": "t_contract(IClPoolFactory)12246"
      },
      {
        "astId": 14713,
        "contract": "contracts/launchpad/clmm/adapters/PancakeAdapter.sol:PancakeAdapter",
        "label": "swapRouter",
        "offset": 0,
        "slot": "3",
        "type": "t_contract(ICLSwapRouter)12006"
      },
      {
        "astId": 14715,
        "contract": "contracts/launchpad/clmm/adapters/PancakeAdapter.sol:PancakeAdapter",
        "label": "locker",
        "offset": 0,
        "slot": "4",
        "type": "t_address"
      },
      {
        "astId": 14718,
        "contract": "contracts/launchpad/clmm/adapters/PancakeAdapter.sol:PancakeAdapter",
        "label": "nftPositionManager",
        "offset": 0,
        "slot": "5",
        "type": "t_contract(IERC721)3618"
      },
      {
        "astId": 14721,
        "contract": "contracts/launchpad/clmm/adapters/PancakeAdapter.sol:PancakeAdapter",
        "label": "WETH9",
        "offset": 0,
        "slot": "6",
        "type": "t_contract(IWETH9)10853"
      },
      {
        "astId": 14728,
        "contract": "contracts/launchpad/clmm/adapters/PancakeAdapter.sol:PancakeAdapter",
        "label": "tokenToLockId",
        "offset": 0,
        "slot": "7",
        "type": "t_mapping(t_contract(IERC20)3066,t_mapping(t_uint256,t_uint256))"
      }
    ],
    "types": {
      "t_address": {
        "encoding": "inplace",
        "label": "address",
        "numberOfBytes": "20"
      },
      "t_contract(ICLSwapRouter)12006": {
        "encoding": "inplace",
        "label": "contract ICLSwapRouter",
        "numberOfBytes": "20"
      },
      "t_contract(IClPoolFactory)12246": {
        "encoding": "inplace",
        "label": "contract IClPoolFactory",
        "numberOfBytes": "20"
      },
      "t_contract(IERC20)3066": {
        "encoding": "inplace",
        "label": "contract IERC20",
        "numberOfBytes": "20"
      },
      "t_contract(IERC721)3618": {
        "encoding": "inplace",
        "label": "contract IERC721",
        "numberOfBytes": "20"
      },
      "t_contract(IWETH9)10853": {
        "encoding": "inplace",
        "label": "contract IWETH9",
        "numberOfBytes": "20"
      },
      "t_mapping(t_contract(IERC20)3066,t_mapping(t_uint256,t_uint256))": {
        "encoding": "mapping",
        "key": "t_contract(IERC20)3066",
        "label": "mapping(contract IERC20 => mapping(uint256 => uint256))",
        "numberOfBytes": "32",
        "value": "t_mapping(t_uint256,t_uint256)"
      },
      "t_mapping(t_uint256,t_uint256)": {
        "encoding": "mapping",
        "key": "t_uint256",
        "label": "mapping(uint256 => uint256)",
        "numberOfBytes": "32",
        "value": "t_uint256"
      },
      "t_uint256": {
        "encoding": "inplace",
        "label": "uint256",
        "numberOfBytes": "32"
      }
    }
  }
}