{
  "address": "0x7d1f70Bf5BE86e14185f742a202332DD3C8F4589",
  "abi": [
    {
      "inputs": [
        {
          "internalType": "address",
          "name": "nftManager_",
          "type": "address"
        }
      ],
      "stateMutability": "nonpayable",
      "type": "constructor"
    },
    {
      "inputs": [],
      "name": "FEE_DENOMINATOR",
      "outputs": [
        {
          "internalType": "uint256",
          "name": "",
          "type": "uint256"
        }
      ],
      "stateMutability": "view",
      "type": "function"
    },
    {
      "inputs": [
        {
          "internalType": "uint256",
          "name": "",
          "type": "uint256"
        }
      ],
      "name": "acceptLock",
      "outputs": [],
      "stateMutability": "nonpayable",
      "type": "function"
    },
    {
      "inputs": [
        {
          "internalType": "string",
          "name": "name_",
          "type": "string"
        },
        {
          "internalType": "uint256",
          "name": "lpFee_",
          "type": "uint256"
        },
        {
          "internalType": "uint256",
          "name": "collectFee_",
          "type": "uint256"
        },
        {
          "internalType": "uint256",
          "name": "lockFee_",
          "type": "uint256"
        },
        {
          "internalType": "address",
          "name": "lockFeeToken_",
          "type": "address"
        }
      ],
      "name": "addOrUpdateFee",
      "outputs": [],
      "stateMutability": "nonpayable",
      "type": "function"
    },
    {
      "inputs": [
        {
          "internalType": "address",
          "name": "",
          "type": "address"
        }
      ],
      "name": "addSupportedNftManager",
      "outputs": [],
      "stateMutability": "nonpayable",
      "type": "function"
    },
    {
      "inputs": [
        {
          "internalType": "address",
          "name": "",
          "type": "address"
        },
        {
          "internalType": "address",
          "name": "",
          "type": "address"
        },
        {
          "internalType": "uint256",
          "name": "",
          "type": "uint256"
        }
      ],
      "name": "adminRefundERC20",
      "outputs": [],
      "stateMutability": "nonpayable",
      "type": "function"
    },
    {
      "inputs": [
        {
          "internalType": "uint256",
          "name": "",
          "type": "uint256"
        },
        {
          "internalType": "address payable",
          "name": "",
          "type": "address"
        }
      ],
      "name": "adminRefundEth",
      "outputs": [],
      "stateMutability": "nonpayable",
      "type": "function"
    },
    {
      "inputs": [
        {
          "internalType": "uint256",
          "name": "",
          "type": "uint256"
        },
        {
          "internalType": "address",
          "name": "",
          "type": "address"
        },
        {
          "internalType": "uint128",
          "name": "",
          "type": "uint128"
        },
        {
          "internalType": "uint128",
          "name": "",
          "type": "uint128"
        }
      ],
      "name": "collect",
      "outputs": [
        {
          "internalType": "uint256",
          "name": "amount0",
          "type": "uint256"
        },
        {
          "internalType": "uint256",
          "name": "amount1",
          "type": "uint256"
        },
        {
          "internalType": "uint256",
          "name": "fee0",
          "type": "uint256"
        },
        {
          "internalType": "uint256",
          "name": "fee1",
          "type": "uint256"
        }
      ],
      "stateMutability": "pure",
      "type": "function"
    },
    {
      "inputs": [],
      "name": "customFeeSigner",
      "outputs": [
        {
          "internalType": "address",
          "name": "",
          "type": "address"
        }
      ],
      "stateMutability": "view",
      "type": "function"
    },
    {
      "inputs": [
        {
          "internalType": "bytes",
          "name": "sig",
          "type": "bytes"
        }
      ],
      "name": "disableSig",
      "outputs": [],
      "stateMutability": "nonpayable",
      "type": "function"
    },
    {
      "inputs": [
        {
          "internalType": "bytes",
          "name": "sig",
          "type": "bytes"
        }
      ],
      "name": "disabledSigs",
      "outputs": [
        {
          "internalType": "bool",
          "name": "",
          "type": "bool"
        }
      ],
      "stateMutability": "view",
      "type": "function"
    },
    {
      "inputs": [],
      "name": "feeReceiver",
      "outputs": [
        {
          "internalType": "address",
          "name": "",
          "type": "address"
        }
      ],
      "stateMutability": "view",
      "type": "function"
    },
    {
      "inputs": [
        {
          "internalType": "bytes32",
          "name": "nameHash",
          "type": "bytes32"
        }
      ],
      "name": "fees",
      "outputs": [
        {
          "components": [
            {
              "internalType": "string",
              "name": "name",
              "type": "string"
            },
            {
              "internalType": "uint256",
              "name": "lpFee",
              "type": "uint256"
            },
            {
              "internalType": "uint256",
              "name": "collectFee",
              "type": "uint256"
            },
            {
              "internalType": "uint256",
              "name": "lockFee",
              "type": "uint256"
            },
            {
              "internalType": "address",
              "name": "lockFeeToken",
              "type": "address"
            }
          ],
          "internalType": "struct IGoPlusLocker.FeeStruct",
          "name": "",
          "type": "tuple"
        }
      ],
      "stateMutability": "view",
      "type": "function"
    },
    {
      "inputs": [
        {
          "internalType": "string",
          "name": "name_",
          "type": "string"
        }
      ],
      "name": "getFee",
      "outputs": [
        {
          "components": [
            {
              "internalType": "string",
              "name": "name",
              "type": "string"
            },
            {
              "internalType": "uint256",
              "name": "lpFee",
              "type": "uint256"
            },
            {
              "internalType": "uint256",
              "name": "collectFee",
              "type": "uint256"
            },
            {
              "internalType": "uint256",
              "name": "lockFee",
              "type": "uint256"
            },
            {
              "internalType": "address",
              "name": "lockFeeToken",
              "type": "address"
            }
          ],
          "internalType": "struct IGoPlusLocker.FeeStruct",
          "name": "",
          "type": "tuple"
        }
      ],
      "stateMutability": "view",
      "type": "function"
    },
    {
      "inputs": [
        {
          "internalType": "address",
          "name": "user",
          "type": "address"
        }
      ],
      "name": "getUserLocks",
      "outputs": [
        {
          "internalType": "uint256[]",
          "name": "",
          "type": "uint256[]"
        }
      ],
      "stateMutability": "view",
      "type": "function"
    },
    {
      "inputs": [
        {
          "internalType": "string",
          "name": "name_",
          "type": "string"
        }
      ],
      "name": "isSupportedFeeName",
      "outputs": [
        {
          "internalType": "bool",
          "name": "",
          "type": "bool"
        }
      ],
      "stateMutability": "view",
      "type": "function"
    },
    {
      "inputs": [
        {
          "internalType": "address",
          "name": "nftManager_",
          "type": "address"
        },
        {
          "internalType": "uint256",
          "name": "nftId_",
          "type": "uint256"
        },
        {
          "internalType": "address",
          "name": "owner_",
          "type": "address"
        },
        {
          "internalType": "address",
          "name": "collector_",
          "type": "address"
        },
        {
          "internalType": "uint256",
          "name": "endTime_",
          "type": "uint256"
        },
        {
          "internalType": "string",
          "name": "",
          "type": "string"
        }
      ],
      "name": "lock",
      "outputs": [
        {
          "internalType": "uint256",
          "name": "lockId",
          "type": "uint256"
        }
      ],
      "stateMutability": "payable",
      "type": "function"
    },
    {
      "inputs": [
        {
          "internalType": "address",
          "name": "nftManager_",
          "type": "address"
        },
        {
          "internalType": "uint256",
          "name": "nftId_",
          "type": "uint256"
        },
        {
          "internalType": "address",
          "name": "owner_",
          "type": "address"
        },
        {
          "internalType": "address",
          "name": "collector_",
          "type": "address"
        },
        {
          "internalType": "uint256",
          "name": "endTime_",
          "type": "uint256"
        },
        {
          "internalType": "bytes",
          "name": "signature_",
          "type": "bytes"
        },
        {
          "components": [
            {
              "internalType": "string",
              "name": "name",
              "type": "string"
            },
            {
              "internalType": "uint256",
              "name": "lpFee",
              "type": "uint256"
            },
            {
              "internalType": "uint256",
              "name": "collectFee",
              "type": "uint256"
            },
            {
              "internalType": "uint256",
              "name": "lockFee",
              "type": "uint256"
            },
            {
              "internalType": "address",
              "name": "lockFeeToken",
              "type": "address"
            }
          ],
          "internalType": "struct IGoPlusLocker.FeeStruct",
          "name": "feeObj_",
          "type": "tuple"
        }
      ],
      "name": "lockWithCustomFee",
      "outputs": [
        {
          "internalType": "uint256",
          "name": "lockId",
          "type": "uint256"
        }
      ],
      "stateMutability": "payable",
      "type": "function"
    },
    {
      "inputs": [
        {
          "internalType": "uint256",
          "name": "lockId",
          "type": "uint256"
        }
      ],
      "name": "locks",
      "outputs": [
        {
          "components": [
            {
              "internalType": "uint256",
              "name": "lockId",
              "type": "uint256"
            },
            {
              "internalType": "address",
              "name": "nftPositionManager",
              "type": "address"
            },
            {
              "internalType": "address",
              "name": "pendingOwner",
              "type": "address"
            },
            {
              "internalType": "address",
              "name": "owner",
              "type": "address"
            },
            {
              "internalType": "address",
              "name": "collector",
              "type": "address"
            },
            {
              "internalType": "address",
              "name": "pool",
              "type": "address"
            },
            {
              "internalType": "uint256",
              "name": "collectFee",
              "type": "uint256"
            },
            {
              "internalType": "uint256",
              "name": "nftId",
              "type": "uint256"
            },
            {
              "internalType": "uint256",
              "name": "startTime",
              "type": "uint256"
            },
            {
              "internalType": "uint256",
              "name": "endTime",
              "type": "uint256"
            }
          ],
          "internalType": "struct IGoPlusLocker.LockInfo",
          "name": "",
          "type": "tuple"
        }
      ],
      "stateMutability": "view",
      "type": "function"
    },
    {
      "inputs": [],
      "name": "nextLockId",
      "outputs": [
        {
          "internalType": "uint256",
          "name": "",
          "type": "uint256"
        }
      ],
      "stateMutability": "view",
      "type": "function"
    },
    {
      "inputs": [
        {
          "internalType": "uint256",
          "name": "",
          "type": "uint256"
        },
        {
          "internalType": "uint256",
          "name": "",
          "type": "uint256"
        }
      ],
      "name": "relock",
      "outputs": [],
      "stateMutability": "nonpayable",
      "type": "function"
    },
    {
      "inputs": [
        {
          "internalType": "string",
          "name": "name_",
          "type": "string"
        }
      ],
      "name": "removeFee",
      "outputs": [],
      "stateMutability": "nonpayable",
      "type": "function"
    },
    {
      "inputs": [
        {
          "internalType": "uint256",
          "name": "",
          "type": "uint256"
        },
        {
          "internalType": "address",
          "name": "",
          "type": "address"
        }
      ],
      "name": "setCollectAddress",
      "outputs": [],
      "stateMutability": "nonpayable",
      "type": "function"
    },
    {
      "inputs": [
        {
          "internalType": "address",
          "name": "nftManager_",
          "type": "address"
        }
      ],
      "name": "supportedNftManager",
      "outputs": [
        {
          "internalType": "bool",
          "name": "",
          "type": "bool"
        }
      ],
      "stateMutability": "view",
      "type": "function"
    },
    {
      "inputs": [
        {
          "internalType": "uint256",
          "name": "",
          "type": "uint256"
        },
        {
          "internalType": "address",
          "name": "",
          "type": "address"
        }
      ],
      "name": "transferLock",
      "outputs": [],
      "stateMutability": "nonpayable",
      "type": "function"
    },
    {
      "inputs": [
        {
          "internalType": "uint256",
          "name": "",
          "type": "uint256"
        }
      ],
      "name": "unlock",
      "outputs": [],
      "stateMutability": "nonpayable",
      "type": "function"
    },
    {
      "inputs": [
        {
          "internalType": "address",
          "name": "feeReceiver_",
          "type": "address"
        }
      ],
      "name": "updateFeeReceiver",
      "outputs": [],
      "stateMutability": "nonpayable",
      "type": "function"
    },
    {
      "inputs": [
        {
          "internalType": "address",
          "name": "",
          "type": "address"
        }
      ],
      "name": "updateFeeSigner",
      "outputs": [],
      "stateMutability": "nonpayable",
      "type": "function"
    }
  ],
  "transactionHash": "0xd49688edf839de2f66bfe579c8e28bec4ab64e6e5402c0623e32471f85b18223",
  "args": [
    "0xa51ADb08Cbe6Ae398046A23bec013979816B77Ab"
  ],
  "numDeployments": 1,
  "solcInputHash": "9326df4f4c0627ea5e7f6f63ba84ba86",
  "bytecode": "0x6080604052348015600f57600080fd5b5060405161131d38038061131d833981016040819052602c916052565b6001600160a01b03166000908152600660205260409020805460ff191660011790556080565b600060208284031215606357600080fd5b81516001600160a01b0381168114607957600080fd5b9392505050565b61128e8061008f6000396000f3fe6080604052600436106101ac5760003560e01c806387d8de3d116100ec578063c69bebe41161008a578063d73792a911610064578063d73792a914610432578063ed1eee6814610448578063f0582e1414610468578063f4dadc61146104a157600080fd5b8063c69bebe4146101b1578063cdb5661f14610405578063d5fdb7321461036457600080fd5b8063b2fb30cb116100c6578063b2fb30cb146103cc578063b3f00674146103e7578063b48dd3be146103ad578063b707a288146103ad57600080fd5b806387d8de3d1461039a578063ab9ae180146103ad578063b0834893146101b157600080fd5b80632473a6b2116101595780636198e339116101335780636198e339146101d15780636518a0b3146103455780636850cb24146103645780636ec3af851461037f57600080fd5b80632473a6b2146102bb578063260e12b0146102db578063280f38671461032557600080fd5b8063100fc9431161018a578063100fc9431461022357806317d616a01461024557806323a35de91461028e57600080fd5b806306f9b07a146101b1578063093cf391146101d15780630d120331146101ec575b600080fd5b3480156101bd57600080fd5b506101cf6101cc366004610bb8565b50565b005b3480156101dd57600080fd5b506101cf6101cc366004610bdc565b3480156101f857600080fd5b506002546001600160a01b03165b6040516001600160a01b0390911681526020015b60405180910390f35b34801561022f57600080fd5b506101cf61023e366004610cca565b5050505050565b34801561025157600080fd5b5061027e610260366004610d39565b80516020918201206000908152908190526040902060010154151590565b604051901515815260200161021a565b34801561029a57600080fd5b506102ae6102a9366004610bb8565b6105ad565b60405161021a9190610d76565b3480156102c757600080fd5b5061027e6102d6366004610d39565b610619565b3480156102e757600080fd5b506103056102f6366004610dde565b50600093849350839250829150565b60408051948552602085019390935291830152606082015260800161021a565b34801561033157600080fd5b506101cf610340366004610e2d565b505050565b34801561035157600080fd5b506003545b60405190815260200161021a565b34801561037057600080fd5b506101cf6101cc366004610d39565b61035661038d366004610e6e565b6000979650505050505050565b6103566103a8366004610f8c565b610644565b3480156103b957600080fd5b506101cf6103c8366004611013565b5050565b3480156103d857600080fd5b506101cf6103c8366004611043565b3480156103f357600080fd5b506001546001600160a01b0316610206565b34801561041157600080fd5b50610425610420366004610bdc565b610957565b60405161021a9190611089565b34801561043e57600080fd5b5061035661271081565b34801561045457600080fd5b50610425610463366004610d39565b610a74565b34801561047457600080fd5b5061027e610483366004610bb8565b6001600160a01b031660009081526006602052604090205460ff1690565b3480156104ad57600080fd5b506105a06104bc366004610bdc565b6040805161014081018252600080825260208201819052918101829052606081018290526080810182905260a0810182905260c0810182905260e081018290526101008101829052610120810191909152506000908152600460208181526040928390208351610140810185528154815260018201546001600160a01b03908116938201939093526002820154831694810194909452600381015482166060850152918201548116608084015260058201541660a0830152600681015460c0830152600781015460e083015260088101546101008301526009015461012082015290565b60405161021a91906110f9565b6001600160a01b03811660009081526007602090815260409182902080548351818402810184019094528084526060939283018282801561060d57602002820191906000526020600020905b8154815260200190600101908083116105f9575b50505050509050919050565b600060058260405161062b91906111bc565b9081526040519081900360200190205460ff1692915050565b6001600160a01b03861660009081526006602052604081205460ff166106ca576040517f08c379a000000000000000000000000000000000000000000000000000000000815260206004820152601760248201527f556e737570706f72746564204e4654206d616e61676572000000000000000000604482015260640160405180910390fd5b6040517f23b872dd000000000000000000000000000000000000000000000000000000008152336004820152306024820152604481018790526001600160a01b038816906323b872dd90606401600060405180830381600087803b15801561073157600080fd5b505af1158015610745573d6000803e3d6000fd5b50506003805492509050600061075a836111d8565b919050559050604051806101400160405280828152602001886001600160a01b0316815260200160006001600160a01b03168152602001866001600160a01b03168152602001856001600160a01b0316815260200160006001600160a01b031681526020016000815260200187815260200142815260200184815250600460008381526020019081526020016000206000820151816000015560208201518160010160006101000a8154816001600160a01b0302191690836001600160a01b0316021790555060408201518160020160006101000a8154816001600160a01b0302191690836001600160a01b0316021790555060608201518160030160006101000a8154816001600160a01b0302191690836001600160a01b0316021790555060808201518160040160006101000a8154816001600160a01b0302191690836001600160a01b0316021790555060a08201518160050160006101000a8154816001600160a01b0302191690836001600160a01b0316021790555060c0820151816006015560e082015181600701556101008201518160080155610120820151816009015590505060076000866001600160a01b03166001600160a01b031681526020019081526020016000208190806001815401808255809150506001900390600052602060002001600090919091909150559695505050505050565b6109926040518060a001604052806060815260200160008152602001600081526020016000815260200160006001600160a01b031681525090565b60008281526020819052604090819020815160a081019092528054829082906109ba9061121e565b80601f01602080910402602001604051908101604052809291908181526020018280546109e69061121e565b8015610a335780601f10610a0857610100808354040283529160200191610a33565b820191906000526020600020905b815481529060010190602001808311610a1657829003601f168201915b50505091835250506001820154602082015260028201546040820152600382015460608201526004909101546001600160a01b031660809091015292915050565b610aaf6040518060a001604052806060815260200160008152602001600081526020016000815260200160006001600160a01b031681525090565b6000828051906020012090506000808281526020019081526020016000206040518060a0016040529081600082018054610ae89061121e565b80601f0160208091040260200160405190810160405280929190818152602001828054610b149061121e565b8015610b615780601f10610b3657610100808354040283529160200191610b61565b820191906000526020600020905b815481529060010190602001808311610b4457829003601f168201915b50505091835250506001820154602082015260028201546040820152600382015460608201526004909101546001600160a01b03166080909101529392505050565b6001600160a01b03811681146101cc57600080fd5b600060208284031215610bca57600080fd5b8135610bd581610ba3565b9392505050565b600060208284031215610bee57600080fd5b5035919050565b634e487b7160e01b600052604160045260246000fd5b60405160a0810167ffffffffffffffff81118282101715610c2e57610c2e610bf5565b60405290565b600082601f830112610c4557600080fd5b81356020830160008067ffffffffffffffff841115610c6657610c66610bf5565b50604051601f19601f85018116603f0116810181811067ffffffffffffffff82111715610c9557610c95610bf5565b604052838152905080828401871015610cad57600080fd5b838360208301376000602085830101528094505050505092915050565b600080600080600060a08688031215610ce257600080fd5b853567ffffffffffffffff811115610cf957600080fd5b610d0588828901610c34565b9550506020860135935060408601359250606086013591506080860135610d2b81610ba3565b809150509295509295909350565b600060208284031215610d4b57600080fd5b813567ffffffffffffffff811115610d6257600080fd5b610d6e84828501610c34565b949350505050565b602080825282518282018190526000918401906040840190835b81811015610dae578351835260209384019390920191600101610d90565b509095945050505050565b80356fffffffffffffffffffffffffffffffff81168114610dd957600080fd5b919050565b60008060008060808587031215610df457600080fd5b843593506020850135610e0681610ba3565b9250610e1460408601610db9565b9150610e2260608601610db9565b905092959194509250565b600080600060608486031215610e4257600080fd5b8335610e4d81610ba3565b92506020840135610e5d81610ba3565b929592945050506040919091013590565b600080600080600080600060e0888a031215610e8957600080fd5b8735610e9481610ba3565b9650602088013595506040880135610eab81610ba3565b94506060880135610ebb81610ba3565b93506080880135925060a088013567ffffffffffffffff811115610ede57600080fd5b610eea8a828b01610c34565b92505060c088013567ffffffffffffffff811115610f0757600080fd5b880160a0818b031215610f1957600080fd5b610f21610c0b565b813567ffffffffffffffff811115610f3857600080fd5b610f448c828501610c34565b82525060208281013590820152604080830135908201526060808301359082015260809091013590610f7582610ba3565b816080820152809250505092959891949750929550565b60008060008060008060c08789031215610fa557600080fd5b8635610fb081610ba3565b9550602087013594506040870135610fc781610ba3565b93506060870135610fd781610ba3565b92506080870135915060a087013567ffffffffffffffff811115610ffa57600080fd5b61100689828a01610c34565b9150509295509295509295565b6000806040838503121561102657600080fd5b82359150602083013561103881610ba3565b809150509250929050565b6000806040838503121561105657600080fd5b50508035926020909101359150565b60005b83811015611080578181015183820152602001611068565b50506000910152565b602081526000825160a0602084015280518060c08501526110b18160e0860160208501611065565b6020850151604085015260408501516060850152606085015160808501526001600160a01b0360808601511660a085015260e0601f19601f8301168501019250505092915050565b8151815260208083015161014083019161111d908401826001600160a01b03169052565b50604083015161113860408401826001600160a01b03169052565b50606083015161115360608401826001600160a01b03169052565b50608083015161116e60808401826001600160a01b03169052565b5060a083015161118960a08401826001600160a01b03169052565b5060c083015160c083015260e083015160e083015261010083015161010083015261012083015161012083015292915050565b600082516111ce818460208701611065565b9190910192915050565b60007fffffffffffffffffffffffffffffffffffffffffffffffffffffffffffffffff820361121757634e487b7160e01b600052601160045260246000fd5b5060010190565b600181811c9082168061123257607f821691505b60208210810361125257634e487b7160e01b600052602260045260246000fd5b5091905056fea2646970667358221220a25bc4b674bd225ede3803dd6bf635370dac548f8171871752bd95ca4cb51c8564736f6c634300081c0033",
  "devdoc": {
    "kind": "dev",
    "methods": {},
    "version": 1
  },
  "userdoc": {
    "kind": "user",
    "methods": {},
    "version": 1
  },
  "storageLayout": {
    "storage": [
      {
        "astId": 21742,
        "contract": "contracts/launchpad/clmm/locker/ThenaLocker.sol:ThenaLocker",
        "label": "_fees",
        "offset": 0,
        "slot": "0",
        "type": "t_mapping(t_bytes32,t_struct(FeeStruct)16052_storage)"
      },
      {
        "astId": 21744,
        "contract": "contracts/launchpad/clmm/locker/ThenaLocker.sol:ThenaLocker",
        "label": "_feeReceiver",
        "offset": 0,
        "slot": "1",
        "type": "t_address"
      },
      {
        "astId": 21746,
        "contract": "contracts/launchpad/clmm/locker/ThenaLocker.sol:ThenaLocker",
        "label": "_customFeeSigner",
        "offset": 0,
        "slot": "2",
        "type": "t_address"
      },
      {
        "astId": 21748,
        "contract": "contracts/launchpad/clmm/locker/ThenaLocker.sol:ThenaLocker",
        "label": "_nextLockId",
        "offset": 0,
        "slot": "3",
        "type": "t_uint256"
      },
      {
        "astId": 21753,
        "contract": "contracts/launchpad/clmm/locker/ThenaLocker.sol:ThenaLocker",
        "label": "_locks",
        "offset": 0,
        "slot": "4",
        "type": "t_mapping(t_uint256,t_struct(LockInfo)16073_storage)"
      },
      {
        "astId": 21757,
        "contract": "contracts/launchpad/clmm/locker/ThenaLocker.sol:ThenaLocker",
        "label": "_disabledSigs",
        "offset": 0,
        "slot": "5",
        "type": "t_mapping(t_bytes_memory_ptr,t_bool)"
      },
      {
        "astId": 21761,
        "contract": "contracts/launchpad/clmm/locker/ThenaLocker.sol:ThenaLocker",
        "label": "_supportedNftManagers",
        "offset": 0,
        "slot": "6",
        "type": "t_mapping(t_address,t_bool)"
      },
      {
        "astId": 21766,
        "contract": "contracts/launchpad/clmm/locker/ThenaLocker.sol:ThenaLocker",
        "label": "_userLocks",
        "offset": 0,
        "slot": "7",
        "type": "t_mapping(t_address,t_array(t_uint256)dyn_storage)"
      }
    ],
    "types": {
      "t_address": {
        "encoding": "inplace",
        "label": "address",
        "numberOfBytes": "20"
      },
      "t_array(t_uint256)dyn_storage": {
        "base": "t_uint256",
        "encoding": "dynamic_array",
        "label": "uint256[]",
        "numberOfBytes": "32"
      },
      "t_bool": {
        "encoding": "inplace",
        "label": "bool",
        "numberOfBytes": "1"
      },
      "t_bytes32": {
        "encoding": "inplace",
        "label": "bytes32",
        "numberOfBytes": "32"
      },
      "t_bytes_memory_ptr": {
        "encoding": "bytes",
        "label": "bytes",
        "numberOfBytes": "32"
      },
      "t_mapping(t_address,t_array(t_uint256)dyn_storage)": {
        "encoding": "mapping",
        "key": "t_address",
        "label": "mapping(address => uint256[])",
        "numberOfBytes": "32",
        "value": "t_array(t_uint256)dyn_storage"
      },
      "t_mapping(t_address,t_bool)": {
        "encoding": "mapping",
        "key": "t_address",
        "label": "mapping(address => bool)",
        "numberOfBytes": "32",
        "value": "t_bool"
      },
      "t_mapping(t_bytes32,t_struct(FeeStruct)16052_storage)": {
        "encoding": "mapping",
        "key": "t_bytes32",
        "label": "mapping(bytes32 => struct IGoPlusLocker.FeeStruct)",
        "numberOfBytes": "32",
        "value": "t_struct(FeeStruct)16052_storage"
      },
      "t_mapping(t_bytes_memory_ptr,t_bool)": {
        "encoding": "mapping",
        "key": "t_bytes_memory_ptr",
        "label": "mapping(bytes => bool)",
        "numberOfBytes": "32",
        "value": "t_bool"
      },
      "t_mapping(t_uint256,t_struct(LockInfo)16073_storage)": {
        "encoding": "mapping",
        "key": "t_uint256",
        "label": "mapping(uint256 => struct IGoPlusLocker.LockInfo)",
        "numberOfBytes": "32",
        "value": "t_struct(LockInfo)16073_storage"
      },
      "t_string_storage": {
        "encoding": "bytes",
        "label": "string",
        "numberOfBytes": "32"
      },
      "t_struct(FeeStruct)16052_storage": {
        "encoding": "inplace",
        "label": "struct IGoPlusLocker.FeeStruct",
        "members": [
          {
            "astId": 16043,
            "contract": "contracts/launchpad/clmm/locker/ThenaLocker.sol:ThenaLocker",
            "label": "name",
            "offset": 0,
            "slot": "0",
            "type": "t_string_storage"
          },
          {
            "astId": 16045,
            "contract": "contracts/launchpad/clmm/locker/ThenaLocker.sol:ThenaLocker",
            "label": "lpFee",
            "offset": 0,
            "slot": "1",
            "type": "t_uint256"
          },
          {
            "astId": 16047,
            "contract": "contracts/launchpad/clmm/locker/ThenaLocker.sol:ThenaLocker",
            "label": "collectFee",
            "offset": 0,
            "slot": "2",
            "type": "t_uint256"
          },
          {
            "astId": 16049,
            "contract": "contracts/launchpad/clmm/locker/ThenaLocker.sol:ThenaLocker",
            "label": "lockFee",
            "offset": 0,
            "slot": "3",
            "type": "t_uint256"
          },
          {
            "astId": 16051,
            "contract": "contracts/launchpad/clmm/locker/ThenaLocker.sol:ThenaLocker",
            "label": "lockFeeToken",
            "offset": 0,
            "slot": "4",
            "type": "t_address"
          }
        ],
        "numberOfBytes": "160"
      },
      "t_struct(LockInfo)16073_storage": {
        "encoding": "inplace",
        "label": "struct IGoPlusLocker.LockInfo",
        "members": [
          {
            "astId": 16054,
            "contract": "contracts/launchpad/clmm/locker/ThenaLocker.sol:ThenaLocker",
            "label": "lockId",
            "offset": 0,
            "slot": "0",
            "type": "t_uint256"
          },
          {
            "astId": 16056,
            "contract": "contracts/launchpad/clmm/locker/ThenaLocker.sol:ThenaLocker",
            "label": "nftPositionManager",
            "offset": 0,
            "slot": "1",
            "type": "t_address"
          },
          {
            "astId": 16058,
            "contract": "contracts/launchpad/clmm/locker/ThenaLocker.sol:ThenaLocker",
            "label": "pendingOwner",
            "offset": 0,
            "slot": "2",
            "type": "t_address"
          },
          {
            "astId": 16060,
            "contract": "contracts/launchpad/clmm/locker/ThenaLocker.sol:ThenaLocker",
            "label": "owner",
            "offset": 0,
            "slot": "3",
            "type": "t_address"
          },
          {
            "astId": 16062,
            "contract": "contracts/launchpad/clmm/locker/ThenaLocker.sol:ThenaLocker",
            "label": "collector",
            "offset": 0,
            "slot": "4",
            "type": "t_address"
          },
          {
            "astId": 16064,
            "contract": "contracts/launchpad/clmm/locker/ThenaLocker.sol:ThenaLocker",
            "label": "pool",
            "offset": 0,
            "slot": "5",
            "type": "t_address"
          },
          {
            "astId": 16066,
            "contract": "contracts/launchpad/clmm/locker/ThenaLocker.sol:ThenaLocker",
            "label": "collectFee",
            "offset": 0,
            "slot": "6",
            "type": "t_uint256"
          },
          {
            "astId": 16068,
            "contract": "contracts/launchpad/clmm/locker/ThenaLocker.sol:ThenaLocker",
            "label": "nftId",
            "offset": 0,
            "slot": "7",
            "type": "t_uint256"
          },
          {
            "astId": 16070,
            "contract": "contracts/launchpad/clmm/locker/ThenaLocker.sol:ThenaLocker",
            "label": "startTime",
            "offset": 0,
            "slot": "8",
            "type": "t_uint256"
          },
          {
            "astId": 16072,
            "contract": "contracts/launchpad/clmm/locker/ThenaLocker.sol:ThenaLocker",
            "label": "endTime",
            "offset": 0,
            "slot": "9",
            "type": "t_uint256"
          }
        ],
        "numberOfBytes": "320"
      },
      "t_uint256": {
        "encoding": "inplace",
        "label": "uint256",
        "numberOfBytes": "32"
      }
    }
  }
}