{
  "address": "0x87808d36D516d998DEf982B8d2319d5792EC1556",
  "abi": [
    {
      "inputs": [],
      "name": "ERC721EnumerableForbiddenBatchMint",
      "type": "error"
    },
    {
      "inputs": [
        {
          "internalType": "address",
          "name": "sender",
          "type": "address"
        },
        {
          "internalType": "uint256",
          "name": "tokenId",
          "type": "uint256"
        },
        {
          "internalType": "address",
          "name": "owner",
          "type": "address"
        }
      ],
      "name": "ERC721IncorrectOwner",
      "type": "error"
    },
    {
      "inputs": [
        {
          "internalType": "address",
          "name": "operator",
          "type": "address"
        },
        {
          "internalType": "uint256",
          "name": "tokenId",
          "type": "uint256"
        }
      ],
      "name": "ERC721InsufficientApproval",
      "type": "error"
    },
    {
      "inputs": [
        {
          "internalType": "address",
          "name": "approver",
          "type": "address"
        }
      ],
      "name": "ERC721InvalidApprover",
      "type": "error"
    },
    {
      "inputs": [
        {
          "internalType": "address",
          "name": "operator",
          "type": "address"
        }
      ],
      "name": "ERC721InvalidOperator",
      "type": "error"
    },
    {
      "inputs": [
        {
          "internalType": "address",
          "name": "owner",
          "type": "address"
        }
      ],
      "name": "ERC721InvalidOwner",
      "type": "error"
    },
    {
      "inputs": [
        {
          "internalType": "address",
          "name": "receiver",
          "type": "address"
        }
      ],
      "name": "ERC721InvalidReceiver",
      "type": "error"
    },
    {
      "inputs": [
        {
          "internalType": "address",
          "name": "sender",
          "type": "address"
        }
      ],
      "name": "ERC721InvalidSender",
      "type": "error"
    },
    {
      "inputs": [
        {
          "internalType": "uint256",
          "name": "tokenId",
          "type": "uint256"
        }
      ],
      "name": "ERC721NonexistentToken",
      "type": "error"
    },
    {
      "inputs": [
        {
          "internalType": "address",
          "name": "owner",
          "type": "address"
        },
        {
          "internalType": "uint256",
          "name": "index",
          "type": "uint256"
        }
      ],
      "name": "ERC721OutOfBoundsIndex",
      "type": "error"
    },
    {
      "inputs": [],
      "name": "InvalidInitialization",
      "type": "error"
    },
    {
      "inputs": [],
      "name": "NotInitializing",
      "type": "error"
    },
    {
      "inputs": [
        {
          "internalType": "address",
          "name": "owner",
          "type": "address"
        }
      ],
      "name": "OwnableInvalidOwner",
      "type": "error"
    },
    {
      "inputs": [
        {
          "internalType": "address",
          "name": "account",
          "type": "address"
        }
      ],
      "name": "OwnableUnauthorizedAccount",
      "type": "error"
    },
    {
      "inputs": [
        {
          "internalType": "address",
          "name": "token",
          "type": "address"
        }
      ],
      "name": "SafeERC20FailedOperation",
      "type": "error"
    },
    {
      "anonymous": false,
      "inputs": [
        {
          "indexed": true,
          "internalType": "address",
          "name": "_adapter",
          "type": "address"
        },
        {
          "indexed": false,
          "internalType": "bool",
          "name": "_enabled",
          "type": "bool"
        }
      ],
      "name": "AdapterSet",
      "type": "event"
    },
    {
      "anonymous": false,
      "inputs": [
        {
          "indexed": true,
          "internalType": "address",
          "name": "owner",
          "type": "address"
        },
        {
          "indexed": true,
          "internalType": "address",
          "name": "approved",
          "type": "address"
        },
        {
          "indexed": true,
          "internalType": "uint256",
          "name": "tokenId",
          "type": "uint256"
        }
      ],
      "name": "Approval",
      "type": "event"
    },
    {
      "anonymous": false,
      "inputs": [
        {
          "indexed": true,
          "internalType": "address",
          "name": "owner",
          "type": "address"
        },
        {
          "indexed": true,
          "internalType": "address",
          "name": "operator",
          "type": "address"
        },
        {
          "indexed": false,
          "internalType": "bool",
          "name": "approved",
          "type": "bool"
        }
      ],
      "name": "ApprovalForAll",
      "type": "event"
    },
    {
      "anonymous": false,
      "inputs": [
        {
          "indexed": true,
          "internalType": "contract IERC20",
          "name": "token",
          "type": "address"
        },
        {
          "indexed": true,
          "internalType": "address",
          "name": "creator",
          "type": "address"
        },
        {
          "indexed": false,
          "internalType": "uint256",
          "name": "amount",
          "type": "uint256"
        }
      ],
      "name": "CreatorAllocation",
      "type": "event"
    },
    {
      "anonymous": false,
      "inputs": [
        {
          "indexed": true,
          "internalType": "address",
          "name": "newCron",
          "type": "address"
        }
      ],
      "name": "CronUpdated",
      "type": "event"
    },
    {
      "anonymous": false,
      "inputs": [
        {
          "indexed": true,
          "internalType": "address",
          "name": "feeDestination",
          "type": "address"
        },
        {
          "indexed": false,
          "internalType": "uint256",
          "name": "fee",
          "type": "uint256"
        }
      ],
      "name": "FeeUpdated",
      "type": "event"
    },
    {
      "anonymous": false,
      "inputs": [
        {
          "indexed": false,
          "internalType": "uint64",
          "name": "version",
          "type": "uint64"
        }
      ],
      "name": "Initialized",
      "type": "event"
    },
    {
      "anonymous": false,
      "inputs": [
        {
          "indexed": false,
          "internalType": "string",
          "name": "metadataUrl",
          "type": "string"
        }
      ],
      "name": "MetadataUrlUpdated",
      "type": "event"
    },
    {
      "anonymous": false,
      "inputs": [
        {
          "indexed": true,
          "internalType": "address",
          "name": "previousOwner",
          "type": "address"
        },
        {
          "indexed": true,
          "internalType": "address",
          "name": "newOwner",
          "type": "address"
        }
      ],
      "name": "OwnershipTransferred",
      "type": "event"
    },
    {
      "anonymous": false,
      "inputs": [
        {
          "indexed": true,
          "internalType": "address",
          "name": "referralDestination",
          "type": "address"
        },
        {
          "indexed": false,
          "internalType": "uint256",
          "name": "referralFee",
          "type": "uint256"
        }
      ],
      "name": "ReferralUpdated",
      "type": "event"
    },
    {
      "anonymous": false,
      "inputs": [
        {
          "indexed": true,
          "internalType": "contract IERC20",
          "name": "token",
          "type": "address"
        },
        {
          "indexed": true,
          "internalType": "address",
          "name": "adapter",
          "type": "address"
        },
        {
          "indexed": true,
          "internalType": "address",
          "name": "pool",
          "type": "address"
        },
        {
          "components": [
            {
              "internalType": "bool",
              "name": "isPremium",
              "type": "bool"
            },
            {
              "internalType": "bytes32",
              "name": "salt",
              "type": "bytes32"
            },
            {
              "internalType": "contract ICLMMAdapter",
              "name": "adapter",
              "type": "address"
            },
            {
              "internalType": "contract IERC20",
              "name": "fundingToken",
              "type": "address"
            },
            {
              "internalType": "contract ILaunchpool[]",
              "name": "launchPools",
              "type": "address[]"
            },
            {
              "internalType": "string",
              "name": "metadata",
              "type": "string"
            },
            {
              "internalType": "string",
              "name": "name",
              "type": "string"
            },
            {
              "internalType": "string",
              "name": "symbol",
              "type": "string"
            },
            {
              "internalType": "uint16",
              "name": "creatorAllocation",
              "type": "uint16"
            },
            {
              "internalType": "uint256[]",
              "name": "launchPoolAmounts",
              "type": "uint256[]"
            },
            {
              "components": [
                {
                  "internalType": "int24",
                  "name": "launchTick",
                  "type": "int24"
                },
                {
                  "internalType": "int24",
                  "name": "graduationTick",
                  "type": "int24"
                },
                {
                  "internalType": "int24",
                  "name": "upperMaxTick",
                  "type": "int24"
                },
                {
                  "internalType": "uint24",
                  "name": "fee",
                  "type": "uint24"
                },
                {
                  "internalType": "int24",
                  "name": "tickSpacing",
                  "type": "int24"
                },
                {
                  "internalType": "uint256",
                  "name": "graduationLiquidity",
                  "type": "uint256"
                }
              ],
              "internalType": "struct ITokenLaunchpad.ValueParams",
              "name": "valueParams",
              "type": "tuple"
            }
          ],
          "indexed": false,
          "internalType": "struct ITokenLaunchpad.CreateParams",
          "name": "params",
          "type": "tuple"
        }
      ],
      "name": "TokenLaunched",
      "type": "event"
    },
    {
      "anonymous": false,
      "inputs": [
        {
          "indexed": true,
          "internalType": "address",
          "name": "from",
          "type": "address"
        },
        {
          "indexed": true,
          "internalType": "address",
          "name": "to",
          "type": "address"
        },
        {
          "indexed": true,
          "internalType": "uint256",
          "name": "tokenId",
          "type": "uint256"
        }
      ],
      "name": "Transfer",
      "type": "event"
    },
    {
      "anonymous": false,
      "inputs": [
        {
          "indexed": true,
          "internalType": "address",
          "name": "_address",
          "type": "address"
        },
        {
          "indexed": false,
          "internalType": "bool",
          "name": "_whitelisted",
          "type": "bool"
        }
      ],
      "name": "WhitelistUpdated",
      "type": "event"
    },
    {
      "inputs": [],
      "name": "MAX_CREATOR_ALLOCATION",
      "outputs": [
        {
          "internalType": "uint16",
          "name": "",
          "type": "uint16"
        }
      ],
      "stateMutability": "view",
      "type": "function"
    },
    {
      "inputs": [],
      "name": "adapter",
      "outputs": [
        {
          "internalType": "contract ICLMMAdapter",
          "name": "",
          "type": "address"
        }
      ],
      "stateMutability": "view",
      "type": "function"
    },
    {
      "inputs": [
        {
          "internalType": "contract ICLMMAdapter",
          "name": "",
          "type": "address"
        }
      ],
      "name": "adapters",
      "outputs": [
        {
          "internalType": "bool",
          "name": "",
          "type": "bool"
        }
      ],
      "stateMutability": "view",
      "type": "function"
    },
    {
      "inputs": [
        {
          "internalType": "address",
          "name": "to",
          "type": "address"
        },
        {
          "internalType": "uint256",
          "name": "tokenId",
          "type": "uint256"
        }
      ],
      "name": "approve",
      "outputs": [],
      "stateMutability": "nonpayable",
      "type": "function"
    },
    {
      "inputs": [
        {
          "internalType": "address",
          "name": "owner",
          "type": "address"
        }
      ],
      "name": "balanceOf",
      "outputs": [
        {
          "internalType": "uint256",
          "name": "",
          "type": "uint256"
        }
      ],
      "stateMutability": "view",
      "type": "function"
    },
    {
      "inputs": [
        {
          "internalType": "contract IERC20",
          "name": "_token",
          "type": "address"
        }
      ],
      "name": "claimFees",
      "outputs": [],
      "stateMutability": "nonpayable",
      "type": "function"
    },
    {
      "inputs": [
        {
          "components": [
            {
              "internalType": "bool",
              "name": "isPremium",
              "type": "bool"
            },
            {
              "internalType": "bytes32",
              "name": "salt",
              "type": "bytes32"
            },
            {
              "internalType": "contract ICLMMAdapter",
              "name": "adapter",
              "type": "address"
            },
            {
              "internalType": "contract IERC20",
              "name": "fundingToken",
              "type": "address"
            },
            {
              "internalType": "contract ILaunchpool[]",
              "name": "launchPools",
              "type": "address[]"
            },
            {
              "internalType": "string",
              "name": "metadata",
              "type": "string"
            },
            {
              "internalType": "string",
              "name": "name",
              "type": "string"
            },
            {
              "internalType": "string",
              "name": "symbol",
              "type": "string"
            },
            {
              "internalType": "uint16",
              "name": "creatorAllocation",
              "type": "uint16"
            },
            {
              "internalType": "uint256[]",
              "name": "launchPoolAmounts",
              "type": "uint256[]"
            },
            {
              "components": [
                {
                  "internalType": "int24",
                  "name": "launchTick",
                  "type": "int24"
                },
                {
                  "internalType": "int24",
                  "name": "graduationTick",
                  "type": "int24"
                },
                {
                  "internalType": "int24",
                  "name": "upperMaxTick",
                  "type": "int24"
                },
                {
                  "internalType": "uint24",
                  "name": "fee",
                  "type": "uint24"
                },
                {
                  "internalType": "int24",
                  "name": "tickSpacing",
                  "type": "int24"
                },
                {
                  "internalType": "uint256",
                  "name": "graduationLiquidity",
                  "type": "uint256"
                }
              ],
              "internalType": "struct ITokenLaunchpad.ValueParams",
              "name": "valueParams",
              "type": "tuple"
            }
          ],
          "internalType": "struct ITokenLaunchpad.CreateParams",
          "name": "p",
          "type": "tuple"
        },
        {
          "internalType": "address",
          "name": "expected",
          "type": "address"
        },
        {
          "internalType": "uint256",
          "name": "amount",
          "type": "uint256"
        }
      ],
      "name": "createAndBuy",
      "outputs": [
        {
          "internalType": "address",
          "name": "",
          "type": "address"
        },
        {
          "internalType": "uint256",
          "name": "",
          "type": "uint256"
        },
        {
          "internalType": "uint256",
          "name": "",
          "type": "uint256"
        }
      ],
      "stateMutability": "payable",
      "type": "function"
    },
    {
      "inputs": [],
      "name": "creationFee",
      "outputs": [
        {
          "internalType": "uint256",
          "name": "",
          "type": "uint256"
        }
      ],
      "stateMutability": "view",
      "type": "function"
    },
    {
      "inputs": [],
      "name": "cron",
      "outputs": [
        {
          "internalType": "address",
          "name": "",
          "type": "address"
        }
      ],
      "stateMutability": "view",
      "type": "function"
    },
    {
      "inputs": [
        {
          "internalType": "contract IERC20",
          "name": "",
          "type": "address"
        },
        {
          "internalType": "contract ICLMMAdapter",
          "name": "",
          "type": "address"
        }
      ],
      "name": "defaultValueParams",
      "outputs": [
        {
          "internalType": "int24",
          "name": "launchTick",
          "type": "int24"
        },
        {
          "internalType": "int24",
          "name": "graduationTick",
          "type": "int24"
        },
        {
          "internalType": "int24",
          "name": "upperMaxTick",
          "type": "int24"
        },
        {
          "internalType": "uint24",
          "name": "fee",
          "type": "uint24"
        },
        {
          "internalType": "int24",
          "name": "tickSpacing",
          "type": "int24"
        },
        {
          "internalType": "uint256",
          "name": "graduationLiquidity",
          "type": "uint256"
        }
      ],
      "stateMutability": "view",
      "type": "function"
    },
    {
      "inputs": [],
      "name": "feeDestination",
      "outputs": [
        {
          "internalType": "address",
          "name": "",
          "type": "address"
        }
      ],
      "stateMutability": "view",
      "type": "function"
    },
    {
      "inputs": [],
      "name": "feeDiscountAmount",
      "outputs": [
        {
          "internalType": "uint256",
          "name": "",
          "type": "uint256"
        }
      ],
      "stateMutability": "view",
      "type": "function"
    },
    {
      "inputs": [
        {
          "internalType": "uint256",
          "name": "tokenId",
          "type": "uint256"
        }
      ],
      "name": "getApproved",
      "outputs": [
        {
          "internalType": "address",
          "name": "",
          "type": "address"
        }
      ],
      "stateMutability": "view",
      "type": "function"
    },
    {
      "inputs": [
        {
          "internalType": "contract IERC20",
          "name": "_token",
          "type": "address"
        },
        {
          "internalType": "contract ICLMMAdapter",
          "name": "_adapter",
          "type": "address"
        }
      ],
      "name": "getDefaultValueParams",
      "outputs": [
        {
          "components": [
            {
              "internalType": "int24",
              "name": "launchTick",
              "type": "int24"
            },
            {
              "internalType": "int24",
              "name": "graduationTick",
              "type": "int24"
            },
            {
              "internalType": "int24",
              "name": "upperMaxTick",
              "type": "int24"
            },
            {
              "internalType": "uint24",
              "name": "fee",
              "type": "uint24"
            },
            {
              "internalType": "int24",
              "name": "tickSpacing",
              "type": "int24"
            },
            {
              "internalType": "uint256",
              "name": "graduationLiquidity",
              "type": "uint256"
            }
          ],
          "internalType": "struct ITokenLaunchpad.ValueParams",
          "name": "params",
          "type": "tuple"
        }
      ],
      "stateMutability": "view",
      "type": "function"
    },
    {
      "inputs": [
        {
          "internalType": "contract IERC20",
          "name": "_token",
          "type": "address"
        }
      ],
      "name": "getQuoteToken",
      "outputs": [
        {
          "internalType": "contract IERC20",
          "name": "quoteToken",
          "type": "address"
        }
      ],
      "stateMutability": "view",
      "type": "function"
    },
    {
      "inputs": [
        {
          "internalType": "contract IERC20",
          "name": "_token",
          "type": "address"
        }
      ],
      "name": "getTokenAdapter",
      "outputs": [
        {
          "internalType": "contract ICLMMAdapter",
          "name": "",
          "type": "address"
        }
      ],
      "stateMutability": "view",
      "type": "function"
    },
    {
      "inputs": [
        {
          "internalType": "contract IERC20",
          "name": "_token",
          "type": "address"
        }
      ],
      "name": "getTokenFee",
      "outputs": [
        {
          "internalType": "uint24",
          "name": "fee",
          "type": "uint24"
        }
      ],
      "stateMutability": "view",
      "type": "function"
    },
    {
      "inputs": [
        {
          "internalType": "contract IERC20",
          "name": "_token",
          "type": "address"
        }
      ],
      "name": "getTokenLaunchParams",
      "outputs": [
        {
          "components": [
            {
              "internalType": "bool",
              "name": "isPremium",
              "type": "bool"
            },
            {
              "internalType": "bytes32",
              "name": "salt",
              "type": "bytes32"
            },
            {
              "internalType": "contract ICLMMAdapter",
              "name": "adapter",
              "type": "address"
            },
            {
              "internalType": "contract IERC20",
              "name": "fundingToken",
              "type": "address"
            },
            {
              "internalType": "contract ILaunchpool[]",
              "name": "launchPools",
              "type": "address[]"
            },
            {
              "internalType": "string",
              "name": "metadata",
              "type": "string"
            },
            {
              "internalType": "string",
              "name": "name",
              "type": "string"
            },
            {
              "internalType": "string",
              "name": "symbol",
              "type": "string"
            },
            {
              "internalType": "uint16",
              "name": "creatorAllocation",
              "type": "uint16"
            },
            {
              "internalType": "uint256[]",
              "name": "launchPoolAmounts",
              "type": "uint256[]"
            },
            {
              "components": [
                {
                  "internalType": "int24",
                  "name": "launchTick",
                  "type": "int24"
                },
                {
                  "internalType": "int24",
                  "name": "graduationTick",
                  "type": "int24"
                },
                {
                  "internalType": "int24",
                  "name": "upperMaxTick",
                  "type": "int24"
                },
                {
                  "internalType": "uint24",
                  "name": "fee",
                  "type": "uint24"
                },
                {
                  "internalType": "int24",
                  "name": "tickSpacing",
                  "type": "int24"
                },
                {
                  "internalType": "uint256",
                  "name": "graduationLiquidity",
                  "type": "uint256"
                }
              ],
              "internalType": "struct ITokenLaunchpad.ValueParams",
              "name": "valueParams",
              "type": "tuple"
            }
          ],
          "internalType": "struct ITokenLaunchpad.CreateParams",
          "name": "params",
          "type": "tuple"
        }
      ],
      "stateMutability": "view",
      "type": "function"
    },
    {
      "inputs": [],
      "name": "getTotalTokens",
      "outputs": [
        {
          "internalType": "uint256",
          "name": "",
          "type": "uint256"
        }
      ],
      "stateMutability": "view",
      "type": "function"
    },
    {
      "inputs": [
        {
          "internalType": "address",
          "name": "_owner",
          "type": "address"
        },
        {
          "internalType": "address",
          "name": "_weth",
          "type": "address"
        },
        {
          "internalType": "address",
          "name": "_premiumToken",
          "type": "address"
        }
      ],
      "name": "initialize",
      "outputs": [],
      "stateMutability": "nonpayable",
      "type": "function"
    },
    {
      "inputs": [
        {
          "internalType": "address",
          "name": "owner",
          "type": "address"
        },
        {
          "internalType": "address",
          "name": "operator",
          "type": "address"
        }
      ],
      "name": "isApprovedForAll",
      "outputs": [
        {
          "internalType": "bool",
          "name": "",
          "type": "bool"
        }
      ],
      "stateMutability": "view",
      "type": "function"
    },
    {
      "inputs": [
        {
          "internalType": "contract IERC20",
          "name": "",
          "type": "address"
        }
      ],
      "name": "launchParams",
      "outputs": [
        {
          "internalType": "bool",
          "name": "isPremium",
          "type": "bool"
        },
        {
          "internalType": "bytes32",
          "name": "salt",
          "type": "bytes32"
        },
        {
          "internalType": "contract ICLMMAdapter",
          "name": "adapter",
          "type": "address"
        },
        {
          "internalType": "contract IERC20",
          "name": "fundingToken",
          "type": "address"
        },
        {
          "internalType": "string",
          "name": "metadata",
          "type": "string"
        },
        {
          "internalType": "string",
          "name": "name",
          "type": "string"
        },
        {
          "internalType": "string",
          "name": "symbol",
          "type": "string"
        },
        {
          "internalType": "uint16",
          "name": "creatorAllocation",
          "type": "uint16"
        },
        {
          "components": [
            {
              "internalType": "int24",
              "name": "launchTick",
              "type": "int24"
            },
            {
              "internalType": "int24",
              "name": "graduationTick",
              "type": "int24"
            },
            {
              "internalType": "int24",
              "name": "upperMaxTick",
              "type": "int24"
            },
            {
              "internalType": "uint24",
              "name": "fee",
              "type": "uint24"
            },
            {
              "internalType": "int24",
              "name": "tickSpacing",
              "type": "int24"
            },
            {
              "internalType": "uint256",
              "name": "graduationLiquidity",
              "type": "uint256"
            }
          ],
          "internalType": "struct ITokenLaunchpad.ValueParams",
          "name": "valueParams",
          "type": "tuple"
        }
      ],
      "stateMutability": "view",
      "type": "function"
    },
    {
      "inputs": [],
      "name": "name",
      "outputs": [
        {
          "internalType": "string",
          "name": "",
          "type": "string"
        }
      ],
      "stateMutability": "view",
      "type": "function"
    },
    {
      "inputs": [],
      "name": "owner",
      "outputs": [
        {
          "internalType": "address",
          "name": "",
          "type": "address"
        }
      ],
      "stateMutability": "view",
      "type": "function"
    },
    {
      "inputs": [
        {
          "internalType": "uint256",
          "name": "tokenId",
          "type": "uint256"
        }
      ],
      "name": "ownerOf",
      "outputs": [
        {
          "internalType": "address",
          "name": "",
          "type": "address"
        }
      ],
      "stateMutability": "view",
      "type": "function"
    },
    {
      "inputs": [],
      "name": "premiumToken",
      "outputs": [
        {
          "internalType": "contract IERC20",
          "name": "",
          "type": "address"
        }
      ],
      "stateMutability": "view",
      "type": "function"
    },
    {
      "inputs": [],
      "name": "referralDestination",
      "outputs": [
        {
          "internalType": "contract IReferralDistributor",
          "name": "",
          "type": "address"
        }
      ],
      "stateMutability": "view",
      "type": "function"
    },
    {
      "inputs": [],
      "name": "referralFee",
      "outputs": [
        {
          "internalType": "uint256",
          "name": "",
          "type": "uint256"
        }
      ],
      "stateMutability": "view",
      "type": "function"
    },
    {
      "inputs": [],
      "name": "renounceOwnership",
      "outputs": [],
      "stateMutability": "nonpayable",
      "type": "function"
    },
    {
      "inputs": [
        {
          "internalType": "address",
          "name": "from",
          "type": "address"
        },
        {
          "internalType": "address",
          "name": "to",
          "type": "address"
        },
        {
          "internalType": "uint256",
          "name": "tokenId",
          "type": "uint256"
        }
      ],
      "name": "safeTransferFrom",
      "outputs": [],
      "stateMutability": "nonpayable",
      "type": "function"
    },
    {
      "inputs": [
        {
          "internalType": "address",
          "name": "from",
          "type": "address"
        },
        {
          "internalType": "address",
          "name": "to",
          "type": "address"
        },
        {
          "internalType": "uint256",
          "name": "tokenId",
          "type": "uint256"
        },
        {
          "internalType": "bytes",
          "name": "data",
          "type": "bytes"
        }
      ],
      "name": "safeTransferFrom",
      "outputs": [],
      "stateMutability": "nonpayable",
      "type": "function"
    },
    {
      "inputs": [
        {
          "internalType": "address",
          "name": "operator",
          "type": "address"
        },
        {
          "internalType": "bool",
          "name": "approved",
          "type": "bool"
        }
      ],
      "name": "setApprovalForAll",
      "outputs": [],
      "stateMutability": "nonpayable",
      "type": "function"
    },
    {
      "inputs": [
        {
          "internalType": "address",
          "name": "_cron",
          "type": "address"
        }
      ],
      "name": "setCron",
      "outputs": [],
      "stateMutability": "nonpayable",
      "type": "function"
    },
    {
      "inputs": [
        {
          "internalType": "contract IERC20",
          "name": "_token",
          "type": "address"
        },
        {
          "internalType": "contract ICLMMAdapter",
          "name": "_adapter",
          "type": "address"
        },
        {
          "components": [
            {
              "internalType": "int24",
              "name": "launchTick",
              "type": "int24"
            },
            {
              "internalType": "int24",
              "name": "graduationTick",
              "type": "int24"
            },
            {
              "internalType": "int24",
              "name": "upperMaxTick",
              "type": "int24"
            },
            {
              "internalType": "uint24",
              "name": "fee",
              "type": "uint24"
            },
            {
              "internalType": "int24",
              "name": "tickSpacing",
              "type": "int24"
            },
            {
              "internalType": "uint256",
              "name": "graduationLiquidity",
              "type": "uint256"
            }
          ],
          "internalType": "struct ITokenLaunchpad.ValueParams",
          "name": "_params",
          "type": "tuple"
        }
      ],
      "name": "setDefaultValueParams",
      "outputs": [],
      "stateMutability": "nonpayable",
      "type": "function"
    },
    {
      "inputs": [
        {
          "internalType": "address",
          "name": "_feeDestination",
          "type": "address"
        },
        {
          "internalType": "uint256",
          "name": "_fee",
          "type": "uint256"
        },
        {
          "internalType": "uint256",
          "name": "_feeDiscountAmount",
          "type": "uint256"
        }
      ],
      "name": "setFeeSettings",
      "outputs": [],
      "stateMutability": "nonpayable",
      "type": "function"
    },
    {
      "inputs": [
        {
          "internalType": "address",
          "name": "_referralDestination",
          "type": "address"
        },
        {
          "internalType": "uint256",
          "name": "_referralFee",
          "type": "uint256"
        }
      ],
      "name": "setReferralSettings",
      "outputs": [],
      "stateMutability": "nonpayable",
      "type": "function"
    },
    {
      "inputs": [
        {
          "internalType": "bytes4",
          "name": "interfaceId",
          "type": "bytes4"
        }
      ],
      "name": "supportsInterface",
      "outputs": [
        {
          "internalType": "bool",
          "name": "",
          "type": "bool"
        }
      ],
      "stateMutability": "view",
      "type": "function"
    },
    {
      "inputs": [],
      "name": "symbol",
      "outputs": [
        {
          "internalType": "string",
          "name": "",
          "type": "string"
        }
      ],
      "stateMutability": "view",
      "type": "function"
    },
    {
      "inputs": [
        {
          "internalType": "contract ICLMMAdapter",
          "name": "_adapter",
          "type": "address"
        }
      ],
      "name": "toggleAdapter",
      "outputs": [],
      "stateMutability": "nonpayable",
      "type": "function"
    },
    {
      "inputs": [
        {
          "internalType": "address",
          "name": "_address",
          "type": "address"
        }
      ],
      "name": "toggleWhitelist",
      "outputs": [],
      "stateMutability": "nonpayable",
      "type": "function"
    },
    {
      "inputs": [
        {
          "internalType": "uint256",
          "name": "index",
          "type": "uint256"
        }
      ],
      "name": "tokenByIndex",
      "outputs": [
        {
          "internalType": "uint256",
          "name": "",
          "type": "uint256"
        }
      ],
      "stateMutability": "view",
      "type": "function"
    },
    {
      "inputs": [
        {
          "internalType": "address",
          "name": "owner",
          "type": "address"
        },
        {
          "internalType": "uint256",
          "name": "index",
          "type": "uint256"
        }
      ],
      "name": "tokenOfOwnerByIndex",
      "outputs": [
        {
          "internalType": "uint256",
          "name": "",
          "type": "uint256"
        }
      ],
      "stateMutability": "view",
      "type": "function"
    },
    {
      "inputs": [
        {
          "internalType": "contract IERC20",
          "name": "",
          "type": "address"
        }
      ],
      "name": "tokenToNftId",
      "outputs": [
        {
          "internalType": "uint256",
          "name": "",
          "type": "uint256"
        }
      ],
      "stateMutability": "view",
      "type": "function"
    },
    {
      "inputs": [
        {
          "internalType": "uint256",
          "name": "tokenId",
          "type": "uint256"
        }
      ],
      "name": "tokenURI",
      "outputs": [
        {
          "internalType": "string",
          "name": "",
          "type": "string"
        }
      ],
      "stateMutability": "view",
      "type": "function"
    },
    {
      "inputs": [
        {
          "internalType": "uint256",
          "name": "",
          "type": "uint256"
        }
      ],
      "name": "tokens",
      "outputs": [
        {
          "internalType": "contract IERC20",
          "name": "",
          "type": "address"
        }
      ],
      "stateMutability": "view",
      "type": "function"
    },
    {
      "inputs": [],
      "name": "totalSupply",
      "outputs": [
        {
          "internalType": "uint256",
          "name": "",
          "type": "uint256"
        }
      ],
      "stateMutability": "view",
      "type": "function"
    },
    {
      "inputs": [
        {
          "internalType": "address",
          "name": "from",
          "type": "address"
        },
        {
          "internalType": "address",
          "name": "to",
          "type": "address"
        },
        {
          "internalType": "uint256",
          "name": "tokenId",
          "type": "uint256"
        }
      ],
      "name": "transferFrom",
      "outputs": [],
      "stateMutability": "nonpayable",
      "type": "function"
    },
    {
      "inputs": [
        {
          "internalType": "address",
          "name": "newOwner",
          "type": "address"
        }
      ],
      "name": "transferOwnership",
      "outputs": [],
      "stateMutability": "nonpayable",
      "type": "function"
    },
    {
      "inputs": [],
      "name": "weth",
      "outputs": [
        {
          "internalType": "contract IWETH9",
          "name": "",
          "type": "address"
        }
      ],
      "stateMutability": "view",
      "type": "function"
    },
    {
      "inputs": [
        {
          "internalType": "address",
          "name": "",
          "type": "address"
        }
      ],
      "name": "whitelisted",
      "outputs": [
        {
          "internalType": "bool",
          "name": "",
          "type": "bool"
        }
      ],
      "stateMutability": "view",
      "type": "function"
    },
    {
      "stateMutability": "payable",
      "type": "receive"
    }
  ],
  "transactionHash": "0xc576f9ecd7f3362afe17a2506bc3306487458facbf7f95c455159a9e5902f0dc",
  "args": [],
  "numDeployments": 1,
  "solcInputHash": "ca01714a7490eb550412d5b46b9ffc17",
  "bytecode": "0x6080604052348015600f57600080fd5b50615f398061001f6000396000f3fe60806040526004361061032d5760003560e01c8063715018a6116101a5578063c0c53b8b116100ec578063de53fcd511610095578063e985e9c51161006f578063e985e9c514610ad3578063f08b82e614610b3b578063f2fde38b14610b50578063fa1d576d14610b7057600080fd5b8063de53fcd514610a63578063e4d8c2c514610a83578063e5711ffc14610aa357600080fd5b8063d28cf535116100c6578063d28cf535146109fd578063d936547e14610a1d578063dce0b4e414610a4d57600080fd5b8063c0c53b8b1461099d578063c87b56dd146109bd578063d10c2161146109dd57600080fd5b80639f2c43631161014e578063b38db98211610128578063b38db9821461093d578063b88d4fde1461095d578063b90dc8ff1461097d57600080fd5b80639f2c4363146108c1578063a22cb465146108fd578063b180783d1461091d57600080fd5b8063956520ee1161017f578063956520ee1461085457806395d89b4114610874578063995beb751461088957600080fd5b8063715018a6146107ec57806384ae2bc6146108015780638da5cb5b1461081757600080fd5b80632f745c59116102745780634f6ccce71161021d5780635f151475116101f75780635f151475146107565780636352211e1461077f5780636755908d1461079f57806370a08231146107cc57600080fd5b80634f6ccce7146106dc57806353b1f41d146106fc5780635e72d1251461072957600080fd5b80633fc8cef31161024e5780633fc8cef31461067c57806342842e0e1461069c5780634f64b2be146106bc57600080fd5b80632f745c591461060057806339393ac9146106205780633df8a4681461064057600080fd5b806315a0ea6a116102d657806323b872dd116102b057806323b872dd1461054b578063252154fa1461056b5780632b76a557146105cb57600080fd5b806315a0ea6a146104cd57806318160ddd146104ed5780631bea88f21461052b57600080fd5b8063081812fc11610307578063081812fc146103c8578063095ea7b3146103e85780630a13eb151461040a57600080fd5b806301ffc9a71461033957806303eadcfc1461036e57806306fdde03146103a657600080fd5b3661033457005b600080fd5b34801561034557600080fd5b506103596103543660046141fa565b610b86565b60405190151581526020015b60405180910390f35b34801561037a57600080fd5b5060015461038e906001600160a01b031681565b6040516001600160a01b039091168152602001610365565b3480156103b257600080fd5b506103bb610bca565b6040516103659190614267565b3480156103d457600080fd5b5061038e6103e336600461427a565b610c80565b3480156103f457600080fd5b506104086104033660046142b8565b610cc8565b005b34801561041657600080fd5b5061048c6104253660046142e4565b600d60209081526000928352604080842090915290825290208054600190910154600282810b9263010000008104820b9266010000000000008204830b9262ffffff6901000000000000000000840416926c010000000000000000000000009004900b9086565b60408051600297880b815295870b602087015293860b9385019390935262ffffff909116606084015290920b608082015260a081019190915260c001610365565b3480156104d957600080fd5b506104086104e836600461431d565b610cd7565b3480156104f957600080fd5b507f645e039705490088daad89bae25049a34f4a9072d398537b1ab2425f24cbed02545b604051908152602001610365565b34801561053757600080fd5b50610408610546366004614467565b610e54565b34801561055757600080fd5b506104086105663660046144b0565b610f92565b34801561057757600080fd5b506105b761058636600461431d565b6001600160a01b03166000908152600a6020819052604090912001546901000000000000000000900462ffffff1690565b60405162ffffff9091168152602001610365565b3480156105d757600080fd5b506105eb6105e636600461431d565b611030565b604051610365999897969594939291906144f1565b34801561060c57600080fd5b5061051d61061b3660046142b8565b611294565b34801561062c57600080fd5b5061040861063b36600461431d565b611333565b34801561064c57600080fd5b5061038e61065b36600461431d565b6001600160a01b039081166000908152600a60205260409020600301541690565b34801561068857600080fd5b5060055461038e906001600160a01b031681565b3480156106a857600080fd5b506104086106b73660046144b0565b6113a6565b3480156106c857600080fd5b5061038e6106d736600461427a565b6113c6565b3480156106e857600080fd5b5061051d6106f736600461427a565b6113f0565b34801561070857600080fd5b5061071c6107173660046142e4565b6114a5565b60405161036591906145c8565b34801561073557600080fd5b5061074961074436600461431d565b61159a565b6040516103659190614693565b34801561076257600080fd5b5061076c6101f481565b60405161ffff9091168152602001610365565b34801561078b57600080fd5b5061038e61079a36600461427a565b611967565b3480156107ab57600080fd5b5061051d6107ba36600461431d565b600b6020526000908152604090205481565b3480156107d857600080fd5b5061051d6107e736600461431d565b611972565b3480156107f857600080fd5b506104086119f9565b34801561080d57600080fd5b5061051d60085481565b34801561082357600080fd5b507f9016d09d72d40fdae2fd8ceac6b6234c7706214fd39c1cd1e609a0528c199300546001600160a01b031661038e565b34801561086057600080fd5b5061040861086f36600461431d565b611a0d565b34801561088057600080fd5b506103bb611a75565b61089c61089736600461498b565b611ac6565b604080516001600160a01b039094168452602084019290925290820152606001610365565b3480156108cd57600080fd5b5061038e6108dc36600461431d565b6001600160a01b039081166000908152600a60205260409020600201541690565b34801561090957600080fd5b50610408610918366004614b1e565b6126f6565b34801561092957600080fd5b5060025461038e906001600160a01b031681565b34801561094957600080fd5b5061040861095836600461431d565b612701565b34801561096957600080fd5b50610408610978366004614b4c565b612760565b34801561098957600080fd5b5060095461038e906001600160a01b031681565b3480156109a957600080fd5b506104086109b8366004614bcc565b612778565b3480156109c957600080fd5b506103bb6109d836600461427a565b61298c565b3480156109e957600080fd5b5060045461038e906001600160a01b031681565b348015610a0957600080fd5b50610408610a183660046142b8565b612a01565b348015610a2957600080fd5b50610359610a3836600461431d565b600c6020526000908152604090205460ff1681565b348015610a5957600080fd5b5061051d60065481565b348015610a6f57600080fd5b5060005461038e906001600160a01b031681565b348015610a8f57600080fd5b50610408610a9e366004614c17565b612a70565b348015610aaf57600080fd5b50610359610abe36600461431d565b600e6020526000908152604090205460ff1681565b348015610adf57600080fd5b50610359610aee3660046142e4565b6001600160a01b0391821660009081527f80bb2b638cc20bc4d0a60d66940f3ab4a00c1d7b313497ca82fb0b4ab00793056020908152604080832093909416825291909152205460ff1690565b348015610b4757600080fd5b5060035461051d565b348015610b5c57600080fd5b50610408610b6b36600461431d565b612ae5565b348015610b7c57600080fd5b5061051d60075481565b60006001600160e01b031982167f780e9d63000000000000000000000000000000000000000000000000000000001480610bc45750610bc482612b3c565b92915050565b7f80bb2b638cc20bc4d0a60d66940f3ab4a00c1d7b313497ca82fb0b4ab00793008054606091908190610bfc90614c4c565b80601f0160208091040260200160405190810160405280929190818152602001828054610c2890614c4c565b8015610c755780601f10610c4a57610100808354040283529160200191610c75565b820191906000526020600020905b815481529060010190602001808311610c5857829003601f168201915b505050505091505090565b6000610c8b82612bd7565b5060008281527f80bb2b638cc20bc4d0a60d66940f3ab4a00c1d7b313497ca82fb0b4ab007930460205260409020546001600160a01b0316610bc4565b610cd3828233612c48565b5050565b6001600160a01b038181166000818152600a6020526040808220600381015460029091015491517f15a0ea6a00000000000000000000000000000000000000000000000000000000815260048101949094528416939192839291909116906315a0ea6a9060240160408051808303816000875af1158015610d5c573d6000803e3d6000fd5b505050506040513d601f19601f82011682018060405250810190610d809190614c86565b600854919350915015610e1e576000606460085484610d9f9190614cc0565b610da99190614cd7565b90506000606460085484610dbd9190614cc0565b610dc79190614cd7565b9050610dd586868484612c55565b6001600160a01b0386166000908152600b6020526040902054610e17908790610dfd90611967565b87610e088689614cf9565b610e128689614cf9565b612de6565b5050610e4e565b6001600160a01b0384166000908152600b6020526040902054610e4e908590610e4690611967565b858585612de6565b50505050565b6009546001600160a01b03163314610eb35760405162461bcd60e51b815260206004820152600560248201527f2163726f6e00000000000000000000000000000000000000000000000000000060448201526064015b60405180910390fd5b6001600160a01b039283166000908152600d602090815260408083209490951682529283528390208151815493830151948301516060840151608085015162ffffff9081166c01000000000000000000000000026effffff000000000000000000000000199282166901000000000000000000026bffffff00000000000000000019948316660100000000000002949094166bffffffffffff0000000000001999831663010000000265ffffffffffff199099169290951691909117969096179690961691909117179390931691909117825560a00151600190910155565b6001600160a01b038216610fbc57604051633250574960e11b815260006004820152602401610eaa565b6000610fc983833361318b565b9050836001600160a01b0316816001600160a01b031614610e4e576040517f64283d7b0000000000000000000000000000000000000000000000000000000081526001600160a01b0380861660048301526024820184905282166044820152606401610eaa565b600a602052600090815260409020805460018201546002830154600384015460058501805460ff9095169593946001600160a01b0393841694929093169261107790614c4c565b80601f01602080910402602001604051908101604052809291908181526020018280546110a390614c4c565b80156110f05780601f106110c5576101008083540402835291602001916110f0565b820191906000526020600020905b8154815290600101906020018083116110d357829003601f168201915b50505050509080600601805461110590614c4c565b80601f016020809104026020016040519081016040528092919081815260200182805461113190614c4c565b801561117e5780601f106111535761010080835404028352916020019161117e565b820191906000526020600020905b81548152906001019060200180831161116157829003601f168201915b50505050509080600701805461119390614c4c565b80601f01602080910402602001604051908101604052809291908181526020018280546111bf90614c4c565b801561120c5780601f106111e15761010080835404028352916020019161120c565b820191906000526020600020905b8154815290600101906020018083116111ef57829003601f168201915b5050505060088301546040805160c081018252600a860154600281810b835263010000008204810b602084015266010000000000008204810b938301939093526901000000000000000000810462ffffff1660608301526c01000000000000000000000000900490910b6080820152600b9094015460a0850152919261ffff90921691905089565b60007f645e039705490088daad89bae25049a34f4a9072d398537b1ab2425f24cbed006112c084611972565b831061130a576040517fa57d13dc0000000000000000000000000000000000000000000000000000000081526001600160a01b038516600482015260248101849052604401610eaa565b6001600160a01b0384166000908152602091825260408082208583529092522054905092915050565b61133b61329e565b6001600160a01b0381166000818152600c602052604090819020805460ff19811660ff9182161590811790925591517ff93f9a76c1bf3444d22400a00cb9fe990e6abe9dbb333fda48859cfee864543d9261139b92161515815260200190565b60405180910390a250565b6113c183838360405180602001604052806000815250612760565b505050565b600381815481106113d657600080fd5b6000918252602090912001546001600160a01b0316905081565b60007f645e039705490088daad89bae25049a34f4a9072d398537b1ab2425f24cbed0061143b7f645e039705490088daad89bae25049a34f4a9072d398537b1ab2425f24cbed025490565b831061147d576040517fa57d13dc0000000000000000000000000000000000000000000000000000000081526000600482015260248101849052604401610eaa565b80600201838154811061149257611492614d0c565b9060005260206000200154915050919050565b6040805160c08101825260008082526020808301829052828401829052606083018290526080830182905260a083018290526001600160a01b0385168252600e9052919091205460ff166114f857600080fd5b506001600160a01b038083166000908152600d60209081526040808320938516835292815290829020825160c0810184528154600281810b835263010000008204810b9483019490945266010000000000008104840b9482019490945262ffffff6901000000000000000000850416606082018190526c0100000000000000000000000090940490920b60808301526001015460a082015290610bc457600080fd5b6116216040805161016081018252600080825260208083018290528284018290526060808401839052608080850182905260a080860183905260c080870184905260e0870184905261010087018690526101208701849052875190810188528581529384018590529583018490529082018390528101829052928301529061014082015290565b6001600160a01b038083166000908152600a6020908152604091829020825161016081018452815460ff1615158152600182015481840152600282015485168185015260038201549094166060850152600481018054845181850281018501909552808552919360808601939092908301828280156116c957602002820191906000526020600020905b81546001600160a01b031681526001909101906020018083116116ab575b505050505081526020016005820180546116e290614c4c565b80601f016020809104026020016040519081016040528092919081815260200182805461170e90614c4c565b801561175b5780601f106117305761010080835404028352916020019161175b565b820191906000526020600020905b81548152906001019060200180831161173e57829003601f168201915b5050505050815260200160068201805461177490614c4c565b80601f01602080910402602001604051908101604052809291908181526020018280546117a090614c4c565b80156117ed5780601f106117c2576101008083540402835291602001916117ed565b820191906000526020600020905b8154815290600101906020018083116117d057829003601f168201915b5050505050815260200160078201805461180690614c4c565b80601f016020809104026020016040519081016040528092919081815260200182805461183290614c4c565b801561187f5780601f106118545761010080835404028352916020019161187f565b820191906000526020600020905b81548152906001019060200180831161186257829003601f168201915b5050509183525050600882015461ffff1660208083019190915260098301805460408051828502810185018252828152940193928301828280156118e257602002820191906000526020600020905b8154815260200190600101908083116118ce575b50505091835250506040805160c081018252600a840154600281810b835263010000008204810b60208481019190915266010000000000008304820b9484019490945262ffffff690100000000000000000083041660608401526c01000000000000000000000000909104900b6080820152600b9093015460a0840152015292915050565b6000610bc482612bd7565b60007f80bb2b638cc20bc4d0a60d66940f3ab4a00c1d7b313497ca82fb0b4ab00793006001600160a01b0383166119d8576040517f89c62b6400000000000000000000000000000000000000000000000000000000815260006004820152602401610eaa565b6001600160a01b039092166000908152600390920160205250604090205490565b611a0161329e565b611a0b6000613312565b565b611a1561329e565b6001600160a01b0381166000818152600e602052604090819020805460ff19811660ff9182161590811790925591517f85ff5d10aa202e69f691155a2050fed648b2d67f85e35d1279510cc4340237369261139b92161515815260200190565b7f80bb2b638cc20bc4d0a60d66940f3ab4a00c1d7b313497ca82fb0b4ab007930180546060917f80bb2b638cc20bc4d0a60d66940f3ab4a00c1d7b313497ca82fb0b4ab007930091610bfc90614c4c565b60008060006101f461ffff1686610100015161ffff161115611b505760405162461bcd60e51b815260206004820152602260248201527f43726561746f7220616c6c6f636174696f6e2065786365656473206d6178696d60448201527f756d0000000000000000000000000000000000000000000000000000000000006064820152608401610eaa565b6040808701516001600160a01b03166000908152600e602052205460ff16611bba5760405162461bcd60e51b815260206004820152600f60248201527f41646170746572206e6f742073657400000000000000000000000000000000006044820152606401610eaa565b60065415611bff57600080546006546040516001600160a01b039092169281156108fc029290818181858888f19350505050158015611bfd573d6000803e3d6000fd5b505b4715611c6f57600560009054906101000a90046001600160a01b03166001600160a01b031663d0e30db0476040518263ffffffff1660e01b81526004016000604051808303818588803b158015611c5557600080fd5b505af1158015611c69573d6000803e3d6000fd5b50505050505b855115611d18576002546000546007546040517f23b872dd0000000000000000000000000000000000000000000000000000000081523360048201526001600160a01b03928316602482015260448101919091529116906323b872dd906064016020604051808303816000875af1158015611cee573d6000803e3d6000fd5b505050506040513d601f19601f82011682018060405250810190611d129190614d22565b50611d84565b60808601515115611d6b5760405162461bcd60e51b815260206004820152601460248201527f217072656d69756d2d616c6c6f636174696f6e730000000000000000000000006044820152606401610eaa565b611d7d866060015187604001516114a5565b6101408701525b8315611e9e5760608601516040516370a0823160e01b81523060048201526000916001600160a01b0316906370a0823190602401602060405180830381865afa158015611dd5573d6000803e3d6000fd5b505050506040513d601f19601f82011682018060405250810190611df99190614d3f565b905084811015611e9c5760608701516001600160a01b03166323b872dd3330611e22858a614cf9565b6040516001600160e01b031960e086901b1681526001600160a01b03938416600482015292909116602483015260448201526064016020604051808303816000875af1158015611e76573d6000803e3d6000fd5b505050506040513d601f19601f82011682018060405250810190611e9a9190614d22565b505b505b6000808760200151338960c001518a60e00151604051602001611ec49493929190614d58565b604051602081830303815290604052805190602001209050808860c001518960e00151604051611ef390614115565b611efe929190614d9d565b8190604051809103906000f5905080158015611f1e573d6000803e3d6000fd5b5091506001600160a01b0387161580611f485750866001600160a01b0316826001600160a01b0316145b611f945760405162461bcd60e51b815260206004820152601560248201527f496e76616c696420746f6b656e206164647265737300000000000000000000006044820152606401610eaa565b600380546001600160a01b038481166000818152600b60209081526040808320869055600180870188557fc2575a0e9e593c00f959f8c92f12db2869c3395a3b0502d05e2516446f71f85b909601805473ffffffffffffffffffffffffffffffffffffffff199081169095179055600a8252918290208e51815460ff19169015151781558e82015195810195909555908d0151600285018054841691851691909117905560608d01519484018054909216949092169390931790925560808a015180518b9361206a926004850192910190614122565b5060a0820151600582019061207f9082614e12565b5060c082015160068201906120949082614e12565b5060e082015160078201906120a99082614e12565b506101008201516008820180547fffffffffffffffffffffffffffffffffffffffffffffffffffffffffffff00001661ffff9092169190911790556101208201518051612100916009840191602090910190614194565b5061014091909101518051600a8301805460208401516040808601516060870151608088015162ffffff9081166c01000000000000000000000000026effffff000000000000000000000000199282166901000000000000000000026bffffff00000000000000000019948316660100000000000002949094166bffffffffffff0000000000001996831663010000000265ffffffffffff199098169290991691909117959095179390931695909517949094171617905560a090910151600b90920191909155516370a0823160e01b81523060048201526000906001600160a01b038416906370a0823190602401602060405180830381865afa15801561220c573d6000803e3d6000fd5b505050506040513d601f19601f820116820180604052508101906122309190614d3f565b60408a810151905163095ea7b360e01b81526001600160a01b039182166004820152600019602482015291925084169063095ea7b3906044016020604051808303816000875af1158015612288573d6000803e3d6000fd5b505050506040513d601f19601f820116820180604052508101906122ac9190614d22565b50600089604001516001600160a01b031663a4aa8634604051806101200160405280876001600160a01b031681526020018d606001516001600160a01b031681526020018d61014001516000015160020b81526020018d61014001516020015160020b81526020018d61014001516040015160020b81526020018d61014001516060015162ffffff1681526020018d61014001516080015160020b81526020018581526020018d610140015160a001518152506040518263ffffffff1660e01b815260040161237b9190614ed1565b6020604051808303816000875af115801561239a573d6000803e3d6000fd5b505050506040513d601f19601f820116820180604052508101906123be9190614f86565b9050806001600160a01b03168a604001516001600160a01b0316856001600160a01b03167fc79d9e6b087be14d19aa7f4b9cad4fb3b2bcdbff8ea63c17a856eb6baa25731d8d6040516124119190614693565b60405180910390a45050506001600160a01b0381166000908152600b6020526040902054612440903390613390565b6060870151604080890151905163095ea7b360e01b81526001600160a01b039182166004820152600019602482015291169063095ea7b3906044016020604051808303816000875af115801561249a573d6000803e3d6000fd5b505050506040513d601f19601f820116820180604052508101906124be9190614d22565b5060608701516040516370a0823160e01b81523060048201526000916001600160a01b0316906370a0823190602401602060405180830381865afa15801561250a573d6000803e3d6000fd5b505050506040513d601f19601f8201168201806040525081019061252e9190614d3f565b6040808a01516060808c01516101408d01519091015192517ff584d5d00000000000000000000000000000000000000000000000000000000081526001600160a01b0391821660048201528682166024820152670de0b6b3a764000060448201526064810185905262ffffff9093166084840152929350600092169063f584d5d09060a4016020604051808303816000875af11580156125d2573d6000803e3d6000fd5b505050506040513d601f19601f820116820180604052508101906125f69190614d3f565b9050600087156126bb5789604001516001600160a01b03166335f99d228b6060015186858c6126259190614cf9565b6101408f0151606001516040516001600160e01b031960e087901b1681526001600160a01b03948516600482015293909216602484015260448301526000606483015262ffffff16608482015260a4016020604051808303816000875af1158015612694573d6000803e3d6000fd5b505050506040513d601f19601f820116820180604052508101906126b89190614d3f565b90505b6126c48461340e565b6126d18a6060015161340e565b6005546126e6906001600160a01b031661340e565b9299929850965090945050505050565b610cd3338383613555565b61270961329e565b6009805473ffffffffffffffffffffffffffffffffffffffff19166001600160a01b0383169081179091556040517f1f7f5cbc206344444030774fddda7b65e61dca1ae350c7ac22915e89117dfeb490600090a250565b61276b848484610f92565b610e4e3385858585613631565b7ff0c57e16840df040f15088dc2f81fe391c3923bec73e23a9662efc9c229c6a00805468010000000000000000810460ff16159067ffffffffffffffff166000811580156127c35750825b905060008267ffffffffffffffff1660011480156127e05750303b155b9050811580156127ee575080155b15612825576040517ff92ee8a900000000000000000000000000000000000000000000000000000000815260040160405180910390fd5b84547fffffffffffffffffffffffffffffffffffffffffffffffff0000000000000000166001178555831561287057845468ff00000000000000001916680100000000000000001785555b600580546001600160a01b03808a1673ffffffffffffffffffffffffffffffffffffffff19928316179092556002805489841690831617905560098054928b16929091169190911790556128c388613785565b6129376040518060400160405280601081526020017f5741474d4945204c61756e6368706164000000000000000000000000000000008152506040518060400160405280600681526020017f5741474d49450000000000000000000000000000000000000000000000000000815250613796565b831561298257845468ff000000000000000019168555604051600181527fc7f505b2f371ae2175ee4913f4499e1f2633a7b5936321eed1cdaeb6115181d29060200160405180910390a15b5050505050505050565b606061299782612bd7565b5060006129af60408051602081019091526000815290565b905060008151116129cf57604051806020016040528060008152506129fa565b806129d9846137a8565b6040516020016129ea929190614fa3565b6040516020818303038152906040525b9392505050565b612a0961329e565b6004805473ffffffffffffffffffffffffffffffffffffffff19166001600160a01b03841690811790915560088290556040518281527f6a865a099cc391df89f1dd66aadf8ffd4e3a827c1c8c3e46ccbfd92565840bd69060200160405180910390a25050565b612a7861329e565b6000805473ffffffffffffffffffffffffffffffffffffffff19166001600160a01b038516908117909155600683905560078290556040518381527f6f0eaf2c2f89fb4cfe96a1dee5e764d60b52c7f48aaa590f0850e308aa1b953a9060200160405180910390a2505050565b612aed61329e565b6001600160a01b038116612b30576040517f1e4fbdf700000000000000000000000000000000000000000000000000000000815260006004820152602401610eaa565b612b3981613312565b50565b60006001600160e01b031982167f80ac58cd000000000000000000000000000000000000000000000000000000001480612b9f57506001600160e01b031982167f5b5e139f00000000000000000000000000000000000000000000000000000000145b80610bc457507f01ffc9a7000000000000000000000000000000000000000000000000000000006001600160e01b0319831614610bc4565b60008181527f80bb2b638cc20bc4d0a60d66940f3ab4a00c1d7b313497ca82fb0b4ab007930260205260408120546001600160a01b031680610bc4576040517f7e27328900000000000000000000000000000000000000000000000000000000815260048101849052602401610eaa565b6113c18383836001613849565b6004546001600160a01b031615610e4e576004805460405163095ea7b360e01b81526001600160a01b03918216928101929092526024820184905285169063095ea7b3906044016020604051808303816000875af1158015612cbb573d6000803e3d6000fd5b505050506040513d601f19601f82011682018060405250810190612cdf9190614d22565b506004805460405163095ea7b360e01b81526001600160a01b03918216928101929092526024820183905284169063095ea7b3906044016020604051808303816000875af1158015612d35573d6000803e3d6000fd5b505050506040513d601f19601f82011682018060405250810190612d599190614d22565b50600480546040517f5b4dba680000000000000000000000000000000000000000000000000000000081526001600160a01b038781169382019390935285831660248201526044810185905260648101849052911690635b4dba6890608401600060405180830381600087803b158015612dd257600080fd5b505af1158015612982573d6000803e3d6000fd5b6001600160a01b0385166000908152600a602052604090205460ff1680612e2957506001600160a01b038316736a661312938d22a2a0e27f585073e4406903990a145b15612f1b5760405163a9059cbb60e01b81526001600160a01b0385811660048301526024820184905286169063a9059cbb906044016020604051808303816000875af1158015612e7d573d6000803e3d6000fd5b505050506040513d601f19601f82011682018060405250810190612ea19190614d22565b5060405163a9059cbb60e01b81526001600160a01b0385811660048301526024820183905284169063a9059cbb906044016020604051808303816000875af1158015612ef1573d6000803e3d6000fd5b505050506040513d601f19601f82011682018060405250810190612f159190614d22565b50613184565b6000546001600160a01b038087169163a9059cbb91166064612f3e866028614cc0565b612f489190614cd7565b6040516001600160e01b031960e085901b1681526001600160a01b03909216600483015260248201526044016020604051808303816000875af1158015612f93573d6000803e3d6000fd5b505050506040513d601f19601f82011682018060405250810190612fb79190614d22565b506000546001600160a01b038085169163a9059cbb91166064612fdb856028614cc0565b612fe59190614cd7565b6040516001600160e01b031960e085901b1681526001600160a01b03909216600483015260248201526044016020604051808303816000875af1158015613030573d6000803e3d6000fd5b505050506040513d601f19601f820116820180604052508101906130549190614d22565b506001600160a01b03851663a9059cbb85606461307286603c614cc0565b61307c9190614cd7565b6040516001600160e01b031960e085901b1681526001600160a01b03909216600483015260248201526044016020604051808303816000875af11580156130c7573d6000803e3d6000fd5b505050506040513d601f19601f820116820180604052508101906130eb9190614d22565b506001600160a01b03831663a9059cbb85606461310985603c614cc0565b6131139190614cd7565b6040516001600160e01b031960e085901b1681526001600160a01b03909216600483015260248201526044016020604051808303816000875af115801561315e573d6000803e3d6000fd5b505050506040513d601f19601f820116820180604052508101906131829190614d22565b505b5050505050565b6000806131998585856139d5565b90506001600160a01b0381166132345761322f847f645e039705490088daad89bae25049a34f4a9072d398537b1ab2425f24cbed02805460008381527f645e039705490088daad89bae25049a34f4a9072d398537b1ab2425f24cbed0360205260408120829055600182018355919091527fa42f15e5d656f8155fd7419d740a6073999f19cd6e061449ce4a257150545bf20155565b613257565b846001600160a01b0316816001600160a01b031614613257576132578185613b23565b6001600160a01b0385166132735761326e84613bd1565b613296565b846001600160a01b0316816001600160a01b031614613296576132968585613ccc565b949350505050565b336132d07f9016d09d72d40fdae2fd8ceac6b6234c7706214fd39c1cd1e609a0528c199300546001600160a01b031690565b6001600160a01b031614611a0b576040517f118cdaa7000000000000000000000000000000000000000000000000000000008152336004820152602401610eaa565b7f9016d09d72d40fdae2fd8ceac6b6234c7706214fd39c1cd1e609a0528c199300805473ffffffffffffffffffffffffffffffffffffffff1981166001600160a01b03848116918217845560405192169182907f8be0079c531659141344cd1fd0a4f28419497f9722a3daafe3b4186f6b6457e090600090a3505050565b6001600160a01b0382166133ba57604051633250574960e11b815260006004820152602401610eaa565b60006133c88383600061318b565b90506001600160a01b038116156113c1576040517f73c6ac6e00000000000000000000000000000000000000000000000000000000815260006004820152602401610eaa565b6040516370a0823160e01b81523060048201526000906001600160a01b038316906370a0823190602401602060405180830381865afa158015613455573d6000803e3d6000fd5b505050506040513d601f19601f820116820180604052508101906134799190614d3f565b905080600003613487575050565b6005546001600160a01b0390811690831603613541576005546040517f2e1a7d4d000000000000000000000000000000000000000000000000000000008152600481018390526001600160a01b0390911690632e1a7d4d90602401600060405180830381600087803b1580156134fc57600080fd5b505af1158015613510573d6000803e3d6000fd5b505060405133925083156108fc02915083906000818181858888f193505050501580156113c1573d6000803e3d6000fd5b610cd36001600160a01b0383163383613d39565b7f80bb2b638cc20bc4d0a60d66940f3ab4a00c1d7b313497ca82fb0b4ab00793006001600160a01b0383166135c1576040517f5b08ba180000000000000000000000000000000000000000000000000000000081526001600160a01b0384166004820152602401610eaa565b6001600160a01b038481166000818152600584016020908152604080832094881680845294825291829020805460ff191687151590811790915591519182527f17307eab39ab6107e8899845ad3d59bd9653f200f220920489ca2b5937696c31910160405180910390a350505050565b6001600160a01b0383163b15613184576040517f150b7a020000000000000000000000000000000000000000000000000000000081526001600160a01b0384169063150b7a029061368c908890889087908790600401614fd2565b6020604051808303816000875af19250505080156136c7575060408051601f3d908101601f191682019092526136c491810190615013565b60015b613730573d8080156136f5576040519150601f19603f3d011682016040523d82523d6000602084013e6136fa565b606091505b50805160000361372857604051633250574960e11b81526001600160a01b0385166004820152602401610eaa565b805181602001fd5b6001600160e01b031981167f150b7a02000000000000000000000000000000000000000000000000000000001461318257604051633250574960e11b81526001600160a01b0385166004820152602401610eaa565b61378d613da0565b612b3981613e07565b61379e613da0565b610cd38282613e0f565b606060006137b583613e52565b600101905060008167ffffffffffffffff8111156137d5576137d561433a565b6040519080825280601f01601f1916602001820160405280156137ff576020820181803683370190505b5090508181016020015b600019017f3031323334353637383961626364656600000000000000000000000000000000600a86061a8153600a8504945084613809575b509392505050565b7f80bb2b638cc20bc4d0a60d66940f3ab4a00c1d7b313497ca82fb0b4ab0079300818061387e57506001600160a01b03831615155b1561399757600061388e85612bd7565b90506001600160a01b038416158015906138ba5750836001600160a01b0316816001600160a01b031614155b801561390b57506001600160a01b0380821660009081527f80bb2b638cc20bc4d0a60d66940f3ab4a00c1d7b313497ca82fb0b4ab0079305602090815260408083209388168352929052205460ff16155b1561394d576040517fa9fbf51f0000000000000000000000000000000000000000000000000000000081526001600160a01b0385166004820152602401610eaa565b82156139955784866001600160a01b0316826001600160a01b03167f8c5be1e5ebec7d5bd14f71427d1e84f3dd0314c0f7b2291e5b200ac8c7c3b92560405160405180910390a45b505b6000938452600401602052505060409020805473ffffffffffffffffffffffffffffffffffffffff19166001600160a01b0392909216919091179055565b60008281527f80bb2b638cc20bc4d0a60d66940f3ab4a00c1d7b313497ca82fb0b4ab007930260205260408120547f80bb2b638cc20bc4d0a60d66940f3ab4a00c1d7b313497ca82fb0b4ab0079300906001600160a01b0390811690841615613a4357613a43818587613f34565b6001600160a01b03811615613a8357613a60600086600080613849565b6001600160a01b0381166000908152600383016020526040902080546000190190555b6001600160a01b03861615613ab4576001600160a01b03861660009081526003830160205260409020805460010190555b6000858152600283016020526040808220805473ffffffffffffffffffffffffffffffffffffffff19166001600160a01b038a811691821790925591518893918516917fddf252ad1be2c89b69c2b068fc378daa952ba7f163c4a11628f55a4df523b3ef91a495945050505050565b7f645e039705490088daad89bae25049a34f4a9072d398537b1ab2425f24cbed006000613b4f84611972565b60008481526001840160209081526040808320546001600160a01b03891684529186905290912091925090818314613ba9576000838152602082815260408083205485845281842081905583526001870190915290208290555b6000948552600190930160209081526040808620869055928552929092528220919091555050565b7f645e039705490088daad89bae25049a34f4a9072d398537b1ab2425f24cbed02547f645e039705490088daad89bae25049a34f4a9072d398537b1ab2425f24cbed0090600090613c2490600190614cf9565b6000848152600384016020526040812054600285018054939450909284908110613c5057613c50614d0c565b9060005260206000200154905080846002018381548110613c7357613c73614d0c565b600091825260208083209091019290925582815260038601909152604080822084905586825281205560028401805480613caf57613caf615030565b600190038181906000526020600020016000905590555050505050565b7f645e039705490088daad89bae25049a34f4a9072d398537b1ab2425f24cbed0060006001613cfa85611972565b613d049190614cf9565b6001600160a01b0390941660009081526020838152604080832087845282528083208690559482526001909301909252502055565b604080516001600160a01b038416602482015260448082018490528251808303909101815260649091019091526020810180517bffffffffffffffffffffffffffffffffffffffffffffffffffffffff1663a9059cbb60e01b1790526113c1908490613fca565b7ff0c57e16840df040f15088dc2f81fe391c3923bec73e23a9662efc9c229c6a005468010000000000000000900460ff16611a0b576040517fd7e6bcf800000000000000000000000000000000000000000000000000000000815260040160405180910390fd5b612aed613da0565b613e17613da0565b7f80bb2b638cc20bc4d0a60d66940f3ab4a00c1d7b313497ca82fb0b4ab007930080613e438482614e12565b5060018101610e4e8382614e12565b6000807a184f03e93ff9f4daa797ed6e38ed64bf6a1f0100000000000000008310613e9b577a184f03e93ff9f4daa797ed6e38ed64bf6a1f010000000000000000830492506040015b6d04ee2d6d415b85acef81000000008310613ec7576d04ee2d6d415b85acef8100000000830492506020015b662386f26fc100008310613ee557662386f26fc10000830492506010015b6305f5e1008310613efd576305f5e100830492506008015b6127108310613f1157612710830492506004015b60648310613f23576064830492506002015b600a8310610bc45760010192915050565b613f3f838383614054565b6113c1576001600160a01b038316613f86576040517f7e27328900000000000000000000000000000000000000000000000000000000815260048101829052602401610eaa565b6040517f177e802f0000000000000000000000000000000000000000000000000000000081526001600160a01b038316600482015260248101829052604401610eaa565b600080602060008451602086016000885af180613fed576040513d6000823e3d81fd5b50506000513d91508115614005578060011415614012565b6001600160a01b0384163b155b15610e4e576040517f5274afe70000000000000000000000000000000000000000000000000000000081526001600160a01b0385166004820152602401610eaa565b60006001600160a01b038316158015906132965750826001600160a01b0316846001600160a01b031614806140cd57506001600160a01b0380851660009081527f80bb2b638cc20bc4d0a60d66940f3ab4a00c1d7b313497ca82fb0b4ab0079305602090815260408083209387168352929052205460ff165b8061329657505060009081527f80bb2b638cc20bc4d0a60d66940f3ab4a00c1d7b313497ca82fb0b4ab007930460205260409020546001600160a01b03908116911614919050565b610ebd8061504783390190565b828054828255906000526020600020908101928215614184579160200282015b82811115614184578251825473ffffffffffffffffffffffffffffffffffffffff19166001600160a01b03909116178255602090920191600190910190614142565b506141909291506141cf565b5090565b828054828255906000526020600020908101928215614184579160200282015b828111156141845782518255916020019190600101906141b4565b5b8082111561419057600081556001016141d0565b6001600160e01b031981168114612b3957600080fd5b60006020828403121561420c57600080fd5b81356129fa816141e4565b60005b8381101561423257818101518382015260200161421a565b50506000910152565b60008151808452614253816020860160208601614217565b601f01601f19169290920160200192915050565b6020815260006129fa602083018461423b565b60006020828403121561428c57600080fd5b5035919050565b6001600160a01b0381168114612b3957600080fd5b80356142b381614293565b919050565b600080604083850312156142cb57600080fd5b82356142d681614293565b946020939093013593505050565b600080604083850312156142f757600080fd5b823561430281614293565b9150602083013561431281614293565b809150509250929050565b60006020828403121561432f57600080fd5b81356129fa81614293565b634e487b7160e01b600052604160045260246000fd5b60405160c0810167ffffffffffffffff811182821017156143735761437361433a565b60405290565b604051610160810167ffffffffffffffff811182821017156143735761437361433a565b604051601f8201601f1916810167ffffffffffffffff811182821017156143c6576143c661433a565b604052919050565b8035600281900b81146142b357600080fd5b600060c082840312156143f257600080fd5b6143fa614350565b9050614405826143ce565b8152614413602083016143ce565b6020820152614424604083016143ce565b6040820152606082013562ffffff8116811461443f57600080fd5b6060820152614450608083016143ce565b608082015260a09182013591810191909152919050565b6000806000610100848603121561447d57600080fd5b833561448881614293565b9250602084013561449881614293565b91506144a785604086016143e0565b90509250925092565b6000806000606084860312156144c557600080fd5b83356144d081614293565b925060208401356144e081614293565b929592945050506040919091013590565b89151581528860208201526001600160a01b03881660408201526001600160a01b03871660608201526101c0608082015260006145326101c083018861423b565b82810360a0840152614544818861423b565b905082810360c0840152614558818761423b565b61ffff861660e08501528451600290810b6101008601526020860151810b6101208601526040860151810b610140860152606086015162ffffff166101608601526080860151900b61018085015260a08501516101a085015291506145ba9050565b9a9950505050505050505050565b60c08101610bc48284805160020b8252602081015160020b6020830152604081015160020b604083015262ffffff6060820151166060830152608081015160020b608083015260a081015160a08301525050565b600081518084526020840193506020830160005b828110156146575781516001600160a01b0316865260209586019590910190600101614630565b5093949350505050565b600081518084526020840193506020830160005b82811015614657578151865260209586019590910190600101614675565b602081526146a660208201835115159052565b60208201516040820152600060408301516146cc60608401826001600160a01b03169052565b5060608301516001600160a01b038116608084015250608083015161020060a08401526146fd61022084018261461c565b905060a0840151601f198483030160c085015261471a828261423b565b91505060c0840151601f198483030160e0850152614738828261423b565b91505060e0840151601f1984830301610100850152614757828261423b565b91505061010084015161477161012085018261ffff169052565b50610120840151601f198483030161014085015261478f8282614661565b915050610140840151613841610160850182805160020b8252602081015160020b6020830152604081015160020b604083015262ffffff6060820151166060830152608081015160020b608083015260a081015160a08301525050565b8015158114612b3957600080fd5b80356142b3816147ec565b600067ffffffffffffffff82111561481f5761481f61433a565b5060051b60200190565b600082601f83011261483a57600080fd5b813561484d61484882614805565b61439d565b8082825260208201915060208360051b86010192508583111561486f57600080fd5b602085015b8381101561489557803561488781614293565b835260209283019201614874565b5095945050505050565b60008067ffffffffffffffff8411156148ba576148ba61433a565b50601f8301601f19166020016148cf8161439d565b9150508281528383830111156148e457600080fd5b828260208301376000602084830101529392505050565b600082601f83011261490c57600080fd5b6129fa8383356020850161489f565b803561ffff811681146142b357600080fd5b600082601f83011261493e57600080fd5b813561494c61484882614805565b8082825260208201915060208360051b86010192508583111561496e57600080fd5b602085015b83811015614895578035835260209283019201614973565b6000806000606084860312156149a057600080fd5b833567ffffffffffffffff8111156149b757600080fd5b840161020081870312156149ca57600080fd5b6149d2614379565b6149db826147fa565b8152602082810135908201526149f3604083016142a8565b6040820152614a04606083016142a8565b6060820152608082013567ffffffffffffffff811115614a2357600080fd5b614a2f88828501614829565b60808301525060a082013567ffffffffffffffff811115614a4f57600080fd5b614a5b888285016148fb565b60a08301525060c082013567ffffffffffffffff811115614a7b57600080fd5b614a87888285016148fb565b60c08301525060e082013567ffffffffffffffff811115614aa757600080fd5b614ab3888285016148fb565b60e083015250614ac6610100830161491b565b61010082015261012082013567ffffffffffffffff811115614ae757600080fd5b614af38882850161492d565b61012083015250614b088761014084016143e0565b61014082015293506144e09050602085016142a8565b60008060408385031215614b3157600080fd5b8235614b3c81614293565b91506020830135614312816147ec565b60008060008060808587031215614b6257600080fd5b8435614b6d81614293565b93506020850135614b7d81614293565b925060408501359150606085013567ffffffffffffffff811115614ba057600080fd5b8501601f81018713614bb157600080fd5b614bc08782356020840161489f565b91505092959194509250565b600080600060608486031215614be157600080fd5b8335614bec81614293565b92506020840135614bfc81614293565b91506040840135614c0c81614293565b809150509250925092565b600080600060608486031215614c2c57600080fd5b8335614c3781614293565b95602085013595506040909401359392505050565b600181811c90821680614c6057607f821691505b602082108103614c8057634e487b7160e01b600052602260045260246000fd5b50919050565b60008060408385031215614c9957600080fd5b505080516020909101519092909150565b634e487b7160e01b600052601160045260246000fd5b8082028115828204841417610bc457610bc4614caa565b600082614cf457634e487b7160e01b600052601260045260246000fd5b500490565b81810381811115610bc457610bc4614caa565b634e487b7160e01b600052603260045260246000fd5b600060208284031215614d3457600080fd5b81516129fa816147ec565b600060208284031215614d5157600080fd5b5051919050565b8481526001600160a01b0384166020820152608060408201526000614d80608083018561423b565b8281036060840152614d92818561423b565b979650505050505050565b604081526000614db0604083018561423b565b8281036020840152614dc2818561423b565b95945050505050565b601f8211156113c157806000526020600020601f840160051c81016020851015614df25750805b601f840160051c820191505b818110156131845760008155600101614dfe565b815167ffffffffffffffff811115614e2c57614e2c61433a565b614e4081614e3a8454614c4c565b84614dcb565b6020601f821160018114614e745760008315614e5c5750848201515b600019600385901b1c1916600184901b178455613184565b600084815260208120601f198516915b82811015614ea45787850151825560209485019460019092019101614e84565b5084821015614ec25786840151600019600387901b60f8161c191681555b50505050600190811b01905550565b81516001600160a01b03168152602080830151610120830191614efe908401826001600160a01b03169052565b506040830151614f13604084018260020b9052565b506060830151614f28606084018260020b9052565b506080830151614f3d608084018260020b9052565b5060a0830151614f5460a084018262ffffff169052565b5060c0830151614f6960c084018260020b9052565b5060e083015160e083015261010083015161010083015292915050565b600060208284031215614f9857600080fd5b81516129fa81614293565b60008351614fb5818460208801614217565b835190830190614fc9818360208801614217565b01949350505050565b6001600160a01b03851681526001600160a01b0384166020820152826040820152608060608201526000615009608083018461423b565b9695505050505050565b60006020828403121561502557600080fd5b81516129fa816141e4565b634e487b7160e01b600052603160045260246000fdfe608060405234801561001057600080fd5b50604051610ebd380380610ebd83398101604081905261002f9161031d565b338282600361003e838261040f565b50600461004b828261040f565b5050506001600160a01b03811661007d57604051631e4fbdf760e01b8152600060048201526024015b60405180910390fd5b610086816100ae565b5061009d336b033b2e3c9fd0803ce8000000610100565b6100a760006100ae565b50506104f4565b600580546001600160a01b038381166001600160a01b0319831681179093556040519116919082907f8be0079c531659141344cd1fd0a4f28419497f9722a3daafe3b4186f6b6457e090600090a35050565b6001600160a01b03821661012a5760405163ec442f0560e01b815260006004820152602401610074565b6101366000838361013a565b5050565b6001600160a01b03831661016557806002600082825461015a91906104cd565b909155506101d79050565b6001600160a01b038316600090815260208190526040902054818110156101b85760405163391434e360e21b81526001600160a01b03851660048201526024810182905260448101839052606401610074565b6001600160a01b03841660009081526020819052604090209082900390555b6001600160a01b0382166101f357600280548290039055610212565b6001600160a01b03821660009081526020819052604090208054820190555b816001600160a01b0316836001600160a01b03167fddf252ad1be2c89b69c2b068fc378daa952ba7f163c4a11628f55a4df523b3ef8360405161025791815260200190565b60405180910390a3505050565b634e487b7160e01b600052604160045260246000fd5b600082601f83011261028b57600080fd5b81516001600160401b038111156102a4576102a4610264565b604051601f8201601f19908116603f011681016001600160401b03811182821017156102d2576102d2610264565b6040528181528382016020018510156102ea57600080fd5b60005b82811015610309576020818601810151838301820152016102ed565b506000918101602001919091529392505050565b6000806040838503121561033057600080fd5b82516001600160401b0381111561034657600080fd5b6103528582860161027a565b602085015190935090506001600160401b0381111561037057600080fd5b61037c8582860161027a565b9150509250929050565b600181811c9082168061039a57607f821691505b6020821081036103ba57634e487b7160e01b600052602260045260246000fd5b50919050565b601f82111561040a57806000526020600020601f840160051c810160208510156103e75750805b601f840160051c820191505b8181101561040757600081556001016103f3565b50505b505050565b81516001600160401b0381111561042857610428610264565b61043c816104368454610386565b846103c0565b6020601f82116001811461047057600083156104585750848201515b600019600385901b1c1916600184901b178455610407565b600084815260208120601f198516915b828110156104a05787850151825560209485019460019092019101610480565b50848210156104be5786840151600019600387901b60f8161c191681555b50505050600190811b01905550565b808201808211156104ee57634e487b7160e01b600052601160045260246000fd5b92915050565b6109ba806105036000396000f3fe608060405234801561001057600080fd5b50600436106100d45760003560e01c8063715018a611610081578063a9059cbb1161005b578063a9059cbb146101a4578063dd62ed3e146101b7578063f2fde38b146101f057600080fd5b8063715018a6146101775780638da5cb5b1461018157806395d89b411461019c57600080fd5b806323b872dd116100b257806323b872dd1461012c578063313ce5671461013f57806370a082311461014e57600080fd5b806306fdde03146100d9578063095ea7b3146100f757806318160ddd1461011a575b600080fd5b6100e1610203565b6040516100ee91906107b3565b60405180910390f35b61010a61010536600461083b565b610295565b60405190151581526020016100ee565b6002545b6040519081526020016100ee565b61010a61013a366004610865565b6102af565b604051601281526020016100ee565b61011e61015c3660046108a2565b6001600160a01b031660009081526020819052604090205490565b61017f6102d3565b005b6005546040516001600160a01b0390911681526020016100ee565b6100e16102e7565b61010a6101b236600461083b565b6102f6565b61011e6101c53660046108c4565b6001600160a01b03918216600090815260016020908152604080832093909416825291909152205490565b61017f6101fe3660046108a2565b610304565b606060038054610212906108f7565b80601f016020809104026020016040519081016040528092919081815260200182805461023e906108f7565b801561028b5780601f106102605761010080835404028352916020019161028b565b820191906000526020600020905b81548152906001019060200180831161026e57829003601f168201915b5050505050905090565b6000336102a3818585610360565b60019150505b92915050565b6000336102bd858285610372565b6102c8858585610428565b506001949350505050565b6102db6104b9565b6102e560006104ff565b565b606060048054610212906108f7565b6000336102a3818585610428565b61030c6104b9565b6001600160a01b038116610354576040517f1e4fbdf7000000000000000000000000000000000000000000000000000000008152600060048201526024015b60405180910390fd5b61035d816104ff565b50565b61036d8383836001610569565b505050565b6001600160a01b038381166000908152600160209081526040808320938616835292905220547fffffffffffffffffffffffffffffffffffffffffffffffffffffffffffffffff8110156104225781811015610413576040517ffb8f41b20000000000000000000000000000000000000000000000000000000081526001600160a01b0384166004820152602481018290526044810183905260640161034b565b61042284848484036000610569565b50505050565b6001600160a01b03831661046b576040517f96c6fd1e0000000000000000000000000000000000000000000000000000000081526000600482015260240161034b565b6001600160a01b0382166104ae576040517fec442f050000000000000000000000000000000000000000000000000000000081526000600482015260240161034b565b61036d838383610670565b6005546001600160a01b031633146102e5576040517f118cdaa700000000000000000000000000000000000000000000000000000000815233600482015260240161034b565b600580546001600160a01b038381167fffffffffffffffffffffffff0000000000000000000000000000000000000000831681179093556040519116919082907f8be0079c531659141344cd1fd0a4f28419497f9722a3daafe3b4186f6b6457e090600090a35050565b6001600160a01b0384166105ac576040517fe602df050000000000000000000000000000000000000000000000000000000081526000600482015260240161034b565b6001600160a01b0383166105ef576040517f94280d620000000000000000000000000000000000000000000000000000000081526000600482015260240161034b565b6001600160a01b038085166000908152600160209081526040808320938716835292905220829055801561042257826001600160a01b0316846001600160a01b03167f8c5be1e5ebec7d5bd14f71427d1e84f3dd0314c0f7b2291e5b200ac8c7c3b9258460405161066291815260200190565b60405180910390a350505050565b6001600160a01b03831661069b578060026000828254610690919061094a565b909155506107269050565b6001600160a01b03831660009081526020819052604090205481811015610707576040517fe450d38c0000000000000000000000000000000000000000000000000000000081526001600160a01b0385166004820152602481018290526044810183905260640161034b565b6001600160a01b03841660009081526020819052604090209082900390555b6001600160a01b03821661074257600280548290039055610761565b6001600160a01b03821660009081526020819052604090208054820190555b816001600160a01b0316836001600160a01b03167fddf252ad1be2c89b69c2b068fc378daa952ba7f163c4a11628f55a4df523b3ef836040516107a691815260200190565b60405180910390a3505050565b602081526000825180602084015260005b818110156107e157602081860181015160408684010152016107c4565b5060006040828501015260407fffffffffffffffffffffffffffffffffffffffffffffffffffffffffffffffe0601f83011684010191505092915050565b80356001600160a01b038116811461083657600080fd5b919050565b6000806040838503121561084e57600080fd5b6108578361081f565b946020939093013593505050565b60008060006060848603121561087a57600080fd5b6108838461081f565b92506108916020850161081f565b929592945050506040919091013590565b6000602082840312156108b457600080fd5b6108bd8261081f565b9392505050565b600080604083850312156108d757600080fd5b6108e08361081f565b91506108ee6020840161081f565b90509250929050565b600181811c9082168061090b57607f821691505b602082108103610944577f4e487b7100000000000000000000000000000000000000000000000000000000600052602260045260246000fd5b50919050565b808201808211156102a9577f4e487b7100000000000000000000000000000000000000000000000000000000600052601160045260246000fdfea264697066735822122054b378d9cb0e590931cbf801d9f1b636c7291c700066986c3b30068cfd1e561464736f6c634300081c0033a2646970667358221220e9eee434b4bb145deb640eebead4b41bed6342c0a374dbc0fdc6516e6954d3e564736f6c634300081c0033",
  "devdoc": {
    "errors": {
      "ERC721EnumerableForbiddenBatchMint()": [
        {
          "details": "Batch mint is not allowed."
        }
      ],
      "ERC721IncorrectOwner(address,uint256,address)": [
        {
          "details": "Indicates an error related to the ownership over a particular token. Used in transfers.",
          "params": {
            "owner": "Address of the current owner of a token.",
            "sender": "Address whose tokens are being transferred.",
            "tokenId": "Identifier number of a token."
          }
        }
      ],
      "ERC721InsufficientApproval(address,uint256)": [
        {
          "details": "Indicates a failure with the `operator`s approval. Used in transfers.",
          "params": {
            "operator": "Address that may be allowed to operate on tokens without being their owner.",
            "tokenId": "Identifier number of a token."
          }
        }
      ],
      "ERC721InvalidApprover(address)": [
        {
          "details": "Indicates a failure with the `approver` of a token to be approved. Used in approvals.",
          "params": {
            "approver": "Address initiating an approval operation."
          }
        }
      ],
      "ERC721InvalidOperator(address)": [
        {
          "details": "Indicates a failure with the `operator` to be approved. Used in approvals.",
          "params": {
            "operator": "Address that may be allowed to operate on tokens without being their owner."
          }
        }
      ],
      "ERC721InvalidOwner(address)": [
        {
          "details": "Indicates that an address can't be an owner. For example, `address(0)` is a forbidden owner in ERC-20. Used in balance queries.",
          "params": {
            "owner": "Address of the current owner of a token."
          }
        }
      ],
      "ERC721InvalidReceiver(address)": [
        {
          "details": "Indicates a failure with the token `receiver`. Used in transfers.",
          "params": {
            "receiver": "Address to which tokens are being transferred."
          }
        }
      ],
      "ERC721InvalidSender(address)": [
        {
          "details": "Indicates a failure with the token `sender`. Used in transfers.",
          "params": {
            "sender": "Address whose tokens are being transferred."
          }
        }
      ],
      "ERC721NonexistentToken(uint256)": [
        {
          "details": "Indicates a `tokenId` whose `owner` is the zero address.",
          "params": {
            "tokenId": "Identifier number of a token."
          }
        }
      ],
      "ERC721OutOfBoundsIndex(address,uint256)": [
        {
          "details": "An `owner`'s token query was out of bounds for `index`. NOTE: The owner being `address(0)` indicates a global out of bounds index."
        }
      ],
      "InvalidInitialization()": [
        {
          "details": "The contract is already initialized."
        }
      ],
      "NotInitializing()": [
        {
          "details": "The contract is not initializing."
        }
      ],
      "OwnableInvalidOwner(address)": [
        {
          "details": "The owner is not a valid owner account. (eg. `address(0)`)"
        }
      ],
      "OwnableUnauthorizedAccount(address)": [
        {
          "details": "The caller account is not authorized to perform an operation."
        }
      ],
      "SafeERC20FailedOperation(address)": [
        {
          "details": "An operation with an ERC-20 token failed."
        }
      ]
    },
    "events": {
      "AdapterSet(address,bool)": {
        "params": {
          "_adapter": "The adapter address",
          "_enabled": "Whether the adapter is enabled"
        }
      },
      "Approval(address,address,uint256)": {
        "details": "Emitted when `owner` enables `approved` to manage the `tokenId` token."
      },
      "ApprovalForAll(address,address,bool)": {
        "details": "Emitted when `owner` enables or disables (`approved`) `operator` to manage all of its assets."
      },
      "CreatorAllocation(address,address,uint256)": {
        "params": {
          "amount": "The amount of tokens allocated to the creator",
          "creator": "The address of the creator",
          "token": "The token that was launched"
        }
      },
      "CronUpdated(address)": {
        "params": {
          "newCron": "The new cron address"
        }
      },
      "FeeUpdated(address,uint256)": {
        "params": {
          "fee": "The new fee amount",
          "feeDestination": "The address where fees will be sent"
        }
      },
      "Initialized(uint64)": {
        "details": "Triggered when the contract has been initialized or reinitialized."
      },
      "MetadataUrlUpdated(string)": {
        "params": {
          "metadataUrl": "The new metadata URL"
        }
      },
      "ReferralUpdated(address,uint256)": {
        "params": {
          "referralDestination": "The address where referrals will be sent",
          "referralFee": "The new referral fee amount"
        }
      },
      "TokenLaunched(address,address,address,(bool,bytes32,address,address,address[],string,string,string,uint16,uint256[],(int24,int24,int24,uint24,int24,uint256)))": {
        "params": {
          "adapter": "The address of the adapter used to launch the token",
          "params": "The parameters used to launch the token",
          "pool": "The address of the pool for the token",
          "token": "The token that was launched"
        }
      },
      "Transfer(address,address,uint256)": {
        "details": "Emitted when `tokenId` token is transferred from `from` to `to`."
      },
      "WhitelistUpdated(address,bool)": {
        "params": {
          "_address": "The address that was updated",
          "_whitelisted": "Whether the address is whitelisted"
        }
      }
    },
    "kind": "dev",
    "methods": {
      "approve(address,uint256)": {
        "details": "See {IERC721-approve}."
      },
      "balanceOf(address)": {
        "details": "See {IERC721-balanceOf}."
      },
      "claimFees(address)": {
        "params": {
          "_token": "The token to claim fees for"
        }
      },
      "createAndBuy((bool,bytes32,address,address,address[],string,string,string,uint16,uint256[],(int24,int24,int24,uint24,int24,uint256)),address,uint256)": {
        "params": {
          "expected": "The expected address where token will be deployed",
          "p": "The parameters for the token launch"
        },
        "returns": {
          "_0": "The address of the newly created token",
          "_1": "The amount of tokens received if the user chooses to buy at launch",
          "_2": "The amount of tokens swapped if the user chooses to swap at launch"
        }
      },
      "getApproved(uint256)": {
        "details": "See {IERC721-getApproved}."
      },
      "getDefaultValueParams(address,address)": {
        "params": {
          "_token": "The token to get the value parameters for"
        },
        "returns": {
          "params": "The value parameters for the token"
        }
      },
      "getQuoteToken(address)": {
        "params": {
          "_token": "The token to get the quote token for"
        },
        "returns": {
          "quoteToken": "The quote token for the token"
        }
      },
      "getTokenAdapter(address)": {
        "params": {
          "_token": "The token to get the adapter for"
        },
        "returns": {
          "_0": "adapter The adapter for the token"
        }
      },
      "getTokenFee(address)": {
        "params": {
          "_token": "The token to get the fee for"
        },
        "returns": {
          "fee": "The fee for the token"
        }
      },
      "getTokenLaunchParams(address)": {
        "params": {
          "_token": "The token to get the launch parameters for"
        },
        "returns": {
          "params": "The launch parameters for the token"
        }
      },
      "getTotalTokens()": {
        "returns": {
          "_0": "The total count of launched tokens"
        }
      },
      "initialize(address,address,address)": {
        "params": {
          "_owner": "The owner address",
          "_premiumToken": "The token used for fee discount",
          "_weth": "The WETH9 contract address"
        }
      },
      "isApprovedForAll(address,address)": {
        "details": "See {IERC721-isApprovedForAll}."
      },
      "name()": {
        "details": "See {IERC721Metadata-name}."
      },
      "owner()": {
        "details": "Returns the address of the current owner."
      },
      "ownerOf(uint256)": {
        "details": "See {IERC721-ownerOf}."
      },
      "renounceOwnership()": {
        "details": "Leaves the contract without owner. It will not be possible to call `onlyOwner` functions. Can only be called by the current owner. NOTE: Renouncing ownership will leave the contract without an owner, thereby disabling any functionality that is only available to the owner."
      },
      "safeTransferFrom(address,address,uint256)": {
        "details": "See {IERC721-safeTransferFrom}."
      },
      "safeTransferFrom(address,address,uint256,bytes)": {
        "details": "See {IERC721-safeTransferFrom}."
      },
      "setApprovalForAll(address,bool)": {
        "details": "See {IERC721-setApprovalForAll}."
      },
      "setCron(address)": {
        "params": {
          "_cron": "The new cron address"
        }
      },
      "setDefaultValueParams(address,address,(int24,int24,int24,uint24,int24,uint256))": {
        "params": {
          "_adapter": "The adapter to set the value parameters for",
          "_params": "The value parameters to set",
          "_token": "The token to set the value parameters for"
        }
      },
      "setFeeSettings(address,uint256,uint256)": {
        "params": {
          "_fee": "The new fee amount",
          "_feeDestination": "The address to receive fees",
          "_feeDiscountAmount": "The amount of fee discount"
        }
      },
      "setReferralSettings(address,uint256)": {
        "params": {
          "_referralDestination": "The address to receive referrals",
          "_referralFee": "The new referral fee amount"
        }
      },
      "supportsInterface(bytes4)": {
        "details": "See {IERC165-supportsInterface}."
      },
      "symbol()": {
        "details": "See {IERC721Metadata-symbol}."
      },
      "toggleAdapter(address)": {
        "params": {
          "_adapter": "The adapter address"
        }
      },
      "toggleWhitelist(address)": {
        "params": {
          "_address": "The address to toggle the whitelist for"
        }
      },
      "tokenByIndex(uint256)": {
        "details": "See {IERC721Enumerable-tokenByIndex}."
      },
      "tokenOfOwnerByIndex(address,uint256)": {
        "details": "See {IERC721Enumerable-tokenOfOwnerByIndex}."
      },
      "tokenURI(uint256)": {
        "details": "See {IERC721Metadata-tokenURI}."
      },
      "totalSupply()": {
        "details": "See {IERC721Enumerable-totalSupply}."
      },
      "transferFrom(address,address,uint256)": {
        "details": "See {IERC721-transferFrom}."
      },
      "transferOwnership(address)": {
        "details": "Transfers ownership of the contract to a new account (`newOwner`). Can only be called by the current owner."
      }
    },
    "version": 1
  },
  "userdoc": {
    "events": {
      "AdapterSet(address,bool)": {
        "notice": "Emitted when an adapter is set"
      },
      "CreatorAllocation(address,address,uint256)": {
        "notice": "Emitted when tokens are allocated to the creator"
      },
      "CronUpdated(address)": {
        "notice": "Emitted when the cron is updated"
      },
      "FeeUpdated(address,uint256)": {
        "notice": "Emitted when fee settings are updated"
      },
      "MetadataUrlUpdated(string)": {
        "notice": "Emitted when the metadata URL is updated"
      },
      "ReferralUpdated(address,uint256)": {
        "notice": "Emitted when referral settings are updated"
      },
      "TokenLaunched(address,address,address,(bool,bytes32,address,address,address[],string,string,string,uint16,uint256[],(int24,int24,int24,uint24,int24,uint256)))": {
        "notice": "Emitted when a token is launched"
      },
      "WhitelistUpdated(address,bool)": {
        "notice": "Emitted when a whitelist is updated"
      }
    },
    "kind": "user",
    "methods": {
      "claimFees(address)": {
        "notice": "Claims accumulated fees for a specific token"
      },
      "createAndBuy((bool,bytes32,address,address,address[],string,string,string,uint16,uint256[],(int24,int24,int24,uint24,int24,uint256)),address,uint256)": {
        "notice": "Creates a new token launch"
      },
      "getDefaultValueParams(address,address)": {
        "notice": "Gets the value parameters for a token"
      },
      "getQuoteToken(address)": {
        "notice": "Gets the quote token for a token"
      },
      "getTokenAdapter(address)": {
        "notice": "Gets the adapter for a token"
      },
      "getTokenFee(address)": {
        "notice": "Gets the fee for a token"
      },
      "getTokenLaunchParams(address)": {
        "notice": "Gets the launch parameters for a token"
      },
      "getTotalTokens()": {
        "notice": "Gets the total number of tokens launched"
      },
      "initialize(address,address,address)": {
        "notice": "Initializes the launchpad contract"
      },
      "setCron(address)": {
        "notice": "Sets the cron address"
      },
      "setDefaultValueParams(address,address,(int24,int24,int24,uint24,int24,uint256))": {
        "notice": "Sets the value parameters for a token"
      },
      "setFeeSettings(address,uint256,uint256)": {
        "notice": "Updates the fee settings"
      },
      "setReferralSettings(address,uint256)": {
        "notice": "Updates the referral settings"
      },
      "toggleAdapter(address)": {
        "notice": "Toggle an adapter"
      },
      "toggleWhitelist(address)": {
        "notice": "Toggles the whitelist for an address"
      }
    },
    "version": 1
  },
  "storageLayout": {
    "storage": [
      {
        "astId": 13004,
        "contract": "contracts/launchpad/TokenLaunchpadBSC.sol:TokenLaunchpadBSC",
        "label": "feeDestination",
        "offset": 0,
        "slot": "0",
        "type": "t_address"
      },
      {
        "astId": 13007,
        "contract": "contracts/launchpad/TokenLaunchpadBSC.sol:TokenLaunchpadBSC",
        "label": "adapter",
        "offset": 0,
        "slot": "1",
        "type": "t_contract(ICLMMAdapter)10989"
      },
      {
        "astId": 13010,
        "contract": "contracts/launchpad/TokenLaunchpadBSC.sol:TokenLaunchpadBSC",
        "label": "premiumToken",
        "offset": 0,
        "slot": "2",
        "type": "t_contract(IERC20)3066"
      },
      {
        "astId": 13014,
        "contract": "contracts/launchpad/TokenLaunchpadBSC.sol:TokenLaunchpadBSC",
        "label": "tokens",
        "offset": 0,
        "slot": "3",
        "type": "t_array(t_contract(IERC20)3066)dyn_storage"
      },
      {
        "astId": 13017,
        "contract": "contracts/launchpad/TokenLaunchpadBSC.sol:TokenLaunchpadBSC",
        "label": "referralDestination",
        "offset": 0,
        "slot": "4",
        "type": "t_contract(IReferralDistributor)11654"
      },
      {
        "astId": 13020,
        "contract": "contracts/launchpad/TokenLaunchpadBSC.sol:TokenLaunchpadBSC",
        "label": "weth",
        "offset": 0,
        "slot": "5",
        "type": "t_contract(IWETH9)10853"
      },
      {
        "astId": 13022,
        "contract": "contracts/launchpad/TokenLaunchpadBSC.sol:TokenLaunchpadBSC",
        "label": "creationFee",
        "offset": 0,
        "slot": "6",
        "type": "t_uint256"
      },
      {
        "astId": 13024,
        "contract": "contracts/launchpad/TokenLaunchpadBSC.sol:TokenLaunchpadBSC",
        "label": "feeDiscountAmount",
        "offset": 0,
        "slot": "7",
        "type": "t_uint256"
      },
      {
        "astId": 13026,
        "contract": "contracts/launchpad/TokenLaunchpadBSC.sol:TokenLaunchpadBSC",
        "label": "referralFee",
        "offset": 0,
        "slot": "8",
        "type": "t_uint256"
      },
      {
        "astId": 13028,
        "contract": "contracts/launchpad/TokenLaunchpadBSC.sol:TokenLaunchpadBSC",
        "label": "cron",
        "offset": 0,
        "slot": "9",
        "type": "t_address"
      },
      {
        "astId": 13034,
        "contract": "contracts/launchpad/TokenLaunchpadBSC.sol:TokenLaunchpadBSC",
        "label": "launchParams",
        "offset": 0,
        "slot": "10",
        "type": "t_mapping(t_contract(IERC20)3066,t_struct(CreateParams)11693_storage)"
      },
      {
        "astId": 13039,
        "contract": "contracts/launchpad/TokenLaunchpadBSC.sol:TokenLaunchpadBSC",
        "label": "tokenToNftId",
        "offset": 0,
        "slot": "11",
        "type": "t_mapping(t_contract(IERC20)3066,t_uint256)"
      },
      {
        "astId": 13043,
        "contract": "contracts/launchpad/TokenLaunchpadBSC.sol:TokenLaunchpadBSC",
        "label": "whitelisted",
        "offset": 0,
        "slot": "12",
        "type": "t_mapping(t_address,t_bool)"
      },
      {
        "astId": 13052,
        "contract": "contracts/launchpad/TokenLaunchpadBSC.sol:TokenLaunchpadBSC",
        "label": "defaultValueParams",
        "offset": 0,
        "slot": "13",
        "type": "t_mapping(t_contract(IERC20)3066,t_mapping(t_contract(ICLMMAdapter)10989,t_struct(ValueParams)11706_storage))"
      },
      {
        "astId": 13060,
        "contract": "contracts/launchpad/TokenLaunchpadBSC.sol:TokenLaunchpadBSC",
        "label": "adapters",
        "offset": 0,
        "slot": "14",
        "type": "t_mapping(t_contract(ICLMMAdapter)10989,t_bool)"
      }
    ],
    "types": {
      "t_address": {
        "encoding": "inplace",
        "label": "address",
        "numberOfBytes": "20"
      },
      "t_array(t_contract(IERC20)3066)dyn_storage": {
        "base": "t_contract(IERC20)3066",
        "encoding": "dynamic_array",
        "label": "contract IERC20[]",
        "numberOfBytes": "32"
      },
      "t_array(t_contract(ILaunchpool)11592)dyn_storage": {
        "base": "t_contract(ILaunchpool)11592",
        "encoding": "dynamic_array",
        "label": "contract ILaunchpool[]",
        "numberOfBytes": "32"
      },
      "t_array(t_uint256)dyn_storage": {
        "base": "t_uint256",
        "encoding": "dynamic_array",
        "label": "uint256[]",
        "numberOfBytes": "32"
      },
      "t_bool": {
        "encoding": "inplace",
        "label": "bool",
        "numberOfBytes": "1"
      },
      "t_bytes32": {
        "encoding": "inplace",
        "label": "bytes32",
        "numberOfBytes": "32"
      },
      "t_contract(ICLMMAdapter)10989": {
        "encoding": "inplace",
        "label": "contract ICLMMAdapter",
        "numberOfBytes": "20"
      },
      "t_contract(IERC20)3066": {
        "encoding": "inplace",
        "label": "contract IERC20",
        "numberOfBytes": "20"
      },
      "t_contract(ILaunchpool)11592": {
        "encoding": "inplace",
        "label": "contract ILaunchpool",
        "numberOfBytes": "20"
      },
      "t_contract(IReferralDistributor)11654": {
        "encoding": "inplace",
        "label": "contract IReferralDistributor",
        "numberOfBytes": "20"
      },
      "t_contract(IWETH9)10853": {
        "encoding": "inplace",
        "label": "contract IWETH9",
        "numberOfBytes": "20"
      },
      "t_int24": {
        "encoding": "inplace",
        "label": "int24",
        "numberOfBytes": "3"
      },
      "t_mapping(t_address,t_bool)": {
        "encoding": "mapping",
        "key": "t_address",
        "label": "mapping(address => bool)",
        "numberOfBytes": "32",
        "value": "t_bool"
      },
      "t_mapping(t_contract(ICLMMAdapter)10989,t_bool)": {
        "encoding": "mapping",
        "key": "t_contract(ICLMMAdapter)10989",
        "label": "mapping(contract ICLMMAdapter => bool)",
        "numberOfBytes": "32",
        "value": "t_bool"
      },
      "t_mapping(t_contract(ICLMMAdapter)10989,t_struct(ValueParams)11706_storage)": {
        "encoding": "mapping",
        "key": "t_contract(ICLMMAdapter)10989",
        "label": "mapping(contract ICLMMAdapter => struct ITokenLaunchpad.ValueParams)",
        "numberOfBytes": "32",
        "value": "t_struct(ValueParams)11706_storage"
      },
      "t_mapping(t_contract(IERC20)3066,t_mapping(t_contract(ICLMMAdapter)10989,t_struct(ValueParams)11706_storage))": {
        "encoding": "mapping",
        "key": "t_contract(IERC20)3066",
        "label": "mapping(contract IERC20 => mapping(contract ICLMMAdapter => struct ITokenLaunchpad.ValueParams))",
        "numberOfBytes": "32",
        "value": "t_mapping(t_contract(ICLMMAdapter)10989,t_struct(ValueParams)11706_storage)"
      },
      "t_mapping(t_contract(IERC20)3066,t_struct(CreateParams)11693_storage)": {
        "encoding": "mapping",
        "key": "t_contract(IERC20)3066",
        "label": "mapping(contract IERC20 => struct ITokenLaunchpad.CreateParams)",
        "numberOfBytes": "32",
        "value": "t_struct(CreateParams)11693_storage"
      },
      "t_mapping(t_contract(IERC20)3066,t_uint256)": {
        "encoding": "mapping",
        "key": "t_contract(IERC20)3066",
        "label": "mapping(contract IERC20 => uint256)",
        "numberOfBytes": "32",
        "value": "t_uint256"
      },
      "t_string_storage": {
        "encoding": "bytes",
        "label": "string",
        "numberOfBytes": "32"
      },
      "t_struct(CreateParams)11693_storage": {
        "encoding": "inplace",
        "label": "struct ITokenLaunchpad.CreateParams",
        "members": [
          {
            "astId": 11666,
            "contract": "contracts/launchpad/TokenLaunchpadBSC.sol:TokenLaunchpadBSC",
            "label": "isPremium",
            "offset": 0,
            "slot": "0",
            "type": "t_bool"
          },
          {
            "astId": 11668,
            "contract": "contracts/launchpad/TokenLaunchpadBSC.sol:TokenLaunchpadBSC",
            "label": "salt",
            "offset": 0,
            "slot": "1",
            "type": "t_bytes32"
          },
          {
            "astId": 11671,
            "contract": "contracts/launchpad/TokenLaunchpadBSC.sol:TokenLaunchpadBSC",
            "label": "adapter",
            "offset": 0,
            "slot": "2",
            "type": "t_contract(ICLMMAdapter)10989"
          },
          {
            "astId": 11674,
            "contract": "contracts/launchpad/TokenLaunchpadBSC.sol:TokenLaunchpadBSC",
            "label": "fundingToken",
            "offset": 0,
            "slot": "3",
            "type": "t_contract(IERC20)3066"
          },
          {
            "astId": 11678,
            "contract": "contracts/launchpad/TokenLaunchpadBSC.sol:TokenLaunchpadBSC",
            "label": "launchPools",
            "offset": 0,
            "slot": "4",
            "type": "t_array(t_contract(ILaunchpool)11592)dyn_storage"
          },
          {
            "astId": 11680,
            "contract": "contracts/launchpad/TokenLaunchpadBSC.sol:TokenLaunchpadBSC",
            "label": "metadata",
            "offset": 0,
            "slot": "5",
            "type": "t_string_storage"
          },
          {
            "astId": 11682,
            "contract": "contracts/launchpad/TokenLaunchpadBSC.sol:TokenLaunchpadBSC",
            "label": "name",
            "offset": 0,
            "slot": "6",
            "type": "t_string_storage"
          },
          {
            "astId": 11684,
            "contract": "contracts/launchpad/TokenLaunchpadBSC.sol:TokenLaunchpadBSC",
            "label": "symbol",
            "offset": 0,
            "slot": "7",
            "type": "t_string_storage"
          },
          {
            "astId": 11686,
            "contract": "contracts/launchpad/TokenLaunchpadBSC.sol:TokenLaunchpadBSC",
            "label": "creatorAllocation",
            "offset": 0,
            "slot": "8",
            "type": "t_uint16"
          },
          {
            "astId": 11689,
            "contract": "contracts/launchpad/TokenLaunchpadBSC.sol:TokenLaunchpadBSC",
            "label": "launchPoolAmounts",
            "offset": 0,
            "slot": "9",
            "type": "t_array(t_uint256)dyn_storage"
          },
          {
            "astId": 11692,
            "contract": "contracts/launchpad/TokenLaunchpadBSC.sol:TokenLaunchpadBSC",
            "label": "valueParams",
            "offset": 0,
            "slot": "10",
            "type": "t_struct(ValueParams)11706_storage"
          }
        ],
        "numberOfBytes": "384"
      },
      "t_struct(ValueParams)11706_storage": {
        "encoding": "inplace",
        "label": "struct ITokenLaunchpad.ValueParams",
        "members": [
          {
            "astId": 11695,
            "contract": "contracts/launchpad/TokenLaunchpadBSC.sol:TokenLaunchpadBSC",
            "label": "launchTick",
            "offset": 0,
            "slot": "0",
            "type": "t_int24"
          },
          {
            "astId": 11697,
            "contract": "contracts/launchpad/TokenLaunchpadBSC.sol:TokenLaunchpadBSC",
            "label": "graduationTick",
            "offset": 3,
            "slot": "0",
            "type": "t_int24"
          },
          {
            "astId": 11699,
            "contract": "contracts/launchpad/TokenLaunchpadBSC.sol:TokenLaunchpadBSC",
            "label": "upperMaxTick",
            "offset": 6,
            "slot": "0",
            "type": "t_int24"
          },
          {
            "astId": 11701,
            "contract": "contracts/launchpad/TokenLaunchpadBSC.sol:TokenLaunchpadBSC",
            "label": "fee",
            "offset": 9,
            "slot": "0",
            "type": "t_uint24"
          },
          {
            "astId": 11703,
            "contract": "contracts/launchpad/TokenLaunchpadBSC.sol:TokenLaunchpadBSC",
            "label": "tickSpacing",
            "offset": 12,
            "slot": "0",
            "type": "t_int24"
          },
          {
            "astId": 11705,
            "contract": "contracts/launchpad/TokenLaunchpadBSC.sol:TokenLaunchpadBSC",
            "label": "graduationLiquidity",
            "offset": 0,
            "slot": "1",
            "type": "t_uint256"
          }
        ],
        "numberOfBytes": "64"
      },
      "t_uint16": {
        "encoding": "inplace",
        "label": "uint16",
        "numberOfBytes": "2"
      },
      "t_uint24": {
        "encoding": "inplace",
        "label": "uint24",
        "numberOfBytes": "3"
      },
      "t_uint256": {
        "encoding": "inplace",
        "label": "uint256",
        "numberOfBytes": "32"
      }
    }
  }
}