{
  "address": "0xF5F6Ae14742e0c6A6F3c508AF55788A077087EA4",
  "abi": [
    {
      "inputs": [],
      "name": "ERC721EnumerableForbiddenBatchMint",
      "type": "error"
    },
    {
      "inputs": [
        {
          "internalType": "address",
          "name": "sender",
          "type": "address"
        },
        {
          "internalType": "uint256",
          "name": "tokenId",
          "type": "uint256"
        },
        {
          "internalType": "address",
          "name": "owner",
          "type": "address"
        }
      ],
      "name": "ERC721IncorrectOwner",
      "type": "error"
    },
    {
      "inputs": [
        {
          "internalType": "address",
          "name": "operator",
          "type": "address"
        },
        {
          "internalType": "uint256",
          "name": "tokenId",
          "type": "uint256"
        }
      ],
      "name": "ERC721InsufficientApproval",
      "type": "error"
    },
    {
      "inputs": [
        {
          "internalType": "address",
          "name": "approver",
          "type": "address"
        }
      ],
      "name": "ERC721InvalidApprover",
      "type": "error"
    },
    {
      "inputs": [
        {
          "internalType": "address",
          "name": "operator",
          "type": "address"
        }
      ],
      "name": "ERC721InvalidOperator",
      "type": "error"
    },
    {
      "inputs": [
        {
          "internalType": "address",
          "name": "owner",
          "type": "address"
        }
      ],
      "name": "ERC721InvalidOwner",
      "type": "error"
    },
    {
      "inputs": [
        {
          "internalType": "address",
          "name": "receiver",
          "type": "address"
        }
      ],
      "name": "ERC721InvalidReceiver",
      "type": "error"
    },
    {
      "inputs": [
        {
          "internalType": "address",
          "name": "sender",
          "type": "address"
        }
      ],
      "name": "ERC721InvalidSender",
      "type": "error"
    },
    {
      "inputs": [
        {
          "internalType": "uint256",
          "name": "tokenId",
          "type": "uint256"
        }
      ],
      "name": "ERC721NonexistentToken",
      "type": "error"
    },
    {
      "inputs": [
        {
          "internalType": "address",
          "name": "owner",
          "type": "address"
        },
        {
          "internalType": "uint256",
          "name": "index",
          "type": "uint256"
        }
      ],
      "name": "ERC721OutOfBoundsIndex",
      "type": "error"
    },
    {
      "inputs": [],
      "name": "FailedDeployment",
      "type": "error"
    },
    {
      "inputs": [
        {
          "internalType": "uint256",
          "name": "balance",
          "type": "uint256"
        },
        {
          "internalType": "uint256",
          "name": "needed",
          "type": "uint256"
        }
      ],
      "name": "InsufficientBalance",
      "type": "error"
    },
    {
      "inputs": [],
      "name": "InvalidInitialization",
      "type": "error"
    },
    {
      "inputs": [],
      "name": "NotInitializing",
      "type": "error"
    },
    {
      "inputs": [
        {
          "internalType": "address",
          "name": "owner",
          "type": "address"
        }
      ],
      "name": "OwnableInvalidOwner",
      "type": "error"
    },
    {
      "inputs": [
        {
          "internalType": "address",
          "name": "account",
          "type": "address"
        }
      ],
      "name": "OwnableUnauthorizedAccount",
      "type": "error"
    },
    {
      "anonymous": false,
      "inputs": [
        {
          "indexed": true,
          "internalType": "address",
          "name": "owner",
          "type": "address"
        },
        {
          "indexed": true,
          "internalType": "address",
          "name": "approved",
          "type": "address"
        },
        {
          "indexed": true,
          "internalType": "uint256",
          "name": "tokenId",
          "type": "uint256"
        }
      ],
      "name": "Approval",
      "type": "event"
    },
    {
      "anonymous": false,
      "inputs": [
        {
          "indexed": true,
          "internalType": "address",
          "name": "owner",
          "type": "address"
        },
        {
          "indexed": true,
          "internalType": "address",
          "name": "operator",
          "type": "address"
        },
        {
          "indexed": false,
          "internalType": "bool",
          "name": "approved",
          "type": "bool"
        }
      ],
      "name": "ApprovalForAll",
      "type": "event"
    },
    {
      "anonymous": false,
      "inputs": [
        {
          "indexed": false,
          "internalType": "uint64",
          "name": "version",
          "type": "uint64"
        }
      ],
      "name": "Initialized",
      "type": "event"
    },
    {
      "anonymous": false,
      "inputs": [
        {
          "indexed": true,
          "internalType": "address",
          "name": "token",
          "type": "address"
        },
        {
          "indexed": true,
          "internalType": "address",
          "name": "pool",
          "type": "address"
        },
        {
          "indexed": false,
          "internalType": "uint256",
          "name": "amount",
          "type": "uint256"
        }
      ],
      "name": "LiquidityLocked",
      "type": "event"
    },
    {
      "anonymous": false,
      "inputs": [
        {
          "indexed": true,
          "internalType": "address",
          "name": "previousOwner",
          "type": "address"
        },
        {
          "indexed": true,
          "internalType": "address",
          "name": "newOwner",
          "type": "address"
        }
      ],
      "name": "OwnershipTransferred",
      "type": "event"
    },
    {
      "anonymous": false,
      "inputs": [
        {
          "indexed": false,
          "internalType": "uint256",
          "name": "creationFee",
          "type": "uint256"
        },
        {
          "indexed": false,
          "internalType": "uint256",
          "name": "maxDuration",
          "type": "uint256"
        },
        {
          "indexed": false,
          "internalType": "uint256",
          "name": "minDuration",
          "type": "uint256"
        },
        {
          "indexed": false,
          "internalType": "uint256",
          "name": "minFundingGoal",
          "type": "uint256"
        },
        {
          "indexed": false,
          "internalType": "address",
          "name": "feeDestination",
          "type": "address"
        },
        {
          "indexed": false,
          "internalType": "uint256",
          "name": "feeCutE18",
          "type": "uint256"
        }
      ],
      "name": "SettingsUpdated",
      "type": "event"
    },
    {
      "anonymous": false,
      "inputs": [
        {
          "indexed": true,
          "internalType": "address",
          "name": "token",
          "type": "address"
        },
        {
          "indexed": true,
          "internalType": "address",
          "name": "creator",
          "type": "address"
        },
        {
          "indexed": false,
          "internalType": "string",
          "name": "name",
          "type": "string"
        },
        {
          "indexed": false,
          "internalType": "string",
          "name": "symbol",
          "type": "string"
        },
        {
          "indexed": false,
          "internalType": "uint256",
          "name": "limitPerWallet",
          "type": "uint256"
        },
        {
          "indexed": false,
          "internalType": "uint256",
          "name": "goal",
          "type": "uint256"
        },
        {
          "indexed": false,
          "internalType": "uint256",
          "name": "duration",
          "type": "uint256"
        },
        {
          "indexed": false,
          "internalType": "string",
          "name": "metadata",
          "type": "string"
        },
        {
          "indexed": false,
          "internalType": "address",
          "name": "bondingCurve",
          "type": "address"
        },
        {
          "indexed": false,
          "internalType": "bytes32",
          "name": "salt",
          "type": "bytes32"
        }
      ],
      "name": "TokenCreated",
      "type": "event"
    },
    {
      "anonymous": false,
      "inputs": [
        {
          "indexed": true,
          "internalType": "address",
          "name": "token",
          "type": "address"
        },
        {
          "indexed": false,
          "internalType": "uint256",
          "name": "assetsRaised",
          "type": "uint256"
        }
      ],
      "name": "TokenGraduated",
      "type": "event"
    },
    {
      "anonymous": false,
      "inputs": [
        {
          "indexed": true,
          "internalType": "address",
          "name": "token",
          "type": "address"
        },
        {
          "indexed": true,
          "internalType": "address",
          "name": "quoteToken",
          "type": "address"
        },
        {
          "indexed": true,
          "internalType": "address",
          "name": "buyer",
          "type": "address"
        },
        {
          "indexed": false,
          "internalType": "address",
          "name": "destination",
          "type": "address"
        },
        {
          "indexed": false,
          "internalType": "uint256",
          "name": "assetsIn",
          "type": "uint256"
        },
        {
          "indexed": false,
          "internalType": "uint256",
          "name": "tokensOut",
          "type": "uint256"
        },
        {
          "indexed": false,
          "internalType": "uint256",
          "name": "price",
          "type": "uint256"
        }
      ],
      "name": "TokensPurchased",
      "type": "event"
    },
    {
      "anonymous": false,
      "inputs": [
        {
          "indexed": true,
          "internalType": "address",
          "name": "token",
          "type": "address"
        },
        {
          "indexed": true,
          "internalType": "address",
          "name": "quoteToken",
          "type": "address"
        },
        {
          "indexed": true,
          "internalType": "address",
          "name": "seller",
          "type": "address"
        },
        {
          "indexed": false,
          "internalType": "address",
          "name": "destination",
          "type": "address"
        },
        {
          "indexed": false,
          "internalType": "uint256",
          "name": "assetsOut",
          "type": "uint256"
        },
        {
          "indexed": false,
          "internalType": "uint256",
          "name": "tokensIn",
          "type": "uint256"
        },
        {
          "indexed": false,
          "internalType": "uint256",
          "name": "price",
          "type": "uint256"
        }
      ],
      "name": "TokensSold",
      "type": "event"
    },
    {
      "anonymous": false,
      "inputs": [
        {
          "indexed": true,
          "internalType": "address",
          "name": "from",
          "type": "address"
        },
        {
          "indexed": true,
          "internalType": "address",
          "name": "to",
          "type": "address"
        },
        {
          "indexed": true,
          "internalType": "uint256",
          "name": "tokenId",
          "type": "uint256"
        }
      ],
      "name": "Transfer",
      "type": "event"
    },
    {
      "inputs": [],
      "name": "aeroFactory",
      "outputs": [
        {
          "internalType": "contract IAeroPoolFactory",
          "name": "",
          "type": "address"
        }
      ],
      "stateMutability": "view",
      "type": "function"
    },
    {
      "inputs": [
        {
          "internalType": "address",
          "name": "to",
          "type": "address"
        },
        {
          "internalType": "uint256",
          "name": "tokenId",
          "type": "uint256"
        }
      ],
      "name": "approve",
      "outputs": [],
      "stateMutability": "nonpayable",
      "type": "function"
    },
    {
      "inputs": [
        {
          "internalType": "address",
          "name": "owner",
          "type": "address"
        }
      ],
      "name": "balanceOf",
      "outputs": [
        {
          "internalType": "uint256",
          "name": "",
          "type": "uint256"
        }
      ],
      "stateMutability": "view",
      "type": "function"
    },
    {
      "inputs": [
        {
          "internalType": "contract IAgentToken",
          "name": "token",
          "type": "address"
        }
      ],
      "name": "checkFundingGoalMet",
      "outputs": [
        {
          "internalType": "bool",
          "name": "",
          "type": "bool"
        }
      ],
      "stateMutability": "view",
      "type": "function"
    },
    {
      "inputs": [],
      "name": "checker",
      "outputs": [
        {
          "internalType": "address",
          "name": "",
          "type": "address"
        }
      ],
      "stateMutability": "view",
      "type": "function"
    },
    {
      "inputs": [
        {
          "internalType": "address",
          "name": "token",
          "type": "address"
        }
      ],
      "name": "claimFees",
      "outputs": [],
      "stateMutability": "nonpayable",
      "type": "function"
    },
    {
      "inputs": [],
      "name": "coreToken",
      "outputs": [
        {
          "internalType": "contract IERC20",
          "name": "",
          "type": "address"
        }
      ],
      "stateMutability": "view",
      "type": "function"
    },
    {
      "inputs": [
        {
          "components": [
            {
              "internalType": "address",
              "name": "bondingCurve",
              "type": "address"
            },
            {
              "internalType": "bytes32",
              "name": "salt",
              "type": "bytes32"
            },
            {
              "internalType": "string",
              "name": "metadata",
              "type": "string"
            },
            {
              "internalType": "string",
              "name": "name",
              "type": "string"
            },
            {
              "internalType": "string",
              "name": "symbol",
              "type": "string"
            },
            {
              "internalType": "uint256",
              "name": "goal",
              "type": "uint256"
            },
            {
              "internalType": "uint256",
              "name": "tokensToSell",
              "type": "uint256"
            },
            {
              "internalType": "uint256",
              "name": "limitPerWallet",
              "type": "uint256"
            },
            {
              "internalType": "contract IERC20",
              "name": "fundingToken",
              "type": "address"
            }
          ],
          "internalType": "struct IAgentLaunchpad.CreateParams",
          "name": "p",
          "type": "tuple"
        }
      ],
      "name": "create",
      "outputs": [
        {
          "internalType": "address",
          "name": "",
          "type": "address"
        }
      ],
      "stateMutability": "nonpayable",
      "type": "function"
    },
    {
      "inputs": [],
      "name": "creationFee",
      "outputs": [
        {
          "internalType": "uint256",
          "name": "",
          "type": "uint256"
        }
      ],
      "stateMutability": "view",
      "type": "function"
    },
    {
      "inputs": [
        {
          "internalType": "contract IAgentToken",
          "name": "token",
          "type": "address"
        }
      ],
      "name": "curves",
      "outputs": [
        {
          "internalType": "contract IBondingCurve",
          "name": "",
          "type": "address"
        }
      ],
      "stateMutability": "view",
      "type": "function"
    },
    {
      "inputs": [],
      "name": "feeCutE18",
      "outputs": [
        {
          "internalType": "uint256",
          "name": "",
          "type": "uint256"
        }
      ],
      "stateMutability": "view",
      "type": "function"
    },
    {
      "inputs": [],
      "name": "feeDestination",
      "outputs": [
        {
          "internalType": "address",
          "name": "",
          "type": "address"
        }
      ],
      "stateMutability": "view",
      "type": "function"
    },
    {
      "inputs": [
        {
          "internalType": "contract IAgentToken",
          "name": "token",
          "type": "address"
        }
      ],
      "name": "fundingGoals",
      "outputs": [
        {
          "internalType": "uint256",
          "name": "",
          "type": "uint256"
        }
      ],
      "stateMutability": "view",
      "type": "function"
    },
    {
      "inputs": [
        {
          "internalType": "contract IAgentToken",
          "name": "token",
          "type": "address"
        }
      ],
      "name": "fundingProgress",
      "outputs": [
        {
          "internalType": "uint256",
          "name": "",
          "type": "uint256"
        }
      ],
      "stateMutability": "view",
      "type": "function"
    },
    {
      "inputs": [
        {
          "internalType": "contract IAgentToken",
          "name": "token",
          "type": "address"
        }
      ],
      "name": "fundingTokens",
      "outputs": [
        {
          "internalType": "contract IERC20",
          "name": "",
          "type": "address"
        }
      ],
      "stateMutability": "view",
      "type": "function"
    },
    {
      "inputs": [
        {
          "internalType": "uint256",
          "name": "tokenId",
          "type": "uint256"
        }
      ],
      "name": "getApproved",
      "outputs": [
        {
          "internalType": "address",
          "name": "",
          "type": "address"
        }
      ],
      "stateMutability": "view",
      "type": "function"
    },
    {
      "inputs": [],
      "name": "getTotalTokens",
      "outputs": [
        {
          "internalType": "uint256",
          "name": "",
          "type": "uint256"
        }
      ],
      "stateMutability": "view",
      "type": "function"
    },
    {
      "inputs": [],
      "name": "governor",
      "outputs": [
        {
          "internalType": "address",
          "name": "",
          "type": "address"
        }
      ],
      "stateMutability": "view",
      "type": "function"
    },
    {
      "inputs": [
        {
          "internalType": "contract IAgentToken",
          "name": "token",
          "type": "address"
        }
      ],
      "name": "graduate",
      "outputs": [],
      "stateMutability": "nonpayable",
      "type": "function"
    },
    {
      "inputs": [
        {
          "internalType": "address",
          "name": "_coreToken",
          "type": "address"
        },
        {
          "internalType": "address",
          "name": "_odos",
          "type": "address"
        },
        {
          "internalType": "address",
          "name": "_aeroFactory",
          "type": "address"
        },
        {
          "internalType": "address",
          "name": "_tokenImplementation",
          "type": "address"
        },
        {
          "internalType": "address",
          "name": "_owner",
          "type": "address"
        }
      ],
      "name": "initialize",
      "outputs": [],
      "stateMutability": "nonpayable",
      "type": "function"
    },
    {
      "inputs": [
        {
          "internalType": "address",
          "name": "owner",
          "type": "address"
        },
        {
          "internalType": "address",
          "name": "operator",
          "type": "address"
        }
      ],
      "name": "isApprovedForAll",
      "outputs": [
        {
          "internalType": "bool",
          "name": "",
          "type": "bool"
        }
      ],
      "stateMutability": "view",
      "type": "function"
    },
    {
      "inputs": [
        {
          "internalType": "contract IAgentToken",
          "name": "token",
          "type": "address"
        }
      ],
      "name": "lastTradedPrice",
      "outputs": [
        {
          "internalType": "uint256",
          "name": "",
          "type": "uint256"
        }
      ],
      "stateMutability": "view",
      "type": "function"
    },
    {
      "inputs": [
        {
          "internalType": "address",
          "name": "token",
          "type": "address"
        }
      ],
      "name": "liquidityLocks",
      "outputs": [
        {
          "internalType": "contract IAeroPool",
          "name": "liquidityToken",
          "type": "address"
        },
        {
          "internalType": "uint256",
          "name": "amount",
          "type": "uint256"
        }
      ],
      "stateMutability": "view",
      "type": "function"
    },
    {
      "inputs": [],
      "name": "maxDuration",
      "outputs": [
        {
          "internalType": "uint256",
          "name": "",
          "type": "uint256"
        }
      ],
      "stateMutability": "view",
      "type": "function"
    },
    {
      "inputs": [],
      "name": "minDuration",
      "outputs": [
        {
          "internalType": "uint256",
          "name": "",
          "type": "uint256"
        }
      ],
      "stateMutability": "view",
      "type": "function"
    },
    {
      "inputs": [],
      "name": "minFundingGoal",
      "outputs": [
        {
          "internalType": "uint256",
          "name": "",
          "type": "uint256"
        }
      ],
      "stateMutability": "view",
      "type": "function"
    },
    {
      "inputs": [],
      "name": "name",
      "outputs": [
        {
          "internalType": "string",
          "name": "",
          "type": "string"
        }
      ],
      "stateMutability": "view",
      "type": "function"
    },
    {
      "inputs": [],
      "name": "odos",
      "outputs": [
        {
          "internalType": "address",
          "name": "",
          "type": "address"
        }
      ],
      "stateMutability": "view",
      "type": "function"
    },
    {
      "inputs": [],
      "name": "owner",
      "outputs": [
        {
          "internalType": "address",
          "name": "",
          "type": "address"
        }
      ],
      "stateMutability": "view",
      "type": "function"
    },
    {
      "inputs": [
        {
          "internalType": "uint256",
          "name": "tokenId",
          "type": "uint256"
        }
      ],
      "name": "ownerOf",
      "outputs": [
        {
          "internalType": "address",
          "name": "",
          "type": "address"
        }
      ],
      "stateMutability": "view",
      "type": "function"
    },
    {
      "inputs": [
        {
          "internalType": "contract IAgentToken",
          "name": "token",
          "type": "address"
        },
        {
          "internalType": "address",
          "name": "destination",
          "type": "address"
        },
        {
          "internalType": "uint256",
          "name": "tokensToBuyOrSell",
          "type": "uint256"
        },
        {
          "internalType": "uint256",
          "name": "minAmountOut",
          "type": "uint256"
        },
        {
          "internalType": "bool",
          "name": "buy",
          "type": "bool"
        }
      ],
      "name": "presaleSwap",
      "outputs": [],
      "stateMutability": "nonpayable",
      "type": "function"
    },
    {
      "inputs": [
        {
          "internalType": "contract IAgentToken",
          "name": "token",
          "type": "address"
        },
        {
          "internalType": "address",
          "name": "destination",
          "type": "address"
        },
        {
          "internalType": "uint256",
          "name": "tokensToBuyOrSell",
          "type": "uint256"
        },
        {
          "internalType": "uint256",
          "name": "minAmountOut",
          "type": "uint256"
        },
        {
          "internalType": "bool",
          "name": "buy",
          "type": "bool"
        },
        {
          "internalType": "contract IERC20",
          "name": "inputToken",
          "type": "address"
        },
        {
          "internalType": "uint256",
          "name": "inputAmount",
          "type": "uint256"
        },
        {
          "internalType": "bytes",
          "name": "data",
          "type": "bytes"
        }
      ],
      "name": "presaleSwapWithOdos",
      "outputs": [],
      "stateMutability": "payable",
      "type": "function"
    },
    {
      "inputs": [],
      "name": "renounceOwnership",
      "outputs": [],
      "stateMutability": "nonpayable",
      "type": "function"
    },
    {
      "inputs": [
        {
          "internalType": "address",
          "name": "from",
          "type": "address"
        },
        {
          "internalType": "address",
          "name": "to",
          "type": "address"
        },
        {
          "internalType": "uint256",
          "name": "tokenId",
          "type": "uint256"
        }
      ],
      "name": "safeTransferFrom",
      "outputs": [],
      "stateMutability": "nonpayable",
      "type": "function"
    },
    {
      "inputs": [
        {
          "internalType": "address",
          "name": "from",
          "type": "address"
        },
        {
          "internalType": "address",
          "name": "to",
          "type": "address"
        },
        {
          "internalType": "uint256",
          "name": "tokenId",
          "type": "uint256"
        },
        {
          "internalType": "bytes",
          "name": "data",
          "type": "bytes"
        }
      ],
      "name": "safeTransferFrom",
      "outputs": [],
      "stateMutability": "nonpayable",
      "type": "function"
    },
    {
      "inputs": [
        {
          "internalType": "address",
          "name": "operator",
          "type": "address"
        },
        {
          "internalType": "bool",
          "name": "approved",
          "type": "bool"
        }
      ],
      "name": "setApprovalForAll",
      "outputs": [],
      "stateMutability": "nonpayable",
      "type": "function"
    },
    {
      "inputs": [
        {
          "internalType": "uint256",
          "name": "_creationFee",
          "type": "uint256"
        },
        {
          "internalType": "uint256",
          "name": "_maxDuration",
          "type": "uint256"
        },
        {
          "internalType": "uint256",
          "name": "_minDuration",
          "type": "uint256"
        },
        {
          "internalType": "uint256",
          "name": "_minFundingGoal",
          "type": "uint256"
        },
        {
          "internalType": "address",
          "name": "_feeDestination",
          "type": "address"
        },
        {
          "internalType": "uint256",
          "name": "_feeCutE18",
          "type": "uint256"
        }
      ],
      "name": "setSettings",
      "outputs": [],
      "stateMutability": "nonpayable",
      "type": "function"
    },
    {
      "inputs": [
        {
          "internalType": "address",
          "name": "_addr",
          "type": "address"
        }
      ],
      "name": "startsWithDA0",
      "outputs": [
        {
          "internalType": "bool",
          "name": "",
          "type": "bool"
        }
      ],
      "stateMutability": "pure",
      "type": "function"
    },
    {
      "inputs": [
        {
          "internalType": "bytes4",
          "name": "interfaceId",
          "type": "bytes4"
        }
      ],
      "name": "supportsInterface",
      "outputs": [
        {
          "internalType": "bool",
          "name": "",
          "type": "bool"
        }
      ],
      "stateMutability": "view",
      "type": "function"
    },
    {
      "inputs": [],
      "name": "symbol",
      "outputs": [
        {
          "internalType": "string",
          "name": "",
          "type": "string"
        }
      ],
      "stateMutability": "view",
      "type": "function"
    },
    {
      "inputs": [
        {
          "internalType": "uint256",
          "name": "index",
          "type": "uint256"
        }
      ],
      "name": "tokenByIndex",
      "outputs": [
        {
          "internalType": "uint256",
          "name": "",
          "type": "uint256"
        }
      ],
      "stateMutability": "view",
      "type": "function"
    },
    {
      "inputs": [],
      "name": "tokenImplementation",
      "outputs": [
        {
          "internalType": "address",
          "name": "",
          "type": "address"
        }
      ],
      "stateMutability": "view",
      "type": "function"
    },
    {
      "inputs": [
        {
          "internalType": "address",
          "name": "owner",
          "type": "address"
        },
        {
          "internalType": "uint256",
          "name": "index",
          "type": "uint256"
        }
      ],
      "name": "tokenOfOwnerByIndex",
      "outputs": [
        {
          "internalType": "uint256",
          "name": "",
          "type": "uint256"
        }
      ],
      "stateMutability": "view",
      "type": "function"
    },
    {
      "inputs": [
        {
          "internalType": "contract IAgentToken",
          "name": "token",
          "type": "address"
        }
      ],
      "name": "tokenToNftId",
      "outputs": [
        {
          "internalType": "uint256",
          "name": "",
          "type": "uint256"
        }
      ],
      "stateMutability": "view",
      "type": "function"
    },
    {
      "inputs": [
        {
          "internalType": "uint256",
          "name": "tokenId",
          "type": "uint256"
        }
      ],
      "name": "tokenURI",
      "outputs": [
        {
          "internalType": "string",
          "name": "",
          "type": "string"
        }
      ],
      "stateMutability": "view",
      "type": "function"
    },
    {
      "inputs": [
        {
          "internalType": "uint256",
          "name": "",
          "type": "uint256"
        }
      ],
      "name": "tokens",
      "outputs": [
        {
          "internalType": "contract IERC20",
          "name": "",
          "type": "address"
        }
      ],
      "stateMutability": "view",
      "type": "function"
    },
    {
      "inputs": [
        {
          "internalType": "contract IAgentToken",
          "name": "token",
          "type": "address"
        }
      ],
      "name": "tokensToSell",
      "outputs": [
        {
          "internalType": "uint256",
          "name": "",
          "type": "uint256"
        }
      ],
      "stateMutability": "view",
      "type": "function"
    },
    {
      "inputs": [],
      "name": "totalSupply",
      "outputs": [
        {
          "internalType": "uint256",
          "name": "",
          "type": "uint256"
        }
      ],
      "stateMutability": "view",
      "type": "function"
    },
    {
      "inputs": [
        {
          "internalType": "address",
          "name": "from",
          "type": "address"
        },
        {
          "internalType": "address",
          "name": "to",
          "type": "address"
        },
        {
          "internalType": "uint256",
          "name": "tokenId",
          "type": "uint256"
        }
      ],
      "name": "transferFrom",
      "outputs": [],
      "stateMutability": "nonpayable",
      "type": "function"
    },
    {
      "inputs": [
        {
          "internalType": "address",
          "name": "newOwner",
          "type": "address"
        }
      ],
      "name": "transferOwnership",
      "outputs": [],
      "stateMutability": "nonpayable",
      "type": "function"
    },
    {
      "inputs": [
        {
          "internalType": "address",
          "name": "_address",
          "type": "address"
        },
        {
          "internalType": "bool",
          "name": "_what",
          "type": "bool"
        }
      ],
      "name": "whitelist",
      "outputs": [],
      "stateMutability": "nonpayable",
      "type": "function"
    },
    {
      "inputs": [
        {
          "internalType": "address",
          "name": "",
          "type": "address"
        }
      ],
      "name": "whitelisted",
      "outputs": [
        {
          "internalType": "bool",
          "name": "",
          "type": "bool"
        }
      ],
      "stateMutability": "view",
      "type": "function"
    },
    {
      "stateMutability": "payable",
      "type": "receive"
    }
  ],
  "transactionHash": "0x78a4b88f2b8422ec04036639ca303595448a34ccf3b54adbf54cdb04391056d3",
  "args": [],
  "numDeployments": 1,
  "solcInputHash": "7af7e18dc99958cddef682f4df5258a0",
  "bytecode": "0x6080604052348015600f57600080fd5b506149f98061001f6000396000f3fe6080604052600436106103435760003560e01c80636db5c8fd116101b0578063c87b56dd116100ec578063e5a19fc211610095578063f08b82e61161006f578063f08b82e614610a8e578063f2fde38b14610aa3578063f59c370814610ac3578063ff6d8d0514610ae357600080fd5b8063e5a19fc2146109cc578063e985e9c5146109f9578063e9b43b5f14610a6157600080fd5b8063dce0b4e4116100c6578063dce0b4e414610976578063de53fcd51461098c578063e180bc4c146109ac57600080fd5b8063c87b56dd14610906578063cf5303cf14610926578063d936547e1461094657600080fd5b806386f3d02a1161015957806395d89b411161013357806395d89b4114610884578063a22cb46514610899578063a9bdce7a146108b9578063b88d4fde146108e657600080fd5b806386f3d02a14610814578063873f67a2146108345780638da5cb5b1461084757600080fd5b8063715018a61161018a578063715018a6146107a95780637680da89146107be5780637d0d5073146107f457600080fd5b80636db5c8fd146107535780636f96e9741461076957806370a082311461078957600080fd5b80632cc3dc6e1161027f5780634f64b2be116102285780636352211e116102025780636352211e14610691578063674d1a28146106b15780636755908d146106c75780636cf5bb63146106f457600080fd5b80634f64b2be1461063b5780634f6ccce71461065b578063567157611461067b57600080fd5b80632f745c59116102595780632f745c59146105db57806342842e0e146105fb578063464dbe8e1461061b57600080fd5b80632cc3dc6e146105585780632e7859711461058e5780632f3a3d5d146105bb57600080fd5b80631459457a116102ec5780631d651c6e116102c65780631d651c6e146104be5780631eba02ec1461050257806323b872dd1461052257806325d0b4ef1461054257600080fd5b80631459457a1461044057806315a0ea6a1461046057806318160ddd1461048057600080fd5b8063095ea7b31161031d578063095ea7b3146103de5780630c2b72e9146104005780630c340a241461042057600080fd5b806301ffc9a71461034f57806306fdde0314610384578063081812fc146103a657600080fd5b3661034a57005b600080fd5b34801561035b57600080fd5b5061036f61036a366004613f6c565b610b03565b60405190151581526020015b60405180910390f35b34801561039057600080fd5b50610399610b47565b60405161037b9190613fd9565b3480156103b257600080fd5b506103c66103c1366004613fec565b610bfd565b6040516001600160a01b03909116815260200161037b565b3480156103ea57600080fd5b506103fe6103f936600461402a565b610c45565b005b34801561040c57600080fd5b50600d546103c6906001600160a01b031681565b34801561042c57600080fd5b506008546103c6906001600160a01b031681565b34801561044c57600080fd5b506103fe61045b366004614056565b610c54565b34801561046c57600080fd5b506103fe61047b3660046140c7565b610e53565b34801561048c57600080fd5b507f645e039705490088daad89bae25049a34f4a9072d398537b1ab2425f24cbed02545b60405190815260200161037b565b3480156104ca57600080fd5b5061036f6104d93660046140c7565b6001600160a01b0316600090815260106020908152604080832054601390925290912054101590565b34801561050e57600080fd5b506000546103c6906001600160a01b031681565b34801561052e57600080fd5b506103fe61053d3660046140e4565b611384565b34801561054e57600080fd5b506104b060075481565b34801561056457600080fd5b506103c66105733660046140c7565b600f602052600090815260409020546001600160a01b031681565b34801561059a57600080fd5b506104b06105a93660046140c7565b60106020526000908152604090205481565b3480156105c757600080fd5b506001546103c6906001600160a01b031681565b3480156105e757600080fd5b506104b06105f636600461402a565b611428565b34801561060757600080fd5b506103fe6106163660046140e4565b6114ae565b34801561062757600080fd5b506103fe610636366004614133565b6114ce565b34801561064757600080fd5b506103c6610656366004613fec565b6114e2565b34801561066757600080fd5b506104b0610676366004613fec565b61150c565b34801561068757600080fd5b506104b060065481565b34801561069d57600080fd5b506103c66106ac366004613fec565b6115a8565b3480156106bd57600080fd5b506104b0600b5481565b3480156106d357600080fd5b506104b06106e23660046140c7565b60156020526000908152604090205481565b34801561070057600080fd5b5061073461070f3660046140c7565b600e60205260009081526040902080546001909101546001600160a01b039091169082565b604080516001600160a01b03909316835260208301919091520161037b565b34801561075f57600080fd5b506104b060055481565b34801561077557600080fd5b506103fe610784366004614184565b6115b3565b34801561079557600080fd5b506104b06107a43660046140c7565b611651565b3480156107b557600080fd5b506103fe6116d8565b3480156107ca57600080fd5b506103c66107d93660046140c7565b6014602052600090815260409020546001600160a01b031681565b34801561080057600080fd5b506103c661080f3660046142af565b6116ec565b34801561082057600080fd5b50600c546103c6906001600160a01b031681565b6103fe6108423660046143c5565b611b36565b34801561085357600080fd5b507f9016d09d72d40fdae2fd8ceac6b6234c7706214fd39c1cd1e609a0528c199300546001600160a01b03166103c6565b34801561089057600080fd5b50610399611de7565b3480156108a557600080fd5b506103fe6108b436600461446a565b611e38565b3480156108c557600080fd5b506104b06108d43660046140c7565b60126020526000908152604090205481565b3480156108f257600080fd5b506103fe6109013660046144a3565b611e43565b34801561091257600080fd5b50610399610921366004613fec565b611e5b565b34801561093257600080fd5b506009546103c6906001600160a01b031681565b34801561095257600080fd5b5061036f6109613660046140c7565b60036020526000908152604090205460ff1681565b34801561098257600080fd5b506104b060045481565b34801561099857600080fd5b50600a546103c6906001600160a01b031681565b3480156109b857600080fd5b5061036f6109c73660046140c7565b611ed0565b3480156109d857600080fd5b506104b06109e73660046140c7565b60136020526000908152604090205481565b348015610a0557600080fd5b5061036f610a1436600461450f565b6001600160a01b0391821660009081527f80bb2b638cc20bc4d0a60d66940f3ab4a00c1d7b313497ca82fb0b4ab00793056020908152604080832093909416825291909152205460ff1690565b348015610a6d57600080fd5b506104b0610a7c3660046140c7565b60116020526000908152604090205481565b348015610a9a57600080fd5b506002546104b0565b348015610aaf57600080fd5b506103fe610abe3660046140c7565b611eee565b348015610acf57600080fd5b506103fe610ade36600461446a565b611f45565b348015610aef57600080fd5b506103fe610afe3660046140c7565b611f78565b60006001600160e01b031982167f780e9d63000000000000000000000000000000000000000000000000000000001480610b415750610b418261233a565b92915050565b7f80bb2b638cc20bc4d0a60d66940f3ab4a00c1d7b313497ca82fb0b4ab00793008054606091908190610b799061453d565b80601f0160208091040260200160405190810160405280929190818152602001828054610ba59061453d565b8015610bf25780601f10610bc757610100808354040283529160200191610bf2565b820191906000526020600020905b815481529060010190602001808311610bd557829003601f168201915b505050505091505090565b6000610c08826123d5565b5060008281527f80bb2b638cc20bc4d0a60d66940f3ab4a00c1d7b313497ca82fb0b4ab007930460205260409020546001600160a01b0316610b41565b610c5082823361242d565b5050565b7ff0c57e16840df040f15088dc2f81fe391c3923bec73e23a9662efc9c229c6a00805468010000000000000000810460ff16159067ffffffffffffffff16600081158015610c9f5750825b905060008267ffffffffffffffff166001148015610cbc5750303b155b905081158015610cca575080155b15610d01576040517ff92ee8a900000000000000000000000000000000000000000000000000000000815260040160405180910390fd5b845467ffffffffffffffff191660011785558315610d3557845468ff00000000000000001916680100000000000000001785555b600d80546001600160a01b03808d166001600160a01b031992831617909255600080548c8416908316179055600c80548b841690831617905560018054928a1692909116919091179055610d888661243a565b610dfc6040518060400160405280601281526020017f414920546f6b656e204c61756e636870616400000000000000000000000000008152506040518060400160405280600681526020017f424c4f4e4b53000000000000000000000000000000000000000000000000000081525061244b565b8315610e4757845468ff000000000000000019168555604051600181527fc7f505b2f371ae2175ee4913f4499e1f2633a7b5936321eed1cdaeb6115181d29060200160405180910390a15b50505050505050505050565b6001600160a01b03808216600090815260146020526040812054600d5490831692168214610e8357600b54610e86565b60005b6001600160a01b0384166000908152600e602052604081206001810154929350919003610efa5760405162461bcd60e51b815260206004820152600e60248201527f4e6f206c6f636b206c6f636b656400000000000000000000000000000000000060448201526064015b60405180910390fd5b6001600160a01b038416600090815260156020526040812054610f1c906115a8565b8254604080517fd294f09300000000000000000000000000000000000000000000000000000000815281519394506001600160a01b03909216926000928392859263d294f093926004808201939291829003018187875af1158015610f85573d6000803e3d6000fd5b505050506040513d601f19601f82011682018060405250810190610fa99190614577565b90925090506000670de0b6b3a7640000610fc388856145b1565b610fcd91906145c8565b90506000670de0b6b3a7640000610fe489856145b1565b610fee91906145c8565b9050846001600160a01b0316630dfe16816040518163ffffffff1660e01b8152600401602060405180830381865afa15801561102e573d6000803e3d6000fd5b505050506040513d601f19601f8201168201806040525081019061105291906145ea565b6001600160a01b031663a9059cbb8761106b8588614607565b6040516001600160e01b031960e085901b1681526001600160a01b03909216600483015260248201526044016020604051808303816000875af11580156110b6573d6000803e3d6000fd5b505050506040513d601f19601f820116820180604052508101906110da919061461a565b50846001600160a01b031663d21220a76040518163ffffffff1660e01b8152600401602060405180830381865afa158015611119573d6000803e3d6000fd5b505050506040513d601f19601f8201168201806040525081019061113d91906145ea565b6001600160a01b031663a9059cbb876111568487614607565b6040516001600160e01b031960e085901b1681526001600160a01b03909216600483015260248201526044016020604051808303816000875af11580156111a1573d6000803e3d6000fd5b505050506040513d601f19601f820116820180604052508101906111c5919061461a565b50846001600160a01b0316630dfe16816040518163ffffffff1660e01b8152600401602060405180830381865afa158015611204573d6000803e3d6000fd5b505050506040513d601f19601f8201168201806040525081019061122891906145ea565b600a5460405163a9059cbb60e01b81526001600160a01b0391821660048201526024810185905291169063a9059cbb906044016020604051808303816000875af115801561127a573d6000803e3d6000fd5b505050506040513d601f19601f8201168201806040525081019061129e919061461a565b50846001600160a01b031663d21220a76040518163ffffffff1660e01b8152600401602060405180830381865afa1580156112dd573d6000803e3d6000fd5b505050506040513d601f19601f8201168201806040525081019061130191906145ea565b600a5460405163a9059cbb60e01b81526001600160a01b0391821660048201526024810184905291169063a9059cbb906044016020604051808303816000875af1158015611353573d6000803e3d6000fd5b505050506040513d601f19601f82011682018060405250810190611377919061461a565b5050505050505050505050565b6001600160a01b0382166113ae57604051633250574960e11b815260006004820152602401610ef1565b60006113bb83833361245d565b9050836001600160a01b0316816001600160a01b031614611422576040517f64283d7b0000000000000000000000000000000000000000000000000000000081526001600160a01b0380861660048301526024820184905282166044820152606401610ef1565b50505050565b60007f645e039705490088daad89bae25049a34f4a9072d398537b1ab2425f24cbed0061145484611651565b83106114855760405163295f44f760e21b81526001600160a01b038516600482015260248101849052604401610ef1565b6001600160a01b0384166000908152602091825260408082208583529092522054905092915050565b6114c983838360405180602001604052806000815250611e43565b505050565b6114db8585858585612568565b5050505050565b600281815481106114f257600080fd5b6000918252602090912001546001600160a01b0316905081565b60007f645e039705490088daad89bae25049a34f4a9072d398537b1ab2425f24cbed006115577f645e039705490088daad89bae25049a34f4a9072d398537b1ab2425f24cbed025490565b83106115805760405163295f44f760e21b81526000600482015260248101849052604401610ef1565b80600201838154811061159557611595614637565b9060005260206000200154915050919050565b6000610b41826123d5565b6115bb612e5b565b6004869055600585905560068490556007839055600a80546001600160a01b0319166001600160a01b038416908117909155600b829055604080518881526020810188905290810186905260608101859052608081019190915260a081018290527ff441b2606ca3aaa43fbcce930f0572463f565466f1f7dd67a1980cbe47715fce9060c00160405180910390a1505050505050565b60007f80bb2b638cc20bc4d0a60d66940f3ab4a00c1d7b313497ca82fb0b4ab00793006001600160a01b0383166116b7576040517f89c62b6400000000000000000000000000000000000000000000000000000000815260006004820152602401610ef1565b6001600160a01b039092166000908152600390920160205250604090205490565b6116e0612e5b565b6116ea6000612ecf565b565b60006007548260a0015110156117445760405162461bcd60e51b815260206004820152600f60248201527f216d696e46756e64696e67476f616c00000000000000000000000000000000006044820152606401610ef1565b81516001600160a01b031660009081526003602052604090205460ff1661179d5760405162461bcd60e51b815260206004820152600d60248201526c21626f6e64696e67437572766560981b6044820152606401610ef1565b6101008201516001600160a01b031660009081526003602052604090205460ff166117fa5760405162461bcd60e51b815260206004820152600d60248201526c21626f6e64696e67437572766560981b6044820152606401610ef1565b6004541561188857610100820151600480546040516323b872dd60e01b8152339281019290925261dead602483015260448201526001600160a01b03909116906323b872dd906064016020604051808303816000875af1158015611862573d6000803e3d6000fd5b505050506040513d601f19601f82011682018060405250810190611886919061461a565b505b60408051600280825260608201835260009260208301908036833750506000805483519394506001600160a01b0316928492506118c7576118c7614637565b60200260200101906001600160a01b031690816001600160a01b03168152505030816001815181106118fb576118fb614637565b60200260200101906001600160a01b031690816001600160a01b03168152505060006040518060a001604052808560600151815260200185608001518152602001856040015181526020018560e001518152602001838152509050600061197b600160009054906101000a90046001600160a01b03168660200151612f40565b6040517f1d66539f0000000000000000000000000000000000000000000000000000000081529091506001600160a01b03821690631d66539f906119c390859060040161464d565b600060405180830381600087803b1580156119dd57600080fd5b505af11580156119f1573d6000803e3d6000fd5b50505050336001600160a01b0316816001600160a01b03167fc98cc36b2100177b21410da31ba19117fa4675da442ed1cd0f8af5082ee6c7c9876060015188608001518960e001518a60a001518b60c001518c604001518d600001518e60200151604051611a6698979695949392919061470b565b60405180910390a36002805460018101825560008281527f405787fa12a823e0f2b7631cc41b3ba8828b3321ca811111fa75cd3aa3bb5ace90910180546001600160a01b03199081166001600160a01b038681169182179093556101008a0151908452601460209081526040808620805485169386169390931790925560a08b0151601082528286205560c08b01516011825282862055945460158087528286209182558b51600f885292909520805490931691909316179055915254611b2e903390612f4e565b949350505050565b6001600160a01b03831615611c4f576040516323b872dd60e01b8152336004820152306024820152604481018390526001600160a01b038416906323b872dd906064016020604051808303816000875af1158015611b98573d6000803e3d6000fd5b505050506040513d601f19601f82011682018060405250810190611bbc919061461a565b506000546040517f095ea7b30000000000000000000000000000000000000000000000000000000081526001600160a01b039182166004820152602481018490529084169063095ea7b3906044016020604051808303816000875af1158015611c29573d6000803e3d6000fd5b505050506040513d601f19601f82011682018060405250810190611c4d919061461a565b505b8315611d1c57600080546040516001600160a01b03909116908490611c75908590614779565b60006040518083038185875af1925050503d8060008114611cb2576040519150601f19603f3d011682016040523d82523d6000602084013e611cb7565b606091505b5050905080611d085760405162461bcd60e51b815260206004820152601060248201527f6f646f732063616c6c206661696c6564000000000000000000000000000000006044820152606401610ef1565b611d16898989896001612568565b50611ddd565b611d2a888888886000612568565b600080546040516001600160a01b0390911690611d48908490614779565b6000604051808303816000865af19150503d8060008114611d85576040519150601f19603f3d011682016040523d82523d6000602084013e611d8a565b606091505b5050905080611ddb5760405162461bcd60e51b815260206004820152601060248201527f6f646f732063616c6c206661696c6564000000000000000000000000000000006044820152606401610ef1565b505b5050505050505050565b7f80bb2b638cc20bc4d0a60d66940f3ab4a00c1d7b313497ca82fb0b4ab007930180546060917f80bb2b638cc20bc4d0a60d66940f3ab4a00c1d7b313497ca82fb0b4ab007930091610b799061453d565b610c50338383612fcc565b611e4e848484611384565b61142233858585856130a8565b6060611e66826123d5565b506000611e7e60408051602081019091526000815290565b90506000815111611e9e5760405180602001604052806000815250611ec9565b80611ea8846131d2565b604051602001611eb9929190614795565b6040516020818303038152906040525b9392505050565b6000606082901b80821a60da148015611ec9575060011a1592915050565b611ef6612e5b565b6001600160a01b038116611f39576040517f1e4fbdf700000000000000000000000000000000000000000000000000000000815260006004820152602401610ef1565b611f4281612ecf565b50565b611f4d612e5b565b6001600160a01b03919091166000908152600360205260409020805460ff1916911515919091179055565b6001600160a01b038181166000908152601460205260408082205490516370a0823160e01b815230600482015292169182906370a0823190602401602060405180830381865afa158015611fd0573d6000803e3d6000fd5b505050506040513d601f19601f82011682018060405250810190611ff491906147c4565b9050826001600160a01b0316636a5e26506040518163ffffffff1660e01b8152600401602060405180830381865afa158015612034573d6000803e3d6000fd5b505050506040513d601f19601f82011682018060405250810190612058919061461a565b156120a55760405162461bcd60e51b815260206004820152600f60248201527f70726573616c65206973206f76657200000000000000000000000000000000006044820152606401610ef1565b6001600160a01b03831660009081526010602090815260408083205460139092529091205410156121185760405162461bcd60e51b815260206004820152600c60248201527f2166756e64696e67476f616c00000000000000000000000000000000000000006044820152606401610ef1565b826001600160a01b031663a69df4b56040518163ffffffff1660e01b8152600401600060405180830381600087803b15801561215357600080fd5b505af1158015612167573d6000803e3d6000fd5b5050505061225b83836014866001600160a01b03166318160ddd6040518163ffffffff1660e01b8152600401602060405180830381865afa1580156121b0573d6000803e3d6000fd5b505050506040513d601f19601f820116820180604052508101906121d491906147c4565b6121df9060036145b1565b6121e991906145c8565b866001600160a01b03166318160ddd6040518163ffffffff1660e01b8152600401602060405180830381865afa158015612227573d6000803e3d6000fd5b505050506040513d601f19601f8201168201806040525081019061224b91906147c4565b6122559190614607565b84613272565b6001600160a01b03821663a9059cbb8460056122788560046145b1565b61228291906145c8565b6040516001600160e01b031960e085901b1681526001600160a01b03909216600483015260248201526044016020604051808303816000875af11580156122cd573d6000803e3d6000fd5b505050506040513d601f19601f820116820180604052508101906122f1919061461a565b50826001600160a01b03167f3774b363547126f466f72012377433ce54030696ae07ad35617ad9317eaf776b8260405161232d91815260200190565b60405180910390a2505050565b60006001600160e01b031982167f80ac58cd00000000000000000000000000000000000000000000000000000000148061239d57506001600160e01b031982167f5b5e139f00000000000000000000000000000000000000000000000000000000145b80610b4157507f01ffc9a7000000000000000000000000000000000000000000000000000000006001600160e01b0319831614610b41565b60008181527f80bb2b638cc20bc4d0a60d66940f3ab4a00c1d7b313497ca82fb0b4ab007930260205260408120546001600160a01b031680610b4157604051637e27328960e01b815260048101849052602401610ef1565b6114c9838383600161352a565b6124426136a9565b611f4281613710565b6124536136a9565b610c508282613718565b60008061246b85858561375b565b90506001600160a01b03811661250657612501847f645e039705490088daad89bae25049a34f4a9072d398537b1ab2425f24cbed02805460008381527f645e039705490088daad89bae25049a34f4a9072d398537b1ab2425f24cbed0360205260408120829055600182018355919091527fa42f15e5d656f8155fd7419d740a6073999f19cd6e061449ce4a257150545bf20155565b612529565b846001600160a01b0316816001600160a01b03161461252957612529818561389c565b6001600160a01b038516612545576125408461394a565b611b2e565b846001600160a01b0316816001600160a01b031614611b2e57611b2e8585613a45565b846001600160a01b0316636a5e26506040518163ffffffff1660e01b8152600401602060405180830381865afa1580156125a6573d6000803e3d6000fd5b505050506040513d601f19601f820116820180604052508101906125ca919061461a565b156126175760405162461bcd60e51b815260206004820152600f60248201527f70726573616c65206973206f76657200000000000000000000000000000000006044820152606401610ef1565b6001600160a01b0380861660009081526014602090815260408083205481516080810183528481529283018490529082018390526060820183905290921691819081906126856040518060800160405280600081526020016000815260200160008152602001600081525090565b60405180608001604052806127108b6126f26126a191906145b1565b6126ab91906145c8565b8152602001601360008e6001600160a01b03166001600160a01b03168152602001908152602001600020548152602001601060008e6001600160a01b03166001600160a01b03168152602001908152602001600020548152602001601160008e6001600160a01b03166001600160a01b0316815260200190815260200160002054815250915060405180608001604052808a8152602001601360008e6001600160a01b03166001600160a01b03168152602001908152602001600020548152602001601060008e6001600160a01b03166001600160a01b03168152602001908152602001600020548152602001601160008e6001600160a01b03166001600160a01b031681526020019081526020016000205481525090508615612b005760006127106127da8b6126f26145b1565b6127e491906145c8565b905060006127f2828c614607565b600a546040516323b872dd60e01b81523360048201526001600160a01b039182166024820152604481018390529192508916906323b872dd906064016020604051808303816000875af115801561284d573d6000803e3d6000fd5b505050506040513d601f19601f82011682018060405250810190612871919061461a565b506001600160a01b03808e166000908152600f6020526040908190205490517ff8efa09c00000000000000000000000000000000000000000000000000000000815291169063f8efa09c906128ca9087906004016147dd565b606060405180830381865afa1580156128e7573d6000803e3d6000fd5b505050506040513d601f19601f8201168201806040525081019061290b9190614808565b80995081985082975050505085601360008f6001600160a01b03166001600160a01b03168152602001908152602001600020600082825461294c9190614836565b90915550506040516323b872dd60e01b8152336004820152306024820152604481018790526001600160a01b038916906323b872dd906064016020604051808303816000875af11580156129a4573d6000803e3d6000fd5b505050506040513d601f19601f820116820180604052508101906129c8919061461a565b5060405163a9059cbb60e01b81526001600160a01b038d81166004830152602482018790528e169063a9059cbb906044016020604051808303816000875af1158015612a18573d6000803e3d6000fd5b505050506040513d601f19601f82011682018060405250810190612a3c919061461a565b5089851015612a7d5760405162461bcd60e51b815260206004820152600d60248201526c085b5a5b905b5bdd5b9d13dd5d609a1b6044820152606401610ef1565b336001600160a01b0316886001600160a01b03168e6001600160a01b03167f1543e5985cdf050c36142f7b7e10524730ad09af6887fbef37e3508822c9341b8f8a8a8d604051612af194939291906001600160a01b0394909416845260208401929092526040830152606082015260800190565b60405180910390a45050612e1e565b6001600160a01b03808c166000908152600f6020526040908190205490517fa4849ea000000000000000000000000000000000000000000000000000000000815291169063a4849ea090612b589084906004016147dd565b606060405180830381865afa158015612b75573d6000803e3d6000fd5b505050506040513d601f19601f82011682018060405250810190612b999190614808565b6001600160a01b038e1660009081526013602052604081208054929950929750929550859290612bca908490614607565b9091555060009050612710612be1856126f26145b1565b612beb91906145c8565b90506000612bf98286614607565b600a5460405163a9059cbb60e01b81526001600160a01b0391821660048201526024810183905291925089169063a9059cbb906044016020604051808303816000875af1158015612c4e573d6000803e3d6000fd5b505050506040513d601f19601f82011682018060405250810190612c72919061461a565b5060405163a9059cbb60e01b81526001600160a01b038d811660048301526024820184905289169063a9059cbb906044016020604051808303816000875af1158015612cc2573d6000803e3d6000fd5b505050506040513d601f19601f82011682018060405250810190612ce6919061461a565b506040516323b872dd60e01b8152336004820152306024820152604481018790526001600160a01b038e16906323b872dd906064016020604051808303816000875af1158015612d3a573d6000803e3d6000fd5b505050506040513d601f19601f82011682018060405250810190612d5e919061461a565b5089821015612d9f5760405162461bcd60e51b815260206004820152600d60248201526c085b5a5b905b5bdd5b9d13dd5d609a1b6044820152606401610ef1565b336001600160a01b0316886001600160a01b03168e6001600160a01b03167f755584aecd942a004be7015e35a71e4c9d2fab316f803036f9519218e2bea2148f898b8d604051612e1394939291906001600160a01b0394909416845260208401929092526040830152606082015260800190565b60405180910390a450505b6001600160a01b038b166000908152601260209081526040808320889055601082528083205460139092529091205410611377576113778b611f78565b33612e8d7f9016d09d72d40fdae2fd8ceac6b6234c7706214fd39c1cd1e609a0528c199300546001600160a01b031690565b6001600160a01b0316146116ea576040517f118cdaa7000000000000000000000000000000000000000000000000000000008152336004820152602401610ef1565b7f9016d09d72d40fdae2fd8ceac6b6234c7706214fd39c1cd1e609a0528c19930080546001600160a01b031981166001600160a01b03848116918217845560405192169182907f8be0079c531659141344cd1fd0a4f28419497f9722a3daafe3b4186f6b6457e090600090a3505050565b6000611ec983836000613ab2565b6001600160a01b038216612f7857604051633250574960e11b815260006004820152602401610ef1565b6000612f868383600061245d565b90506001600160a01b038116156114c9576040517f73c6ac6e00000000000000000000000000000000000000000000000000000000815260006004820152602401610ef1565b7f80bb2b638cc20bc4d0a60d66940f3ab4a00c1d7b313497ca82fb0b4ab00793006001600160a01b038316613038576040517f5b08ba180000000000000000000000000000000000000000000000000000000081526001600160a01b0384166004820152602401610ef1565b6001600160a01b038481166000818152600584016020908152604080832094881680845294825291829020805460ff191687151590811790915591519182527f17307eab39ab6107e8899845ad3d59bd9653f200f220920489ca2b5937696c31910160405180910390a350505050565b6001600160a01b0383163b156114db57604051630a85bd0160e11b81526001600160a01b0384169063150b7a02906130ea908890889087908790600401614849565b6020604051808303816000875af1925050508015613125575060408051601f3d908101601f191682019092526131229181019061488a565b60015b61318e573d808015613153576040519150601f19603f3d011682016040523d82523d6000602084013e613158565b606091505b50805160000361318657604051633250574960e11b81526001600160a01b0385166004820152602401610ef1565b805181602001fd5b6001600160e01b03198116630a85bd0160e11b146131ca57604051633250574960e11b81526001600160a01b0385166004820152602401610ef1565b505050505050565b606060006131df83613b7b565b600101905060008167ffffffffffffffff8111156131ff576131ff6141d9565b6040519080825280601f01601f191660200182016040528015613229576020820181803683370190505b5090508181016020015b600019017f3031323334353637383961626364656600000000000000000000000000000000600a86061a8153600a850494508461323357509392505050565b600c546040517f79bc57d50000000000000000000000000000000000000000000000000000000081526001600160a01b03868116600483015285811660248301526000604483018190529216906379bc57d590606401602060405180830381865afa1580156132e5573d6000803e3d6000fd5b505050506040513d601f19601f8201168201806040525081019061330991906145ea565b90506001600160a01b0381166133b457600c546040517f36bf95a00000000000000000000000000000000000000000000000000000000081526001600160a01b038781166004830152868116602483015260006044830152909116906336bf95a0906064016020604051808303816000875af115801561338d573d6000803e3d6000fd5b505050506040513d601f19601f820116820180604052508101906133b191906145ea565b90505b60405163a9059cbb60e01b81526001600160a01b0382811660048301526024820185905286169063a9059cbb906044016020604051808303816000875af1158015613403573d6000803e3d6000fd5b505050506040513d601f19601f82011682018060405250810190613427919061461a565b5060405163a9059cbb60e01b81526001600160a01b0382811660048301526024820184905285169063a9059cbb906044016020604051808303816000875af1158015613477573d6000803e3d6000fd5b505050506040513d601f19601f8201168201806040525081019061349b919061461a565b506040517f6a6278420000000000000000000000000000000000000000000000000000000081523060048201526001600160a01b03821690636a627842906024016020604051808303816000875af11580156134fb573d6000803e3d6000fd5b505050506040513d601f19601f8201168201806040525081019061351f91906147c4565b506114db8582613c5d565b7f80bb2b638cc20bc4d0a60d66940f3ab4a00c1d7b313497ca82fb0b4ab0079300818061355f57506001600160a01b03831615155b1561367857600061356f856123d5565b90506001600160a01b0384161580159061359b5750836001600160a01b0316816001600160a01b031614155b80156135ec57506001600160a01b0380821660009081527f80bb2b638cc20bc4d0a60d66940f3ab4a00c1d7b313497ca82fb0b4ab0079305602090815260408083209388168352929052205460ff16155b1561362e576040517fa9fbf51f0000000000000000000000000000000000000000000000000000000081526001600160a01b0385166004820152602401610ef1565b82156136765784866001600160a01b0316826001600160a01b03167f8c5be1e5ebec7d5bd14f71427d1e84f3dd0314c0f7b2291e5b200ac8c7c3b92560405160405180910390a45b505b600093845260040160205250506040902080546001600160a01b0319166001600160a01b0392909216919091179055565b7ff0c57e16840df040f15088dc2f81fe391c3923bec73e23a9662efc9c229c6a005468010000000000000000900460ff166116ea576040517fd7e6bcf800000000000000000000000000000000000000000000000000000000815260040160405180910390fd5b611ef66136a9565b6137206136a9565b7f80bb2b638cc20bc4d0a60d66940f3ab4a00c1d7b313497ca82fb0b4ab00793008061374c84826148ee565b506001810161142283826148ee565b60008281527f80bb2b638cc20bc4d0a60d66940f3ab4a00c1d7b313497ca82fb0b4ab007930260205260408120547f80bb2b638cc20bc4d0a60d66940f3ab4a00c1d7b313497ca82fb0b4ab0079300906001600160a01b03908116908416156137c9576137c9818587613e18565b6001600160a01b03811615613809576137e660008660008061352a565b6001600160a01b0381166000908152600383016020526040902080546000190190555b6001600160a01b0386161561383a576001600160a01b03861660009081526003830160205260409020805460010190555b600085815260028301602052604080822080546001600160a01b0319166001600160a01b038a811691821790925591518893918516917fddf252ad1be2c89b69c2b068fc378daa952ba7f163c4a11628f55a4df523b3ef91a495945050505050565b7f645e039705490088daad89bae25049a34f4a9072d398537b1ab2425f24cbed0060006138c884611651565b60008481526001840160209081526040808320546001600160a01b03891684529186905290912091925090818314613922576000838152602082815260408083205485845281842081905583526001870190915290208290555b6000948552600190930160209081526040808620869055928552929092528220919091555050565b7f645e039705490088daad89bae25049a34f4a9072d398537b1ab2425f24cbed02547f645e039705490088daad89bae25049a34f4a9072d398537b1ab2425f24cbed009060009061399d90600190614607565b60008481526003840160205260408120546002850180549394509092849081106139c9576139c9614637565b90600052602060002001549050808460020183815481106139ec576139ec614637565b600091825260208083209091019290925582815260038601909152604080822084905586825281205560028401805480613a2857613a286149ad565b600190038181906000526020600020016000905590555050505050565b7f645e039705490088daad89bae25049a34f4a9072d398537b1ab2425f24cbed0060006001613a7385611651565b613a7d9190614607565b6001600160a01b0390941660009081526020838152604080832087845282528083208690559482526001909301909252502055565b600081471015613af7576040517fcf47918100000000000000000000000000000000000000000000000000000000815247600482015260248101839052604401610ef1565b763d602d80600a3d3981f3363d3d373d3d3d363d730000008460601b60e81c176000526e5af43d82803e903d91602b57fd5bf38460781b17602052826037600984f590506001600160a01b038116611ec9576040517fb06ebf3d00000000000000000000000000000000000000000000000000000000815260040160405180910390fd5b6000807a184f03e93ff9f4daa797ed6e38ed64bf6a1f0100000000000000008310613bc4577a184f03e93ff9f4daa797ed6e38ed64bf6a1f010000000000000000830492506040015b6d04ee2d6d415b85acef81000000008310613bf0576d04ee2d6d415b85acef8100000000830492506020015b662386f26fc100008310613c0e57662386f26fc10000830492506010015b6305f5e1008310613c26576305f5e100830492506008015b6127108310613c3a57612710830492506004015b60648310613c4c576064830492506002015b600a8310610b415760010192915050565b6001600160a01b0382166000908152600e602052604090206001015415613cc65760405162461bcd60e51b815260206004820152600b60248201527f6c6f636b206578697374730000000000000000000000000000000000000000006044820152606401610ef1565b6040805180820182526001600160a01b03831680825291516370a0823160e01b8152306004820152909160208301916370a0823190602401602060405180830381865afa158015613d1b573d6000803e3d6000fd5b505050506040513d601f19601f82011682018060405250810190613d3f91906147c4565b90526001600160a01b038381166000818152600e6020908152604091829020855181546001600160a01b03191690861617815594015160019094019390935591516370a0823160e01b815230600482015290831691907fb7b393684292a0ded5b59f6f851ea4a679f3dfd94164bb0d07f374b57e4030639083906370a0823190602401602060405180830381865afa158015613ddf573d6000803e3d6000fd5b505050506040513d601f19601f82011682018060405250810190613e0391906147c4565b60405190815260200160405180910390a35050565b613e23838383613e95565b6114c9576001600160a01b038316613e5157604051637e27328960e01b815260048101829052602401610ef1565b6040517f177e802f0000000000000000000000000000000000000000000000000000000081526001600160a01b038316600482015260248101829052604401610ef1565b60006001600160a01b03831615801590611b2e5750826001600160a01b0316846001600160a01b03161480613f0e57506001600160a01b0380851660009081527f80bb2b638cc20bc4d0a60d66940f3ab4a00c1d7b313497ca82fb0b4ab0079305602090815260408083209387168352929052205460ff165b80611b2e57505060009081527f80bb2b638cc20bc4d0a60d66940f3ab4a00c1d7b313497ca82fb0b4ab007930460205260409020546001600160a01b03908116911614919050565b6001600160e01b031981168114611f4257600080fd5b600060208284031215613f7e57600080fd5b8135611ec981613f56565b60005b83811015613fa4578181015183820152602001613f8c565b50506000910152565b60008151808452613fc5816020860160208601613f89565b601f01601f19169290920160200192915050565b602081526000611ec96020830184613fad565b600060208284031215613ffe57600080fd5b5035919050565b6001600160a01b0381168114611f4257600080fd5b803561402581614005565b919050565b6000806040838503121561403d57600080fd5b823561404881614005565b946020939093013593505050565b600080600080600060a0868803121561406e57600080fd5b853561407981614005565b9450602086013561408981614005565b9350604086013561409981614005565b925060608601356140a981614005565b915060808601356140b981614005565b809150509295509295909350565b6000602082840312156140d957600080fd5b8135611ec981614005565b6000806000606084860312156140f957600080fd5b833561410481614005565b9250602084013561411481614005565b929592945050506040919091013590565b8015158114611f4257600080fd5b600080600080600060a0868803121561414b57600080fd5b853561415681614005565b9450602086013561416681614005565b9350604086013592506060860135915060808601356140b981614125565b60008060008060008060c0878903121561419d57600080fd5b8635955060208701359450604087013593506060870135925060808701356141c481614005565b9598949750929591949360a090920135925050565b634e487b7160e01b600052604160045260246000fd5b604051610120810167ffffffffffffffff81118282101715614213576142136141d9565b60405290565b600082601f83011261422a57600080fd5b81356020830160008067ffffffffffffffff84111561424b5761424b6141d9565b50604051601f19601f85018116603f0116810181811067ffffffffffffffff8211171561427a5761427a6141d9565b60405283815290508082840187101561429257600080fd5b838360208301376000602085830101528094505050505092915050565b6000602082840312156142c157600080fd5b813567ffffffffffffffff8111156142d857600080fd5b820161012081850312156142eb57600080fd5b6142f36141ef565b6142fc8261401a565b815260208281013590820152604082013567ffffffffffffffff81111561432257600080fd5b61432e86828501614219565b604083015250606082013567ffffffffffffffff81111561434e57600080fd5b61435a86828501614219565b606083015250608082013567ffffffffffffffff81111561437a57600080fd5b61438686828501614219565b60808301525060a0828101359082015260c0808301359082015260e080830135908201526143b7610100830161401a565b610100820152949350505050565b600080600080600080600080610100898b0312156143e257600080fd5b88356143ed81614005565b975060208901356143fd81614005565b96506040890135955060608901359450608089013561441b81614125565b935060a089013561442b81614005565b925060c0890135915060e089013567ffffffffffffffff81111561444e57600080fd5b61445a8b828c01614219565b9150509295985092959890939650565b6000806040838503121561447d57600080fd5b823561448881614005565b9150602083013561449881614125565b809150509250929050565b600080600080608085870312156144b957600080fd5b84356144c481614005565b935060208501356144d481614005565b925060408501359150606085013567ffffffffffffffff8111156144f757600080fd5b61450387828801614219565b91505092959194509250565b6000806040838503121561452257600080fd5b823561452d81614005565b9150602083013561449881614005565b600181811c9082168061455157607f821691505b60208210810361457157634e487b7160e01b600052602260045260246000fd5b50919050565b6000806040838503121561458a57600080fd5b505080516020909101519092909150565b634e487b7160e01b600052601160045260246000fd5b8082028115828204841417610b4157610b4161459b565b6000826145e557634e487b7160e01b600052601260045260246000fd5b500490565b6000602082840312156145fc57600080fd5b8151611ec981614005565b81810381811115610b4157610b4161459b565b60006020828403121561462c57600080fd5b8151611ec981614125565b634e487b7160e01b600052603260045260246000fd5b602081526000825160a0602084015261466960c0840182613fad565b90506020840151601f198483030160408501526146868282613fad565b9150506040840151601f198483030160608501526146a48282613fad565b6060860151608086810191909152860151858203601f190160a0870152805180835260209182019450600093509101905b80831015614701576001600160a01b0384511682526020820191506020840193506001830192506146d5565b5095945050505050565b6101008152600061472061010083018b613fad565b8281036020840152614732818b613fad565b905088604084015287606084015286608084015282810360a08401526147588187613fad565b6001600160a01b039590951660c0840152505060e001529695505050505050565b6000825161478b818460208701613f89565b9190910192915050565b600083516147a7818460208801613f89565b8351908301906147bb818360208801613f89565b01949350505050565b6000602082840312156147d657600080fd5b5051919050565b8151815260208083015190820152604080830151908201526060808301519082015260808101610b41565b60008060006060848603121561481d57600080fd5b5050815160208301516040909301519094929350919050565b80820180821115610b4157610b4161459b565b6001600160a01b03851681526001600160a01b03841660208201528260408201526080606082015260006148806080830184613fad565b9695505050505050565b60006020828403121561489c57600080fd5b8151611ec981613f56565b601f8211156114c957806000526020600020601f840160051c810160208510156148ce5750805b601f840160051c820191505b818110156114db57600081556001016148da565b815167ffffffffffffffff811115614908576149086141d9565b61491c81614916845461453d565b846148a7565b6020601f82116001811461495057600083156149385750848201515b600019600385901b1c1916600184901b1784556114db565b600084815260208120601f198516915b828110156149805787850151825560209485019460019092019101614960565b508482101561499e5786840151600019600387901b60f8161c191681555b50505050600190811b01905550565b634e487b7160e01b600052603160045260246000fdfea2646970667358221220192bcba1b3933062a435aedfd7eb1f15eb0aef7c21573a1291cdce5bf6b6fe1c64736f6c634300081c0033",
  "devdoc": {
    "errors": {
      "ERC721EnumerableForbiddenBatchMint()": [
        {
          "details": "Batch mint is not allowed."
        }
      ],
      "ERC721IncorrectOwner(address,uint256,address)": [
        {
          "details": "Indicates an error related to the ownership over a particular token. Used in transfers.",
          "params": {
            "owner": "Address of the current owner of a token.",
            "sender": "Address whose tokens are being transferred.",
            "tokenId": "Identifier number of a token."
          }
        }
      ],
      "ERC721InsufficientApproval(address,uint256)": [
        {
          "details": "Indicates a failure with the `operator`s approval. Used in transfers.",
          "params": {
            "operator": "Address that may be allowed to operate on tokens without being their owner.",
            "tokenId": "Identifier number of a token."
          }
        }
      ],
      "ERC721InvalidApprover(address)": [
        {
          "details": "Indicates a failure with the `approver` of a token to be approved. Used in approvals.",
          "params": {
            "approver": "Address initiating an approval operation."
          }
        }
      ],
      "ERC721InvalidOperator(address)": [
        {
          "details": "Indicates a failure with the `operator` to be approved. Used in approvals.",
          "params": {
            "operator": "Address that may be allowed to operate on tokens without being their owner."
          }
        }
      ],
      "ERC721InvalidOwner(address)": [
        {
          "details": "Indicates that an address can't be an owner. For example, `address(0)` is a forbidden owner in ERC-20. Used in balance queries.",
          "params": {
            "owner": "Address of the current owner of a token."
          }
        }
      ],
      "ERC721InvalidReceiver(address)": [
        {
          "details": "Indicates a failure with the token `receiver`. Used in transfers.",
          "params": {
            "receiver": "Address to which tokens are being transferred."
          }
        }
      ],
      "ERC721InvalidSender(address)": [
        {
          "details": "Indicates a failure with the token `sender`. Used in transfers.",
          "params": {
            "sender": "Address whose tokens are being transferred."
          }
        }
      ],
      "ERC721NonexistentToken(uint256)": [
        {
          "details": "Indicates a `tokenId` whose `owner` is the zero address.",
          "params": {
            "tokenId": "Identifier number of a token."
          }
        }
      ],
      "ERC721OutOfBoundsIndex(address,uint256)": [
        {
          "details": "An `owner`'s token query was out of bounds for `index`. NOTE: The owner being `address(0)` indicates a global out of bounds index."
        }
      ],
      "FailedDeployment()": [
        {
          "details": "The deployment failed."
        }
      ],
      "InsufficientBalance(uint256,uint256)": [
        {
          "details": "The ETH balance of the account is not enough to perform the operation."
        }
      ],
      "InvalidInitialization()": [
        {
          "details": "The contract is already initialized."
        }
      ],
      "NotInitializing()": [
        {
          "details": "The contract is not initializing."
        }
      ],
      "OwnableInvalidOwner(address)": [
        {
          "details": "The owner is not a valid owner account. (eg. `address(0)`)"
        }
      ],
      "OwnableUnauthorizedAccount(address)": [
        {
          "details": "The caller account is not authorized to perform an operation."
        }
      ]
    },
    "events": {
      "Approval(address,address,uint256)": {
        "details": "Emitted when `owner` enables `approved` to manage the `tokenId` token."
      },
      "ApprovalForAll(address,address,bool)": {
        "details": "Emitted when `owner` enables or disables (`approved`) `operator` to manage all of its assets."
      },
      "Initialized(uint64)": {
        "details": "Triggered when the contract has been initialized or reinitialized."
      },
      "Transfer(address,address,uint256)": {
        "details": "Emitted when `tokenId` token is transferred from `from` to `to`."
      }
    },
    "kind": "dev",
    "methods": {
      "approve(address,uint256)": {
        "details": "See {IERC721-approve}."
      },
      "balanceOf(address)": {
        "details": "See {IERC721-balanceOf}."
      },
      "checkFundingGoalMet(address)": {
        "params": {
          "token": "The token to check the funding goal for"
        },
        "returns": {
          "_0": "True if the funding goal is met, false otherwise"
        }
      },
      "claimFees(address)": {
        "params": {
          "token": "The token to claim the fees for"
        }
      },
      "create((address,bytes32,string,string,string,uint256,uint256,uint256,address))": {
        "params": {
          "p": "The parameters for creation"
        }
      },
      "getApproved(uint256)": {
        "details": "See {IERC721-getApproved}."
      },
      "getTotalTokens()": {
        "returns": {
          "_0": "The total number of tokens"
        }
      },
      "graduate(address)": {
        "params": {
          "token": "The token to graduate"
        }
      },
      "isApprovedForAll(address,address)": {
        "details": "See {IERC721-isApprovedForAll}."
      },
      "name()": {
        "details": "See {IERC721Metadata-name}."
      },
      "owner()": {
        "details": "Returns the address of the current owner."
      },
      "ownerOf(uint256)": {
        "details": "See {IERC721-ownerOf}."
      },
      "renounceOwnership()": {
        "details": "Leaves the contract without owner. It will not be possible to call `onlyOwner` functions. Can only be called by the current owner. NOTE: Renouncing ownership will leave the contract without an owner, thereby disabling any functionality that is only available to the owner."
      },
      "safeTransferFrom(address,address,uint256)": {
        "details": "See {IERC721-safeTransferFrom}."
      },
      "safeTransferFrom(address,address,uint256,bytes)": {
        "details": "See {IERC721-safeTransferFrom}."
      },
      "setApprovalForAll(address,bool)": {
        "details": "See {IERC721-setApprovalForAll}."
      },
      "setSettings(uint256,uint256,uint256,uint256,address,uint256)": {
        "params": {
          "_creationFee": "The creation fee",
          "_feeCutE18": "The fee cut in E18 format",
          "_feeDestination": "The address of the fee destination",
          "_maxDuration": "The maximum duration",
          "_minDuration": "The minimum duration",
          "_minFundingGoal": "The minimum funding goal"
        }
      },
      "supportsInterface(bytes4)": {
        "details": "See {IERC165-supportsInterface}."
      },
      "symbol()": {
        "details": "See {IERC721Metadata-symbol}."
      },
      "tokenByIndex(uint256)": {
        "details": "See {IERC721Enumerable-tokenByIndex}."
      },
      "tokenOfOwnerByIndex(address,uint256)": {
        "details": "See {IERC721Enumerable-tokenOfOwnerByIndex}."
      },
      "tokenURI(uint256)": {
        "details": "See {IERC721Metadata-tokenURI}."
      },
      "totalSupply()": {
        "details": "See {IERC721Enumerable-totalSupply}."
      },
      "transferFrom(address,address,uint256)": {
        "details": "See {IERC721-transferFrom}."
      },
      "transferOwnership(address)": {
        "details": "Transfers ownership of the contract to a new account (`newOwner`). Can only be called by the current owner."
      },
      "whitelist(address,bool)": {
        "params": {
          "_address": "The address to whitelist or remove from the whitelist",
          "_what": "True to whitelist, false to remove from the whitelist"
        }
      }
    },
    "version": 1
  },
  "userdoc": {
    "kind": "user",
    "methods": {
      "aeroFactory()": {
        "notice": "Returns the AeroPoolFactory instance"
      },
      "checkFundingGoalMet(address)": {
        "notice": "Checks if the funding goal is met for a given token"
      },
      "checker()": {
        "notice": "Returns the address of the checker"
      },
      "claimFees(address)": {
        "notice": "Claims the fees for a given token"
      },
      "coreToken()": {
        "notice": "Returns the core token"
      },
      "create((address,bytes32,string,string,string,uint256,uint256,uint256,address))": {
        "notice": "Creates a new entity with the given parameters"
      },
      "creationFee()": {
        "notice": "Returns the creation fee"
      },
      "curves(address)": {
        "notice": "Returns the bonding curve for a given token"
      },
      "feeCutE18()": {
        "notice": "Returns the fee cut in E18 format"
      },
      "feeDestination()": {
        "notice": "Returns the address of the fee destination"
      },
      "fundingGoals(address)": {
        "notice": "Returns the funding goal for a given token"
      },
      "fundingProgress(address)": {
        "notice": "Returns the funding progress for a given token"
      },
      "getTotalTokens()": {
        "notice": "Returns the total number of tokens"
      },
      "governor()": {
        "notice": "Returns the address of the governor"
      },
      "graduate(address)": {
        "notice": "Graduates a given token"
      },
      "maxDuration()": {
        "notice": "Returns the maximum duration"
      },
      "minDuration()": {
        "notice": "Returns the minimum duration"
      },
      "minFundingGoal()": {
        "notice": "Returns the minimum funding goal"
      },
      "setSettings(uint256,uint256,uint256,uint256,address,uint256)": {
        "notice": "Sets the settings for the contract"
      },
      "tokens(uint256)": {
        "notice": "Returns the token at the specified index"
      },
      "whitelist(address,bool)": {
        "notice": "Whitelists or removes an address from the whitelist"
      },
      "whitelisted(address)": {
        "notice": "Checks if an account is whitelisted"
      }
    },
    "version": 1
  },
  "storageLayout": {
    "storage": [
      {
        "astId": 9296,
        "contract": "contracts/launchpad/AgentLaunchpad.sol:AgentLaunchpad",
        "label": "odos",
        "offset": 0,
        "slot": "0",
        "type": "t_address"
      },
      {
        "astId": 9298,
        "contract": "contracts/launchpad/AgentLaunchpad.sol:AgentLaunchpad",
        "label": "tokenImplementation",
        "offset": 0,
        "slot": "1",
        "type": "t_address"
      },
      {
        "astId": 9302,
        "contract": "contracts/launchpad/AgentLaunchpad.sol:AgentLaunchpad",
        "label": "tokens",
        "offset": 0,
        "slot": "2",
        "type": "t_array(t_contract(IERC20)2712)dyn_storage"
      },
      {
        "astId": 9306,
        "contract": "contracts/launchpad/AgentLaunchpad.sol:AgentLaunchpad",
        "label": "whitelisted",
        "offset": 0,
        "slot": "3",
        "type": "t_mapping(t_address,t_bool)"
      },
      {
        "astId": 9308,
        "contract": "contracts/launchpad/AgentLaunchpad.sol:AgentLaunchpad",
        "label": "creationFee",
        "offset": 0,
        "slot": "4",
        "type": "t_uint256"
      },
      {
        "astId": 9310,
        "contract": "contracts/launchpad/AgentLaunchpad.sol:AgentLaunchpad",
        "label": "maxDuration",
        "offset": 0,
        "slot": "5",
        "type": "t_uint256"
      },
      {
        "astId": 9312,
        "contract": "contracts/launchpad/AgentLaunchpad.sol:AgentLaunchpad",
        "label": "minDuration",
        "offset": 0,
        "slot": "6",
        "type": "t_uint256"
      },
      {
        "astId": 9314,
        "contract": "contracts/launchpad/AgentLaunchpad.sol:AgentLaunchpad",
        "label": "minFundingGoal",
        "offset": 0,
        "slot": "7",
        "type": "t_uint256"
      },
      {
        "astId": 9316,
        "contract": "contracts/launchpad/AgentLaunchpad.sol:AgentLaunchpad",
        "label": "governor",
        "offset": 0,
        "slot": "8",
        "type": "t_address"
      },
      {
        "astId": 9318,
        "contract": "contracts/launchpad/AgentLaunchpad.sol:AgentLaunchpad",
        "label": "checker",
        "offset": 0,
        "slot": "9",
        "type": "t_address"
      },
      {
        "astId": 9320,
        "contract": "contracts/launchpad/AgentLaunchpad.sol:AgentLaunchpad",
        "label": "feeDestination",
        "offset": 0,
        "slot": "10",
        "type": "t_address"
      },
      {
        "astId": 9322,
        "contract": "contracts/launchpad/AgentLaunchpad.sol:AgentLaunchpad",
        "label": "feeCutE18",
        "offset": 0,
        "slot": "11",
        "type": "t_uint256"
      },
      {
        "astId": 9325,
        "contract": "contracts/launchpad/AgentLaunchpad.sol:AgentLaunchpad",
        "label": "aeroFactory",
        "offset": 0,
        "slot": "12",
        "type": "t_contract(IAeroPoolFactory)8450"
      },
      {
        "astId": 9328,
        "contract": "contracts/launchpad/AgentLaunchpad.sol:AgentLaunchpad",
        "label": "coreToken",
        "offset": 0,
        "slot": "13",
        "type": "t_contract(IERC20)2712"
      },
      {
        "astId": 9333,
        "contract": "contracts/launchpad/AgentLaunchpad.sol:AgentLaunchpad",
        "label": "liquidityLocks",
        "offset": 0,
        "slot": "14",
        "type": "t_mapping(t_address,t_struct(LiquidityLock)8510_storage)"
      },
      {
        "astId": 9339,
        "contract": "contracts/launchpad/AgentLaunchpad.sol:AgentLaunchpad",
        "label": "curves",
        "offset": 0,
        "slot": "15",
        "type": "t_mapping(t_contract(IAgentToken)8858,t_contract(IBondingCurve)8903)"
      },
      {
        "astId": 9344,
        "contract": "contracts/launchpad/AgentLaunchpad.sol:AgentLaunchpad",
        "label": "fundingGoals",
        "offset": 0,
        "slot": "16",
        "type": "t_mapping(t_contract(IAgentToken)8858,t_uint256)"
      },
      {
        "astId": 9349,
        "contract": "contracts/launchpad/AgentLaunchpad.sol:AgentLaunchpad",
        "label": "tokensToSell",
        "offset": 0,
        "slot": "17",
        "type": "t_mapping(t_contract(IAgentToken)8858,t_uint256)"
      },
      {
        "astId": 9354,
        "contract": "contracts/launchpad/AgentLaunchpad.sol:AgentLaunchpad",
        "label": "lastTradedPrice",
        "offset": 0,
        "slot": "18",
        "type": "t_mapping(t_contract(IAgentToken)8858,t_uint256)"
      },
      {
        "astId": 9359,
        "contract": "contracts/launchpad/AgentLaunchpad.sol:AgentLaunchpad",
        "label": "fundingProgress",
        "offset": 0,
        "slot": "19",
        "type": "t_mapping(t_contract(IAgentToken)8858,t_uint256)"
      },
      {
        "astId": 9365,
        "contract": "contracts/launchpad/AgentLaunchpad.sol:AgentLaunchpad",
        "label": "fundingTokens",
        "offset": 0,
        "slot": "20",
        "type": "t_mapping(t_contract(IAgentToken)8858,t_contract(IERC20)2712)"
      },
      {
        "astId": 9370,
        "contract": "contracts/launchpad/AgentLaunchpad.sol:AgentLaunchpad",
        "label": "tokenToNftId",
        "offset": 0,
        "slot": "21",
        "type": "t_mapping(t_contract(IAgentToken)8858,t_uint256)"
      }
    ],
    "types": {
      "t_address": {
        "encoding": "inplace",
        "label": "address",
        "numberOfBytes": "20"
      },
      "t_array(t_contract(IERC20)2712)dyn_storage": {
        "base": "t_contract(IERC20)2712",
        "encoding": "dynamic_array",
        "label": "contract IERC20[]",
        "numberOfBytes": "32"
      },
      "t_bool": {
        "encoding": "inplace",
        "label": "bool",
        "numberOfBytes": "1"
      },
      "t_contract(IAeroPool)8269": {
        "encoding": "inplace",
        "label": "contract IAeroPool",
        "numberOfBytes": "20"
      },
      "t_contract(IAeroPoolFactory)8450": {
        "encoding": "inplace",
        "label": "contract IAeroPoolFactory",
        "numberOfBytes": "20"
      },
      "t_contract(IAgentToken)8858": {
        "encoding": "inplace",
        "label": "contract IAgentToken",
        "numberOfBytes": "20"
      },
      "t_contract(IBondingCurve)8903": {
        "encoding": "inplace",
        "label": "contract IBondingCurve",
        "numberOfBytes": "20"
      },
      "t_contract(IERC20)2712": {
        "encoding": "inplace",
        "label": "contract IERC20",
        "numberOfBytes": "20"
      },
      "t_mapping(t_address,t_bool)": {
        "encoding": "mapping",
        "key": "t_address",
        "label": "mapping(address => bool)",
        "numberOfBytes": "32",
        "value": "t_bool"
      },
      "t_mapping(t_address,t_struct(LiquidityLock)8510_storage)": {
        "encoding": "mapping",
        "key": "t_address",
        "label": "mapping(address => struct IAgentLaunchpad.LiquidityLock)",
        "numberOfBytes": "32",
        "value": "t_struct(LiquidityLock)8510_storage"
      },
      "t_mapping(t_contract(IAgentToken)8858,t_contract(IBondingCurve)8903)": {
        "encoding": "mapping",
        "key": "t_contract(IAgentToken)8858",
        "label": "mapping(contract IAgentToken => contract IBondingCurve)",
        "numberOfBytes": "32",
        "value": "t_contract(IBondingCurve)8903"
      },
      "t_mapping(t_contract(IAgentToken)8858,t_contract(IERC20)2712)": {
        "encoding": "mapping",
        "key": "t_contract(IAgentToken)8858",
        "label": "mapping(contract IAgentToken => contract IERC20)",
        "numberOfBytes": "32",
        "value": "t_contract(IERC20)2712"
      },
      "t_mapping(t_contract(IAgentToken)8858,t_uint256)": {
        "encoding": "mapping",
        "key": "t_contract(IAgentToken)8858",
        "label": "mapping(contract IAgentToken => uint256)",
        "numberOfBytes": "32",
        "value": "t_uint256"
      },
      "t_struct(LiquidityLock)8510_storage": {
        "encoding": "inplace",
        "label": "struct IAgentLaunchpad.LiquidityLock",
        "members": [
          {
            "astId": 8507,
            "contract": "contracts/launchpad/AgentLaunchpad.sol:AgentLaunchpad",
            "label": "liquidityToken",
            "offset": 0,
            "slot": "0",
            "type": "t_contract(IAeroPool)8269"
          },
          {
            "astId": 8509,
            "contract": "contracts/launchpad/AgentLaunchpad.sol:AgentLaunchpad",
            "label": "amount",
            "offset": 0,
            "slot": "1",
            "type": "t_uint256"
          }
        ],
        "numberOfBytes": "64"
      },
      "t_uint256": {
        "encoding": "inplace",
        "label": "uint256",
        "numberOfBytes": "32"
      }
    }
  }
}