{
  "address": "0xD1Eb9e259C56Ef38a381BC79E5b2F4dF348fd9f8",
  "abi": [
    {
      "inputs": [],
      "name": "ERC721EnumerableForbiddenBatchMint",
      "type": "error"
    },
    {
      "inputs": [
        {
          "internalType": "address",
          "name": "sender",
          "type": "address"
        },
        {
          "internalType": "uint256",
          "name": "tokenId",
          "type": "uint256"
        },
        {
          "internalType": "address",
          "name": "owner",
          "type": "address"
        }
      ],
      "name": "ERC721IncorrectOwner",
      "type": "error"
    },
    {
      "inputs": [
        {
          "internalType": "address",
          "name": "operator",
          "type": "address"
        },
        {
          "internalType": "uint256",
          "name": "tokenId",
          "type": "uint256"
        }
      ],
      "name": "ERC721InsufficientApproval",
      "type": "error"
    },
    {
      "inputs": [
        {
          "internalType": "address",
          "name": "approver",
          "type": "address"
        }
      ],
      "name": "ERC721InvalidApprover",
      "type": "error"
    },
    {
      "inputs": [
        {
          "internalType": "address",
          "name": "operator",
          "type": "address"
        }
      ],
      "name": "ERC721InvalidOperator",
      "type": "error"
    },
    {
      "inputs": [
        {
          "internalType": "address",
          "name": "owner",
          "type": "address"
        }
      ],
      "name": "ERC721InvalidOwner",
      "type": "error"
    },
    {
      "inputs": [
        {
          "internalType": "address",
          "name": "receiver",
          "type": "address"
        }
      ],
      "name": "ERC721InvalidReceiver",
      "type": "error"
    },
    {
      "inputs": [
        {
          "internalType": "address",
          "name": "sender",
          "type": "address"
        }
      ],
      "name": "ERC721InvalidSender",
      "type": "error"
    },
    {
      "inputs": [
        {
          "internalType": "uint256",
          "name": "tokenId",
          "type": "uint256"
        }
      ],
      "name": "ERC721NonexistentToken",
      "type": "error"
    },
    {
      "inputs": [
        {
          "internalType": "address",
          "name": "owner",
          "type": "address"
        },
        {
          "internalType": "uint256",
          "name": "index",
          "type": "uint256"
        }
      ],
      "name": "ERC721OutOfBoundsIndex",
      "type": "error"
    },
    {
      "inputs": [],
      "name": "FailedDeployment",
      "type": "error"
    },
    {
      "inputs": [
        {
          "internalType": "uint256",
          "name": "balance",
          "type": "uint256"
        },
        {
          "internalType": "uint256",
          "name": "needed",
          "type": "uint256"
        }
      ],
      "name": "InsufficientBalance",
      "type": "error"
    },
    {
      "inputs": [],
      "name": "InvalidInitialization",
      "type": "error"
    },
    {
      "inputs": [],
      "name": "NotInitializing",
      "type": "error"
    },
    {
      "inputs": [
        {
          "internalType": "address",
          "name": "owner",
          "type": "address"
        }
      ],
      "name": "OwnableInvalidOwner",
      "type": "error"
    },
    {
      "inputs": [
        {
          "internalType": "address",
          "name": "account",
          "type": "address"
        }
      ],
      "name": "OwnableUnauthorizedAccount",
      "type": "error"
    },
    {
      "anonymous": false,
      "inputs": [
        {
          "indexed": true,
          "internalType": "address",
          "name": "owner",
          "type": "address"
        },
        {
          "indexed": true,
          "internalType": "address",
          "name": "approved",
          "type": "address"
        },
        {
          "indexed": true,
          "internalType": "uint256",
          "name": "tokenId",
          "type": "uint256"
        }
      ],
      "name": "Approval",
      "type": "event"
    },
    {
      "anonymous": false,
      "inputs": [
        {
          "indexed": true,
          "internalType": "address",
          "name": "owner",
          "type": "address"
        },
        {
          "indexed": true,
          "internalType": "address",
          "name": "operator",
          "type": "address"
        },
        {
          "indexed": false,
          "internalType": "bool",
          "name": "approved",
          "type": "bool"
        }
      ],
      "name": "ApprovalForAll",
      "type": "event"
    },
    {
      "anonymous": false,
      "inputs": [
        {
          "indexed": false,
          "internalType": "uint64",
          "name": "version",
          "type": "uint64"
        }
      ],
      "name": "Initialized",
      "type": "event"
    },
    {
      "anonymous": false,
      "inputs": [
        {
          "indexed": true,
          "internalType": "address",
          "name": "previousOwner",
          "type": "address"
        },
        {
          "indexed": true,
          "internalType": "address",
          "name": "newOwner",
          "type": "address"
        }
      ],
      "name": "OwnershipTransferred",
      "type": "event"
    },
    {
      "anonymous": false,
      "inputs": [
        {
          "indexed": false,
          "internalType": "uint256",
          "name": "creationFee",
          "type": "uint256"
        },
        {
          "indexed": false,
          "internalType": "uint256",
          "name": "maxDuration",
          "type": "uint256"
        },
        {
          "indexed": false,
          "internalType": "uint256",
          "name": "minDuration",
          "type": "uint256"
        },
        {
          "indexed": false,
          "internalType": "uint256",
          "name": "minFundingGoal",
          "type": "uint256"
        },
        {
          "indexed": false,
          "internalType": "address",
          "name": "governor",
          "type": "address"
        },
        {
          "indexed": false,
          "internalType": "address",
          "name": "checker",
          "type": "address"
        },
        {
          "indexed": false,
          "internalType": "address",
          "name": "feeDestination",
          "type": "address"
        },
        {
          "indexed": false,
          "internalType": "uint256",
          "name": "feeCutE18",
          "type": "uint256"
        }
      ],
      "name": "SettingsUpdated",
      "type": "event"
    },
    {
      "anonymous": false,
      "inputs": [
        {
          "indexed": true,
          "internalType": "address",
          "name": "token",
          "type": "address"
        },
        {
          "indexed": true,
          "internalType": "address",
          "name": "creator",
          "type": "address"
        },
        {
          "indexed": false,
          "internalType": "string",
          "name": "name",
          "type": "string"
        },
        {
          "indexed": false,
          "internalType": "string",
          "name": "symbol",
          "type": "string"
        },
        {
          "indexed": false,
          "internalType": "uint256",
          "name": "limitPerWallet",
          "type": "uint256"
        },
        {
          "indexed": false,
          "internalType": "uint256",
          "name": "goal",
          "type": "uint256"
        },
        {
          "indexed": false,
          "internalType": "uint256",
          "name": "duration",
          "type": "uint256"
        },
        {
          "indexed": false,
          "internalType": "string",
          "name": "metadata",
          "type": "string"
        },
        {
          "indexed": false,
          "internalType": "address",
          "name": "bondingCurve",
          "type": "address"
        },
        {
          "indexed": false,
          "internalType": "bytes32",
          "name": "salt",
          "type": "bytes32"
        }
      ],
      "name": "TokenCreated",
      "type": "event"
    },
    {
      "anonymous": false,
      "inputs": [
        {
          "indexed": true,
          "internalType": "address",
          "name": "token",
          "type": "address"
        },
        {
          "indexed": false,
          "internalType": "uint256",
          "name": "raised",
          "type": "uint256"
        }
      ],
      "name": "TokenGraduated",
      "type": "event"
    },
    {
      "anonymous": false,
      "inputs": [
        {
          "indexed": true,
          "internalType": "address",
          "name": "token",
          "type": "address"
        },
        {
          "indexed": true,
          "internalType": "address",
          "name": "buyer",
          "type": "address"
        },
        {
          "indexed": false,
          "internalType": "uint256",
          "name": "assetsIn",
          "type": "uint256"
        },
        {
          "indexed": false,
          "internalType": "uint256",
          "name": "tokensOut",
          "type": "uint256"
        }
      ],
      "name": "TokensPurchased",
      "type": "event"
    },
    {
      "anonymous": false,
      "inputs": [
        {
          "indexed": true,
          "internalType": "address",
          "name": "token",
          "type": "address"
        },
        {
          "indexed": true,
          "internalType": "address",
          "name": "seller",
          "type": "address"
        },
        {
          "indexed": false,
          "internalType": "uint256",
          "name": "_assetsOut",
          "type": "uint256"
        },
        {
          "indexed": false,
          "internalType": "uint256",
          "name": "_tokensIn",
          "type": "uint256"
        }
      ],
      "name": "TokensSold",
      "type": "event"
    },
    {
      "anonymous": false,
      "inputs": [
        {
          "indexed": true,
          "internalType": "address",
          "name": "from",
          "type": "address"
        },
        {
          "indexed": true,
          "internalType": "address",
          "name": "to",
          "type": "address"
        },
        {
          "indexed": true,
          "internalType": "uint256",
          "name": "tokenId",
          "type": "uint256"
        }
      ],
      "name": "Transfer",
      "type": "event"
    },
    {
      "inputs": [],
      "name": "aeroFactory",
      "outputs": [
        {
          "internalType": "contract IAeroPoolFactory",
          "name": "",
          "type": "address"
        }
      ],
      "stateMutability": "view",
      "type": "function"
    },
    {
      "inputs": [
        {
          "internalType": "address",
          "name": "to",
          "type": "address"
        },
        {
          "internalType": "uint256",
          "name": "tokenId",
          "type": "uint256"
        }
      ],
      "name": "approve",
      "outputs": [],
      "stateMutability": "nonpayable",
      "type": "function"
    },
    {
      "inputs": [
        {
          "internalType": "address",
          "name": "owner",
          "type": "address"
        }
      ],
      "name": "balanceOf",
      "outputs": [
        {
          "internalType": "uint256",
          "name": "",
          "type": "uint256"
        }
      ],
      "stateMutability": "view",
      "type": "function"
    },
    {
      "inputs": [
        {
          "internalType": "contract IAgentToken",
          "name": "token",
          "type": "address"
        }
      ],
      "name": "checkFundingGoalMet",
      "outputs": [
        {
          "internalType": "bool",
          "name": "",
          "type": "bool"
        }
      ],
      "stateMutability": "view",
      "type": "function"
    },
    {
      "inputs": [],
      "name": "checker",
      "outputs": [
        {
          "internalType": "address",
          "name": "",
          "type": "address"
        }
      ],
      "stateMutability": "view",
      "type": "function"
    },
    {
      "inputs": [
        {
          "internalType": "address",
          "name": "token",
          "type": "address"
        }
      ],
      "name": "claimFees",
      "outputs": [],
      "stateMutability": "nonpayable",
      "type": "function"
    },
    {
      "inputs": [],
      "name": "coreToken",
      "outputs": [
        {
          "internalType": "contract IERC20",
          "name": "",
          "type": "address"
        }
      ],
      "stateMutability": "view",
      "type": "function"
    },
    {
      "inputs": [
        {
          "components": [
            {
              "internalType": "address",
              "name": "bondingCurve",
              "type": "address"
            },
            {
              "internalType": "address[]",
              "name": "fundManagers",
              "type": "address[]"
            },
            {
              "internalType": "bytes32",
              "name": "salt",
              "type": "bytes32"
            },
            {
              "internalType": "string",
              "name": "metadata",
              "type": "string"
            },
            {
              "internalType": "string",
              "name": "name",
              "type": "string"
            },
            {
              "internalType": "string",
              "name": "symbol",
              "type": "string"
            },
            {
              "internalType": "uint256",
              "name": "duration",
              "type": "uint256"
            },
            {
              "internalType": "uint256",
              "name": "goal",
              "type": "uint256"
            },
            {
              "internalType": "uint256",
              "name": "limitPerWallet",
              "type": "uint256"
            },
            {
              "internalType": "contract IERC20",
              "name": "fundingToken",
              "type": "address"
            }
          ],
          "internalType": "struct IAgentLaunchpad.CreateParams",
          "name": "p",
          "type": "tuple"
        }
      ],
      "name": "create",
      "outputs": [
        {
          "internalType": "address",
          "name": "",
          "type": "address"
        }
      ],
      "stateMutability": "nonpayable",
      "type": "function"
    },
    {
      "inputs": [],
      "name": "creationFee",
      "outputs": [
        {
          "internalType": "uint256",
          "name": "",
          "type": "uint256"
        }
      ],
      "stateMutability": "view",
      "type": "function"
    },
    {
      "inputs": [
        {
          "internalType": "contract IAgentToken",
          "name": "token",
          "type": "address"
        }
      ],
      "name": "curves",
      "outputs": [
        {
          "internalType": "contract IBondingCurve",
          "name": "",
          "type": "address"
        }
      ],
      "stateMutability": "view",
      "type": "function"
    },
    {
      "inputs": [],
      "name": "feeCutE18",
      "outputs": [
        {
          "internalType": "uint256",
          "name": "",
          "type": "uint256"
        }
      ],
      "stateMutability": "view",
      "type": "function"
    },
    {
      "inputs": [],
      "name": "feeDestination",
      "outputs": [
        {
          "internalType": "address",
          "name": "",
          "type": "address"
        }
      ],
      "stateMutability": "view",
      "type": "function"
    },
    {
      "inputs": [
        {
          "internalType": "contract IAgentToken",
          "name": "token",
          "type": "address"
        }
      ],
      "name": "fundingGoals",
      "outputs": [
        {
          "internalType": "uint256",
          "name": "",
          "type": "uint256"
        }
      ],
      "stateMutability": "view",
      "type": "function"
    },
    {
      "inputs": [
        {
          "internalType": "contract IAgentToken",
          "name": "token",
          "type": "address"
        }
      ],
      "name": "fundingProgress",
      "outputs": [
        {
          "internalType": "uint256",
          "name": "",
          "type": "uint256"
        }
      ],
      "stateMutability": "view",
      "type": "function"
    },
    {
      "inputs": [
        {
          "internalType": "contract IAgentToken",
          "name": "token",
          "type": "address"
        }
      ],
      "name": "fundingTokens",
      "outputs": [
        {
          "internalType": "contract IERC20",
          "name": "",
          "type": "address"
        }
      ],
      "stateMutability": "view",
      "type": "function"
    },
    {
      "inputs": [
        {
          "internalType": "uint256",
          "name": "tokenId",
          "type": "uint256"
        }
      ],
      "name": "getApproved",
      "outputs": [
        {
          "internalType": "address",
          "name": "",
          "type": "address"
        }
      ],
      "stateMutability": "view",
      "type": "function"
    },
    {
      "inputs": [],
      "name": "getTotalTokens",
      "outputs": [
        {
          "internalType": "uint256",
          "name": "",
          "type": "uint256"
        }
      ],
      "stateMutability": "view",
      "type": "function"
    },
    {
      "inputs": [],
      "name": "governor",
      "outputs": [
        {
          "internalType": "address",
          "name": "",
          "type": "address"
        }
      ],
      "stateMutability": "view",
      "type": "function"
    },
    {
      "inputs": [
        {
          "internalType": "contract IAgentToken",
          "name": "token",
          "type": "address"
        }
      ],
      "name": "graduate",
      "outputs": [],
      "stateMutability": "nonpayable",
      "type": "function"
    },
    {
      "inputs": [
        {
          "internalType": "address",
          "name": "_coreToken",
          "type": "address"
        },
        {
          "internalType": "address",
          "name": "_aeroFactory",
          "type": "address"
        },
        {
          "internalType": "address",
          "name": "_tokenImplementation",
          "type": "address"
        },
        {
          "internalType": "address",
          "name": "_owner",
          "type": "address"
        }
      ],
      "name": "initialize",
      "outputs": [],
      "stateMutability": "nonpayable",
      "type": "function"
    },
    {
      "inputs": [
        {
          "internalType": "address",
          "name": "owner",
          "type": "address"
        },
        {
          "internalType": "address",
          "name": "operator",
          "type": "address"
        }
      ],
      "name": "isApprovedForAll",
      "outputs": [
        {
          "internalType": "bool",
          "name": "",
          "type": "bool"
        }
      ],
      "stateMutability": "view",
      "type": "function"
    },
    {
      "inputs": [
        {
          "internalType": "address",
          "name": "token",
          "type": "address"
        }
      ],
      "name": "liquidityLocks",
      "outputs": [
        {
          "internalType": "contract IAeroPool",
          "name": "liquidityToken",
          "type": "address"
        },
        {
          "internalType": "uint256",
          "name": "amount",
          "type": "uint256"
        },
        {
          "internalType": "uint256",
          "name": "releaseTime",
          "type": "uint256"
        }
      ],
      "stateMutability": "view",
      "type": "function"
    },
    {
      "inputs": [],
      "name": "maxDuration",
      "outputs": [
        {
          "internalType": "uint256",
          "name": "",
          "type": "uint256"
        }
      ],
      "stateMutability": "view",
      "type": "function"
    },
    {
      "inputs": [],
      "name": "minDuration",
      "outputs": [
        {
          "internalType": "uint256",
          "name": "",
          "type": "uint256"
        }
      ],
      "stateMutability": "view",
      "type": "function"
    },
    {
      "inputs": [],
      "name": "minFundingGoal",
      "outputs": [
        {
          "internalType": "uint256",
          "name": "",
          "type": "uint256"
        }
      ],
      "stateMutability": "view",
      "type": "function"
    },
    {
      "inputs": [],
      "name": "name",
      "outputs": [
        {
          "internalType": "string",
          "name": "",
          "type": "string"
        }
      ],
      "stateMutability": "view",
      "type": "function"
    },
    {
      "inputs": [],
      "name": "owner",
      "outputs": [
        {
          "internalType": "address",
          "name": "",
          "type": "address"
        }
      ],
      "stateMutability": "view",
      "type": "function"
    },
    {
      "inputs": [
        {
          "internalType": "uint256",
          "name": "tokenId",
          "type": "uint256"
        }
      ],
      "name": "ownerOf",
      "outputs": [
        {
          "internalType": "address",
          "name": "",
          "type": "address"
        }
      ],
      "stateMutability": "view",
      "type": "function"
    },
    {
      "inputs": [
        {
          "internalType": "contract IAgentToken",
          "name": "token",
          "type": "address"
        },
        {
          "internalType": "uint256",
          "name": "tokensToBuyOrSell",
          "type": "uint256"
        },
        {
          "internalType": "uint256",
          "name": "minAmountOut",
          "type": "uint256"
        },
        {
          "internalType": "bool",
          "name": "buy",
          "type": "bool"
        }
      ],
      "name": "presaleSwap",
      "outputs": [],
      "stateMutability": "nonpayable",
      "type": "function"
    },
    {
      "inputs": [],
      "name": "releaseLiquidityLock",
      "outputs": [],
      "stateMutability": "nonpayable",
      "type": "function"
    },
    {
      "inputs": [],
      "name": "releaseTokens",
      "outputs": [],
      "stateMutability": "nonpayable",
      "type": "function"
    },
    {
      "inputs": [],
      "name": "renounceOwnership",
      "outputs": [],
      "stateMutability": "nonpayable",
      "type": "function"
    },
    {
      "inputs": [
        {
          "internalType": "address",
          "name": "from",
          "type": "address"
        },
        {
          "internalType": "address",
          "name": "to",
          "type": "address"
        },
        {
          "internalType": "uint256",
          "name": "tokenId",
          "type": "uint256"
        }
      ],
      "name": "safeTransferFrom",
      "outputs": [],
      "stateMutability": "nonpayable",
      "type": "function"
    },
    {
      "inputs": [
        {
          "internalType": "address",
          "name": "from",
          "type": "address"
        },
        {
          "internalType": "address",
          "name": "to",
          "type": "address"
        },
        {
          "internalType": "uint256",
          "name": "tokenId",
          "type": "uint256"
        },
        {
          "internalType": "bytes",
          "name": "data",
          "type": "bytes"
        }
      ],
      "name": "safeTransferFrom",
      "outputs": [],
      "stateMutability": "nonpayable",
      "type": "function"
    },
    {
      "inputs": [
        {
          "internalType": "address",
          "name": "operator",
          "type": "address"
        },
        {
          "internalType": "bool",
          "name": "approved",
          "type": "bool"
        }
      ],
      "name": "setApprovalForAll",
      "outputs": [],
      "stateMutability": "nonpayable",
      "type": "function"
    },
    {
      "inputs": [
        {
          "internalType": "uint256",
          "name": "_creationFee",
          "type": "uint256"
        },
        {
          "internalType": "uint256",
          "name": "_maxDuration",
          "type": "uint256"
        },
        {
          "internalType": "uint256",
          "name": "_minDuration",
          "type": "uint256"
        },
        {
          "internalType": "uint256",
          "name": "_minFundingGoal",
          "type": "uint256"
        },
        {
          "internalType": "address",
          "name": "_governor",
          "type": "address"
        },
        {
          "internalType": "address",
          "name": "_checker",
          "type": "address"
        },
        {
          "internalType": "address",
          "name": "_feeDestination",
          "type": "address"
        },
        {
          "internalType": "uint256",
          "name": "_feeCutE18",
          "type": "uint256"
        }
      ],
      "name": "setSettings",
      "outputs": [],
      "stateMutability": "nonpayable",
      "type": "function"
    },
    {
      "inputs": [
        {
          "internalType": "bytes4",
          "name": "interfaceId",
          "type": "bytes4"
        }
      ],
      "name": "supportsInterface",
      "outputs": [
        {
          "internalType": "bool",
          "name": "",
          "type": "bool"
        }
      ],
      "stateMutability": "view",
      "type": "function"
    },
    {
      "inputs": [],
      "name": "symbol",
      "outputs": [
        {
          "internalType": "string",
          "name": "",
          "type": "string"
        }
      ],
      "stateMutability": "view",
      "type": "function"
    },
    {
      "inputs": [
        {
          "internalType": "uint256",
          "name": "index",
          "type": "uint256"
        }
      ],
      "name": "tokenByIndex",
      "outputs": [
        {
          "internalType": "uint256",
          "name": "",
          "type": "uint256"
        }
      ],
      "stateMutability": "view",
      "type": "function"
    },
    {
      "inputs": [],
      "name": "tokenImplementation",
      "outputs": [
        {
          "internalType": "address",
          "name": "",
          "type": "address"
        }
      ],
      "stateMutability": "view",
      "type": "function"
    },
    {
      "inputs": [
        {
          "internalType": "address",
          "name": "token",
          "type": "address"
        }
      ],
      "name": "tokenLocks",
      "outputs": [
        {
          "internalType": "uint256",
          "name": "amount",
          "type": "uint256"
        },
        {
          "internalType": "uint256",
          "name": "startTime",
          "type": "uint256"
        },
        {
          "internalType": "uint256",
          "name": "duration",
          "type": "uint256"
        }
      ],
      "stateMutability": "view",
      "type": "function"
    },
    {
      "inputs": [
        {
          "internalType": "address",
          "name": "owner",
          "type": "address"
        },
        {
          "internalType": "uint256",
          "name": "index",
          "type": "uint256"
        }
      ],
      "name": "tokenOfOwnerByIndex",
      "outputs": [
        {
          "internalType": "uint256",
          "name": "",
          "type": "uint256"
        }
      ],
      "stateMutability": "view",
      "type": "function"
    },
    {
      "inputs": [
        {
          "internalType": "contract IAgentToken",
          "name": "token",
          "type": "address"
        }
      ],
      "name": "tokenToNftId",
      "outputs": [
        {
          "internalType": "uint256",
          "name": "",
          "type": "uint256"
        }
      ],
      "stateMutability": "view",
      "type": "function"
    },
    {
      "inputs": [
        {
          "internalType": "uint256",
          "name": "tokenId",
          "type": "uint256"
        }
      ],
      "name": "tokenURI",
      "outputs": [
        {
          "internalType": "string",
          "name": "",
          "type": "string"
        }
      ],
      "stateMutability": "view",
      "type": "function"
    },
    {
      "inputs": [
        {
          "internalType": "uint256",
          "name": "",
          "type": "uint256"
        }
      ],
      "name": "tokens",
      "outputs": [
        {
          "internalType": "contract IERC20",
          "name": "",
          "type": "address"
        }
      ],
      "stateMutability": "view",
      "type": "function"
    },
    {
      "inputs": [],
      "name": "totalSupply",
      "outputs": [
        {
          "internalType": "uint256",
          "name": "",
          "type": "uint256"
        }
      ],
      "stateMutability": "view",
      "type": "function"
    },
    {
      "inputs": [
        {
          "internalType": "address",
          "name": "from",
          "type": "address"
        },
        {
          "internalType": "address",
          "name": "to",
          "type": "address"
        },
        {
          "internalType": "uint256",
          "name": "tokenId",
          "type": "uint256"
        }
      ],
      "name": "transferFrom",
      "outputs": [],
      "stateMutability": "nonpayable",
      "type": "function"
    },
    {
      "inputs": [
        {
          "internalType": "address",
          "name": "newOwner",
          "type": "address"
        }
      ],
      "name": "transferOwnership",
      "outputs": [],
      "stateMutability": "nonpayable",
      "type": "function"
    },
    {
      "inputs": [
        {
          "internalType": "address",
          "name": "_address",
          "type": "address"
        },
        {
          "internalType": "bool",
          "name": "_what",
          "type": "bool"
        }
      ],
      "name": "whitelist",
      "outputs": [],
      "stateMutability": "nonpayable",
      "type": "function"
    },
    {
      "inputs": [
        {
          "internalType": "address",
          "name": "",
          "type": "address"
        }
      ],
      "name": "whitelisted",
      "outputs": [
        {
          "internalType": "bool",
          "name": "",
          "type": "bool"
        }
      ],
      "stateMutability": "view",
      "type": "function"
    }
  ],
  "transactionHash": "0x45b31ec01cd28b4edf278bced94b4bfcc43bda3abc8c007261152ba257115bb9",
  "args": [],
  "numDeployments": 1,
  "solcInputHash": "b2930c74edbf7594d1cff97768231b70",
  "bytecode": "0x6080604052348015600f57600080fd5b506147a48061001f6000396000f3fe608060405234801561001057600080fd5b50600436106103365760003560e01c80636755908d116101b2578063c87b56dd116100f9578063e5a19fc2116100a2578063f2fde38b1161007c578063f2fde38b146107f9578063f59c37081461080c578063f8c8765e1461081f578063ff6d8d051461083257600080fd5b8063e5a19fc214610776578063e985e9c514610796578063f08b82e6146107f157600080fd5b8063d936547e116100d3578063d936547e14610737578063dce0b4e41461075a578063de53fcd51461076357600080fd5b8063c87b56dd146106fe578063c964f78e14610711578063cf5303cf1461072457600080fd5b806386f3d02a1161015b578063a22cb46511610135578063a22cb465146106d0578063a96f8668146106e3578063b88d4fde146106eb57600080fd5b806386f3d02a146106855780638da5cb5b1461069857806395d89b41146106c857600080fd5b806370a082311161018c57806370a0823114610641578063715018a6146106545780637680da891461065c57600080fd5b80636755908d146105ba5780636cf5bb63146105da5780636db5c8fd1461063857600080fd5b806325d0b4ef116102815780634f64b2be1161022a5780635671576111610204578063567157611461054b57806356b63df7146105545780636352211e1461059e578063674d1a28146105b157600080fd5b80634f64b2be146105125780634f6ccce7146105255780635122ed871461053857600080fd5b80632f3a3d5d1161025b5780632f3a3d5d146104d95780632f745c59146104ec57806342842e0e146104ff57600080fd5b806325d0b4ef146104875780632cc3dc6e146104905780632e785971146104b957600080fd5b8063154ffe1a116102e357806318160ddd116102bd57806318160ddd1461040c5780631d651c6e1461043d57806323b872dd1461047457600080fd5b8063154ffe1a146103de57806315a0ea6a146103e657806316a42c0d146103f957600080fd5b8063095ea7b311610314578063095ea7b3146103a35780630c2b72e9146103b85780630c340a24146103cb57600080fd5b806301ffc9a71461033b57806306fdde0314610363578063081812fc14610378575b600080fd5b61034e610349366004613d07565b610845565b60405190151581526020015b60405180910390f35b61036b610889565b60405161035a9190613d74565b61038b610386366004613d87565b61093f565b6040516001600160a01b03909116815260200161035a565b6103b66103b1366004613dc5565b610987565b005b600c5461038b906001600160a01b031681565b60075461038b906001600160a01b031681565b6103b6610996565b6103b66103f4366004613df1565b610af1565b6103b6610407366004613e1c565b611056565b7f645e039705490088daad89bae25049a34f4a9072d398537b1ab2425f24cbed02545b60405190815260200161035a565b61034e61044b366004613df1565b6001600160a01b0316600090815260106020908152604080832054601190925290912054101590565b6103b6610482366004613e66565b611771565b61042f60065481565b61038b61049e366004613df1565b600f602052600090815260409020546001600160a01b031681565b61042f6104c7366004613df1565b60106020526000908152604090205481565b60005461038b906001600160a01b031681565b61042f6104fa366004613dc5565b611815565b6103b661050d366004613e66565b61189b565b61038b610520366004613d87565b6118bb565b61042f610533366004613d87565b6118e5565b61038b610546366004614020565b611981565b61042f60055481565b610583610562366004613df1565b600e6020526000908152604090208054600182015460029092015490919083565b6040805193845260208401929092529082015260600161035a565b61038b6105ac366004613d87565b611df8565b61042f600a5481565b61042f6105c8366004613df1565b60136020526000908152604090205481565b6106136105e8366004613df1565b600d602052600090815260409020805460018201546002909201546001600160a01b03909116919083565b604080516001600160a01b03909416845260208401929092529082015260600161035a565b61042f60045481565b61042f61064f366004613df1565b611e03565b6103b6611e8a565b61038b61066a366004613df1565b6012602052600090815260409020546001600160a01b031681565b600b5461038b906001600160a01b031681565b7f9016d09d72d40fdae2fd8ceac6b6234c7706214fd39c1cd1e609a0528c199300546001600160a01b031661038b565b61036b611e9e565b6103b66106de366004614163565b611eef565b6103b6611efa565b6103b66106f936600461419c565b61209b565b61036b61070c366004613d87565b6120b3565b6103b661071f36600461421c565b612127565b60085461038b906001600160a01b031681565b61034e610745366004613df1565b60026020526000908152604090205460ff1681565b61042f60035481565b60095461038b906001600160a01b031681565b61042f610784366004613df1565b60116020526000908152604090205481565b61034e6107a4366004614298565b6001600160a01b0391821660009081527f80bb2b638cc20bc4d0a60d66940f3ab4a00c1d7b313497ca82fb0b4ab00793056020908152604080832093909416825291909152205460ff1690565b60015461042f565b6103b6610807366004613df1565b6121f6565b6103b661081a366004614163565b61224d565b6103b661082d3660046142c6565b612280565b6103b6610840366004613df1565b612471565b60006001600160e01b031982167f780e9d63000000000000000000000000000000000000000000000000000000001480610883575061088382612853565b92915050565b7f80bb2b638cc20bc4d0a60d66940f3ab4a00c1d7b313497ca82fb0b4ab007930080546060919081906108bb90614317565b80601f01602080910402602001604051908101604052809291908181526020018280546108e790614317565b80156109345780601f1061090957610100808354040283529160200191610934565b820191906000526020600020905b81548152906001019060200180831161091757829003601f168201915b505050505091505090565b600061094a826128ee565b5060008281527f80bb2b638cc20bc4d0a60d66940f3ab4a00c1d7b313497ca82fb0b4ab007930460205260409020546001600160a01b0316610883565b610992828233612946565b5050565b336000908152600d6020526040812060018101549091036109fe5760405162461bcd60e51b815260206004820152600e60248201527f4e6f206c6f636b206c6f636b656400000000000000000000000000000000000060448201526064015b60405180910390fd5b8060020154421015610a525760405162461bcd60e51b815260206004820152601960248201527f4c6971756964697479206973207374696c6c206c6f636b65640000000000000060448201526064016109f5565b600181810154336000818152600d602052604080822080546001600160a01b0319168155948501829055600290940155600b5492516323b872dd60e01b815230600482015260248101919091526044810182905290916001600160a01b0316906323b872dd90606401600060405180830381600087803b158015610ad557600080fd5b505af1158015610ae9573d6000803e3d6000fd5b505050505050565b6001600160a01b03808216600090815260126020526040812054600c5490831692168214610b2157600a54610b2b565b670de0b6b3a76400005b6001600160a01b0384166000908152600d602052604081206001810154929350919003610b9a5760405162461bcd60e51b815260206004820152600e60248201527f4e6f206c6f636b206c6f636b656400000000000000000000000000000000000060448201526064016109f5565b6001600160a01b038416600090815260136020526040812054610bbc90611df8565b8254604080517fd294f09300000000000000000000000000000000000000000000000000000000815281519394506001600160a01b03909216926000928392859263d294f093926004808201939291829003018187875af1158015610c25573d6000803e3d6000fd5b505050506040513d601f19601f82011682018060405250810190610c499190614351565b90925090506000670de0b6b3a7640000610c63888561438b565b610c6d91906143a2565b90506000670de0b6b3a7640000610c84898561438b565b610c8e91906143a2565b9050846001600160a01b0316630dfe16816040518163ffffffff1660e01b8152600401602060405180830381865afa158015610cce573d6000803e3d6000fd5b505050506040513d601f19601f82011682018060405250810190610cf291906143c4565b6001600160a01b031663a9059cbb87610d0b85886143e1565b6040516001600160e01b031960e085901b1681526001600160a01b03909216600483015260248201526044016020604051808303816000875af1158015610d56573d6000803e3d6000fd5b505050506040513d601f19601f82011682018060405250810190610d7a91906143f4565b50846001600160a01b031663d21220a76040518163ffffffff1660e01b8152600401602060405180830381865afa158015610db9573d6000803e3d6000fd5b505050506040513d601f19601f82011682018060405250810190610ddd91906143c4565b6001600160a01b031663a9059cbb87610df684876143e1565b6040516001600160e01b031960e085901b1681526001600160a01b03909216600483015260248201526044016020604051808303816000875af1158015610e41573d6000803e3d6000fd5b505050506040513d601f19601f82011682018060405250810190610e6591906143f4565b50846001600160a01b0316630dfe16816040518163ffffffff1660e01b8152600401602060405180830381865afa158015610ea4573d6000803e3d6000fd5b505050506040513d601f19601f82011682018060405250810190610ec891906143c4565b6009546001600160a01b039182169163a9059cbb9116610ee885886143e1565b6040516001600160e01b031960e085901b1681526001600160a01b03909216600483015260248201526044016020604051808303816000875af1158015610f33573d6000803e3d6000fd5b505050506040513d601f19601f82011682018060405250810190610f5791906143f4565b50846001600160a01b031663d21220a76040518163ffffffff1660e01b8152600401602060405180830381865afa158015610f96573d6000803e3d6000fd5b505050506040513d601f19601f82011682018060405250810190610fba91906143c4565b6009546001600160a01b039182169163a9059cbb9116610fda84876143e1565b6040516001600160e01b031960e085901b1681526001600160a01b03909216600483015260248201526044016020604051808303816000875af1158015611025573d6000803e3d6000fd5b505050506040513d601f19601f8201168201806040525081019061104991906143f4565b5050505050505050505050565b836001600160a01b0316636a5e26506040518163ffffffff1660e01b8152600401602060405180830381865afa158015611094573d6000803e3d6000fd5b505050506040513d601f19601f820116820180604052508101906110b891906143f4565b156111055760405162461bcd60e51b815260206004820152600f60248201527f70726573616c65206973206f766572000000000000000000000000000000000060448201526064016109f5565b6001600160a01b03808516600090815260126020526040902054168115611433576000612710611137866126f261438b565b61114191906143a2565b9050600061114f82876143e1565b6009546040516323b872dd60e01b81523360048201526001600160a01b039182166024820152604481018390529192508416906323b872dd906064016020604051808303816000875af11580156111aa573d6000803e3d6000fd5b505050506040513d601f19601f820116820180604052508101906111ce91906143f4565b506001600160a01b038781166000908152600f6020908152604080832054601183528184205460109093528184205491517f0d6befe90000000000000000000000000000000000000000000000000000000081526004810188905260248101939093526044830191909152919283921690630d6befe9906064016040805180830381865afa158015611264573d6000803e3d6000fd5b505050506040513d601f19601f820116820180604052508101906112889190614351565b6001600160a01b038b166000908152601160205260408120805493955091935083926112b5908490614411565b90915550506040516323b872dd60e01b8152336004820152306024820152604481018290526001600160a01b038616906323b872dd906064016020604051808303816000875af115801561130d573d6000803e3d6000fd5b505050506040513d601f19601f8201168201806040525081019061133191906143f4565b5060405163a9059cbb60e01b8152336004820152602481018390526001600160a01b038a169063a9059cbb906044016020604051808303816000875af115801561137f573d6000803e3d6000fd5b505050506040513d601f19601f820116820180604052508101906113a391906143f4565b50868210156113e45760405162461bcd60e51b815260206004820152600d60248201526c085b5a5b905b5bdd5b9d13dd5d609a1b60448201526064016109f5565b604080518281526020810184905233916001600160a01b038c16917f6faf93231a456e552dbc9961f58d9713ee4f2e69d15f1975b050ef0911053a7b910160405180910390a350505050611737565b6001600160a01b038581166000908152600f6020908152604080832054601183528184205460109093528184205491517fa5e337c9000000000000000000000000000000000000000000000000000000008152600481018a90526024810193909352604483019190915291928392169063a5e337c9906064016040805180830381865afa1580156114c8573d6000803e3d6000fd5b505050506040513d601f19601f820116820180604052508101906114ec9190614351565b6001600160a01b0389166000908152601160205260408120805493955091935084926115199084906143e1565b9091555060009050612710611530846126f261438b565b61153a91906143a2565b9050600061154882856143e1565b60095460405163a9059cbb60e01b81526001600160a01b0391821660048201526024810183905291925086169063a9059cbb906044016020604051808303816000875af115801561159d573d6000803e3d6000fd5b505050506040513d601f19601f820116820180604052508101906115c191906143f4565b5060405163a9059cbb60e01b8152336004820152602481018390526001600160a01b0386169063a9059cbb906044016020604051808303816000875af115801561160f573d6000803e3d6000fd5b505050506040513d601f19601f8201168201806040525081019061163391906143f4565b506040516323b872dd60e01b8152336004820152306024820152604481018490526001600160a01b038a16906323b872dd906064016020604051808303816000875af1158015611687573d6000803e3d6000fd5b505050506040513d601f19601f820116820180604052508101906116ab91906143f4565b50868210156116ec5760405162461bcd60e51b815260206004820152600d60248201526c085b5a5b905b5bdd5b9d13dd5d609a1b60448201526064016109f5565b604080518581526020810185905233916001600160a01b038c16917f697c42d55a5e1fed3f464ec6f38b32546a0bd368dc8068b065c67566d73f3290910160405180910390a3505050505b6001600160a01b0385166000908152601060209081526040808320546011909252909120541061176a5761176a85612471565b5050505050565b6001600160a01b03821661179b57604051633250574960e11b8152600060048201526024016109f5565b60006117a8838333612953565b9050836001600160a01b0316816001600160a01b03161461180f576040517f64283d7b0000000000000000000000000000000000000000000000000000000081526001600160a01b03808616600483015260248201849052821660448201526064016109f5565b50505050565b60007f645e039705490088daad89bae25049a34f4a9072d398537b1ab2425f24cbed0061184184611e03565b83106118725760405163295f44f760e21b81526001600160a01b0385166004820152602481018490526044016109f5565b6001600160a01b0384166000908152602091825260408082208583529092522054905092915050565b6118b68383836040518060200160405280600081525061209b565b505050565b600181815481106118cb57600080fd5b6000918252602090912001546001600160a01b0316905081565b60007f645e039705490088daad89bae25049a34f4a9072d398537b1ab2425f24cbed006119307f645e039705490088daad89bae25049a34f4a9072d398537b1ab2425f24cbed025490565b83106119595760405163295f44f760e21b815260006004820152602481018490526044016109f5565b80600201838154811061196e5761196e614424565b9060005260206000200154915050919050565b60006005548260c0015110156119c55760405162461bcd60e51b815260206004820152600960248201526810b23ab930ba34b7b760b91b60448201526064016109f5565b6004548260c001511115611a075760405162461bcd60e51b815260206004820152600960248201526810b23ab930ba34b7b760b91b60448201526064016109f5565b6006548260e001511015611a5d5760405162461bcd60e51b815260206004820152600f60248201527f216d696e46756e64696e67476f616c000000000000000000000000000000000060448201526064016109f5565b81516001600160a01b031660009081526002602052604090205460ff16611ab65760405162461bcd60e51b815260206004820152600d60248201526c21626f6e64696e67437572766560981b60448201526064016109f5565b6101208201516001600160a01b031660009081526002602052604090205460ff16611b135760405162461bcd60e51b815260206004820152600d60248201526c21626f6e64696e67437572766560981b60448201526064016109f5565b60035415611ba1576101208201516003546040516323b872dd60e01b815233600482015261dead602482015260448101919091526001600160a01b03909116906323b872dd906064016020604051808303816000875af1158015611b7b573d6000803e3d6000fd5b505050506040513d601f19601f82011682018060405250810190611b9f91906143f4565b505b604080516101008082018352608080860151835260a08087015160208086019190915260608089015186880152908801519085015291860151908301526007546001600160a01b0390811691830191909152600854811660c08084019190915285015160e0830152600080549386015192939092611c23929190911690612a66565b6040517fd671cdc40000000000000000000000000000000000000000000000000000000081529091506001600160a01b0382169063d671cdc490611c6b90859060040161447f565b600060405180830381600087803b158015611c8557600080fd5b505af1158015611c99573d6000803e3d6000fd5b50505050336001600160a01b0316816001600160a01b03167fc98cc36b2100177b21410da31ba19117fa4675da442ed1cd0f8af5082ee6c7c986608001518760a001518861010001518960e001518a60c001518b606001518c600001518d60400151604051611d0f989796959493929190614548565b60405180910390a360018054808201825560008281527fb10e2d527612073b26eecdfd717e6a320cf44b4afac2b0732d9fcbe2b7fa0cf690910180546001600160a01b038086166001600160a01b031992831681179093556101208901519284526012602090815260408086208054959093169490931693909317905560e08801516010909252909120558054611da691906143e1565b6001600160a01b0382811660009081526013602081815260408084209586558951600f8352932080546001600160a01b03191693909416929092179092555254611df1903390612a74565b9392505050565b6000610883826128ee565b60007f80bb2b638cc20bc4d0a60d66940f3ab4a00c1d7b313497ca82fb0b4ab00793006001600160a01b038316611e69576040517f89c62b64000000000000000000000000000000000000000000000000000000008152600060048201526024016109f5565b6001600160a01b039092166000908152600390920160205250604090205490565b611e92612af2565b611e9c6000612b66565b565b7f80bb2b638cc20bc4d0a60d66940f3ab4a00c1d7b313497ca82fb0b4ab007930180546060917f80bb2b638cc20bc4d0a60d66940f3ab4a00c1d7b313497ca82fb0b4ab0079300916108bb90614317565b610992338383612bd7565b336000908152600e602052604090208054611f575760405162461bcd60e51b815260206004820152601060248201527f4e6f20746f6b656e73206c6f636b65640000000000000000000000000000000060448201526064016109f5565b6000816001015442611f6991906143e1565b905060008260020154828460000154611f82919061438b565b611f8c91906143a2565b905082600201548210611f9d575081545b60008111611fed5760405162461bcd60e51b815260206004820152601460248201527f4e6f20746f6b656e7320746f2072656c6561736500000000000000000000000060448201526064016109f5565b8083600001600082825461200191906143e1565b909155505060405163a9059cbb60e01b81523360048201819052602482018390529063a9059cbb906044016020604051808303816000875af115801561204b573d6000803e3d6000fd5b505050506040513d601f19601f8201168201806040525081019061206f91906143f4565b5082546000036118b657336000908152600e602052604081208181556001810182905560020155505050565b6120a6848484611771565b61180f3385858585612cb3565b60606120be826128ee565b5060006120d660408051602081019091526000815290565b905060008151116120f65760405180602001604052806000815250611df1565b8061210084612dd5565b6040516020016121119291906145b6565b6040516020818303038152906040529392505050565b61212f612af2565b6003889055600487905560058690556006859055600780546001600160a01b038681166001600160a01b0319928316811790935560088054878316908416811790915560098054928716929093168217909255600a849055604080518c8152602081018c90529081018a905260608101899052608081019390935260a083019190915260c082015260e081018290527f2334deb013c256ccbf1d418b86ec385dd6f676f3592071beaeed8731f4bd6e6e906101000160405180910390a15050505050505050565b6121fe612af2565b6001600160a01b038116612241576040517f1e4fbdf7000000000000000000000000000000000000000000000000000000008152600060048201526024016109f5565b61224a81612b66565b50565b612255612af2565b6001600160a01b03919091166000908152600260205260409020805460ff1916911515919091179055565b7ff0c57e16840df040f15088dc2f81fe391c3923bec73e23a9662efc9c229c6a00805468010000000000000000810460ff16159067ffffffffffffffff166000811580156122cb5750825b905060008267ffffffffffffffff1660011480156122e85750303b155b9050811580156122f6575080155b1561232d576040517ff92ee8a900000000000000000000000000000000000000000000000000000000815260040160405180910390fd5b845467ffffffffffffffff19166001178555831561236157845468ff00000000000000001916680100000000000000001785555b600c80546001600160a01b03808c166001600160a01b031992831617909255600b80548b841690831617905560008054928a16929091169190911790556123a786612e75565b61241b6040518060400160405280601281526020017f4149204167656e74204c61756e636870616400000000000000000000000000008152506040518060400160405280600681526020017f4147454e54530000000000000000000000000000000000000000000000000000815250612e86565b831561246657845468ff000000000000000019168555604051600181527fc7f505b2f371ae2175ee4913f4499e1f2633a7b5936321eed1cdaeb6115181d29060200160405180910390a15b505050505050505050565b6001600160a01b038181166000908152601260205260408082205490516370a0823160e01b815230600482015292169182906370a0823190602401602060405180830381865afa1580156124c9573d6000803e3d6000fd5b505050506040513d601f19601f820116820180604052508101906124ed91906145e5565b9050826001600160a01b0316636a5e26506040518163ffffffff1660e01b8152600401602060405180830381865afa15801561252d573d6000803e3d6000fd5b505050506040513d601f19601f8201168201806040525081019061255191906143f4565b1561259e5760405162461bcd60e51b815260206004820152600f60248201527f70726573616c65206973206f766572000000000000000000000000000000000060448201526064016109f5565b6001600160a01b03831660009081526010602090815260408083205460119092529091205410156126115760405162461bcd60e51b815260206004820152600c60248201527f2166756e64696e67476f616c000000000000000000000000000000000000000060448201526064016109f5565b826001600160a01b031663a69df4b56040518163ffffffff1660e01b8152600401600060405180830381600087803b15801561264c57600080fd5b505af1158015612660573d6000803e3d6000fd5b505050506126f283836014866001600160a01b03166318160ddd6040518163ffffffff1660e01b8152600401602060405180830381865afa1580156126a9573d6000803e3d6000fd5b505050506040513d601f19601f820116820180604052508101906126cd91906145e5565b6126d890600361438b565b6126e291906143a2565b6126ed6005866143a2565b612e98565b6001600160a01b03821663a9059cbb84600561270f85600461438b565b61271991906143a2565b6040516001600160e01b031960e085901b1681526001600160a01b03909216600483015260248201526044016020604051808303816000875af1158015612764573d6000803e3d6000fd5b505050506040513d601f19601f8201168201806040525081019061278891906143f4565b5061280b836005856001600160a01b03166318160ddd6040518163ffffffff1660e01b8152600401602060405180830381865afa1580156127cd573d6000803e3d6000fd5b505050506040513d601f19601f820116820180604052508101906127f191906145e5565b6127fc90600361438b565b61280691906143a2565b613150565b826001600160a01b03167f3774b363547126f466f72012377433ce54030696ae07ad35617ad9317eaf776b8260405161284691815260200190565b60405180910390a2505050565b60006001600160e01b031982167f80ac58cd0000000000000000000000000000000000000000000000000000000014806128b657506001600160e01b031982167f5b5e139f00000000000000000000000000000000000000000000000000000000145b8061088357507f01ffc9a7000000000000000000000000000000000000000000000000000000006001600160e01b0319831614610883565b60008181527f80bb2b638cc20bc4d0a60d66940f3ab4a00c1d7b313497ca82fb0b4ab007930260205260408120546001600160a01b03168061088357604051637e27328960e01b8152600481018490526024016109f5565b6118b683838360016132fd565b60008061296185858561347c565b90506001600160a01b0381166129fc576129f7847f645e039705490088daad89bae25049a34f4a9072d398537b1ab2425f24cbed02805460008381527f645e039705490088daad89bae25049a34f4a9072d398537b1ab2425f24cbed0360205260408120829055600182018355919091527fa42f15e5d656f8155fd7419d740a6073999f19cd6e061449ce4a257150545bf20155565b612a1f565b846001600160a01b0316816001600160a01b031614612a1f57612a1f81856135bd565b6001600160a01b038516612a3b57612a368461366b565b612a5e565b846001600160a01b0316816001600160a01b031614612a5e57612a5e8585613766565b949350505050565b6000611df1838360006137d3565b6001600160a01b038216612a9e57604051633250574960e11b8152600060048201526024016109f5565b6000612aac83836000612953565b90506001600160a01b038116156118b6576040517f73c6ac6e000000000000000000000000000000000000000000000000000000008152600060048201526024016109f5565b33612b247f9016d09d72d40fdae2fd8ceac6b6234c7706214fd39c1cd1e609a0528c199300546001600160a01b031690565b6001600160a01b031614611e9c576040517f118cdaa70000000000000000000000000000000000000000000000000000000081523360048201526024016109f5565b7f9016d09d72d40fdae2fd8ceac6b6234c7706214fd39c1cd1e609a0528c19930080546001600160a01b031981166001600160a01b03848116918217845560405192169182907f8be0079c531659141344cd1fd0a4f28419497f9722a3daafe3b4186f6b6457e090600090a3505050565b7f80bb2b638cc20bc4d0a60d66940f3ab4a00c1d7b313497ca82fb0b4ab00793006001600160a01b038316612c43576040517f5b08ba180000000000000000000000000000000000000000000000000000000081526001600160a01b03841660048201526024016109f5565b6001600160a01b038481166000818152600584016020908152604080832094881680845294825291829020805460ff191687151590811790915591519182527f17307eab39ab6107e8899845ad3d59bd9653f200f220920489ca2b5937696c31910160405180910390a350505050565b6001600160a01b0383163b1561176a57604051630a85bd0160e11b81526001600160a01b0384169063150b7a0290612cf59088908890879087906004016145fe565b6020604051808303816000875af1925050508015612d30575060408051601f3d908101601f19168201909252612d2d91810190614635565b60015b612d99573d808015612d5e576040519150601f19603f3d011682016040523d82523d6000602084013e612d63565b606091505b508051600003612d9157604051633250574960e11b81526001600160a01b03851660048201526024016109f5565b805181602001fd5b6001600160e01b03198116630a85bd0160e11b14610ae957604051633250574960e11b81526001600160a01b03851660048201526024016109f5565b60606000612de28361389c565b600101905060008167ffffffffffffffff811115612e0257612e02613ea7565b6040519080825280601f01601f191660200182016040528015612e2c576020820181803683370190505b5090508181016020015b600019017f3031323334353637383961626364656600000000000000000000000000000000600a86061a8153600a8504945084612e3657509392505050565b612e7d61397e565b61224a816139e5565b612e8e61397e565b61099282826139ed565b600b546040517f79bc57d50000000000000000000000000000000000000000000000000000000081526001600160a01b03868116600483015285811660248301526000604483018190529216906379bc57d590606401602060405180830381865afa158015612f0b573d6000803e3d6000fd5b505050506040513d601f19601f82011682018060405250810190612f2f91906143c4565b90506001600160a01b038116612fda57600b546040517f36bf95a00000000000000000000000000000000000000000000000000000000081526001600160a01b038781166004830152868116602483015260006044830152909116906336bf95a0906064016020604051808303816000875af1158015612fb3573d6000803e3d6000fd5b505050506040513d601f19601f82011682018060405250810190612fd791906143c4565b90505b60405163a9059cbb60e01b81526001600160a01b0382811660048301526024820185905286169063a9059cbb906044016020604051808303816000875af1158015613029573d6000803e3d6000fd5b505050506040513d601f19601f8201168201806040525081019061304d91906143f4565b5060405163a9059cbb60e01b81526001600160a01b0382811660048301526024820184905285169063a9059cbb906044016020604051808303816000875af115801561309d573d6000803e3d6000fd5b505050506040513d601f19601f820116820180604052508101906130c191906143f4565b506040517f6a6278420000000000000000000000000000000000000000000000000000000081523060048201526001600160a01b03821690636a627842906024016020604051808303816000875af1158015613121573d6000803e3d6000fd5b505050506040513d601f19601f8201168201806040525081019061314591906145e5565b5061176a8582613a30565b600042836001600160a01b031663e184c9be6040518163ffffffff1660e01b8152600401602060405180830381865afa158015613191573d6000803e3d6000fd5b505050506040513d601f19601f820116820180604052508101906131b591906145e5565b6131bf91906143e1565b9050600082116132115760405162461bcd60e51b815260206004820152601d60248201527f416d6f756e74206d7573742062652067726561746572207468616e203000000060448201526064016109f5565b600081116132615760405162461bcd60e51b815260206004820152601f60248201527f4475726174696f6e206d7573742062652067726561746572207468616e20300060448201526064016109f5565b6001600160a01b0383166000908152600e6020526040902054156132b55760405162461bcd60e51b815260206004820152600b60248201526a6c6f636b2065786973747360a81b60448201526064016109f5565b604080516060810182529283524260208085019182528483019384526001600160a01b039095166000908152600e909552932091518255915160018201559051600290910155565b7f80bb2b638cc20bc4d0a60d66940f3ab4a00c1d7b313497ca82fb0b4ab0079300818061333257506001600160a01b03831615155b1561344b576000613342856128ee565b90506001600160a01b0384161580159061336e5750836001600160a01b0316816001600160a01b031614155b80156133bf57506001600160a01b0380821660009081527f80bb2b638cc20bc4d0a60d66940f3ab4a00c1d7b313497ca82fb0b4ab0079305602090815260408083209388168352929052205460ff16155b15613401576040517fa9fbf51f0000000000000000000000000000000000000000000000000000000081526001600160a01b03851660048201526024016109f5565b82156134495784866001600160a01b0316826001600160a01b03167f8c5be1e5ebec7d5bd14f71427d1e84f3dd0314c0f7b2291e5b200ac8c7c3b92560405160405180910390a45b505b600093845260040160205250506040902080546001600160a01b0319166001600160a01b0392909216919091179055565b60008281527f80bb2b638cc20bc4d0a60d66940f3ab4a00c1d7b313497ca82fb0b4ab007930260205260408120547f80bb2b638cc20bc4d0a60d66940f3ab4a00c1d7b313497ca82fb0b4ab0079300906001600160a01b03908116908416156134ea576134ea818587613bb3565b6001600160a01b0381161561352a576135076000866000806132fd565b6001600160a01b0381166000908152600383016020526040902080546000190190555b6001600160a01b0386161561355b576001600160a01b03861660009081526003830160205260409020805460010190555b600085815260028301602052604080822080546001600160a01b0319166001600160a01b038a811691821790925591518893918516917fddf252ad1be2c89b69c2b068fc378daa952ba7f163c4a11628f55a4df523b3ef91a495945050505050565b7f645e039705490088daad89bae25049a34f4a9072d398537b1ab2425f24cbed0060006135e984611e03565b60008481526001840160209081526040808320546001600160a01b03891684529186905290912091925090818314613643576000838152602082815260408083205485845281842081905583526001870190915290208290555b6000948552600190930160209081526040808620869055928552929092528220919091555050565b7f645e039705490088daad89bae25049a34f4a9072d398537b1ab2425f24cbed02547f645e039705490088daad89bae25049a34f4a9072d398537b1ab2425f24cbed00906000906136be906001906143e1565b60008481526003840160205260408120546002850180549394509092849081106136ea576136ea614424565b906000526020600020015490508084600201838154811061370d5761370d614424565b60009182526020808320909101929092558281526003860190915260408082208490558682528120556002840180548061374957613749614652565b600190038181906000526020600020016000905590555050505050565b7f645e039705490088daad89bae25049a34f4a9072d398537b1ab2425f24cbed006000600161379485611e03565b61379e91906143e1565b6001600160a01b0390941660009081526020838152604080832087845282528083208690559482526001909301909252502055565b600081471015613818576040517fcf479181000000000000000000000000000000000000000000000000000000008152476004820152602481018390526044016109f5565b763d602d80600a3d3981f3363d3d373d3d3d363d730000008460601b60e81c176000526e5af43d82803e903d91602b57fd5bf38460781b17602052826037600984f590506001600160a01b038116611df1576040517fb06ebf3d00000000000000000000000000000000000000000000000000000000815260040160405180910390fd5b6000807a184f03e93ff9f4daa797ed6e38ed64bf6a1f01000000000000000083106138e5577a184f03e93ff9f4daa797ed6e38ed64bf6a1f010000000000000000830492506040015b6d04ee2d6d415b85acef81000000008310613911576d04ee2d6d415b85acef8100000000830492506020015b662386f26fc10000831061392f57662386f26fc10000830492506010015b6305f5e1008310613947576305f5e100830492506008015b612710831061395b57612710830492506004015b6064831061396d576064830492506002015b600a83106108835760010192915050565b7ff0c57e16840df040f15088dc2f81fe391c3923bec73e23a9662efc9c229c6a005468010000000000000000900460ff16611e9c576040517fd7e6bcf800000000000000000000000000000000000000000000000000000000815260040160405180910390fd5b6121fe61397e565b6139f561397e565b7f80bb2b638cc20bc4d0a60d66940f3ab4a00c1d7b313497ca82fb0b4ab007930080613a2184826146af565b506001810161180f83826146af565b6001600160a01b0382166000908152600d602052604090206001015415613a875760405162461bcd60e51b815260206004820152600b60248201526a6c6f636b2065786973747360a81b60448201526064016109f5565b604080516060810182526001600160a01b03831680825291516370a0823160e01b8152306004820152909160208301916370a0823190602401602060405180830381865afa158015613add573d6000803e3d6000fd5b505050506040513d601f19601f82011682018060405250810190613b0191906145e5565b8152602001836001600160a01b031663e184c9be6040518163ffffffff1660e01b8152600401602060405180830381865afa158015613b44573d6000803e3d6000fd5b505050506040513d601f19601f82011682018060405250810190613b6891906145e5565b90526001600160a01b039283166000908152600d6020908152604091829020835181546001600160a01b03191696169590951785558201516001850155015160029092019190915550565b613bbe838383613c30565b6118b6576001600160a01b038316613bec57604051637e27328960e01b8152600481018290526024016109f5565b6040517f177e802f0000000000000000000000000000000000000000000000000000000081526001600160a01b0383166004820152602481018290526044016109f5565b60006001600160a01b03831615801590612a5e5750826001600160a01b0316846001600160a01b03161480613ca957506001600160a01b0380851660009081527f80bb2b638cc20bc4d0a60d66940f3ab4a00c1d7b313497ca82fb0b4ab0079305602090815260408083209387168352929052205460ff165b80612a5e57505060009081527f80bb2b638cc20bc4d0a60d66940f3ab4a00c1d7b313497ca82fb0b4ab007930460205260409020546001600160a01b03908116911614919050565b6001600160e01b03198116811461224a57600080fd5b600060208284031215613d1957600080fd5b8135611df181613cf1565b60005b83811015613d3f578181015183820152602001613d27565b50506000910152565b60008151808452613d60816020860160208601613d24565b601f01601f19169290920160200192915050565b602081526000611df16020830184613d48565b600060208284031215613d9957600080fd5b5035919050565b6001600160a01b038116811461224a57600080fd5b8035613dc081613da0565b919050565b60008060408385031215613dd857600080fd5b8235613de381613da0565b946020939093013593505050565b600060208284031215613e0357600080fd5b8135611df181613da0565b801515811461224a57600080fd5b60008060008060808587031215613e3257600080fd5b8435613e3d81613da0565b935060208501359250604085013591506060850135613e5b81613e0e565b939692955090935050565b600080600060608486031215613e7b57600080fd5b8335613e8681613da0565b92506020840135613e9681613da0565b929592945050506040919091013590565b634e487b7160e01b600052604160045260246000fd5b604051610140810167ffffffffffffffff81118282101715613ee157613ee1613ea7565b60405290565b604051601f8201601f1916810167ffffffffffffffff81118282101715613f1057613f10613ea7565b604052919050565b600082601f830112613f2957600080fd5b813567ffffffffffffffff811115613f4357613f43613ea7565b8060051b613f5360208201613ee7565b91825260208185018101929081019086841115613f6f57600080fd5b6020860192505b83831015613f9a578235613f8981613da0565b825260209283019290910190613f76565b9695505050505050565b60008067ffffffffffffffff841115613fbf57613fbf613ea7565b50601f8301601f1916602001613fd481613ee7565b915050828152838383011115613fe957600080fd5b828260208301376000602084830101529392505050565b600082601f83011261401157600080fd5b611df183833560208501613fa4565b60006020828403121561403257600080fd5b813567ffffffffffffffff81111561404957600080fd5b8201610140818503121561405c57600080fd5b614064613ebd565b61406d82613db5565b8152602082013567ffffffffffffffff81111561408957600080fd5b61409586828501613f18565b60208301525060408281013590820152606082013567ffffffffffffffff8111156140bf57600080fd5b6140cb86828501614000565b606083015250608082013567ffffffffffffffff8111156140eb57600080fd5b6140f786828501614000565b60808301525060a082013567ffffffffffffffff81111561411757600080fd5b61412386828501614000565b60a08301525060c0828101359082015260e0808301359082015261010080830135908201526141556101208301613db5565b610120820152949350505050565b6000806040838503121561417657600080fd5b823561418181613da0565b9150602083013561419181613e0e565b809150509250929050565b600080600080608085870312156141b257600080fd5b84356141bd81613da0565b935060208501356141cd81613da0565b925060408501359150606085013567ffffffffffffffff8111156141f057600080fd5b8501601f8101871361420157600080fd5b61421087823560208401613fa4565b91505092959194509250565b600080600080600080600080610100898b03121561423957600080fd5b88359750602089013596506040890135955060608901359450608089013561426081613da0565b935060a089013561427081613da0565b925060c089013561428081613da0565b979a969950949793969295919450919260e001359150565b600080604083850312156142ab57600080fd5b82356142b681613da0565b9150602083013561419181613da0565b600080600080608085870312156142dc57600080fd5b84356142e781613da0565b935060208501356142f781613da0565b9250604085013561430781613da0565b91506060850135613e5b81613da0565b600181811c9082168061432b57607f821691505b60208210810361434b57634e487b7160e01b600052602260045260246000fd5b50919050565b6000806040838503121561436457600080fd5b505080516020909101519092909150565b634e487b7160e01b600052601160045260246000fd5b808202811582820484141761088357610883614375565b6000826143bf57634e487b7160e01b600052601260045260246000fd5b500490565b6000602082840312156143d657600080fd5b8151611df181613da0565b8181038181111561088357610883614375565b60006020828403121561440657600080fd5b8151611df181613e0e565b8082018082111561088357610883614375565b634e487b7160e01b600052603260045260246000fd5b600081518084526020840193506020830160005b828110156144755781516001600160a01b031686526020958601959091019060010161444e565b5093949350505050565b6020815260008251610100602084015261449d610120840182613d48565b90506020840151601f198483030160408501526144ba8282613d48565b9150506040840151601f198483030160608501526144d88282613d48565b9150506060840151601f198483030160808501526144f6828261443a565b915050608084015160a084015260a084015161451d60c08501826001600160a01b03169052565b5060c08401516001600160a01b03811660e08501525060e08401516101008401528091505092915050565b6101008152600061455d61010083018b613d48565b828103602084015261456f818b613d48565b905088604084015287606084015286608084015282810360a08401526145958187613d48565b6001600160a01b039590951660c0840152505060e001529695505050505050565b600083516145c8818460208801613d24565b8351908301906145dc818360208801613d24565b01949350505050565b6000602082840312156145f757600080fd5b5051919050565b6001600160a01b03851681526001600160a01b0384166020820152826040820152608060608201526000613f9a6080830184613d48565b60006020828403121561464757600080fd5b8151611df181613cf1565b634e487b7160e01b600052603160045260246000fd5b601f8211156118b657806000526020600020601f840160051c8101602085101561468f5750805b601f840160051c820191505b8181101561176a576000815560010161469b565b815167ffffffffffffffff8111156146c9576146c9613ea7565b6146dd816146d78454614317565b84614668565b6020601f82116001811461471157600083156146f95750848201515b600019600385901b1c1916600184901b17845561176a565b600084815260208120601f198516915b828110156147415787850151825560209485019460019092019101614721565b508482101561475f5786840151600019600387901b60f8161c191681555b50505050600190811b0190555056fea26469706673582212201df183dbae46d397d083943d5e3016330038678711c47ccc5297f5b4e7053b0264736f6c634300081c0033",
  "devdoc": {
    "errors": {
      "ERC721EnumerableForbiddenBatchMint()": [
        {
          "details": "Batch mint is not allowed."
        }
      ],
      "ERC721IncorrectOwner(address,uint256,address)": [
        {
          "details": "Indicates an error related to the ownership over a particular token. Used in transfers.",
          "params": {
            "owner": "Address of the current owner of a token.",
            "sender": "Address whose tokens are being transferred.",
            "tokenId": "Identifier number of a token."
          }
        }
      ],
      "ERC721InsufficientApproval(address,uint256)": [
        {
          "details": "Indicates a failure with the `operator`s approval. Used in transfers.",
          "params": {
            "operator": "Address that may be allowed to operate on tokens without being their owner.",
            "tokenId": "Identifier number of a token."
          }
        }
      ],
      "ERC721InvalidApprover(address)": [
        {
          "details": "Indicates a failure with the `approver` of a token to be approved. Used in approvals.",
          "params": {
            "approver": "Address initiating an approval operation."
          }
        }
      ],
      "ERC721InvalidOperator(address)": [
        {
          "details": "Indicates a failure with the `operator` to be approved. Used in approvals.",
          "params": {
            "operator": "Address that may be allowed to operate on tokens without being their owner."
          }
        }
      ],
      "ERC721InvalidOwner(address)": [
        {
          "details": "Indicates that an address can't be an owner. For example, `address(0)` is a forbidden owner in ERC-20. Used in balance queries.",
          "params": {
            "owner": "Address of the current owner of a token."
          }
        }
      ],
      "ERC721InvalidReceiver(address)": [
        {
          "details": "Indicates a failure with the token `receiver`. Used in transfers.",
          "params": {
            "receiver": "Address to which tokens are being transferred."
          }
        }
      ],
      "ERC721InvalidSender(address)": [
        {
          "details": "Indicates a failure with the token `sender`. Used in transfers.",
          "params": {
            "sender": "Address whose tokens are being transferred."
          }
        }
      ],
      "ERC721NonexistentToken(uint256)": [
        {
          "details": "Indicates a `tokenId` whose `owner` is the zero address.",
          "params": {
            "tokenId": "Identifier number of a token."
          }
        }
      ],
      "ERC721OutOfBoundsIndex(address,uint256)": [
        {
          "details": "An `owner`'s token query was out of bounds for `index`. NOTE: The owner being `address(0)` indicates a global out of bounds index."
        }
      ],
      "FailedDeployment()": [
        {
          "details": "The deployment failed."
        }
      ],
      "InsufficientBalance(uint256,uint256)": [
        {
          "details": "The ETH balance of the account is not enough to perform the operation."
        }
      ],
      "InvalidInitialization()": [
        {
          "details": "The contract is already initialized."
        }
      ],
      "NotInitializing()": [
        {
          "details": "The contract is not initializing."
        }
      ],
      "OwnableInvalidOwner(address)": [
        {
          "details": "The owner is not a valid owner account. (eg. `address(0)`)"
        }
      ],
      "OwnableUnauthorizedAccount(address)": [
        {
          "details": "The caller account is not authorized to perform an operation."
        }
      ]
    },
    "events": {
      "Approval(address,address,uint256)": {
        "details": "Emitted when `owner` enables `approved` to manage the `tokenId` token."
      },
      "ApprovalForAll(address,address,bool)": {
        "details": "Emitted when `owner` enables or disables (`approved`) `operator` to manage all of its assets."
      },
      "Initialized(uint64)": {
        "details": "Triggered when the contract has been initialized or reinitialized."
      },
      "Transfer(address,address,uint256)": {
        "details": "Emitted when `tokenId` token is transferred from `from` to `to`."
      }
    },
    "kind": "dev",
    "methods": {
      "approve(address,uint256)": {
        "details": "See {IERC721-approve}."
      },
      "balanceOf(address)": {
        "details": "See {IERC721-balanceOf}."
      },
      "checkFundingGoalMet(address)": {
        "params": {
          "token": "The token to check the funding goal for"
        },
        "returns": {
          "_0": "True if the funding goal is met, false otherwise"
        }
      },
      "claimFees(address)": {
        "params": {
          "token": "The token to claim the fees for"
        }
      },
      "create((address,address[],bytes32,string,string,string,uint256,uint256,uint256,address))": {
        "params": {
          "p": "The parameters for creation"
        }
      },
      "getApproved(uint256)": {
        "details": "See {IERC721-getApproved}."
      },
      "getTotalTokens()": {
        "returns": {
          "_0": "The total number of tokens"
        }
      },
      "graduate(address)": {
        "params": {
          "token": "The token to graduate"
        }
      },
      "isApprovedForAll(address,address)": {
        "details": "See {IERC721-isApprovedForAll}."
      },
      "name()": {
        "details": "See {IERC721Metadata-name}."
      },
      "owner()": {
        "details": "Returns the address of the current owner."
      },
      "ownerOf(uint256)": {
        "details": "See {IERC721-ownerOf}."
      },
      "renounceOwnership()": {
        "details": "Leaves the contract without owner. It will not be possible to call `onlyOwner` functions. Can only be called by the current owner. NOTE: Renouncing ownership will leave the contract without an owner, thereby disabling any functionality that is only available to the owner."
      },
      "safeTransferFrom(address,address,uint256)": {
        "details": "See {IERC721-safeTransferFrom}."
      },
      "safeTransferFrom(address,address,uint256,bytes)": {
        "details": "See {IERC721-safeTransferFrom}."
      },
      "setApprovalForAll(address,bool)": {
        "details": "See {IERC721-setApprovalForAll}."
      },
      "setSettings(uint256,uint256,uint256,uint256,address,address,address,uint256)": {
        "params": {
          "_checker": "The address of the checker",
          "_creationFee": "The creation fee",
          "_feeCutE18": "The fee cut in E18 format",
          "_feeDestination": "The address of the fee destination",
          "_governor": "The address of the governor",
          "_maxDuration": "The maximum duration",
          "_minDuration": "The minimum duration",
          "_minFundingGoal": "The minimum funding goal"
        }
      },
      "supportsInterface(bytes4)": {
        "details": "See {IERC165-supportsInterface}."
      },
      "symbol()": {
        "details": "See {IERC721Metadata-symbol}."
      },
      "tokenByIndex(uint256)": {
        "details": "See {IERC721Enumerable-tokenByIndex}."
      },
      "tokenOfOwnerByIndex(address,uint256)": {
        "details": "See {IERC721Enumerable-tokenOfOwnerByIndex}."
      },
      "tokenURI(uint256)": {
        "details": "See {IERC721Metadata-tokenURI}."
      },
      "totalSupply()": {
        "details": "See {IERC721Enumerable-totalSupply}."
      },
      "transferFrom(address,address,uint256)": {
        "details": "See {IERC721-transferFrom}."
      },
      "transferOwnership(address)": {
        "details": "Transfers ownership of the contract to a new account (`newOwner`). Can only be called by the current owner."
      },
      "whitelist(address,bool)": {
        "params": {
          "_address": "The address to whitelist or remove from the whitelist",
          "_what": "True to whitelist, false to remove from the whitelist"
        }
      }
    },
    "version": 1
  },
  "userdoc": {
    "kind": "user",
    "methods": {
      "aeroFactory()": {
        "notice": "Returns the AeroPoolFactory instance"
      },
      "checkFundingGoalMet(address)": {
        "notice": "Checks if the funding goal is met for a given token"
      },
      "checker()": {
        "notice": "Returns the address of the checker"
      },
      "claimFees(address)": {
        "notice": "Claims the fees for a given token"
      },
      "coreToken()": {
        "notice": "Returns the core token"
      },
      "create((address,address[],bytes32,string,string,string,uint256,uint256,uint256,address))": {
        "notice": "Creates a new entity with the given parameters"
      },
      "creationFee()": {
        "notice": "Returns the creation fee"
      },
      "curves(address)": {
        "notice": "Returns the bonding curve for a given token"
      },
      "feeCutE18()": {
        "notice": "Returns the fee cut in E18 format"
      },
      "feeDestination()": {
        "notice": "Returns the address of the fee destination"
      },
      "fundingGoals(address)": {
        "notice": "Returns the funding goal for a given token"
      },
      "fundingProgress(address)": {
        "notice": "Returns the funding progress for a given token"
      },
      "getTotalTokens()": {
        "notice": "Returns the total number of tokens"
      },
      "governor()": {
        "notice": "Returns the address of the governor"
      },
      "graduate(address)": {
        "notice": "Graduates a given token"
      },
      "maxDuration()": {
        "notice": "Returns the maximum duration"
      },
      "minDuration()": {
        "notice": "Returns the minimum duration"
      },
      "minFundingGoal()": {
        "notice": "Returns the minimum funding goal"
      },
      "releaseLiquidityLock()": {
        "notice": "Releases the liquidity lock"
      },
      "releaseTokens()": {
        "notice": "Releases the tokens"
      },
      "setSettings(uint256,uint256,uint256,uint256,address,address,address,uint256)": {
        "notice": "Sets the settings for the contract"
      },
      "tokens(uint256)": {
        "notice": "Returns the token at the specified index"
      },
      "whitelist(address,bool)": {
        "notice": "Whitelists or removes an address from the whitelist"
      },
      "whitelisted(address)": {
        "notice": "Checks if an account is whitelisted"
      }
    },
    "version": 1
  },
  "storageLayout": {
    "storage": [
      {
        "astId": 9238,
        "contract": "contracts/launchpad/AgentLaunchpad.sol:AgentLaunchpad",
        "label": "tokenImplementation",
        "offset": 0,
        "slot": "0",
        "type": "t_address"
      },
      {
        "astId": 9242,
        "contract": "contracts/launchpad/AgentLaunchpad.sol:AgentLaunchpad",
        "label": "tokens",
        "offset": 0,
        "slot": "1",
        "type": "t_array(t_contract(IERC20)2712)dyn_storage"
      },
      {
        "astId": 9246,
        "contract": "contracts/launchpad/AgentLaunchpad.sol:AgentLaunchpad",
        "label": "whitelisted",
        "offset": 0,
        "slot": "2",
        "type": "t_mapping(t_address,t_bool)"
      },
      {
        "astId": 9248,
        "contract": "contracts/launchpad/AgentLaunchpad.sol:AgentLaunchpad",
        "label": "creationFee",
        "offset": 0,
        "slot": "3",
        "type": "t_uint256"
      },
      {
        "astId": 9250,
        "contract": "contracts/launchpad/AgentLaunchpad.sol:AgentLaunchpad",
        "label": "maxDuration",
        "offset": 0,
        "slot": "4",
        "type": "t_uint256"
      },
      {
        "astId": 9252,
        "contract": "contracts/launchpad/AgentLaunchpad.sol:AgentLaunchpad",
        "label": "minDuration",
        "offset": 0,
        "slot": "5",
        "type": "t_uint256"
      },
      {
        "astId": 9254,
        "contract": "contracts/launchpad/AgentLaunchpad.sol:AgentLaunchpad",
        "label": "minFundingGoal",
        "offset": 0,
        "slot": "6",
        "type": "t_uint256"
      },
      {
        "astId": 9256,
        "contract": "contracts/launchpad/AgentLaunchpad.sol:AgentLaunchpad",
        "label": "governor",
        "offset": 0,
        "slot": "7",
        "type": "t_address"
      },
      {
        "astId": 9258,
        "contract": "contracts/launchpad/AgentLaunchpad.sol:AgentLaunchpad",
        "label": "checker",
        "offset": 0,
        "slot": "8",
        "type": "t_address"
      },
      {
        "astId": 9260,
        "contract": "contracts/launchpad/AgentLaunchpad.sol:AgentLaunchpad",
        "label": "feeDestination",
        "offset": 0,
        "slot": "9",
        "type": "t_address"
      },
      {
        "astId": 9262,
        "contract": "contracts/launchpad/AgentLaunchpad.sol:AgentLaunchpad",
        "label": "feeCutE18",
        "offset": 0,
        "slot": "10",
        "type": "t_uint256"
      },
      {
        "astId": 9265,
        "contract": "contracts/launchpad/AgentLaunchpad.sol:AgentLaunchpad",
        "label": "aeroFactory",
        "offset": 0,
        "slot": "11",
        "type": "t_contract(IAeroPoolFactory)8450"
      },
      {
        "astId": 9268,
        "contract": "contracts/launchpad/AgentLaunchpad.sol:AgentLaunchpad",
        "label": "coreToken",
        "offset": 0,
        "slot": "12",
        "type": "t_contract(IERC20)2712"
      },
      {
        "astId": 9273,
        "contract": "contracts/launchpad/AgentLaunchpad.sol:AgentLaunchpad",
        "label": "liquidityLocks",
        "offset": 0,
        "slot": "13",
        "type": "t_mapping(t_address,t_struct(LiquidityLock)8522_storage)"
      },
      {
        "astId": 9278,
        "contract": "contracts/launchpad/AgentLaunchpad.sol:AgentLaunchpad",
        "label": "tokenLocks",
        "offset": 0,
        "slot": "14",
        "type": "t_mapping(t_address,t_struct(TokenLock)8514_storage)"
      },
      {
        "astId": 9284,
        "contract": "contracts/launchpad/AgentLaunchpad.sol:AgentLaunchpad",
        "label": "curves",
        "offset": 0,
        "slot": "15",
        "type": "t_mapping(t_contract(IAgentToken)8852,t_contract(IBondingCurve)8881)"
      },
      {
        "astId": 9289,
        "contract": "contracts/launchpad/AgentLaunchpad.sol:AgentLaunchpad",
        "label": "fundingGoals",
        "offset": 0,
        "slot": "16",
        "type": "t_mapping(t_contract(IAgentToken)8852,t_uint256)"
      },
      {
        "astId": 9294,
        "contract": "contracts/launchpad/AgentLaunchpad.sol:AgentLaunchpad",
        "label": "fundingProgress",
        "offset": 0,
        "slot": "17",
        "type": "t_mapping(t_contract(IAgentToken)8852,t_uint256)"
      },
      {
        "astId": 9300,
        "contract": "contracts/launchpad/AgentLaunchpad.sol:AgentLaunchpad",
        "label": "fundingTokens",
        "offset": 0,
        "slot": "18",
        "type": "t_mapping(t_contract(IAgentToken)8852,t_contract(IERC20)2712)"
      },
      {
        "astId": 9305,
        "contract": "contracts/launchpad/AgentLaunchpad.sol:AgentLaunchpad",
        "label": "tokenToNftId",
        "offset": 0,
        "slot": "19",
        "type": "t_mapping(t_contract(IAgentToken)8852,t_uint256)"
      }
    ],
    "types": {
      "t_address": {
        "encoding": "inplace",
        "label": "address",
        "numberOfBytes": "20"
      },
      "t_array(t_contract(IERC20)2712)dyn_storage": {
        "base": "t_contract(IERC20)2712",
        "encoding": "dynamic_array",
        "label": "contract IERC20[]",
        "numberOfBytes": "32"
      },
      "t_bool": {
        "encoding": "inplace",
        "label": "bool",
        "numberOfBytes": "1"
      },
      "t_contract(IAeroPool)8269": {
        "encoding": "inplace",
        "label": "contract IAeroPool",
        "numberOfBytes": "20"
      },
      "t_contract(IAeroPoolFactory)8450": {
        "encoding": "inplace",
        "label": "contract IAeroPoolFactory",
        "numberOfBytes": "20"
      },
      "t_contract(IAgentToken)8852": {
        "encoding": "inplace",
        "label": "contract IAgentToken",
        "numberOfBytes": "20"
      },
      "t_contract(IBondingCurve)8881": {
        "encoding": "inplace",
        "label": "contract IBondingCurve",
        "numberOfBytes": "20"
      },
      "t_contract(IERC20)2712": {
        "encoding": "inplace",
        "label": "contract IERC20",
        "numberOfBytes": "20"
      },
      "t_mapping(t_address,t_bool)": {
        "encoding": "mapping",
        "key": "t_address",
        "label": "mapping(address => bool)",
        "numberOfBytes": "32",
        "value": "t_bool"
      },
      "t_mapping(t_address,t_struct(LiquidityLock)8522_storage)": {
        "encoding": "mapping",
        "key": "t_address",
        "label": "mapping(address => struct IAgentLaunchpad.LiquidityLock)",
        "numberOfBytes": "32",
        "value": "t_struct(LiquidityLock)8522_storage"
      },
      "t_mapping(t_address,t_struct(TokenLock)8514_storage)": {
        "encoding": "mapping",
        "key": "t_address",
        "label": "mapping(address => struct IAgentLaunchpad.TokenLock)",
        "numberOfBytes": "32",
        "value": "t_struct(TokenLock)8514_storage"
      },
      "t_mapping(t_contract(IAgentToken)8852,t_contract(IBondingCurve)8881)": {
        "encoding": "mapping",
        "key": "t_contract(IAgentToken)8852",
        "label": "mapping(contract IAgentToken => contract IBondingCurve)",
        "numberOfBytes": "32",
        "value": "t_contract(IBondingCurve)8881"
      },
      "t_mapping(t_contract(IAgentToken)8852,t_contract(IERC20)2712)": {
        "encoding": "mapping",
        "key": "t_contract(IAgentToken)8852",
        "label": "mapping(contract IAgentToken => contract IERC20)",
        "numberOfBytes": "32",
        "value": "t_contract(IERC20)2712"
      },
      "t_mapping(t_contract(IAgentToken)8852,t_uint256)": {
        "encoding": "mapping",
        "key": "t_contract(IAgentToken)8852",
        "label": "mapping(contract IAgentToken => uint256)",
        "numberOfBytes": "32",
        "value": "t_uint256"
      },
      "t_struct(LiquidityLock)8522_storage": {
        "encoding": "inplace",
        "label": "struct IAgentLaunchpad.LiquidityLock",
        "members": [
          {
            "astId": 8517,
            "contract": "contracts/launchpad/AgentLaunchpad.sol:AgentLaunchpad",
            "label": "liquidityToken",
            "offset": 0,
            "slot": "0",
            "type": "t_contract(IAeroPool)8269"
          },
          {
            "astId": 8519,
            "contract": "contracts/launchpad/AgentLaunchpad.sol:AgentLaunchpad",
            "label": "amount",
            "offset": 0,
            "slot": "1",
            "type": "t_uint256"
          },
          {
            "astId": 8521,
            "contract": "contracts/launchpad/AgentLaunchpad.sol:AgentLaunchpad",
            "label": "releaseTime",
            "offset": 0,
            "slot": "2",
            "type": "t_uint256"
          }
        ],
        "numberOfBytes": "96"
      },
      "t_struct(TokenLock)8514_storage": {
        "encoding": "inplace",
        "label": "struct IAgentLaunchpad.TokenLock",
        "members": [
          {
            "astId": 8509,
            "contract": "contracts/launchpad/AgentLaunchpad.sol:AgentLaunchpad",
            "label": "amount",
            "offset": 0,
            "slot": "0",
            "type": "t_uint256"
          },
          {
            "astId": 8511,
            "contract": "contracts/launchpad/AgentLaunchpad.sol:AgentLaunchpad",
            "label": "startTime",
            "offset": 0,
            "slot": "1",
            "type": "t_uint256"
          },
          {
            "astId": 8513,
            "contract": "contracts/launchpad/AgentLaunchpad.sol:AgentLaunchpad",
            "label": "duration",
            "offset": 0,
            "slot": "2",
            "type": "t_uint256"
          }
        ],
        "numberOfBytes": "96"
      },
      "t_uint256": {
        "encoding": "inplace",
        "label": "uint256",
        "numberOfBytes": "32"
      }
    }
  }
}