{
  "address": "0x543Ba27094575d1c3f6333b016317abbc86AcBfC",
  "abi": [
    {
      "inputs": [],
      "name": "InvalidInitialization",
      "type": "error"
    },
    {
      "inputs": [],
      "name": "NotInitializing",
      "type": "error"
    },
    {
      "inputs": [
        {
          "internalType": "address",
          "name": "owner",
          "type": "address"
        }
      ],
      "name": "OwnableInvalidOwner",
      "type": "error"
    },
    {
      "inputs": [
        {
          "internalType": "address",
          "name": "account",
          "type": "address"
        }
      ],
      "name": "OwnableUnauthorizedAccount",
      "type": "error"
    },
    {
      "anonymous": false,
      "inputs": [
        {
          "indexed": false,
          "internalType": "uint64",
          "name": "version",
          "type": "uint64"
        }
      ],
      "name": "Initialized",
      "type": "event"
    },
    {
      "anonymous": false,
      "inputs": [
        {
          "indexed": true,
          "internalType": "address",
          "name": "previousOwner",
          "type": "address"
        },
        {
          "indexed": true,
          "internalType": "address",
          "name": "newOwner",
          "type": "address"
        }
      ],
      "name": "OwnershipTransferred",
      "type": "event"
    },
    {
      "anonymous": false,
      "inputs": [
        {
          "indexed": true,
          "internalType": "address",
          "name": "token",
          "type": "address"
        },
        {
          "indexed": true,
          "internalType": "address",
          "name": "creator",
          "type": "address"
        },
        {
          "indexed": false,
          "internalType": "string",
          "name": "name",
          "type": "string"
        },
        {
          "indexed": false,
          "internalType": "string",
          "name": "symbol",
          "type": "string"
        },
        {
          "indexed": false,
          "internalType": "uint256",
          "name": "limitPerWallet",
          "type": "uint256"
        },
        {
          "indexed": false,
          "internalType": "uint256",
          "name": "goal",
          "type": "uint256"
        },
        {
          "indexed": false,
          "internalType": "uint256",
          "name": "duration",
          "type": "uint256"
        },
        {
          "indexed": false,
          "internalType": "string",
          "name": "metadata",
          "type": "string"
        },
        {
          "indexed": false,
          "internalType": "address",
          "name": "bondingCurve",
          "type": "address"
        },
        {
          "indexed": false,
          "internalType": "bytes32",
          "name": "salt",
          "type": "bytes32"
        }
      ],
      "name": "TokenCreated",
      "type": "event"
    },
    {
      "inputs": [],
      "name": "checker",
      "outputs": [
        {
          "internalType": "address",
          "name": "",
          "type": "address"
        }
      ],
      "stateMutability": "view",
      "type": "function"
    },
    {
      "inputs": [
        {
          "components": [
            {
              "internalType": "string",
              "name": "name",
              "type": "string"
            },
            {
              "internalType": "string",
              "name": "symbol",
              "type": "string"
            },
            {
              "internalType": "uint256",
              "name": "duration",
              "type": "uint256"
            },
            {
              "internalType": "uint256",
              "name": "limitPerWallet",
              "type": "uint256"
            },
            {
              "internalType": "uint256",
              "name": "goal",
              "type": "uint256"
            },
            {
              "internalType": "string",
              "name": "metadata",
              "type": "string"
            },
            {
              "internalType": "address",
              "name": "locker",
              "type": "address"
            },
            {
              "internalType": "address",
              "name": "txChecker",
              "type": "address"
            },
            {
              "internalType": "address",
              "name": "bondingCurve",
              "type": "address"
            },
            {
              "internalType": "bytes32",
              "name": "salt",
              "type": "bytes32"
            }
          ],
          "internalType": "struct IAgentLaunchpad.CreateParams",
          "name": "p",
          "type": "tuple"
        }
      ],
      "name": "create",
      "outputs": [],
      "stateMutability": "nonpayable",
      "type": "function"
    },
    {
      "inputs": [],
      "name": "creationFee",
      "outputs": [
        {
          "internalType": "uint256",
          "name": "",
          "type": "uint256"
        }
      ],
      "stateMutability": "view",
      "type": "function"
    },
    {
      "inputs": [],
      "name": "getTotalTokens",
      "outputs": [
        {
          "internalType": "uint256",
          "name": "",
          "type": "uint256"
        }
      ],
      "stateMutability": "view",
      "type": "function"
    },
    {
      "inputs": [],
      "name": "governor",
      "outputs": [
        {
          "internalType": "address",
          "name": "",
          "type": "address"
        }
      ],
      "stateMutability": "view",
      "type": "function"
    },
    {
      "inputs": [
        {
          "internalType": "contract IERC20",
          "name": "_raiseToken",
          "type": "address"
        },
        {
          "internalType": "address",
          "name": "_owner",
          "type": "address"
        }
      ],
      "name": "initialize",
      "outputs": [],
      "stateMutability": "nonpayable",
      "type": "function"
    },
    {
      "inputs": [],
      "name": "locker",
      "outputs": [
        {
          "internalType": "address",
          "name": "",
          "type": "address"
        }
      ],
      "stateMutability": "view",
      "type": "function"
    },
    {
      "inputs": [],
      "name": "maxDuration",
      "outputs": [
        {
          "internalType": "uint256",
          "name": "",
          "type": "uint256"
        }
      ],
      "stateMutability": "view",
      "type": "function"
    },
    {
      "inputs": [],
      "name": "minDuration",
      "outputs": [
        {
          "internalType": "uint256",
          "name": "",
          "type": "uint256"
        }
      ],
      "stateMutability": "view",
      "type": "function"
    },
    {
      "inputs": [],
      "name": "minFundingGoal",
      "outputs": [
        {
          "internalType": "uint256",
          "name": "",
          "type": "uint256"
        }
      ],
      "stateMutability": "view",
      "type": "function"
    },
    {
      "inputs": [],
      "name": "owner",
      "outputs": [
        {
          "internalType": "address",
          "name": "",
          "type": "address"
        }
      ],
      "stateMutability": "view",
      "type": "function"
    },
    {
      "inputs": [],
      "name": "raiseToken",
      "outputs": [
        {
          "internalType": "contract IERC20",
          "name": "",
          "type": "address"
        }
      ],
      "stateMutability": "view",
      "type": "function"
    },
    {
      "inputs": [],
      "name": "renounceOwnership",
      "outputs": [],
      "stateMutability": "nonpayable",
      "type": "function"
    },
    {
      "inputs": [
        {
          "internalType": "uint256",
          "name": "_creationFee",
          "type": "uint256"
        },
        {
          "internalType": "uint256",
          "name": "_minFundingGoal",
          "type": "uint256"
        },
        {
          "internalType": "uint256",
          "name": "_minDuration",
          "type": "uint256"
        },
        {
          "internalType": "uint256",
          "name": "_maxDuration",
          "type": "uint256"
        },
        {
          "internalType": "address",
          "name": "_locker",
          "type": "address"
        },
        {
          "internalType": "address",
          "name": "_checker",
          "type": "address"
        },
        {
          "internalType": "address",
          "name": "_governor",
          "type": "address"
        }
      ],
      "name": "setSettings",
      "outputs": [],
      "stateMutability": "nonpayable",
      "type": "function"
    },
    {
      "inputs": [
        {
          "internalType": "uint256",
          "name": "",
          "type": "uint256"
        }
      ],
      "name": "tokens",
      "outputs": [
        {
          "internalType": "contract IERC20",
          "name": "",
          "type": "address"
        }
      ],
      "stateMutability": "view",
      "type": "function"
    },
    {
      "inputs": [
        {
          "internalType": "address",
          "name": "newOwner",
          "type": "address"
        }
      ],
      "name": "transferOwnership",
      "outputs": [],
      "stateMutability": "nonpayable",
      "type": "function"
    },
    {
      "inputs": [
        {
          "internalType": "address",
          "name": "_address",
          "type": "address"
        },
        {
          "internalType": "bool",
          "name": "_what",
          "type": "bool"
        }
      ],
      "name": "whitelist",
      "outputs": [],
      "stateMutability": "nonpayable",
      "type": "function"
    },
    {
      "inputs": [
        {
          "internalType": "address",
          "name": "",
          "type": "address"
        }
      ],
      "name": "whitelisted",
      "outputs": [
        {
          "internalType": "bool",
          "name": "",
          "type": "bool"
        }
      ],
      "stateMutability": "view",
      "type": "function"
    }
  ],
  "transactionHash": "0x445704bacee2dcc7d72b531755a3ecf26b4a6047337e2ef2dc7e9eb943f13c30",
  "args": [],
  "numDeployments": 1,
  "solcInputHash": "ddf42d2aa3a7039a0e808026b7882e83",
  "bytecode": "0x6080604052348015600f57600080fd5b506158578061001f6000396000f3fe608060405234801561001057600080fd5b50600436106101365760003560e01c80638da5cb5b116100b2578063d936547e11610081578063f08b82e611610066578063f08b82e61461028f578063f2fde38b14610297578063f59c3708146102aa57600080fd5b8063d936547e14610253578063dce0b4e41461028657600080fd5b80638da5cb5b146101ea578063a53f46ba1461021a578063cf5303cf1461022d578063d7b96d4e1461024057600080fd5b80634f64b2be1161010957806366743769116100ee57806366743769146101c65780636db5c8fd146101d9578063715018a6146101e257600080fd5b80634f64b2be146101aa57806356715761146101bd57600080fd5b80630c340a241461013b57806325d0b4ef1461016b578063485cc955146101825780634da60aa514610197575b600080fd5b60085461014e906001600160a01b031681565b6040516001600160a01b0390911681526020015b60405180910390f35b61017460065481565b604051908152602001610162565b610195610190366004610aac565b6102bd565b005b60005461014e906001600160a01b031681565b61014e6101b8366004610ae5565b610423565b61017460055481565b6101956101d4366004610afe565b61044d565b61017460045481565b6101956104b4565b7f9016d09d72d40fdae2fd8ceac6b6234c7706214fd39c1cd1e609a0528c199300546001600160a01b031661014e565b610195610228366004610c3f565b6104c8565b60095461014e906001600160a01b031681565b60075461014e906001600160a01b031681565b610276610261366004610d69565b60026020526000908152604090205460ff1681565b6040519015158152602001610162565b61017460035481565b600154610174565b6101956102a5366004610d69565b61087e565b6101956102b8366004610d9b565b6108d5565b7ff0c57e16840df040f15088dc2f81fe391c3923bec73e23a9662efc9c229c6a00805468010000000000000000810460ff16159067ffffffffffffffff166000811580156103085750825b905060008267ffffffffffffffff1660011480156103255750303b155b905081158015610333575080155b1561036a576040517ff92ee8a900000000000000000000000000000000000000000000000000000000815260040160405180910390fd5b845467ffffffffffffffff19166001178555831561039e57845468ff00000000000000001916680100000000000000001785555b6000805473ffffffffffffffffffffffffffffffffffffffff19166001600160a01b0389161790556103cf86610908565b831561041a57845468ff000000000000000019168555604051600181527fc7f505b2f371ae2175ee4913f4499e1f2633a7b5936321eed1cdaeb6115181d29060200160405180910390a15b50505050505050565b6001818154811061043357600080fd5b6000918252602090912001546001600160a01b0316905081565b610455610919565b6003969096556006949094556005929092556004556007805473ffffffffffffffffffffffffffffffffffffffff199081166001600160a01b039384161790915560088054821694831694909417909355600980549093169116179055565b6104bc610919565b6104c6600061098d565b565b6005548160400151101561050f5760405162461bcd60e51b815260206004820152600960248201526810b23ab930ba34b7b760b91b60448201526064015b60405180910390fd5b600454816040015111156105515760405162461bcd60e51b815260206004820152600960248201526810b23ab930ba34b7b760b91b6044820152606401610506565b600654816080015110156105a75760405162461bcd60e51b815260206004820152600f60248201527f216d696e46756e64696e67476f616c00000000000000000000000000000000006044820152606401610506565b6101008101516001600160a01b031660009081526002602052604090205460ff166106145760405162461bcd60e51b815260206004820152600d60248201527f21626f6e64696e674375727665000000000000000000000000000000000000006044820152606401610506565b604080516000815260208101909152600354156106c7576000546003546040517f23b872dd00000000000000000000000000000000000000000000000000000000815233600482015261dead602482015260448101919091526001600160a01b03909116906323b872dd906064016020604051808303816000875af11580156106a1573d6000803e3d6000fd5b505050506040513d601f19601f820116820180604052508101906106c59190610dc9565b505b6040805161018081018252835181526020808501519082015260a08085015182840152606080830185905285015160808084019190915285015190820152600080546001600160a01b0390811660c0840152600854811660e08401526007548116610100808501919091528601518116610120840152600954166101408301529184015161016082019061075b9042610de6565b815250905060008361012001518260405161077590610a7a565b61077f9190610e98565b8190604051809103906000f590508015801561079f573d6000803e3d6000fd5b509050336001600160a01b0316816001600160a01b03167fc98cc36b2100177b21410da31ba19117fa4675da442ed1cd0f8af5082ee6c7c986600001518760200151886060015189608001518a604001518b60a001518c61010001518d6101200151604051610815989796959493929190610fb2565b60405180910390a36001805480820182556000919091527fb10e2d527612073b26eecdfd717e6a320cf44b4afac2b0732d9fcbe2b7fa0cf601805473ffffffffffffffffffffffffffffffffffffffff19166001600160a01b0392909216919091179055505050565b610886610919565b6001600160a01b0381166108c9576040517f1e4fbdf700000000000000000000000000000000000000000000000000000000815260006004820152602401610506565b6108d28161098d565b50565b6108dd610919565b6001600160a01b03919091166000908152600260205260409020805460ff1916911515919091179055565b610910610a0b565b6108d281610a72565b3361094b7f9016d09d72d40fdae2fd8ceac6b6234c7706214fd39c1cd1e609a0528c199300546001600160a01b031690565b6001600160a01b0316146104c6576040517f118cdaa7000000000000000000000000000000000000000000000000000000008152336004820152602401610506565b7f9016d09d72d40fdae2fd8ceac6b6234c7706214fd39c1cd1e609a0528c199300805473ffffffffffffffffffffffffffffffffffffffff1981166001600160a01b03848116918217845560405192169182907f8be0079c531659141344cd1fd0a4f28419497f9722a3daafe3b4186f6b6457e090600090a3505050565b7ff0c57e16840df040f15088dc2f81fe391c3923bec73e23a9662efc9c229c6a005468010000000000000000900460ff166104c6576040517fd7e6bcf800000000000000000000000000000000000000000000000000000000815260040160405180910390fd5b610886610a0b565b6148018061102183390190565b6001600160a01b03811681146108d257600080fd5b8035610aa781610a87565b919050565b60008060408385031215610abf57600080fd5b8235610aca81610a87565b91506020830135610ada81610a87565b809150509250929050565b600060208284031215610af757600080fd5b5035919050565b600080600080600080600060e0888a031215610b1957600080fd5b873596506020880135955060408801359450606088013593506080880135610b4081610a87565b925060a0880135610b5081610a87565b915060c0880135610b6081610a87565b8091505092959891949750929550565b634e487b7160e01b600052604160045260246000fd5b604051610140810167ffffffffffffffff81118282101715610baa57610baa610b70565b60405290565b600082601f830112610bc157600080fd5b813567ffffffffffffffff811115610bdb57610bdb610b70565b604051601f8201601f19908116603f0116810167ffffffffffffffff81118282101715610c0a57610c0a610b70565b604052818152838201602001851015610c2257600080fd5b816020850160208301376000918101602001919091529392505050565b600060208284031215610c5157600080fd5b813567ffffffffffffffff811115610c6857600080fd5b82016101408185031215610c7b57600080fd5b610c83610b86565b813567ffffffffffffffff811115610c9a57600080fd5b610ca686828501610bb0565b825250602082013567ffffffffffffffff811115610cc357600080fd5b610ccf86828501610bb0565b60208301525060408281013590820152606080830135908201526080808301359082015260a082013567ffffffffffffffff811115610d0d57600080fd5b610d1986828501610bb0565b60a083015250610d2b60c08301610a9c565b60c0820152610d3c60e08301610a9c565b60e0820152610d4e6101008301610a9c565b61010082015261012091820135918101919091529392505050565b600060208284031215610d7b57600080fd5b8135610d8681610a87565b9392505050565b80151581146108d257600080fd5b60008060408385031215610dae57600080fd5b8235610db981610a87565b91506020830135610ada81610d8d565b600060208284031215610ddb57600080fd5b8151610d8681610d8d565b80820180821115610e0757634e487b7160e01b600052601160045260246000fd5b92915050565b6000815180845260005b81811015610e3357602081850181015186830182015201610e17565b506000602082860101526020601f19601f83011685010191505092915050565b600081518084526020840193506020830160005b82811015610e8e5781516001600160a01b0316865260209586019590910190600101610e67565b5093949350505050565b60208152600082516101806020840152610eb66101a0840182610e0d565b90506020840151601f19848303016040850152610ed38282610e0d565b9150506040840151601f19848303016060850152610ef18282610e0d565b9150506060840151601f19848303016080850152610f0f8282610e53565b915050608084015160a084015260a084015160c084015260c0840151610f4060e08501826001600160a01b03169052565b5060e08401516001600160a01b038116610100850152506101008401516001600160a01b038116610120850152506101208401516001600160a01b038116610140850152506101408401516001600160a01b038116610160850152506101608401516101808401528091505092915050565b61010081526000610fc761010083018b610e0d565b8281036020840152610fd9818b610e0d565b905088604084015287606084015286608084015282810360a0840152610fff8187610e0d565b6001600160a01b039590951660c0840152505060e00152969550505050505056fe6101606040527fb58436161aa98d7442ffff3af203d6031ad86e54ee571266152aa0e83a5247266012557f35a7846a2a701fff6f9d61a46ebff5da578c5dcee8bdf361c569f9ea4ee6477160135534801561005957600080fd5b5060405161480138038061480183398101604081905261007891610837565b806020015180604051806040016040528060018152602001603160f81b8152508360000151846020015181600390816100b19190610a2c565b5060046100be8282610a2c565b506100ce915083905060056102b0565b610120526100dd8160066102b0565b61014052815160208084019190912060e052815190820120610100524660a05261016a60e05161010051604080517f8b73c3c69bb8fe3d512ecc4cf759cc79239f7b179b0ffacaa9a75d522b39400f60208201529081019290925260608201524660808201523060a082015260009060c00160405160208183030381529060405280519060200120905090565b60805250503060c081905261018c91506b033b2e3c9fd0803ce80000006102e3565b610120810151601180546001600160a01b03199081166001600160a01b039384161790915561016083015160145560a0830151600e5560c0830151600d8054909216908316179055608082015160105561010080830151600b8054610100600160a81b031916919093169091021790556040810151600a9061020e9082610a2c565b50610140810151601780546001600160a01b0319166001600160a01b03909216919091179055600b805460ff19169055610249600030610322565b506102606013548260e0015161032260201b60201c565b5060005b8160600151518110156102a9576102a06012548360600151838151811061028d5761028d610aea565b602002602001015161032260201b60201c565b50600101610264565b5050610b78565b60006020835110156102cc576102c583610358565b90506102dd565b816102d78482610a2c565b5060ff90505b92915050565b6001600160a01b0382166103125760405163ec442f0560e01b8152600060048201526024015b60405180910390fd5b61031e60008383610396565b5050565b60008061032f8484610460565b9050801561035157600084815260096020526040902061034f908461050e565b505b9392505050565b600080829050601f81511115610383578260405163305a27a960e01b81526004016103099190610b00565b805161038e82610b33565b179392505050565b6103a1838383610523565b600b5460ff1661041757306001600160a01b0384160361041c576010546001600160a01b03831660009081526020819052604090205411156104175760405162461bcd60e51b815260206004820152600f60248201526e085b1a5b5a5d14195c95d85b1b195d608a1b6044820152606401610309565b505050565b6001600160a01b03821630146104175760405162461bcd60e51b815260206004820152600960248201526810ba3930b739b332b960b91b6044820152606401610309565b60008281526008602090815260408083206001600160a01b038516845290915281205460ff166105065760008381526008602090815260408083206001600160a01b03861684529091529020805460ff191660011790556104be3390565b6001600160a01b0316826001600160a01b0316847f2f8788117e7eff1d82e926ec794901d17c78024a50270940304540a733656f0d60405160405180910390a45060016102dd565b5060006102dd565b6000610351836001600160a01b03841661064d565b6001600160a01b03831661054e5780600260008282546105439190610b57565b909155506105c09050565b6001600160a01b038316600090815260208190526040902054818110156105a15760405163391434e360e21b81526001600160a01b03851660048201526024810182905260448101839052606401610309565b6001600160a01b03841660009081526020819052604090209082900390555b6001600160a01b0382166105dc576002805482900390556105fb565b6001600160a01b03821660009081526020819052604090208054820190555b816001600160a01b0316836001600160a01b03167fddf252ad1be2c89b69c2b068fc378daa952ba7f163c4a11628f55a4df523b3ef8360405161064091815260200190565b60405180910390a3505050565b6000818152600183016020526040812054610506575081546001818101845560008481526020808220909301849055845484825282860190935260409020919091556102dd565b634e487b7160e01b600052604160045260246000fd5b60405161018081016001600160401b03811182821017156106cd576106cd610694565b60405290565b604051601f8201601f191681016001600160401b03811182821017156106fb576106fb610694565b604052919050565b60005b8381101561071e578181015183820152602001610706565b50506000910152565b600082601f83011261073857600080fd5b81516001600160401b0381111561075157610751610694565b610764601f8201601f19166020016106d3565b81815284602083860101111561077957600080fd5b61078a826020830160208701610703565b949350505050565b80516001600160a01b03811681146107a957600080fd5b919050565b600082601f8301126107bf57600080fd5b81516001600160401b038111156107d8576107d8610694565b8060051b6107e8602082016106d3565b9182526020818501810192908101908684111561080457600080fd5b6020860192505b8383101561082d5761081c83610792565b82526020928301929091019061080b565b9695505050505050565b60006020828403121561084957600080fd5b81516001600160401b0381111561085f57600080fd5b8201610180818503121561087257600080fd5b61087a6106aa565b81516001600160401b0381111561089057600080fd5b61089c86828501610727565b82525060208201516001600160401b038111156108b857600080fd5b6108c486828501610727565b60208301525060408201516001600160401b038111156108e357600080fd5b6108ef86828501610727565b60408301525060608201516001600160401b0381111561090e57600080fd5b61091a868285016107ae565b6060830152506080828101519082015260a0808301519082015261094060c08301610792565b60c082015261095160e08301610792565b60e08201526109636101008301610792565b6101008201526109766101208301610792565b6101208201526109896101408301610792565b61014082015261016091820151918101919091529392505050565b600181811c908216806109b857607f821691505b6020821081036109d857634e487b7160e01b600052602260045260246000fd5b50919050565b601f82111561041757806000526020600020601f840160051c81016020851015610a055750805b601f840160051c820191505b81811015610a255760008155600101610a11565b5050505050565b81516001600160401b03811115610a4557610a45610694565b610a5981610a5384546109a4565b846109de565b6020601f821160018114610a8d5760008315610a755750848201515b600019600385901b1c1916600184901b178455610a25565b600084815260208120601f198516915b82811015610abd5787850151825560209485019460019092019101610a9d565b5084821015610adb5786840151600019600387901b60f8161c191681555b50505050600190811b01905550565b634e487b7160e01b600052603260045260246000fd5b6020815260008251806020840152610b1f816040850160208701610703565b601f01601f19169190910160400192915050565b805160208083015191908110156109d85760001960209190910360031b1b16919050565b808201808211156102dd57634e487b7160e01b600052601160045260246000fd5b60805160a05160c05160e051610100516101205161014051613c2f610bd260003960006124a601526000612479015260006123930152600061236b015260006122c6015260006122f00152600061231a0152613c2f6000f3fe6080604052600436106103385760003560e01c806378065f27116101b0578063a620ce5a116100ec578063d505accf11610095578063dd62ed3e1161006f578063dd62ed3e14610941578063dffb402614610987578063e10afc80146109a7578063e184c9be146109c757600080fd5b8063d505accf146108dc578063d547741f146108fc578063d7b96d4e1461091c57600080fd5b8063c63c4e9b116100c6578063c63c4e9b14610891578063ca15c873146108a7578063d3618cca146108c757600080fd5b8063a620ce5a14610845578063a678bb9e1461085b578063a9059cbb1461087157600080fd5b80638e124b7b1161015957806395d89b411161013357806395d89b41146107bb5780639ace38c2146107d0578063a217fddf14610803578063a3246ad31461081857600080fd5b80638e124b7b146107425780639010d07c1461075557806391d148541461077557600080fd5b80637ecebe001161018a5780637ecebe00146106da57806384b0196e146106fa57806386f3d02a1461072257600080fd5b806378065f271461068457806379cc6790146106a45780637a3a0e84146106c457600080fd5b80633644e5151161027f5780634a5e42b1116102285780637165485d116102025780637165485d146105fc5780637256f86914610634578063755e55481461065457806376e5f0541461066a57600080fd5b80634a5e42b11461058c5780636a5e2650146105ac57806370a08231146105c657600080fd5b8063392f37e911610259578063392f37e9146105375780633dbd84671461054c57806342966c681461056c57600080fd5b80633644e515146104e257806336568abe146104f7578063379607f51461051757600080fd5b806323b872dd116102e15780632b5bb062116102bb5780632b5bb062146104865780632f2ff15d146104a6578063313ce567146104c657600080fd5b806323b872dd14610414578063248a9ca314610434578063298410e51461046457600080fd5b8063146278341161031257806314627834146103bb57806318160ddd146103df57806321197108146103f457600080fd5b806301ffc9a71461034457806306fdde0314610379578063095ea7b31461039b57600080fd5b3661033f57005b600080fd5b34801561035057600080fd5b5061036461035f3660046131a2565b6109dd565b60405190151581526020015b60405180910390f35b34801561038557600080fd5b5061038e610a21565b6040516103709190613212565b3480156103a757600080fd5b506103646103b636600461324a565b610ab3565b3480156103c757600080fd5b506103d160135481565b604051908152602001610370565b3480156103eb57600080fd5b506002546103d1565b34801561040057600080fd5b506103d161040f36600461335d565b610acb565b34801561042057600080fd5b5061036461042f36600461341f565b610b11565b34801561044057600080fd5b506103d161044f366004613460565b60009081526008602052604090206001015490565b34801561047057600080fd5b5061048461047f366004613479565b610b35565b005b34801561049257600080fd5b506104846104a1366004613496565b610b84565b3480156104b257600080fd5b506104846104c13660046134cf565b610f86565b3480156104d257600080fd5b5060405160128152602001610370565b3480156104ee57600080fd5b506103d1610fb1565b34801561050357600080fd5b506104846105123660046134cf565b610fc0565b34801561052357600080fd5b50610484610532366004613460565b61100c565b34801561054357600080fd5b5061038e6111c0565b34801561055857600080fd5b50610484610567366004613460565b61124e565b34801561057857600080fd5b50610484610587366004613460565b6112ec565b34801561059857600080fd5b506104846105a7366004613479565b6112f9565b3480156105b857600080fd5b50600b546103649060ff1681565b3480156105d257600080fd5b506103d16105e1366004613479565b6001600160a01b031660009081526020819052604090205490565b34801561060857600080fd5b5060115461061c906001600160a01b031681565b6040516001600160a01b039091168152602001610370565b34801561064057600080fd5b5060175461061c906001600160a01b031681565b34801561066057600080fd5b506103d160125481565b34801561067657600080fd5b50600e54600f541015610364565b34801561069057600080fd5b50600d5461061c906001600160a01b031681565b3480156106b057600080fd5b506104846106bf36600461324a565b61133f565b3480156106d057600080fd5b506103d1600e5481565b3480156106e657600080fd5b506103d16106f5366004613479565b611354565b34801561070657600080fd5b5061070f611372565b60405161037097969594939291906134ff565b34801561072e57600080fd5b50600c5461061c906001600160a01b031681565b6104846107503660046135b3565b6113d4565b34801561076157600080fd5b5061061c610770366004613614565b61183e565b34801561078157600080fd5b506103646107903660046134cf565b60009182526008602090815260408084206001600160a01b0393909316845291905290205460ff1690565b3480156107c757600080fd5b5061038e61185d565b3480156107dc57600080fd5b506107f06107eb366004613460565b61186c565b6040516103709796959493929190613636565b34801561080f57600080fd5b506103d1600081565b34801561082457600080fd5b50610838610833366004613460565b611955565b6040516103709190613687565b34801561085157600080fd5b506103d160105481565b34801561086757600080fd5b506103d1600f5481565b34801561087d57600080fd5b5061036461088c36600461324a565b61196f565b34801561089d57600080fd5b506103d1601a5481565b3480156108b357600080fd5b506103d16108c2366004613460565b61197d565b3480156108d357600080fd5b50610484611994565b3480156108e857600080fd5b506104846108f73660046136d3565b611be4565b34801561090857600080fd5b506104846109173660046134cf565b611d50565b34801561092857600080fd5b50600b5461061c9061010090046001600160a01b031681565b34801561094d57600080fd5b506103d161095c36600461374a565b6001600160a01b03918216600090815260016020908152604080832093909416825291909152205490565b34801561099357600080fd5b506107f06109a2366004613460565b611d75565b3480156109b357600080fd5b506104846109c2366004613460565b611dca565b3480156109d357600080fd5b506103d160145481565b60006001600160e01b031982167f5a05180f000000000000000000000000000000000000000000000000000000001480610a1b5750610a1b826120e7565b92915050565b606060038054610a3090613778565b80601f0160208091040260200160405190810160405280929190818152602001828054610a5c90613778565b8015610aa95780601f10610a7e57610100808354040283529160200191610aa9565b820191906000526020600020905b815481529060010190602001808311610a8c57829003601f168201915b5050505050905090565b600033610ac181858561214e565b5060019392505050565b60008160000151826020015183604001518460c00151604051602001610af494939291906137b2565b604051602081830303815290604052805190602001209050919050565b600033610b1f85828561215b565b610b2a8585856121ed565b506001949350505050565b333014610b755760405162461bcd60e51b81526020600482015260096024820152682174696d656c6f636b60b81b60448201526064015b60405180910390fd5b610b80601582612265565b5050565b600b5460ff1615610bd75760405162461bcd60e51b815260206004820152600f60248201527f70726573616c65206973206f76657200000000000000000000000000000000006044820152606401610b6c565b8015610db757601154600f54600e546040517f0d6befe9000000000000000000000000000000000000000000000000000000008152600481018790526024810192909252604482015260009182916001600160a01b0390911690630d6befe9906064016040805180830381865afa158015610c56573d6000803e3d6000fd5b505050506040513d601f19601f82011682018060405250810190610c7a91906137ea565b9150915080600f6000828254610c909190613824565b9091555050600d546040517f23b872dd000000000000000000000000000000000000000000000000000000008152336004820152306024820152604481018390526001600160a01b03909116906323b872dd906064016020604051808303816000875af1158015610d05573d6000803e3d6000fd5b505050506040513d601f19601f82011682018060405250810190610d299190613837565b50610d353033846121ed565b83821015610d755760405162461bcd60e51b815260206004820152600d60248201526c085b5a5b905b5bdd5b9d13dd5d609a1b6044820152606401610b6c565b604080518281526020810184905233917f8fafebcaf9d154343dad25669bfa277f4fbacd7ac6b0c4fed522580e040a0f33910160405180910390a25050610f6e565b601154600f54600e546040517fa5e337c9000000000000000000000000000000000000000000000000000000008152600481018790526024810192909252604482015260009182916001600160a01b039091169063a5e337c9906064016040805180830381865afa158015610e30573d6000803e3d6000fd5b505050506040513d601f19601f82011682018060405250810190610e5491906137ea565b9150915081600f6000828254610e6a9190613854565b9091555050600d5460405163a9059cbb60e01b8152336004820152602481018490526001600160a01b039091169063a9059cbb906044016020604051808303816000875af1158015610ec0573d6000803e3d6000fd5b505050506040513d601f19601f82011682018060405250810190610ee49190613837565b50610ef03330836121ed565b83821015610f305760405162461bcd60e51b815260206004820152600d60248201526c085b5a5b905b5bdd5b9d13dd5d609a1b6044820152606401610b6c565b604080518281526020810184905233917f2dcf9433d75db0d8b1c172641f85e319ffe4ad22e108a95d1847ceb906e5195d910160405180910390a250505b600e54600f5410610f8157610f81611994565b505050565b600082815260086020526040902060010154610fa18161227a565b610fab8383612284565b50505050565b6000610fbb6122b9565b905090565b6001600160a01b0381163314611002576040517f6697b23200000000000000000000000000000000000000000000000000000000815260040160405180910390fd5b610f8182826123e4565b60145442116110475760405162461bcd60e51b81526020600482015260076024820152662165787069727960c81b6044820152606401610b6c565b6110513382612411565b600061105c60025490565b61106e83670de0b6b3a7640000613867565b611078919061387e565b905060005b6110876015612447565b811015610f8157600061109b601583612451565b9050306001600160a01b038216036110b357506111b8565b6040516370a0823160e01b81523060048201526000906001600160a01b038316906370a0823190602401602060405180830381865afa1580156110fa573d6000803e3d6000fd5b505050506040513d601f19601f8201168201806040525081019061111e91906138a0565b90506000670de0b6b3a76400006111358684613867565b61113f919061387e565b60405163a9059cbb60e01b8152336004820152602481018290529091506001600160a01b0384169063a9059cbb906044016020604051808303816000875af115801561118f573d6000803e3d6000fd5b505050506040513d601f19601f820116820180604052508101906111b39190613837565b505050505b60010161107d565b600a80546111cd90613778565b80601f01602080910402602001604051908101604052809291908181526020018280546111f990613778565b80156112465780601f1061121b57610100808354040283529160200191611246565b820191906000526020600020905b81548152906001019060200180831161122957829003601f168201915b505050505081565b60135461125a8161227a565b6000828152601b60205260409020600481015460ff16156112a95760405162461bcd60e51b815260206004820152600960248201526808595e1958dd5d195960ba1b6044820152606401610b6c565b60048101805461ff001916610100179055604051339084907f8c8232c85db9a123669826bd8f39157dcc0ab95801a30520a9f2ed98b1e6916790600090a3505050565b6112f63382612411565b50565b3330146113345760405162461bcd60e51b81526020600482015260096024820152682174696d656c6f636b60b81b6044820152606401610b6c565b610b8060158261245d565b61134a82338361215b565b610b808282612411565b6001600160a01b038116600090815260076020526040812054610a1b565b600060608060008060006060611386612472565b61138e61249f565b604080516000808252602082019092527f0f000000000000000000000000000000000000000000000000000000000000009b939a50919850469750309650945092509050565b601254600090815260086020908152604080832033845290915290205460ff168061141b5750601354600090815260086020908152604080832033845290915290205460ff165b6114675760405162461bcd60e51b815260206004820152600660248201527f21726f6c657300000000000000000000000000000000000000000000000000006044820152606401610b6c565b60145442106114a25760405162461bcd60e51b81526020600482015260076024820152662165787069727960c81b6044820152606401610b6c565b80601a54106114dd5760405162461bcd60e51b81526020600482015260076024820152662165787069727960c81b6044820152606401610b6c565b6017546001600160a01b03161561157057601754604051631d52dab560e01b81526001600160a01b0390911690631d52dab5906115249087908790879033906004016138b9565b6020604051808303816000875af1158015611543573d6000803e3d6000fd5b505050506040513d601f19601f820116820180604052508101906115679190613837565b61157057600080fd5b60006040518060e00160405280866001600160a01b03168152602001858152602001834261159e9190613824565b8152602001601860008154809291906115b6906138fb565b91905055815260200160001515815260200160001515815260200184815250905060006115e282610acb565b601c8054600181018255600091909152835160069091027f0e4562a10381dec21b205ed72637e6b1b523bdd0e4d4d50af5cd23dd4500a211810180546001600160a01b0390931673ffffffffffffffffffffffffffffffffffffffff1990931692909217825560208501517f0e4562a10381dec21b205ed72637e6b1b523bdd0e4d4d50af5cd23dd4500a21282015560408501517f0e4562a10381dec21b205ed72637e6b1b523bdd0e4d4d50af5cd23dd4500a21382015560608501517f0e4562a10381dec21b205ed72637e6b1b523bdd0e4d4d50af5cd23dd4500a21482015560808501517f0e4562a10381dec21b205ed72637e6b1b523bdd0e4d4d50af5cd23dd4500a2158201805460a088015115156101000261ff00199315159390931661ffff199091161791909117905560c085015192935084927f0e4562a10381dec21b205ed72637e6b1b523bdd0e4d4d50af5cd23dd4500a2169091019061174a908261395b565b5050506000818152601b6020908152604091829020845181546001600160a01b0390911673ffffffffffffffffffffffffffffffffffffffff1990911617815590840151600182015590830151600282015560608301516003820155608083015160048201805460a086015115156101000261ff00199315159390931661ffff199091161791909117905560c083015183919060058201906117ec908261395b565b50905050856001600160a01b0316817fc2281debf3caa04aa2966382929c427d1b4c2a95e1fb29bea2c946b244bc877187878760405161182e93929190613a1a565b60405180910390a3505050505050565b60008281526009602052604081206118569083612451565b9392505050565b606060048054610a3090613778565b601c818154811061187c57600080fd5b60009182526020909120600690910201805460018201546002830154600384015460048501546005860180546001600160a01b03909616975093959294919360ff8083169461010090930416926118d290613778565b80601f01602080910402602001604051908101604052809291908181526020018280546118fe90613778565b801561194b5780601f106119205761010080835404028352916020019161194b565b820191906000526020600020905b81548152906001019060200180831161192e57829003601f168201915b5050505050905087565b6000818152600960205260409020606090610a1b906124cc565b600033610ac18185856121ed565b6000818152600960205260408120610a1b90612447565b600d546040516370a0823160e01b81523060048201526000916001600160a01b0316906370a0823190602401602060405180830381865afa1580156119dd573d6000803e3d6000fd5b505050506040513d601f19601f82011682018060405250810190611a0191906138a0565b600b5490915060ff1615611a575760405162461bcd60e51b815260206004820152600f60248201527f70726573616c65206973206f76657200000000000000000000000000000000006044820152606401610b6c565b600e54600f541015611aab5760405162461bcd60e51b815260206004820152600c60248201527f2166756e64696e67476f616c00000000000000000000000000000000000000006044820152606401610b6c565b600b805460ff19166001179055611aeb6064611ac660025490565b611ad190600f613867565b611adb919061387e565b611ae660058461387e565b6124d9565b611b136005611af960025490565b611b04906003613867565b611b0e919061387e565b6126e0565b6005611b20826004613867565b611b2a919061387e565b600d546040516370a0823160e01b81523060048201526001600160a01b03909116906370a0823190602401602060405180830381865afa158015611b72573d6000803e3d6000fd5b505050506040513d601f19601f82011682018060405250810190611b9691906138a0565b10156112f65760405162461bcd60e51b815260206004820152600860248201527f2162616c616e63650000000000000000000000000000000000000000000000006044820152606401610b6c565b83421115611c21576040517f6279130200000000000000000000000000000000000000000000000000000000815260048101859052602401610b6c565b60007f6e71edae12b1b97f4d1f60370fef10105fa2faae0126114a169c64845d6126c9888888611c6e8c6001600160a01b0316600090815260076020526040902080546001810190915590565b6040805160208101969096526001600160a01b0394851690860152929091166060840152608083015260a082015260c0810186905260e0016040516020818303038152906040528051906020012090506000611cc98261279a565b90506000611cd9828787876127e2565b9050896001600160a01b0316816001600160a01b031614611d39576040517f4b800e460000000000000000000000000000000000000000000000000000000081526001600160a01b0380831660048301528b166024820152604401610b6c565b611d448a8a8a61214e565b50505050505050505050565b600082815260086020526040902060010154611d6b8161227a565b610fab83836123e4565b601b602052600090815260409020805460018201546002830154600384015460048501546005860180546001600160a01b039096169694959394929360ff80841694610100909404169291906118d290613778565b6000818152601b6020526040902060028101544211611e2b5760405162461bcd60e51b815260206004820152600a60248201527f21657865637574654174000000000000000000000000000000000000000000006044820152606401610b6c565b6004810154610100900460ff1615611e855760405162461bcd60e51b815260206004820152600a60248201527f2163616e63656c6c6564000000000000000000000000000000000000000000006044820152606401610b6c565b600481015460ff1615611ec65760405162461bcd60e51b815260206004820152600960248201526808595e1958dd5d195960ba1b6044820152606401610b6c565b60198054906000611ed6836138fb565b9190505581600301541015611f2d5760405162461bcd60e51b815260206004820152600660248201527f216e6f6e636500000000000000000000000000000000000000000000000000006044820152606401610b6c565b60048101805460ff191660011790556017546001600160a01b031615611fd85760175481546001830154604051631d52dab560e01b81526001600160a01b0393841693631d52dab593611f8c9391169160058701903390600401613ac6565b6020604051808303816000875af1158015611fab573d6000803e3d6000fd5b505050506040513d601f19601f82011682018060405250810190611fcf9190613837565b611fd857600080fd5b805460018201546040516000926001600160a01b03169190611ffe906005860190613aee565b60006040518083038185875af1925050503d806000811461203b576040519150601f19603f3d011682016040523d82523d6000602084013e612040565b606091505b50509050806120915760405162461bcd60e51b815260206004820152601c60248201527f5472616e73616374696f6e20657865637574696f6e206661696c6564000000006044820152606401610b6c565b8154600183015460405185927f81cd52bcffe1e584e3065f39332467a6c89dcbe9792159c4127f256bb0bfbeec926120da9233926001600160a01b031691906005890190613b63565b60405180910390a2505050565b60006001600160e01b031982167f7965db0b000000000000000000000000000000000000000000000000000000001480610a1b57507f01ffc9a7000000000000000000000000000000000000000000000000000000006001600160e01b0319831614610a1b565b610f818383836001612810565b6001600160a01b03838116600090815260016020908152604080832093861683529290522054600019811015610fab57818110156121de576040517ffb8f41b20000000000000000000000000000000000000000000000000000000081526001600160a01b03841660048201526024810182905260448101839052606401610b6c565b610fab84848484036000612810565b6001600160a01b03831661221757604051634b637e8f60e11b815260006004820152602401610b6c565b6001600160a01b03821661225a576040517fec442f0500000000000000000000000000000000000000000000000000000000815260006004820152602401610b6c565b610f81838383612917565b6000611856836001600160a01b0384166129fe565b6112f68133612a4d565b6000806122918484612abb565b905080156118565760008481526009602052604090206122b19084612265565b509392505050565b6000306001600160a01b037f00000000000000000000000000000000000000000000000000000000000000001614801561231257507f000000000000000000000000000000000000000000000000000000000000000046145b1561233c57507f000000000000000000000000000000000000000000000000000000000000000090565b610fbb604080517f8b73c3c69bb8fe3d512ecc4cf759cc79239f7b179b0ffacaa9a75d522b39400f60208201527f0000000000000000000000000000000000000000000000000000000000000000918101919091527f000000000000000000000000000000000000000000000000000000000000000060608201524660808201523060a082015260009060c00160405160208183030381529060405280519060200120905090565b6000806123f18484612b61565b905080156118565760008481526009602052604090206122b1908461245d565b6001600160a01b03821661243b57604051634b637e8f60e11b815260006004820152602401610b6c565b610b8082600083612917565b6000610a1b825490565b60006118568383612be8565b6000611856836001600160a01b038416612c12565b6060610fbb7f00000000000000000000000000000000000000000000000000000000000000006005612d05565b6060610fbb7f00000000000000000000000000000000000000000000000000000000000000006006612d05565b6060600061185683612db0565b600c54600d546040517f28af8d0b0000000000000000000000000000000000000000000000000000000081523060048201526001600160a01b0391821660248201526103e8604482015260009291909116906328af8d0b90606401602060405180830381865afa158015612551573d6000803e3d6000fd5b505050506040513d601f19601f820116820180604052508101906125759190613b9a565b90506001600160a01b03811661262857600c54600d546040517f232aa5ac0000000000000000000000000000000000000000000000000000000081526001600160a01b039182166004820181905260248201526103e860448201526000606482015291169063232aa5ac906084016020604051808303816000875af1158015612602573d6000803e3d6000fd5b505050506040513d601f19601f820116820180604052508101906126269190613b9a565b505b600c546126409030906001600160a01b03168561214e565b600b60019054906101000a90046001600160a01b03166001600160a01b03166354c993ac600080426014546126759190613854565b6040516001600160e01b031960e086901b1681526001600160a01b03909316600484015260248301919091526044820152606401600060405180830381600087803b1580156126c357600080fd5b505af11580156126d7573d6000803e3d6000fd5b50505050505050565b600b546126fd90309061010090046001600160a01b03168361214e565b600b60019054906101000a90046001600160a01b03166001600160a01b031663a25983e53083426014546127319190613854565b6040516001600160e01b031960e086901b1681526001600160a01b03909316600484015260248301919091526044820152606401600060405180830381600087803b15801561277f57600080fd5b505af1158015612793573d6000803e3d6000fd5b5050505050565b6000610a1b6127a76122b9565b836040517f19010000000000000000000000000000000000000000000000000000000000008152600281019290925260228201526042902090565b6000806000806127f488888888612e0c565b9250925092506128048282612edb565b50909695505050505050565b6001600160a01b038416612853576040517fe602df0500000000000000000000000000000000000000000000000000000000815260006004820152602401610b6c565b6001600160a01b038316612896576040517f94280d6200000000000000000000000000000000000000000000000000000000815260006004820152602401610b6c565b6001600160a01b0380851660009081526001602090815260408083209387168352929052208290558015610fab57826001600160a01b0316846001600160a01b03167f8c5be1e5ebec7d5bd14f71427d1e84f3dd0314c0f7b2291e5b200ac8c7c3b9258460405161290991815260200190565b60405180910390a350505050565b612922838383612fdf565b600b5460ff16610f8157306001600160a01b038416036129a6576010546001600160a01b0383166000908152602081905260409020541115610f815760405162461bcd60e51b815260206004820152600f60248201527f216c696d697450657257616c6c657400000000000000000000000000000000006044820152606401610b6c565b6001600160a01b0382163014610f815760405162461bcd60e51b815260206004820152600960248201527f217472616e7366657200000000000000000000000000000000000000000000006044820152606401610b6c565b6000818152600183016020526040812054612a4557508154600181810184556000848152602080822090930184905584548482528286019093526040902091909155610a1b565b506000610a1b565b60008281526008602090815260408083206001600160a01b038516845290915290205460ff16610b80576040517fe2517d3f0000000000000000000000000000000000000000000000000000000081526001600160a01b038216600482015260248101839052604401610b6c565b60008281526008602090815260408083206001600160a01b038516845290915281205460ff16612a455760008381526008602090815260408083206001600160a01b03861684529091529020805460ff19166001179055612b193390565b6001600160a01b0316826001600160a01b0316847f2f8788117e7eff1d82e926ec794901d17c78024a50270940304540a733656f0d60405160405180910390a4506001610a1b565b60008281526008602090815260408083206001600160a01b038516845290915281205460ff1615612a455760008381526008602090815260408083206001600160a01b0386168085529252808320805460ff1916905551339286917ff6391f5c32d9c69d2a47ea670b442974b53935d1edc7fd64eb21e047a839171b9190a4506001610a1b565b6000826000018281548110612bff57612bff613bb7565b9060005260206000200154905092915050565b60008181526001830160205260408120548015612cfb576000612c36600183613854565b8554909150600090612c4a90600190613854565b9050808214612caf576000866000018281548110612c6a57612c6a613bb7565b9060005260206000200154905080876000018481548110612c8d57612c8d613bb7565b6000918252602080832090910192909255918252600188019052604090208390555b8554869080612cc057612cc0613bcd565b600190038181906000526020600020016000905590558560010160008681526020019081526020016000206000905560019350505050610a1b565b6000915050610a1b565b606060ff8314612d1f57612d1883613122565b9050610a1b565b818054612d2b90613778565b80601f0160208091040260200160405190810160405280929190818152602001828054612d5790613778565b8015612da45780601f10612d7957610100808354040283529160200191612da4565b820191906000526020600020905b815481529060010190602001808311612d8757829003601f168201915b50505050509050610a1b565b606081600001805480602002602001604051908101604052809291908181526020018280548015612e0057602002820191906000526020600020905b815481526020019060010190808311612dec575b50505050509050919050565b600080807f7fffffffffffffffffffffffffffffff5d576e7357a4501ddfe92f46681b20a0841115612e475750600091506003905082612ed1565b604080516000808252602082018084528a905260ff891692820192909252606081018790526080810186905260019060a0016020604051602081039080840390855afa158015612e9b573d6000803e3d6000fd5b5050604051601f1901519150506001600160a01b038116612ec757506000925060019150829050612ed1565b9250600091508190505b9450945094915050565b6000826003811115612eef57612eef613be3565b03612ef8575050565b6001826003811115612f0c57612f0c613be3565b03612f43576040517ff645eedf00000000000000000000000000000000000000000000000000000000815260040160405180910390fd5b6002826003811115612f5757612f57613be3565b03612f91576040517ffce698f700000000000000000000000000000000000000000000000000000000815260048101829052602401610b6c565b6003826003811115612fa557612fa5613be3565b03610b80576040517fd78bce0c00000000000000000000000000000000000000000000000000000000815260048101829052602401610b6c565b6001600160a01b03831661300a578060026000828254612fff9190613824565b909155506130959050565b6001600160a01b03831660009081526020819052604090205481811015613076576040517fe450d38c0000000000000000000000000000000000000000000000000000000081526001600160a01b03851660048201526024810182905260448101839052606401610b6c565b6001600160a01b03841660009081526020819052604090209082900390555b6001600160a01b0382166130b1576002805482900390556130d0565b6001600160a01b03821660009081526020819052604090208054820190555b816001600160a01b0316836001600160a01b03167fddf252ad1be2c89b69c2b068fc378daa952ba7f163c4a11628f55a4df523b3ef8360405161311591815260200190565b60405180910390a3505050565b6060600061312f83613161565b604080516020808252818301909252919250600091906020820181803683375050509182525060208101929092525090565b600060ff8216601f811115610a1b576040517fb3512b0c00000000000000000000000000000000000000000000000000000000815260040160405180910390fd5b6000602082840312156131b457600080fd5b81356001600160e01b03198116811461185657600080fd5b6000815180845260005b818110156131f2576020818501810151868301820152016131d6565b506000602082860101526020601f19601f83011685010191505092915050565b60208152600061185660208301846131cc565b6001600160a01b03811681146112f657600080fd5b803561324581613225565b919050565b6000806040838503121561325d57600080fd5b823561326881613225565b946020939093013593505050565b634e487b7160e01b600052604160045260246000fd5b60405160e0810167ffffffffffffffff811182821017156132af576132af613276565b60405290565b80151581146112f657600080fd5b8035613245816132b5565b600082601f8301126132df57600080fd5b813567ffffffffffffffff8111156132f9576132f9613276565b604051601f8201601f19908116603f0116810167ffffffffffffffff8111828210171561332857613328613276565b60405281815283820160200185101561334057600080fd5b816020850160208301376000918101602001919091529392505050565b60006020828403121561336f57600080fd5b813567ffffffffffffffff81111561338657600080fd5b820160e0818503121561339857600080fd5b6133a061328c565b6133a98261323a565b81526020828101359082015260408083013590820152606080830135908201526133d5608083016132c3565b60808201526133e660a083016132c3565b60a082015260c082013567ffffffffffffffff81111561340557600080fd5b613411868285016132ce565b60c083015250949350505050565b60008060006060848603121561343457600080fd5b833561343f81613225565b9250602084013561344f81613225565b929592945050506040919091013590565b60006020828403121561347257600080fd5b5035919050565b60006020828403121561348b57600080fd5b813561185681613225565b6000806000606084860312156134ab57600080fd5b833592506020840135915060408401356134c4816132b5565b809150509250925092565b600080604083850312156134e257600080fd5b8235915060208301356134f481613225565b809150509250929050565b7fff000000000000000000000000000000000000000000000000000000000000008816815260e06020820152600061353a60e08301896131cc565b828103604084015261354c81896131cc565b606084018890526001600160a01b038716608085015260a0840186905283810360c08501528451808252602080870193509091019060005b818110156135a2578351835260209384019390920191600101613584565b50909b9a5050505050505050505050565b600080600080608085870312156135c957600080fd5b84356135d481613225565b935060208501359250604085013567ffffffffffffffff8111156135f757600080fd5b613603878288016132ce565b949793965093946060013593505050565b6000806040838503121561362757600080fd5b50508035926020909101359150565b6001600160a01b0388168152866020820152856040820152846060820152831515608082015282151560a082015260e060c0820152600061367a60e08301846131cc565b9998505050505050505050565b602080825282518282018190526000918401906040840190835b818110156136c85783516001600160a01b03168352602093840193909201916001016136a1565b509095945050505050565b600080600080600080600060e0888a0312156136ee57600080fd5b87356136f981613225565b9650602088013561370981613225565b95506040880135945060608801359350608088013560ff8116811461372d57600080fd5b9699959850939692959460a0840135945060c09093013592915050565b6000806040838503121561375d57600080fd5b823561376881613225565b915060208301356134f481613225565b600181811c9082168061378c57607f821691505b6020821081036137ac57634e487b7160e01b600052602260045260246000fd5b50919050565b6001600160a01b03851681528360208201528260408201526080606082015260006137e060808301846131cc565b9695505050505050565b600080604083850312156137fd57600080fd5b505080516020909101519092909150565b634e487b7160e01b600052601160045260246000fd5b80820180821115610a1b57610a1b61380e565b60006020828403121561384957600080fd5b8151611856816132b5565b81810381811115610a1b57610a1b61380e565b8082028115828204841417610a1b57610a1b61380e565b60008261389b57634e487b7160e01b600052601260045260246000fd5b500490565b6000602082840312156138b257600080fd5b5051919050565b6001600160a01b03851681528360208201526080604082015260006138e160808301856131cc565b90506001600160a01b038316606083015295945050505050565b60006001820161390d5761390d61380e565b5060010190565b601f821115610f8157806000526020600020601f840160051c8101602085101561393b5750805b601f840160051c820191505b818110156127935760008155600101613947565b815167ffffffffffffffff81111561397557613975613276565b613989816139838454613778565b84613914565b6020601f8211600181146139bd57600083156139a55750848201515b600019600385901b1c1916600184901b178455612793565b600084815260208120601f198516915b828110156139ed57878501518255602094850194600190920191016139cd565b5084821015613a0b5786840151600019600387901b60f8161c191681555b50505050600190811b01905550565b838152606060208201526000613a3360608301856131cc565b9050826040830152949350505050565b60008154613a5081613778565b808552600182168015613a6a5760018114613a8657613abd565b60ff1983166020870152602082151560051b8701019350613abd565b84600052602060002060005b83811015613ab45781546020828a010152600182019150602081019050613a92565b87016020019450505b50505092915050565b6001600160a01b03851681528360208201526080604082015260006138e16080830185613a43565b6000808354613afc81613778565b600182168015613b135760018114613b2857613b58565b60ff1983168652811515820286019350613b58565b86600052602060002060005b83811015613b5057815488820152600190910190602001613b34565b505081860193505b509195945050505050565b6001600160a01b03851681526001600160a01b03841660208201528260408201526080606082015260006137e06080830184613a43565b600060208284031215613bac57600080fd5b815161185681613225565b634e487b7160e01b600052603260045260246000fd5b634e487b7160e01b600052603160045260246000fd5b634e487b7160e01b600052602160045260246000fdfea26469706673582212202ae00fe6917a21dd2e02221b69e6aade2f29a21628d4856715ae5731ffdd837564736f6c634300081c0033a26469706673582212206a59a418b6ece2fef8072a014812bc8c0918f2d3e6e6487bda4f5a336951a3f064736f6c634300081c0033",
  "devdoc": {
    "errors": {
      "InvalidInitialization()": [
        {
          "details": "The contract is already initialized."
        }
      ],
      "NotInitializing()": [
        {
          "details": "The contract is not initializing."
        }
      ],
      "OwnableInvalidOwner(address)": [
        {
          "details": "The owner is not a valid owner account. (eg. `address(0)`)"
        }
      ],
      "OwnableUnauthorizedAccount(address)": [
        {
          "details": "The caller account is not authorized to perform an operation."
        }
      ]
    },
    "events": {
      "Initialized(uint64)": {
        "details": "Triggered when the contract has been initialized or reinitialized."
      }
    },
    "kind": "dev",
    "methods": {
      "owner()": {
        "details": "Returns the address of the current owner."
      },
      "renounceOwnership()": {
        "details": "Leaves the contract without owner. It will not be possible to call `onlyOwner` functions. Can only be called by the current owner. NOTE: Renouncing ownership will leave the contract without an owner, thereby disabling any functionality that is only available to the owner."
      },
      "transferOwnership(address)": {
        "details": "Transfers ownership of the contract to a new account (`newOwner`). Can only be called by the current owner."
      }
    },
    "version": 1
  },
  "userdoc": {
    "kind": "user",
    "methods": {},
    "version": 1
  },
  "storageLayout": {
    "storage": [
      {
        "astId": 8714,
        "contract": "contracts/AgentLaunchpad.sol:AgentLaunchpad",
        "label": "raiseToken",
        "offset": 0,
        "slot": "0",
        "type": "t_contract(IERC20)1812"
      },
      {
        "astId": 8718,
        "contract": "contracts/AgentLaunchpad.sol:AgentLaunchpad",
        "label": "tokens",
        "offset": 0,
        "slot": "1",
        "type": "t_array(t_contract(IERC20)1812)dyn_storage"
      },
      {
        "astId": 8722,
        "contract": "contracts/AgentLaunchpad.sol:AgentLaunchpad",
        "label": "whitelisted",
        "offset": 0,
        "slot": "2",
        "type": "t_mapping(t_address,t_bool)"
      },
      {
        "astId": 8724,
        "contract": "contracts/AgentLaunchpad.sol:AgentLaunchpad",
        "label": "creationFee",
        "offset": 0,
        "slot": "3",
        "type": "t_uint256"
      },
      {
        "astId": 8726,
        "contract": "contracts/AgentLaunchpad.sol:AgentLaunchpad",
        "label": "maxDuration",
        "offset": 0,
        "slot": "4",
        "type": "t_uint256"
      },
      {
        "astId": 8728,
        "contract": "contracts/AgentLaunchpad.sol:AgentLaunchpad",
        "label": "minDuration",
        "offset": 0,
        "slot": "5",
        "type": "t_uint256"
      },
      {
        "astId": 8730,
        "contract": "contracts/AgentLaunchpad.sol:AgentLaunchpad",
        "label": "minFundingGoal",
        "offset": 0,
        "slot": "6",
        "type": "t_uint256"
      },
      {
        "astId": 8732,
        "contract": "contracts/AgentLaunchpad.sol:AgentLaunchpad",
        "label": "locker",
        "offset": 0,
        "slot": "7",
        "type": "t_address"
      },
      {
        "astId": 8734,
        "contract": "contracts/AgentLaunchpad.sol:AgentLaunchpad",
        "label": "governor",
        "offset": 0,
        "slot": "8",
        "type": "t_address"
      },
      {
        "astId": 8736,
        "contract": "contracts/AgentLaunchpad.sol:AgentLaunchpad",
        "label": "checker",
        "offset": 0,
        "slot": "9",
        "type": "t_address"
      }
    ],
    "types": {
      "t_address": {
        "encoding": "inplace",
        "label": "address",
        "numberOfBytes": "20"
      },
      "t_array(t_contract(IERC20)1812)dyn_storage": {
        "base": "t_contract(IERC20)1812",
        "encoding": "dynamic_array",
        "label": "contract IERC20[]",
        "numberOfBytes": "32"
      },
      "t_bool": {
        "encoding": "inplace",
        "label": "bool",
        "numberOfBytes": "1"
      },
      "t_contract(IERC20)1812": {
        "encoding": "inplace",
        "label": "contract IERC20",
        "numberOfBytes": "20"
      },
      "t_mapping(t_address,t_bool)": {
        "encoding": "mapping",
        "key": "t_address",
        "label": "mapping(address => bool)",
        "numberOfBytes": "32",
        "value": "t_bool"
      },
      "t_uint256": {
        "encoding": "inplace",
        "label": "uint256",
        "numberOfBytes": "32"
      }
    }
  }
}