{
  "address": "0xa1d34D75101E03E027E55A5982895a11F63a5123",
  "abi": [
    {
      "inputs": [
        {
          "internalType": "address",
          "name": "nft",
          "type": "address"
        },
        {
          "internalType": "uint256",
          "name": "tokenId",
          "type": "uint256"
        },
        {
          "internalType": "uint256",
          "name": "duration",
          "type": "uint256"
        }
      ],
      "name": "lockNFT",
      "outputs": [],
      "stateMutability": "nonpayable",
      "type": "function"
    },
    {
      "inputs": [
        {
          "internalType": "address",
          "name": "token",
          "type": "address"
        },
        {
          "internalType": "uint256",
          "name": "amount",
          "type": "uint256"
        },
        {
          "internalType": "uint256",
          "name": "duration",
          "type": "uint256"
        }
      ],
      "name": "lockTokens",
      "outputs": [],
      "stateMutability": "nonpayable",
      "type": "function"
    },
    {
      "inputs": [
        {
          "internalType": "address",
          "name": "",
          "type": "address"
        },
        {
          "internalType": "address",
          "name": "",
          "type": "address"
        }
      ],
      "name": "nftLocks",
      "outputs": [
        {
          "internalType": "uint256",
          "name": "tokenId",
          "type": "uint256"
        },
        {
          "internalType": "uint256",
          "name": "releaseTime",
          "type": "uint256"
        }
      ],
      "stateMutability": "view",
      "type": "function"
    },
    {
      "inputs": [
        {
          "internalType": "address",
          "name": "nft",
          "type": "address"
        }
      ],
      "name": "releaseNFT",
      "outputs": [],
      "stateMutability": "nonpayable",
      "type": "function"
    },
    {
      "inputs": [
        {
          "internalType": "address",
          "name": "token",
          "type": "address"
        }
      ],
      "name": "releaseTokens",
      "outputs": [],
      "stateMutability": "nonpayable",
      "type": "function"
    },
    {
      "inputs": [
        {
          "internalType": "address",
          "name": "",
          "type": "address"
        },
        {
          "internalType": "address",
          "name": "",
          "type": "address"
        }
      ],
      "name": "tokenLocks",
      "outputs": [
        {
          "internalType": "uint256",
          "name": "amount",
          "type": "uint256"
        },
        {
          "internalType": "uint256",
          "name": "startTime",
          "type": "uint256"
        },
        {
          "internalType": "uint256",
          "name": "duration",
          "type": "uint256"
        }
      ],
      "stateMutability": "view",
      "type": "function"
    }
  ],
  "transactionHash": "0xe061d29acb77de5455d80f6215cafdc64d86f5fdd42329b320804fddd589707a",
  "args": [],
  "numDeployments": 1,
  "solcInputHash": "475d7424673ef20688033235605cef58",
  "bytecode": "0x6080604052348015600f57600080fd5b506109508061001f6000396000f3fe608060405234801561001057600080fd5b50600436106100725760003560e01c8063a25983e511610050578063a25983e5146100b2578063c463c6d8146100c5578063d2fa29021461011c57600080fd5b80635476e2db1461007757806354c993ac1461008c57806387b0be481461009f575b600080fd5b61008a6100853660046107f5565b610160565b005b61008a61009a366004610817565b6102be565b61008a6100ad3660046107f5565b61042c565b61008a6100c0366004610817565b610614565b6100fc6100d336600461084a565b600060208181529281526040808220909352908152208054600182015460029092015490919083565b604080519384526020840192909252908201526060015b60405180910390f35b61014b61012a36600461084a565b60016020818152600093845260408085209091529183529120805491015482565b60408051928352602083019190915201610113565b3360009081526001602090815260408083206001600160a01b0385168452909152812080549091036101d95760405162461bcd60e51b815260206004820152600d60248201527f4e6f204e4654206c6f636b65640000000000000000000000000000000000000060448201526064015b60405180910390fd5b806001015442101561022d5760405162461bcd60e51b815260206004820152601360248201527f4e4654206973207374696c6c206c6f636b65640000000000000000000000000060448201526064016101d0565b80543360008181526001602081815260408084206001600160a01b038916808652925280842084815590920192909255516323b872dd60e01b8152306004820152602481019290925260448201839052906323b872dd90606401600060405180830381600087803b1580156102a157600080fd5b505af11580156102b5573d6000803e3d6000fd5b50505050505050565b6000811161030e5760405162461bcd60e51b815260206004820152601f60248201527f4475726174696f6e206d7573742062652067726561746572207468616e20300060448201526064016101d0565b3360009081526001602090815260408083206001600160a01b03871684529091529020541561036d5760405162461bcd60e51b815260206004820152600b60248201526a6c6f636b2065786973747360a81b60448201526064016101d0565b6040516323b872dd60e01b8152336004820152306024820152604481018390526001600160a01b038416906323b872dd90606401600060405180830381600087803b1580156103bb57600080fd5b505af11580156103cf573d6000803e3d6000fd5b50505050604051806040016040528083815260200182426103f09190610893565b90523360009081526001602081815260408084206001600160a01b03989098168452968152959091208251815591909401519301929092555050565b336000908152602081815260408083206001600160a01b03851684529091529020805461049b5760405162461bcd60e51b815260206004820152601060248201527f4e6f20746f6b656e73206c6f636b65640000000000000000000000000000000060448201526064016101d0565b60008160010154426104ad91906108ac565b9050600082600201548284600001546104c691906108bf565b6104d091906108d6565b9050826002015482106104e1575081545b600081116105315760405162461bcd60e51b815260206004820152601460248201527f4e6f20746f6b656e7320746f2072656c6561736500000000000000000000000060448201526064016101d0565b8083600001600082825461054591906108ac565b90915550506040517fa9059cbb000000000000000000000000000000000000000000000000000000008152336004820152602481018290526001600160a01b0385169063a9059cbb906044016020604051808303816000875af11580156105b0573d6000803e3d6000fd5b505050506040513d601f19601f820116820180604052508101906105d491906108f8565b50825460000361060e57336000908152602081815260408083206001600160a01b0388168452909152812081815560018101829055600201555b50505050565b600082116106645760405162461bcd60e51b815260206004820152601d60248201527f416d6f756e74206d7573742062652067726561746572207468616e203000000060448201526064016101d0565b600081116106b45760405162461bcd60e51b815260206004820152601f60248201527f4475726174696f6e206d7573742062652067726561746572207468616e20300060448201526064016101d0565b336000908152602081815260408083206001600160a01b0387168452909152902054156107115760405162461bcd60e51b815260206004820152600b60248201526a6c6f636b2065786973747360a81b60448201526064016101d0565b6040516323b872dd60e01b8152336004820152306024820152604481018390526001600160a01b038416906323b872dd906064016020604051808303816000875af1158015610764573d6000803e3d6000fd5b505050506040513d601f19601f8201168201806040525081019061078891906108f8565b50604080516060810182529283524260208085019182528483019384523360009081528082528381206001600160a01b03979097168152959052932091518255915160018201559051600290910155565b80356001600160a01b03811681146107f057600080fd5b919050565b60006020828403121561080757600080fd5b610810826107d9565b9392505050565b60008060006060848603121561082c57600080fd5b610835846107d9565b95602085013595506040909401359392505050565b6000806040838503121561085d57600080fd5b610866836107d9565b9150610874602084016107d9565b90509250929050565b634e487b7160e01b600052601160045260246000fd5b808201808211156108a6576108a661087d565b92915050565b818103818111156108a6576108a661087d565b80820281158282048414176108a6576108a661087d565b6000826108f357634e487b7160e01b600052601260045260246000fd5b500490565b60006020828403121561090a57600080fd5b8151801515811461081057600080fdfea2646970667358221220a578caa5c6f27c3d5d1249726850db2ef56fda1a68a9115e84cb1a36dc52721864736f6c634300081c0033",
  "devdoc": {
    "kind": "dev",
    "methods": {},
    "version": 1
  },
  "userdoc": {
    "kind": "user",
    "methods": {},
    "version": 1
  },
  "storageLayout": {
    "storage": [
      {
        "astId": 9818,
        "contract": "contracts/Locker.sol:Locker",
        "label": "tokenLocks",
        "offset": 0,
        "slot": "0",
        "type": "t_mapping(t_address,t_mapping(t_address,t_struct(TokenLock)10798_storage))"
      },
      {
        "astId": 9825,
        "contract": "contracts/Locker.sol:Locker",
        "label": "nftLocks",
        "offset": 0,
        "slot": "1",
        "type": "t_mapping(t_address,t_mapping(t_address,t_struct(NFTLock)10803_storage))"
      }
    ],
    "types": {
      "t_address": {
        "encoding": "inplace",
        "label": "address",
        "numberOfBytes": "20"
      },
      "t_mapping(t_address,t_mapping(t_address,t_struct(NFTLock)10803_storage))": {
        "encoding": "mapping",
        "key": "t_address",
        "label": "mapping(address => mapping(address => struct ILocker.NFTLock))",
        "numberOfBytes": "32",
        "value": "t_mapping(t_address,t_struct(NFTLock)10803_storage)"
      },
      "t_mapping(t_address,t_mapping(t_address,t_struct(TokenLock)10798_storage))": {
        "encoding": "mapping",
        "key": "t_address",
        "label": "mapping(address => mapping(address => struct ILocker.TokenLock))",
        "numberOfBytes": "32",
        "value": "t_mapping(t_address,t_struct(TokenLock)10798_storage)"
      },
      "t_mapping(t_address,t_struct(NFTLock)10803_storage)": {
        "encoding": "mapping",
        "key": "t_address",
        "label": "mapping(address => struct ILocker.NFTLock)",
        "numberOfBytes": "32",
        "value": "t_struct(NFTLock)10803_storage"
      },
      "t_mapping(t_address,t_struct(TokenLock)10798_storage)": {
        "encoding": "mapping",
        "key": "t_address",
        "label": "mapping(address => struct ILocker.TokenLock)",
        "numberOfBytes": "32",
        "value": "t_struct(TokenLock)10798_storage"
      },
      "t_struct(NFTLock)10803_storage": {
        "encoding": "inplace",
        "label": "struct ILocker.NFTLock",
        "members": [
          {
            "astId": 10800,
            "contract": "contracts/Locker.sol:Locker",
            "label": "tokenId",
            "offset": 0,
            "slot": "0",
            "type": "t_uint256"
          },
          {
            "astId": 10802,
            "contract": "contracts/Locker.sol:Locker",
            "label": "releaseTime",
            "offset": 0,
            "slot": "1",
            "type": "t_uint256"
          }
        ],
        "numberOfBytes": "64"
      },
      "t_struct(TokenLock)10798_storage": {
        "encoding": "inplace",
        "label": "struct ILocker.TokenLock",
        "members": [
          {
            "astId": 10793,
            "contract": "contracts/Locker.sol:Locker",
            "label": "amount",
            "offset": 0,
            "slot": "0",
            "type": "t_uint256"
          },
          {
            "astId": 10795,
            "contract": "contracts/Locker.sol:Locker",
            "label": "startTime",
            "offset": 0,
            "slot": "1",
            "type": "t_uint256"
          },
          {
            "astId": 10797,
            "contract": "contracts/Locker.sol:Locker",
            "label": "duration",
            "offset": 0,
            "slot": "2",
            "type": "t_uint256"
          }
        ],
        "numberOfBytes": "96"
      },
      "t_uint256": {
        "encoding": "inplace",
        "label": "uint256",
        "numberOfBytes": "32"
      }
    }
  }
}