{
  "address": "0xB31D112eD8956641830F9C3E802DFD8039429F31",
  "abi": [
    {
      "inputs": [
        {
          "internalType": "address",
          "name": "_to",
          "type": "address"
        },
        {
          "internalType": "uint256",
          "name": "_value",
          "type": "uint256"
        },
        {
          "internalType": "bytes",
          "name": "_data",
          "type": "bytes"
        },
        {
          "internalType": "address",
          "name": "_caller",
          "type": "address"
        }
      ],
      "name": "checkTransaction",
      "outputs": [
        {
          "internalType": "bool",
          "name": "",
          "type": "bool"
        }
      ],
      "stateMutability": "view",
      "type": "function"
    }
  ],
  "transactionHash": "0x3d207900c12f24d466d43949ae1d9b6f0d9ec3191d622895a75329ad699bbf81",
  "args": [],
  "numDeployments": 1,
  "solcInputHash": "475d7424673ef20688033235605cef58",
  "bytecode": "0x6080604052348015600f57600080fd5b506102ba8061001f6000396000f3fe608060405234801561001057600080fd5b506004361061002b5760003560e01c80631d52dab514610030575b600080fd5b61004361003e3660046101a0565b610057565b604051901515815260200160405180910390f35b60003073ffffffffffffffffffffffffffffffffffffffff8316036100b05760405162461bcd60e51b815260206004820152600a60248201526910ba3c21b432b1b5b2b960b11b60448201526064015b60405180910390fd5b3073ffffffffffffffffffffffffffffffffffffffff8616036101025760405162461bcd60e51b815260206004820152600a60248201526910ba3c21b432b1b5b2b960b11b60448201526064016100a7565b831561013d5760405162461bcd60e51b815260206004820152600a60248201526910ba3c21b432b1b5b2b960b11b60448201526064016100a7565b506001949350505050565b803573ffffffffffffffffffffffffffffffffffffffff8116811461016c57600080fd5b919050565b7f4e487b7100000000000000000000000000000000000000000000000000000000600052604160045260246000fd5b600080600080608085870312156101b657600080fd5b6101bf85610148565b935060208501359250604085013567ffffffffffffffff8111156101e257600080fd5b8501601f810187136101f357600080fd5b803567ffffffffffffffff81111561020d5761020d610171565b604051601f8201601f19908116603f0116810167ffffffffffffffff8111828210171561023c5761023c610171565b60405281815282820160200189101561025457600080fd5b8160208401602083013760006020838301015280945050505061027960608601610148565b90509295919450925056fea264697066735822122006f61e71d87b1b6dcafe56155f7633a35638338beb6628e528aebf3262c39f9064736f6c634300081c0033",
  "devdoc": {
    "kind": "dev",
    "methods": {},
    "version": 1
  },
  "userdoc": {
    "kind": "user",
    "methods": {},
    "version": 1
  },
  "storageLayout": {
    "storage": [],
    "types": null
  }
}