{
  "address": "0x0e71B25e9f12669F15fb22422bD3F66DE82cb134",
  "abi": [
    {
      "inputs": [
        {
          "internalType": "address",
          "name": "spender",
          "type": "address"
        },
        {
          "internalType": "uint256",
          "name": "allowance",
          "type": "uint256"
        },
        {
          "internalType": "uint256",
          "name": "needed",
          "type": "uint256"
        }
      ],
      "name": "ERC20InsufficientAllowance",
      "type": "error"
    },
    {
      "inputs": [
        {
          "internalType": "address",
          "name": "sender",
          "type": "address"
        },
        {
          "internalType": "uint256",
          "name": "balance",
          "type": "uint256"
        },
        {
          "internalType": "uint256",
          "name": "needed",
          "type": "uint256"
        }
      ],
      "name": "ERC20InsufficientBalance",
      "type": "error"
    },
    {
      "inputs": [
        {
          "internalType": "address",
          "name": "approver",
          "type": "address"
        }
      ],
      "name": "ERC20InvalidApprover",
      "type": "error"
    },
    {
      "inputs": [
        {
          "internalType": "address",
          "name": "receiver",
          "type": "address"
        }
      ],
      "name": "ERC20InvalidReceiver",
      "type": "error"
    },
    {
      "inputs": [
        {
          "internalType": "address",
          "name": "sender",
          "type": "address"
        }
      ],
      "name": "ERC20InvalidSender",
      "type": "error"
    },
    {
      "inputs": [
        {
          "internalType": "address",
          "name": "spender",
          "type": "address"
        }
      ],
      "name": "ERC20InvalidSpender",
      "type": "error"
    },
    {
      "inputs": [],
      "name": "InvalidInitialization",
      "type": "error"
    },
    {
      "inputs": [],
      "name": "NotInitializing",
      "type": "error"
    },
    {
      "anonymous": false,
      "inputs": [
        {
          "indexed": true,
          "internalType": "address",
          "name": "owner",
          "type": "address"
        },
        {
          "indexed": true,
          "internalType": "address",
          "name": "spender",
          "type": "address"
        },
        {
          "indexed": false,
          "internalType": "uint256",
          "name": "value",
          "type": "uint256"
        }
      ],
      "name": "Approval",
      "type": "event"
    },
    {
      "anonymous": false,
      "inputs": [
        {
          "indexed": false,
          "internalType": "uint64",
          "name": "version",
          "type": "uint64"
        }
      ],
      "name": "Initialized",
      "type": "event"
    },
    {
      "anonymous": false,
      "inputs": [
        {
          "indexed": true,
          "internalType": "address",
          "name": "from",
          "type": "address"
        },
        {
          "indexed": true,
          "internalType": "address",
          "name": "to",
          "type": "address"
        },
        {
          "indexed": false,
          "internalType": "uint256",
          "name": "value",
          "type": "uint256"
        }
      ],
      "name": "Transfer",
      "type": "event"
    },
    {
      "anonymous": false,
      "inputs": [],
      "name": "Unlocked",
      "type": "event"
    },
    {
      "anonymous": false,
      "inputs": [
        {
          "indexed": true,
          "internalType": "address",
          "name": "_address",
          "type": "address"
        }
      ],
      "name": "Whitelisted",
      "type": "event"
    },
    {
      "inputs": [],
      "name": "adapter",
      "outputs": [
        {
          "internalType": "contract ICLMMAdapter",
          "name": "",
          "type": "address"
        }
      ],
      "stateMutability": "view",
      "type": "function"
    },
    {
      "inputs": [
        {
          "internalType": "address",
          "name": "owner",
          "type": "address"
        },
        {
          "internalType": "address",
          "name": "spender",
          "type": "address"
        }
      ],
      "name": "allowance",
      "outputs": [
        {
          "internalType": "uint256",
          "name": "",
          "type": "uint256"
        }
      ],
      "stateMutability": "view",
      "type": "function"
    },
    {
      "inputs": [
        {
          "internalType": "address",
          "name": "spender",
          "type": "address"
        },
        {
          "internalType": "uint256",
          "name": "value",
          "type": "uint256"
        }
      ],
      "name": "approve",
      "outputs": [
        {
          "internalType": "bool",
          "name": "",
          "type": "bool"
        }
      ],
      "stateMutability": "nonpayable",
      "type": "function"
    },
    {
      "inputs": [
        {
          "internalType": "address",
          "name": "account",
          "type": "address"
        }
      ],
      "name": "balanceOf",
      "outputs": [
        {
          "internalType": "uint256",
          "name": "",
          "type": "uint256"
        }
      ],
      "stateMutability": "view",
      "type": "function"
    },
    {
      "inputs": [
        {
          "internalType": "uint256",
          "name": "value",
          "type": "uint256"
        }
      ],
      "name": "burn",
      "outputs": [],
      "stateMutability": "nonpayable",
      "type": "function"
    },
    {
      "inputs": [
        {
          "internalType": "address",
          "name": "account",
          "type": "address"
        },
        {
          "internalType": "uint256",
          "name": "value",
          "type": "uint256"
        }
      ],
      "name": "burnFrom",
      "outputs": [],
      "stateMutability": "nonpayable",
      "type": "function"
    },
    {
      "inputs": [],
      "name": "decimals",
      "outputs": [
        {
          "internalType": "uint8",
          "name": "",
          "type": "uint8"
        }
      ],
      "stateMutability": "view",
      "type": "function"
    },
    {
      "inputs": [
        {
          "components": [
            {
              "internalType": "string",
              "name": "name",
              "type": "string"
            },
            {
              "internalType": "string",
              "name": "symbol",
              "type": "string"
            },
            {
              "internalType": "string",
              "name": "metadata",
              "type": "string"
            },
            {
              "internalType": "uint256",
              "name": "limitPerWallet",
              "type": "uint256"
            },
            {
              "internalType": "address",
              "name": "adapter",
              "type": "address"
            }
          ],
          "internalType": "struct ITokenTemplate.InitParams",
          "name": "p",
          "type": "tuple"
        }
      ],
      "name": "initialize",
      "outputs": [],
      "stateMutability": "nonpayable",
      "type": "function"
    },
    {
      "inputs": [
        {
          "internalType": "address",
          "name": "_address",
          "type": "address"
        }
      ],
      "name": "isWhitelisted",
      "outputs": [
        {
          "internalType": "bool",
          "name": "",
          "type": "bool"
        }
      ],
      "stateMutability": "view",
      "type": "function"
    },
    {
      "inputs": [],
      "name": "limitPerWallet",
      "outputs": [
        {
          "internalType": "uint256",
          "name": "",
          "type": "uint256"
        }
      ],
      "stateMutability": "view",
      "type": "function"
    },
    {
      "inputs": [],
      "name": "metadata",
      "outputs": [
        {
          "internalType": "string",
          "name": "",
          "type": "string"
        }
      ],
      "stateMutability": "view",
      "type": "function"
    },
    {
      "inputs": [],
      "name": "name",
      "outputs": [
        {
          "internalType": "string",
          "name": "",
          "type": "string"
        }
      ],
      "stateMutability": "view",
      "type": "function"
    },
    {
      "inputs": [],
      "name": "symbol",
      "outputs": [
        {
          "internalType": "string",
          "name": "",
          "type": "string"
        }
      ],
      "stateMutability": "view",
      "type": "function"
    },
    {
      "inputs": [],
      "name": "totalSupply",
      "outputs": [
        {
          "internalType": "uint256",
          "name": "",
          "type": "uint256"
        }
      ],
      "stateMutability": "view",
      "type": "function"
    },
    {
      "inputs": [
        {
          "internalType": "address",
          "name": "to",
          "type": "address"
        },
        {
          "internalType": "uint256",
          "name": "value",
          "type": "uint256"
        }
      ],
      "name": "transfer",
      "outputs": [
        {
          "internalType": "bool",
          "name": "",
          "type": "bool"
        }
      ],
      "stateMutability": "nonpayable",
      "type": "function"
    },
    {
      "inputs": [
        {
          "internalType": "address",
          "name": "from",
          "type": "address"
        },
        {
          "internalType": "address",
          "name": "to",
          "type": "address"
        },
        {
          "internalType": "uint256",
          "name": "value",
          "type": "uint256"
        }
      ],
      "name": "transferFrom",
      "outputs": [
        {
          "internalType": "bool",
          "name": "",
          "type": "bool"
        }
      ],
      "stateMutability": "nonpayable",
      "type": "function"
    },
    {
      "inputs": [],
      "name": "unlocked",
      "outputs": [
        {
          "internalType": "bool",
          "name": "",
          "type": "bool"
        }
      ],
      "stateMutability": "view",
      "type": "function"
    },
    {
      "inputs": [
        {
          "internalType": "address",
          "name": "_address",
          "type": "address"
        }
      ],
      "name": "whitelist",
      "outputs": [],
      "stateMutability": "nonpayable",
      "type": "function"
    },
    {
      "inputs": [
        {
          "internalType": "address",
          "name": "",
          "type": "address"
        }
      ],
      "name": "whitelisted",
      "outputs": [
        {
          "internalType": "bool",
          "name": "",
          "type": "bool"
        }
      ],
      "stateMutability": "view",
      "type": "function"
    },
    {
      "stateMutability": "payable",
      "type": "receive"
    }
  ],
  "transactionHash": "0xf9d255abbf38b01a9a40d01c041dad3655dfeb3a2545e557732cd8381f408d3d",
  "args": [],
  "numDeployments": 1,
  "solcInputHash": "7d040db7e7afc0d9baf89b31441ae2e9",
  "bytecode": "0x6080604052348015600f57600080fd5b5061150b8061001f6000396000f3fe6080604052600436106101485760003560e01c80636a5e2650116100c0578063a620ce5a11610074578063d936547e11610059578063d936547e146103c7578063dd62ed3e146103f7578063f97bcfa61461045c57600080fd5b8063a620ce5a14610391578063a9059cbb146103a757600080fd5b806379cc6790116100a557806379cc67901461033c57806395d89b411461035c5780639b19251a1461037157600080fd5b80636a5e2650146102cd57806370a08231146102e757600080fd5b806323b872dd11610117578063392f37e9116100fc578063392f37e91461025d5780633af32abf1461027257806342966c68146102ab57600080fd5b806323b872dd14610221578063313ce5671461024157600080fd5b806303eadcfc1461015457806306fdde0314610191578063095ea7b3146101b357806318160ddd146101e357600080fd5b3661014f57005b600080fd5b34801561016057600080fd5b50600454610174906001600160a01b031681565b6040516001600160a01b0390911681526020015b60405180910390f35b34801561019d57600080fd5b506101a661047c565b6040516101889190611061565b3480156101bf57600080fd5b506101d36101ce3660046110cb565b610551565b6040519015158152602001610188565b3480156101ef57600080fd5b507f52c63247e1f47db19d5ce0460030c497f067ca4cebf71ba98eeadabe20bace02545b604051908152602001610188565b34801561022d57600080fd5b506101d361023c3660046110f5565b61056b565b34801561024d57600080fd5b5060405160128152602001610188565b34801561026957600080fd5b506101a661058f565b34801561027e57600080fd5b506101d361028d366004611132565b6001600160a01b031660009081526003602052604090205460ff1690565b3480156102b757600080fd5b506102cb6102c6366004611154565b61061d565b005b3480156102d957600080fd5b506001546101d39060ff1681565b3480156102f357600080fd5b50610213610302366004611132565b6001600160a01b031660009081527f52c63247e1f47db19d5ce0460030c497f067ca4cebf71ba98eeadabe20bace00602052604090205490565b34801561034857600080fd5b506102cb6103573660046110cb565b61062a565b34801561036857600080fd5b506101a6610643565b34801561037d57600080fd5b506102cb61038c366004611132565b610694565b34801561039d57600080fd5b5061021360025481565b3480156103b357600080fd5b506101d36103c23660046110cb565b61073f565b3480156103d357600080fd5b506101d36103e2366004611132565b60036020526000908152604090205460ff1681565b34801561040357600080fd5b5061021361041236600461116d565b6001600160a01b0391821660009081527f52c63247e1f47db19d5ce0460030c497f067ca4cebf71ba98eeadabe20bace016020908152604080832093909416825291909152205490565b34801561046857600080fd5b506102cb61047736600461126e565b61074d565b7f52c63247e1f47db19d5ce0460030c497f067ca4cebf71ba98eeadabe20bace0380546060917f52c63247e1f47db19d5ce0460030c497f067ca4cebf71ba98eeadabe20bace00916104cd90611352565b80601f01602080910402602001604051908101604052809291908181526020018280546104f990611352565b80156105465780601f1061051b57610100808354040283529160200191610546565b820191906000526020600020905b81548152906001019060200180831161052957829003601f168201915b505050505091505090565b60003361055f81858561096f565b60019150505b92915050565b600033610579858285610981565b610584858585610a38565b506001949350505050565b6000805461059c90611352565b80601f01602080910402602001604051908101604052809291908181526020018280546105c890611352565b80156106155780601f106105ea57610100808354040283529160200191610615565b820191906000526020600020905b8154815290600101906020018083116105f857829003601f168201915b505050505081565b6106273382610a97565b50565b610635823383610981565b61063f8282610a97565b5050565b7f52c63247e1f47db19d5ce0460030c497f067ca4cebf71ba98eeadabe20bace0480546060917f52c63247e1f47db19d5ce0460030c497f067ca4cebf71ba98eeadabe20bace00916104cd90611352565b6004546001600160a01b031633146106f35760405162461bcd60e51b815260206004820152600a60248201527f2177686974656c6973740000000000000000000000000000000000000000000060448201526064015b60405180910390fd5b6001600160a01b038116600081815260036020526040808220805460ff19166001179055517faab7954e9d246b167ef88aeddad35209ca2489d95a8aeb59e288d9b19fae5a549190a250565b60003361055f818585610a38565b7ff0c57e16840df040f15088dc2f81fe391c3923bec73e23a9662efc9c229c6a00805468010000000000000000810460ff16159067ffffffffffffffff166000811580156107985750825b905060008267ffffffffffffffff1660011480156107b55750303b155b9050811580156107c3575080155b156107fa576040517ff92ee8a900000000000000000000000000000000000000000000000000000000815260040160405180910390fd5b845467ffffffffffffffff19166001178555831561082e57845468ff00000000000000001916680100000000000000001785555b6060860151600255604086015160009061084890826113d3565b506001805460ff191690556080860151600480547fffffffffffffffffffffffff0000000000000000000000000000000000000000166001600160a01b03909216919091179055855160208701516108a09190610acd565b336000818152600360205260408082208054600160ff1991821681179092556004546001600160a01b0316845291832080548316821790559180527f3617319a054d772f909f7c479a2cebe5066e836a939412e32403c99029b92eff8054909116909117905561091c906b033b2e3c9fd0803ce8000000610adf565b831561096757845468ff000000000000000019168555604051600181527fc7f505b2f371ae2175ee4913f4499e1f2633a7b5936321eed1cdaeb6115181d29060200160405180910390a15b505050505050565b61097c8383836001610b15565b505050565b6001600160a01b0383811660009081527f52c63247e1f47db19d5ce0460030c497f067ca4cebf71ba98eeadabe20bace016020908152604080832093861683529290522054600019811015610a325781811015610a23576040517ffb8f41b20000000000000000000000000000000000000000000000000000000081526001600160a01b038416600482015260248101829052604481018390526064016106ea565b610a3284848484036000610b15565b50505050565b6001600160a01b038316610a6257604051634b637e8f60e11b8152600060048201526024016106ea565b6001600160a01b038216610a8c5760405163ec442f0560e01b8152600060048201526024016106ea565b61097c838383610c41565b6001600160a01b038216610ac157604051634b637e8f60e11b8152600060048201526024016106ea565b61063f82600083610c41565b610ad5610e2c565b61063f8282610e95565b6001600160a01b038216610b095760405163ec442f0560e01b8152600060048201526024016106ea565b61063f60008383610c41565b7f52c63247e1f47db19d5ce0460030c497f067ca4cebf71ba98eeadabe20bace006001600160a01b038516610b79576040517fe602df05000000000000000000000000000000000000000000000000000000008152600060048201526024016106ea565b6001600160a01b038416610bbc576040517f94280d62000000000000000000000000000000000000000000000000000000008152600060048201526024016106ea565b6001600160a01b03808616600090815260018301602090815260408083209388168352929052208390558115610c3a57836001600160a01b0316856001600160a01b03167f8c5be1e5ebec7d5bd14f71427d1e84f3dd0314c0f7b2291e5b200ac8c7c3b92585604051610c3191815260200190565b60405180910390a35b5050505050565b610c4c838383610ef8565b60015460ff1661097c57600480546040517f9b083ec900000000000000000000000000000000000000000000000000000000815230928101929092526001600160a01b031690639b083ec990602401602060405180830381865afa158015610cb8573d6000803e3d6000fd5b505050506040513d601f19601f82011682018060405250810190610cdc9190611492565b15610d1b576001805460ff1916811790556040517f19aad37188a1d3921e29eb3c66acf43d81975e107cb650d58cca878627955fd690600090a1505050565b6001600160a01b03831660009081526003602052604090205460ff16610dc4576002546001600160a01b03831660009081527f52c63247e1f47db19d5ce0460030c497f067ca4cebf71ba98eeadabe20bace006020526040902054111561097c5760405162461bcd60e51b815260206004820152601460248201527f216c696d697450657257616c6c65742066726f6d00000000000000000000000060448201526064016106ea565b6001600160a01b03821660009081526003602052604090205460ff1661097c5760405162461bcd60e51b815260206004820152600960248201527f217472616e73666572000000000000000000000000000000000000000000000060448201526064016106ea565b7ff0c57e16840df040f15088dc2f81fe391c3923bec73e23a9662efc9c229c6a005468010000000000000000900460ff16610e93576040517fd7e6bcf800000000000000000000000000000000000000000000000000000000815260040160405180910390fd5b565b610e9d610e2c565b7f52c63247e1f47db19d5ce0460030c497f067ca4cebf71ba98eeadabe20bace007f52c63247e1f47db19d5ce0460030c497f067ca4cebf71ba98eeadabe20bace03610ee984826113d3565b5060048101610a3283826113d3565b7f52c63247e1f47db19d5ce0460030c497f067ca4cebf71ba98eeadabe20bace006001600160a01b038416610f465781816002016000828254610f3b91906114b4565b90915550610fd19050565b6001600160a01b03841660009081526020829052604090205482811015610fb2576040517fe450d38c0000000000000000000000000000000000000000000000000000000081526001600160a01b038616600482015260248101829052604481018490526064016106ea565b6001600160a01b03851660009081526020839052604090209083900390555b6001600160a01b038316610fef57600281018054839003905561100e565b6001600160a01b03831660009081526020829052604090208054830190555b826001600160a01b0316846001600160a01b03167fddf252ad1be2c89b69c2b068fc378daa952ba7f163c4a11628f55a4df523b3ef8460405161105391815260200190565b60405180910390a350505050565b602081526000825180602084015260005b8181101561108f5760208186018101516040868401015201611072565b506000604082850101526040601f19601f83011684010191505092915050565b80356001600160a01b03811681146110c657600080fd5b919050565b600080604083850312156110de57600080fd5b6110e7836110af565b946020939093013593505050565b60008060006060848603121561110a57600080fd5b611113846110af565b9250611121602085016110af565b929592945050506040919091013590565b60006020828403121561114457600080fd5b61114d826110af565b9392505050565b60006020828403121561116657600080fd5b5035919050565b6000806040838503121561118057600080fd5b611189836110af565b9150611197602084016110af565b90509250929050565b634e487b7160e01b600052604160045260246000fd5b60405160a0810167ffffffffffffffff811182821017156111d9576111d96111a0565b60405290565b600082601f8301126111f057600080fd5b813567ffffffffffffffff81111561120a5761120a6111a0565b604051601f8201601f19908116603f0116810167ffffffffffffffff81118282101715611239576112396111a0565b60405281815283820160200185101561125157600080fd5b816020850160208301376000918101602001919091529392505050565b60006020828403121561128057600080fd5b813567ffffffffffffffff81111561129757600080fd5b820160a081850312156112a957600080fd5b6112b16111b6565b813567ffffffffffffffff8111156112c857600080fd5b6112d4868285016111df565b825250602082013567ffffffffffffffff8111156112f157600080fd5b6112fd868285016111df565b602083015250604082013567ffffffffffffffff81111561131d57600080fd5b611329868285016111df565b60408301525060608281013590820152611345608083016110af565b6080820152949350505050565b600181811c9082168061136657607f821691505b60208210810361138657634e487b7160e01b600052602260045260246000fd5b50919050565b601f82111561097c57806000526020600020601f840160051c810160208510156113b35750805b601f840160051c820191505b81811015610c3a57600081556001016113bf565b815167ffffffffffffffff8111156113ed576113ed6111a0565b611401816113fb8454611352565b8461138c565b6020601f821160018114611435576000831561141d5750848201515b600019600385901b1c1916600184901b178455610c3a565b600084815260208120601f198516915b828110156114655787850151825560209485019460019092019101611445565b50848210156114835786840151600019600387901b60f8161c191681555b50505050600190811b01905550565b6000602082840312156114a457600080fd5b8151801515811461114d57600080fd5b8082018082111561056557634e487b7160e01b600052601160045260246000fdfea264697066735822122094bd86741ea4623a91b0f6c0d5b889717843f48db2cae42a23c15d75fac816a264736f6c634300081c0033",
  "devdoc": {
    "errors": {
      "ERC20InsufficientAllowance(address,uint256,uint256)": [
        {
          "details": "Indicates a failure with the `spender`s `allowance`. Used in transfers.",
          "params": {
            "allowance": "Amount of tokens a `spender` is allowed to operate with.",
            "needed": "Minimum amount required to perform a transfer.",
            "spender": "Address that may be allowed to operate on tokens without being their owner."
          }
        }
      ],
      "ERC20InsufficientBalance(address,uint256,uint256)": [
        {
          "details": "Indicates an error related to the current `balance` of a `sender`. Used in transfers.",
          "params": {
            "balance": "Current balance for the interacting account.",
            "needed": "Minimum amount required to perform a transfer.",
            "sender": "Address whose tokens are being transferred."
          }
        }
      ],
      "ERC20InvalidApprover(address)": [
        {
          "details": "Indicates a failure with the `approver` of a token to be approved. Used in approvals.",
          "params": {
            "approver": "Address initiating an approval operation."
          }
        }
      ],
      "ERC20InvalidReceiver(address)": [
        {
          "details": "Indicates a failure with the token `receiver`. Used in transfers.",
          "params": {
            "receiver": "Address to which tokens are being transferred."
          }
        }
      ],
      "ERC20InvalidSender(address)": [
        {
          "details": "Indicates a failure with the token `sender`. Used in transfers.",
          "params": {
            "sender": "Address whose tokens are being transferred."
          }
        }
      ],
      "ERC20InvalidSpender(address)": [
        {
          "details": "Indicates a failure with the `spender` to be approved. Used in approvals.",
          "params": {
            "spender": "Address that may be allowed to operate on tokens without being their owner."
          }
        }
      ],
      "InvalidInitialization()": [
        {
          "details": "The contract is already initialized."
        }
      ],
      "NotInitializing()": [
        {
          "details": "The contract is not initializing."
        }
      ]
    },
    "events": {
      "Approval(address,address,uint256)": {
        "details": "Emitted when the allowance of a `spender` for an `owner` is set by a call to {approve}. `value` is the new allowance."
      },
      "Initialized(uint64)": {
        "details": "Triggered when the contract has been initialized or reinitialized."
      },
      "Transfer(address,address,uint256)": {
        "details": "Emitted when `value` tokens are moved from one account (`from`) to another (`to`). Note that `value` may be zero."
      }
    },
    "kind": "dev",
    "methods": {
      "allowance(address,address)": {
        "details": "See {IERC20-allowance}."
      },
      "approve(address,uint256)": {
        "details": "See {IERC20-approve}. NOTE: If `value` is the maximum `uint256`, the allowance is not updated on `transferFrom`. This is semantically equivalent to an infinite approval. Requirements: - `spender` cannot be the zero address."
      },
      "balanceOf(address)": {
        "details": "See {IERC20-balanceOf}."
      },
      "burn(uint256)": {
        "details": "Destroys a `value` amount of tokens from the caller. See {ERC20-_burn}."
      },
      "burnFrom(address,uint256)": {
        "details": "Destroys a `value` amount of tokens from `account`, deducting from the caller's allowance. See {ERC20-_burn} and {ERC20-allowance}. Requirements: - the caller must have allowance for ``accounts``'s tokens of at least `value`."
      },
      "decimals()": {
        "details": "Returns the number of decimals used to get its user representation. For example, if `decimals` equals `2`, a balance of `505` tokens should be displayed to a user as `5.05` (`505 / 10 ** 2`). Tokens usually opt for a value of 18, imitating the relationship between Ether and Wei. This is the default value returned by this function, unless it's overridden. NOTE: This information is only used for _display_ purposes: it in no way affects any of the arithmetic of the contract, including {IERC20-balanceOf} and {IERC20-transfer}."
      },
      "name()": {
        "details": "Returns the name of the token."
      },
      "symbol()": {
        "details": "Returns the symbol of the token, usually a shorter version of the name."
      },
      "totalSupply()": {
        "details": "See {IERC20-totalSupply}."
      },
      "transfer(address,uint256)": {
        "details": "See {IERC20-transfer}. Requirements: - `to` cannot be the zero address. - the caller must have a balance of at least `value`."
      },
      "transferFrom(address,address,uint256)": {
        "details": "See {IERC20-transferFrom}. Skips emitting an {Approval} event indicating an allowance update. This is not required by the ERC. See {xref-ERC20-_approve-address-address-uint256-bool-}[_approve]. NOTE: Does not update the allowance if the current allowance is the maximum `uint256`. Requirements: - `from` and `to` cannot be the zero address. - `from` must have a balance of at least `value`. - the caller must have allowance for ``from``'s tokens of at least `value`."
      }
    },
    "version": 1
  },
  "userdoc": {
    "kind": "user",
    "methods": {},
    "version": 1
  },
  "storageLayout": {
    "storage": [
      {
        "astId": 17989,
        "contract": "contracts/token/AgentToken.sol:AgentToken",
        "label": "metadata",
        "offset": 0,
        "slot": "0",
        "type": "t_string_storage"
      },
      {
        "astId": 17991,
        "contract": "contracts/token/AgentToken.sol:AgentToken",
        "label": "unlocked",
        "offset": 0,
        "slot": "1",
        "type": "t_bool"
      },
      {
        "astId": 17993,
        "contract": "contracts/token/AgentToken.sol:AgentToken",
        "label": "limitPerWallet",
        "offset": 0,
        "slot": "2",
        "type": "t_uint256"
      },
      {
        "astId": 17997,
        "contract": "contracts/token/AgentToken.sol:AgentToken",
        "label": "whitelisted",
        "offset": 0,
        "slot": "3",
        "type": "t_mapping(t_address,t_bool)"
      },
      {
        "astId": 18000,
        "contract": "contracts/token/AgentToken.sol:AgentToken",
        "label": "adapter",
        "offset": 0,
        "slot": "4",
        "type": "t_contract(ICLMMAdapter)15897"
      }
    ],
    "types": {
      "t_address": {
        "encoding": "inplace",
        "label": "address",
        "numberOfBytes": "20"
      },
      "t_bool": {
        "encoding": "inplace",
        "label": "bool",
        "numberOfBytes": "1"
      },
      "t_contract(ICLMMAdapter)15897": {
        "encoding": "inplace",
        "label": "contract ICLMMAdapter",
        "numberOfBytes": "20"
      },
      "t_mapping(t_address,t_bool)": {
        "encoding": "mapping",
        "key": "t_address",
        "label": "mapping(address => bool)",
        "numberOfBytes": "32",
        "value": "t_bool"
      },
      "t_string_storage": {
        "encoding": "bytes",
        "label": "string",
        "numberOfBytes": "32"
      },
      "t_uint256": {
        "encoding": "inplace",
        "label": "uint256",
        "numberOfBytes": "32"
      }
    }
  }
}