{
  "address": "0x1b774dD9B107dcAcAd64f5dA3755d222B0efFE5A",
  "abi": [
    {
      "inputs": [
        {
          "internalType": "address",
          "name": "nftManager_",
          "type": "address"
        }
      ],
      "stateMutability": "nonpayable",
      "type": "constructor"
    },
    {
      "inputs": [
        {
          "internalType": "address",
          "name": "owner",
          "type": "address"
        }
      ],
      "name": "OwnableInvalidOwner",
      "type": "error"
    },
    {
      "inputs": [
        {
          "internalType": "address",
          "name": "account",
          "type": "address"
        }
      ],
      "name": "OwnableUnauthorizedAccount",
      "type": "error"
    },
    {
      "inputs": [],
      "name": "ReentrancyGuardReentrantCall",
      "type": "error"
    },
    {
      "inputs": [
        {
          "internalType": "address",
          "name": "token",
          "type": "address"
        }
      ],
      "name": "SafeERC20FailedOperation",
      "type": "error"
    },
    {
      "anonymous": false,
      "inputs": [
        {
          "indexed": false,
          "internalType": "address",
          "name": "nftManger",
          "type": "address"
        }
      ],
      "name": "OnAddNftManger",
      "type": "event"
    },
    {
      "anonymous": false,
      "inputs": [
        {
          "indexed": true,
          "internalType": "uint256",
          "name": "lockId",
          "type": "uint256"
        }
      ],
      "name": "OnDecreaseLiquidity",
      "type": "event"
    },
    {
      "anonymous": false,
      "inputs": [
        {
          "indexed": true,
          "internalType": "uint256",
          "name": "lockId",
          "type": "uint256"
        }
      ],
      "name": "OnIncreaseLiquidity",
      "type": "event"
    },
    {
      "anonymous": false,
      "inputs": [
        {
          "indexed": true,
          "internalType": "uint256",
          "name": "lockId",
          "type": "uint256"
        },
        {
          "indexed": false,
          "internalType": "address",
          "name": "nftPositionManager",
          "type": "address"
        },
        {
          "indexed": false,
          "internalType": "address",
          "name": "owner",
          "type": "address"
        },
        {
          "indexed": false,
          "internalType": "uint256",
          "name": "nftId",
          "type": "uint256"
        },
        {
          "indexed": false,
          "internalType": "uint256",
          "name": "endTime",
          "type": "uint256"
        }
      ],
      "name": "OnLock",
      "type": "event"
    },
    {
      "anonymous": false,
      "inputs": [
        {
          "indexed": true,
          "internalType": "uint256",
          "name": "lockId",
          "type": "uint256"
        },
        {
          "indexed": false,
          "internalType": "address",
          "name": "previousOwner",
          "type": "address"
        },
        {
          "indexed": false,
          "internalType": "address",
          "name": "newOwner",
          "type": "address"
        }
      ],
      "name": "OnLockPendingTransfer",
      "type": "event"
    },
    {
      "anonymous": false,
      "inputs": [
        {
          "indexed": true,
          "internalType": "uint256",
          "name": "lockId",
          "type": "uint256"
        },
        {
          "indexed": false,
          "internalType": "address",
          "name": "previousOwner",
          "type": "address"
        },
        {
          "indexed": false,
          "internalType": "address",
          "name": "newOwner",
          "type": "address"
        }
      ],
      "name": "OnLockTransferred",
      "type": "event"
    },
    {
      "anonymous": false,
      "inputs": [
        {
          "indexed": true,
          "internalType": "uint256",
          "name": "lockId",
          "type": "uint256"
        },
        {
          "indexed": false,
          "internalType": "uint256",
          "name": "endTime",
          "type": "uint256"
        }
      ],
      "name": "OnRelock",
      "type": "event"
    },
    {
      "anonymous": false,
      "inputs": [
        {
          "indexed": true,
          "internalType": "uint256",
          "name": "lockId",
          "type": "uint256"
        },
        {
          "indexed": false,
          "internalType": "address",
          "name": "collector",
          "type": "address"
        }
      ],
      "name": "OnSetCollector",
      "type": "event"
    },
    {
      "anonymous": false,
      "inputs": [
        {
          "indexed": true,
          "internalType": "uint256",
          "name": "lockId",
          "type": "uint256"
        },
        {
          "indexed": false,
          "internalType": "address",
          "name": "owner",
          "type": "address"
        },
        {
          "indexed": false,
          "internalType": "uint256",
          "name": "nftId",
          "type": "uint256"
        },
        {
          "indexed": false,
          "internalType": "uint256",
          "name": "unlockedTime",
          "type": "uint256"
        }
      ],
      "name": "OnUnlock",
      "type": "event"
    },
    {
      "anonymous": false,
      "inputs": [
        {
          "indexed": true,
          "internalType": "address",
          "name": "previousOwner",
          "type": "address"
        },
        {
          "indexed": true,
          "internalType": "address",
          "name": "newOwner",
          "type": "address"
        }
      ],
      "name": "OwnershipTransferred",
      "type": "event"
    },
    {
      "inputs": [
        {
          "internalType": "uint256",
          "name": "lockId_",
          "type": "uint256"
        }
      ],
      "name": "acceptLock",
      "outputs": [],
      "stateMutability": "nonpayable",
      "type": "function"
    },
    {
      "inputs": [
        {
          "internalType": "address",
          "name": "nftManager_",
          "type": "address"
        }
      ],
      "name": "addSupportedNftManager",
      "outputs": [],
      "stateMutability": "nonpayable",
      "type": "function"
    },
    {
      "inputs": [
        {
          "internalType": "uint256",
          "name": "lockId_",
          "type": "uint256"
        },
        {
          "internalType": "address",
          "name": "recipient_",
          "type": "address"
        },
        {
          "internalType": "uint128",
          "name": "amount0Max_",
          "type": "uint128"
        },
        {
          "internalType": "uint128",
          "name": "amount1Max_",
          "type": "uint128"
        }
      ],
      "name": "collect",
      "outputs": [
        {
          "internalType": "uint256",
          "name": "amount0",
          "type": "uint256"
        },
        {
          "internalType": "uint256",
          "name": "amount1",
          "type": "uint256"
        }
      ],
      "stateMutability": "nonpayable",
      "type": "function"
    },
    {
      "inputs": [
        {
          "internalType": "uint256",
          "name": "lockId_",
          "type": "uint256"
        },
        {
          "components": [
            {
              "internalType": "uint256",
              "name": "tokenId",
              "type": "uint256"
            },
            {
              "internalType": "uint128",
              "name": "liquidity",
              "type": "uint128"
            },
            {
              "internalType": "uint256",
              "name": "amount0Min",
              "type": "uint256"
            },
            {
              "internalType": "uint256",
              "name": "amount1Min",
              "type": "uint256"
            },
            {
              "internalType": "uint256",
              "name": "deadline",
              "type": "uint256"
            }
          ],
          "internalType": "struct INonfungiblePositionManager.DecreaseLiquidityParams",
          "name": "params",
          "type": "tuple"
        }
      ],
      "name": "decreaseLiquidity",
      "outputs": [
        {
          "internalType": "uint256",
          "name": "amount0",
          "type": "uint256"
        },
        {
          "internalType": "uint256",
          "name": "amount1",
          "type": "uint256"
        }
      ],
      "stateMutability": "payable",
      "type": "function"
    },
    {
      "inputs": [
        {
          "internalType": "address",
          "name": "user",
          "type": "address"
        }
      ],
      "name": "getUserLocks",
      "outputs": [
        {
          "internalType": "uint256[]",
          "name": "lockIds",
          "type": "uint256[]"
        }
      ],
      "stateMutability": "view",
      "type": "function"
    },
    {
      "inputs": [
        {
          "internalType": "uint256",
          "name": "lockId_",
          "type": "uint256"
        },
        {
          "components": [
            {
              "internalType": "uint256",
              "name": "tokenId",
              "type": "uint256"
            },
            {
              "internalType": "uint256",
              "name": "amount0Desired",
              "type": "uint256"
            },
            {
              "internalType": "uint256",
              "name": "amount1Desired",
              "type": "uint256"
            },
            {
              "internalType": "uint256",
              "name": "amount0Min",
              "type": "uint256"
            },
            {
              "internalType": "uint256",
              "name": "amount1Min",
              "type": "uint256"
            },
            {
              "internalType": "uint256",
              "name": "deadline",
              "type": "uint256"
            }
          ],
          "internalType": "struct INonfungiblePositionManager.IncreaseLiquidityParams",
          "name": "params",
          "type": "tuple"
        }
      ],
      "name": "increaseLiquidity",
      "outputs": [
        {
          "internalType": "uint128",
          "name": "liquidity",
          "type": "uint128"
        },
        {
          "internalType": "uint256",
          "name": "amount0",
          "type": "uint256"
        },
        {
          "internalType": "uint256",
          "name": "amount1",
          "type": "uint256"
        }
      ],
      "stateMutability": "payable",
      "type": "function"
    },
    {
      "inputs": [
        {
          "internalType": "contract IERC721",
          "name": "nftManager_",
          "type": "address"
        },
        {
          "internalType": "uint256",
          "name": "nftId_",
          "type": "uint256"
        },
        {
          "internalType": "address",
          "name": "owner_",
          "type": "address"
        },
        {
          "internalType": "address",
          "name": "collector_",
          "type": "address"
        },
        {
          "internalType": "uint256",
          "name": "endTime_",
          "type": "uint256"
        }
      ],
      "name": "lock",
      "outputs": [
        {
          "internalType": "uint256",
          "name": "lockId",
          "type": "uint256"
        }
      ],
      "stateMutability": "nonpayable",
      "type": "function"
    },
    {
      "inputs": [
        {
          "internalType": "uint256",
          "name": "lockId",
          "type": "uint256"
        }
      ],
      "name": "locks",
      "outputs": [
        {
          "internalType": "uint256",
          "name": "lockId",
          "type": "uint256"
        },
        {
          "internalType": "contract INonfungiblePositionManager",
          "name": "nftPositionManager",
          "type": "address"
        },
        {
          "internalType": "address",
          "name": "pendingOwner",
          "type": "address"
        },
        {
          "internalType": "address",
          "name": "owner",
          "type": "address"
        },
        {
          "internalType": "address",
          "name": "collector",
          "type": "address"
        },
        {
          "internalType": "address",
          "name": "pool",
          "type": "address"
        },
        {
          "internalType": "uint256",
          "name": "nftId",
          "type": "uint256"
        },
        {
          "internalType": "uint256",
          "name": "startTime",
          "type": "uint256"
        },
        {
          "internalType": "uint256",
          "name": "endTime",
          "type": "uint256"
        }
      ],
      "stateMutability": "view",
      "type": "function"
    },
    {
      "inputs": [],
      "name": "nextLockId",
      "outputs": [
        {
          "internalType": "uint256",
          "name": "",
          "type": "uint256"
        }
      ],
      "stateMutability": "view",
      "type": "function"
    },
    {
      "inputs": [
        {
          "internalType": "address",
          "name": "",
          "type": "address"
        },
        {
          "internalType": "address",
          "name": "",
          "type": "address"
        },
        {
          "internalType": "uint256",
          "name": "",
          "type": "uint256"
        },
        {
          "internalType": "bytes",
          "name": "",
          "type": "bytes"
        }
      ],
      "name": "onERC721Received",
      "outputs": [
        {
          "internalType": "bytes4",
          "name": "",
          "type": "bytes4"
        }
      ],
      "stateMutability": "pure",
      "type": "function"
    },
    {
      "inputs": [],
      "name": "owner",
      "outputs": [
        {
          "internalType": "address",
          "name": "",
          "type": "address"
        }
      ],
      "stateMutability": "view",
      "type": "function"
    },
    {
      "inputs": [
        {
          "internalType": "uint256",
          "name": "lockId_",
          "type": "uint256"
        },
        {
          "internalType": "uint256",
          "name": "endTime_",
          "type": "uint256"
        }
      ],
      "name": "relock",
      "outputs": [],
      "stateMutability": "nonpayable",
      "type": "function"
    },
    {
      "inputs": [],
      "name": "renounceOwnership",
      "outputs": [],
      "stateMutability": "nonpayable",
      "type": "function"
    },
    {
      "inputs": [
        {
          "internalType": "uint256",
          "name": "lockId_",
          "type": "uint256"
        },
        {
          "internalType": "address",
          "name": "collector_",
          "type": "address"
        }
      ],
      "name": "setCollectAddress",
      "outputs": [],
      "stateMutability": "nonpayable",
      "type": "function"
    },
    {
      "inputs": [
        {
          "internalType": "address",
          "name": "nftManager_",
          "type": "address"
        }
      ],
      "name": "supportedNftManager",
      "outputs": [
        {
          "internalType": "bool",
          "name": "",
          "type": "bool"
        }
      ],
      "stateMutability": "view",
      "type": "function"
    },
    {
      "inputs": [
        {
          "internalType": "uint256",
          "name": "lockId_",
          "type": "uint256"
        },
        {
          "internalType": "address",
          "name": "newOwner_",
          "type": "address"
        }
      ],
      "name": "transferLock",
      "outputs": [],
      "stateMutability": "nonpayable",
      "type": "function"
    },
    {
      "inputs": [
        {
          "internalType": "address",
          "name": "newOwner",
          "type": "address"
        }
      ],
      "name": "transferOwnership",
      "outputs": [],
      "stateMutability": "nonpayable",
      "type": "function"
    },
    {
      "inputs": [
        {
          "internalType": "uint256",
          "name": "lockId_",
          "type": "uint256"
        }
      ],
      "name": "unlock",
      "outputs": [],
      "stateMutability": "nonpayable",
      "type": "function"
    }
  ],
  "transactionHash": "0xf502342744e9a7118fc7c74305fe60be7b2a9256429549ffad5dbd58e7fa0cde",
  "args": [
    "0xAAA78E8C4241990B4ce159E105dA08129345946A"
  ],
  "numDeployments": 1,
  "solcInputHash": "e35638c827b96053a187b87e9e6572fd",
  "bytecode": "0x6080604052600160025534801561001557600080fd5b506040516129b33803806129b383398101604081905261003491610137565b338061005a57604051631e4fbdf760e01b81526000600482015260240160405180910390fd5b6100638161007a565b50600180556100736003826100ca565b5050610167565b600080546001600160a01b038381166001600160a01b0319831681178455604051919092169283917f8be0079c531659141344cd1fd0a4f28419497f9722a3daafe3b4186f6b6457e09190a35050565b60006100df836001600160a01b0384166100e8565b90505b92915050565b600081815260018301602052604081205461012f575081546001818101845560008481526020808220909301849055845484825282860190935260409020919091556100e2565b5060006100e2565b60006020828403121561014957600080fd5b81516001600160a01b038116811461016057600080fd5b9392505050565b61283d806101766000396000f3fe6080604052600436106101295760003560e01c8063715018a6116100a5578063b707a28811610074578063f11478f811610059578063f11478f8146103b6578063f2fde38b146103c9578063f4dadc61146103e957600080fd5b8063b707a28814610366578063f0582e141461038657600080fd5b8063715018a6146102e95780638da5cb5b146102fe578063b2fb30cb14610326578063b48dd3be1461034657600080fd5b806323a35de9116100fc57806359038b79116100e157806359038b79146102855780636198e339146102b35780636518a0b3146102d357600080fd5b806323a35de914610223578063260e12b01461025057600080fd5b806306f9b07a1461012e578063093cf39114610150578063150b7a021461017057806318694155146101eb575b600080fd5b34801561013a57600080fd5b5061014e6101493660046122ea565b6104ba565b005b34801561015c57600080fd5b5061014e61016b366004612307565b61050d565b34801561017c57600080fd5b506101b561018b366004612320565b7f150b7a020000000000000000000000000000000000000000000000000000000095945050505050565b6040517fffffffff0000000000000000000000000000000000000000000000000000000090911681526020015b60405180910390f35b6101fe6101f93660046123c1565b6106b1565b604080516001600160801b0390941684526020840192909252908201526060016101e2565b34801561022f57600080fd5b5061024361023e3660046122ea565b610c57565b6040516101e291906123f9565b34801561025c57600080fd5b5061027061026b366004612451565b610c81565b604080519283526020830191909152016101e2565b34801561029157600080fd5b506102a56102a03660046124a4565b610caf565b6040519081526020016101e2565b3480156102bf57600080fd5b5061014e6102ce366004612307565b611091565b3480156102df57600080fd5b506102a560025481565b3480156102f557600080fd5b5061014e61138e565b34801561030a57600080fd5b506000546040516001600160a01b0390911681526020016101e2565b34801561033257600080fd5b5061014e6103413660046124ff565b6113a2565b34801561035257600080fd5b5061014e610361366004612521565b611543565b34801561037257600080fd5b5061014e610381366004612521565b611654565b34801561039257600080fd5b506103a66103a13660046122ea565b6117b1565b60405190151581526020016101e2565b6102706103c4366004612551565b6117be565b3480156103d557600080fd5b5061014e6103e43660046122ea565b611b1c565b3480156103f557600080fd5b50610462610404366004612307565b600560208190526000918252604090912080546001820154600283015460038401546004850154958501546006860154600787015460089097015495976001600160a01b039586169794861696938616959081169492169290919089565b60408051998a526001600160a01b0398891660208b0152968816968901969096529386166060880152918516608087015290931660a085015260c084019290925260e0830191909152610100820152610120016101e2565b6104c2611b73565b6104cd600382611bb9565b506040516001600160a01b03821681527fff6127f8243e336003b53caa06a61be0a98e6a527cfd0b071872424c5d916e4a9060200160405180910390a150565b60025481106105545760405162461bcd60e51b815260206004820152600e60248201526d125b9d985b1a59081b1bd8dad25960921b60448201526064015b60405180910390fd5b60008181526005602052604090206002015433906001600160a01b031681146105bf5760405162461bcd60e51b815260206004820152601060248201527f4e6f742070656e64696e674f776e657200000000000000000000000000000000604482015260640161054b565b6000828152600560209081526040918290206003015482516001600160a01b0391821681529084169181019190915283917f977f200b2646b170d74b50cb3968700a2cc1884b0f7918d49efdb96302cb1854910160405180910390a26000828152600560209081526040808320600301546001600160a01b031683526006909152902061064c9083611bd5565b506001600160a01b038116600090815260066020526040902061066f9083611be1565b506000918252600560205260409091206002810180546001600160a01b0319908116909155600390910180549091166001600160a01b03909216919091179055565b60008060006106be611bed565b6000858152600560208181526040928390208351610120810185528154815260018201546001600160a01b03908116938201939093526002820154831694810194909452600381015482166060850152600481015482166080850152918201541660a0830152600681015460c08301819052600782015460e08401526008909101546101008301528535146107955760405162461bcd60e51b815260206004820152600e60248201527f496e76616c6964204e46545f4944000000000000000000000000000000000000604482015260640161054b565b60008082602001516001600160a01b03166399fbab888460c001516040518263ffffffff1660e01b81526004016107ce91815260200190565b61018060405180830381865afa1580156107ec573d6000803e3d6000fd5b505050506040513d601f19601f8201168201806040525081019061081091906125bb565b50506040516370a0823160e01b8152306004820152979b5095995060009850506001600160a01b038a1696506370a082319560240194506108519350505050565b602060405180830381865afa15801561086e573d6000803e3d6000fd5b505050506040513d601f19601f82011682018060405250810190610892919061269d565b6040516370a0823160e01b81523060048201529091506000906001600160a01b038416906370a0823190602401602060405180830381865afa1580156108dc573d6000803e3d6000fd5b505050506040513d601f19601f82011682018060405250810190610900919061269d565b905061091b6001600160a01b038516333060208d0135611c30565b6109346001600160a01b038416333060408d0135611c30565b60208581015160405163095ea7b360e01b81526001600160a01b039182166004820152918b0135602483015285169063095ea7b3906044016020604051808303816000875af115801561098b573d6000803e3d6000fd5b505050506040513d601f19601f820116820180604052508101906109af91906126b6565b5060208501516040805163095ea7b360e01b81526001600160a01b039283166004820152908b013560248201529084169063095ea7b3906044016020604051808303816000875af1158015610a08573d6000803e3d6000fd5b505050506040513d601f19601f82011682018060405250810190610a2c91906126b6565b50602080860151604080517f219f5d170000000000000000000000000000000000000000000000000000000081528c356004820152928c013560248401528b0135604483015260608b0135606483015260808b0135608483015260a08b013560a48301526001600160a01b03169063219f5d179060c4016060604051808303816000875af1158015610ac2573d6000803e3d6000fd5b505050506040513d601f19601f82011682018060405250810190610ae691906126d8565b6040516370a0823160e01b8152306004820152929a50909850965060009083906001600160a01b038716906370a0823190602401602060405180830381865afa158015610b37573d6000803e3d6000fd5b505050506040513d601f19601f82011682018060405250810190610b5b919061269d565b610b659190612725565b6040516370a0823160e01b815230600482015290915060009083906001600160a01b038716906370a0823190602401602060405180830381865afa158015610bb1573d6000803e3d6000fd5b505050506040513d601f19601f82011682018060405250810190610bd5919061269d565b610bdf9190612725565b90508115610bfb57610bfb6001600160a01b0387163384611cb2565b8015610c1557610c156001600160a01b0386163383611cb2565b6040518c907f94c501c466d590ed97ef3d786c5fa1a7a4a5227f599f2546df3ea86389b534f990600090a250505050505050610c5060018055565b9250925092565b6001600160a01b0381166000908152600660205260409020606090610c7b90611ce3565b92915050565b600080610c8c611bed565b610c9886868686611cf0565b9092509050610ca660018055565b94509492505050565b60006001600160a01b038316610d075760405162461bcd60e51b815260206004820152601660248201527f436f6c6c6563744164647265737320696e76616c696400000000000000000000604482015260640161054b565b428211610d565760405162461bcd60e51b815260206004820152601660248201527f456e6454696d65203c3d2063757272656e7454696d6500000000000000000000604482015260640161054b565b610d5f866117b1565b610dab5760405162461bcd60e51b815260206004820181905260248201527f6e6674506f736974696f6e4d616e61676572206e6f7420737570706f72746564604482015260640161054b565b6001600160a01b0386166342842e0e336040517fffffffff0000000000000000000000000000000000000000000000000000000060e084901b1681526001600160a01b03909116600482015230602482015260448101889052606401600060405180830381600087803b158015610e2157600080fd5b505af1158015610e35573d6000803e3d6000fd5b505050506000610e458787611ead565b905060006040518061012001604052806002548152602001896001600160a01b0316815260200160006001600160a01b03168152602001876001600160a01b03168152602001866001600160a01b03168152602001836001600160a01b031681526020018881526020014281526020018581525090508060056000836000015181526020019081526020016000206000820151816000015560208201518160010160006101000a8154816001600160a01b0302191690836001600160a01b0316021790555060408201518160020160006101000a8154816001600160a01b0302191690836001600160a01b0316021790555060608201518160030160006101000a8154816001600160a01b0302191690836001600160a01b0316021790555060808201518160040160006101000a8154816001600160a01b0302191690836001600160a01b0316021790555060a08201518160050160006101000a8154816001600160a01b0302191690836001600160a01b0316021790555060c0820151816006015560e08201518160070155610100820151816008015590505061101b816000015160066000896001600160a01b03166001600160a01b03168152602001908152602001600020611be190919063ffffffff16565b506002805490600061102c83612738565b90915550508051604080516001600160a01b03808c16825289166020820152908101899052606081018690527fc1d62c166ce7dbf25ddb2c2746bfe7d0a3a9c465f1190f5b2c1148177508b6619060800160405180910390a251979650505050505050565b8060025481106110d45760405162461bcd60e51b815260206004820152600e60248201526d125b9d985b1a59081b1bd8dad25960921b604482015260640161054b565b6000818152600560205260409020600301546001600160a01b0316331461112e5760405162461bcd60e51b815260206004820152600e60248201526d2737ba103637b1b59037bbb732b960911b604482015260640161054b565b6000828152600560208181526040928390208351610120810185528154815260018201546001600160a01b03908116938201939093526002820154831694810194909452600381015482166060850152600481015482166080850152918201541660a0830152600681015460c0830152600781015460e083015260080154610100820181905242116112025760405162461bcd60e51b815260206004820152600760248201527f4e6f742079657400000000000000000000000000000000000000000000000000604482015260640161054b565b6112198382606001516001600160801b0380611cf0565b50506020810151606082015160c08301516040517f42842e0e0000000000000000000000000000000000000000000000000000000081523060048201526001600160a01b03928316602482015260448101919091529116906342842e0e90606401600060405180830381600087803b15801561129457600080fd5b505af11580156112a8573d6000803e3d6000fd5b50505060608201516001600160a01b031660009081526006602052604090206112d2915084611bd5565b5060608181015160c0830151604080516001600160a01b039093168352602083019190915242828201525185927f462608836dd129ef58f79f0a556fe285515f86287c758ea37a6d2f0a052e3f9d928290030190a25050600090815260056020819052604082208281556001810180546001600160a01b03199081169091556002820180548216905560038201805482169055600482018054821690559181018054909216909155600681018290556007810182905560080155565b611396611b73565b6113a0600061203b565b565b8160025481106113e55760405162461bcd60e51b815260206004820152600e60248201526d125b9d985b1a59081b1bd8dad25960921b604482015260640161054b565b6000818152600560205260409020600301546001600160a01b0316331461143f5760405162461bcd60e51b815260206004820152600e60248201526d2737ba103637b1b59037bbb732b960911b604482015260640161054b565b611447611bed565b6000838152600560205260409020600881015483116114a85760405162461bcd60e51b815260206004820152601960248201527f456e6454696d65203c3d2063757272656e74456e645469656d00000000000000604482015260640161054b565b4283116114f75760405162461bcd60e51b815260206004820152600e60248201527f456e6454696d65203c3d206e6f77000000000000000000000000000000000000604482015260640161054b565b6008810183905560405183815284907f34fc5c313b2fd97c2b528805434c6cb36ab482f72af6117a52208cf18874fdf4906020015b60405180910390a25061153e60018055565b505050565b8160025481106115865760405162461bcd60e51b815260206004820152600e60248201526d125b9d985b1a59081b1bd8dad25960921b604482015260640161054b565b6000818152600560205260409020600301546001600160a01b031633146115e05760405162461bcd60e51b815260206004820152600e60248201526d2737ba103637b1b59037bbb732b960911b604482015260640161054b565b600083815260056020526040902060020180546001600160a01b0319166001600160a01b038416179055827f2ab916445cd7f71b7d22f037187a5e1b6086c455fa944619946ca72b62030ca233604080516001600160a01b03928316815291861660208301520160405180910390a2505050565b8160025481106116975760405162461bcd60e51b815260206004820152600e60248201526d125b9d985b1a59081b1bd8dad25960921b604482015260640161054b565b6000818152600560205260409020600301546001600160a01b031633146116f15760405162461bcd60e51b815260206004820152600e60248201526d2737ba103637b1b59037bbb732b960911b604482015260640161054b565b6116f9611bed565b6001600160a01b03821661174f5760405162461bcd60e51b815260206004820152600c60248201527f434f4c4c4543545f414444520000000000000000000000000000000000000000604482015260640161054b565b6000838152600560209081526040918290206004810180546001600160a01b0319166001600160a01b03871690811790915592519283529185917fbf72678a283f17a2d52bd1bd823f5fcd1f921056005db4c2ac6e29f88da5b754910161152c565b6000610c7b60038361208b565b6000808360025481106118045760405162461bcd60e51b815260206004820152600e60248201526d125b9d985b1a59081b1bd8dad25960921b604482015260640161054b565b6000818152600560205260409020600301546001600160a01b0316331461185e5760405162461bcd60e51b815260206004820152600e60248201526d2737ba103637b1b59037bbb732b960911b604482015260640161054b565b611866611bed565b6000858152600560208181526040928390208351610120810185528154815260018201546001600160a01b03908116938201939093526002820154831694810194909452600381015482166060850152600481015482166080850152918201541660a0830152600681015460c08301819052600782015460e084015260089091015461010083015285351461193d5760405162461bcd60e51b815260206004820152600e60248201527f496e76616c6964204e46545f4944000000000000000000000000000000000000604482015260640161054b565b42816101000151106119915760405162461bcd60e51b815260206004820152600760248201527f4e4f542059455400000000000000000000000000000000000000000000000000604482015260640161054b565b6119a486336001600160801b0380611cf0565b505080602001516001600160a01b0316630c49ccbe866040518263ffffffff1660e01b81526004016119d69190612751565b60408051808303816000875af11580156119f4573d6000803e3d6000fd5b505050506040513d601f19601f82011682018060405250810190611a18919061279a565b6020838101516040805160808101825260c087015181526060808801516001600160a01b039081169583019586526001600160801b03838501818152928401818152945163fc6f786560e01b8152935160048501529551811660248401529051851660448301529151909316606484015293975091955091169063fc6f78659060840160408051808303816000875af1158015611ab9573d6000803e3d6000fd5b505050506040513d601f19601f82011682018060405250810190611add919061279a565b505060405186907fabcec736cf7ffb1e2406a7d4f50174d68847773bd8bf43d6f9ee131a24121a7d90600090a250611b1460018055565b509250929050565b611b24611b73565b6001600160a01b038116611b67576040517f1e4fbdf70000000000000000000000000000000000000000000000000000000081526000600482015260240161054b565b611b708161203b565b50565b6000546001600160a01b031633146113a0576040517f118cdaa700000000000000000000000000000000000000000000000000000000815233600482015260240161054b565b6000611bce836001600160a01b0384166120ad565b9392505050565b6000611bce83836120fc565b6000611bce83836120ad565b600260015403611c29576040517f3ee5aeb500000000000000000000000000000000000000000000000000000000815260040160405180910390fd5b6002600155565b6040516001600160a01b038481166024830152838116604483015260648201839052611cac9186918216906323b872dd906084015b604051602081830303815290604052915060e01b6020820180517bffffffffffffffffffffffffffffffffffffffffffffffffffffffff83818316178352505050506121ef565b50505050565b6040516001600160a01b0383811660248301526044820183905261153e91859182169063a9059cbb90606401611c65565b60606000611bce83612279565b60008481526005602081815260408084208151610120810183528154815260018201546001600160a01b0390811694820194909452600282015484169281019290925260038101548316606083018190526004820154841660808401529381015490921660a0820152600682015460c0820152600782015460e08201526008909101546101008201528291331480611d94575060808101516001600160a01b031633145b611de05760405162461bcd60e51b815260206004820152600960248201527f4e6f74206f776e65720000000000000000000000000000000000000000000000604482015260640161054b565b6020808201516040805160808101825260c085015181526001600160a01b038a81169482019485526001600160801b03808b168385019081528a821660608501908152945163fc6f786560e01b81529351600485015295518216602484015294518516604483015291519093166064840152169063fc6f78659060840160408051808303816000875af1158015611e7b573d6000803e3d6000fd5b505050506040513d601f19601f82011682018060405250810190611e9f919061279a565b909890975095505050505050565b600080600080856001600160a01b03166399fbab88866040518263ffffffff1660e01b8152600401611ee191815260200190565b61018060405180830381865afa158015611eff573d6000803e3d6000fd5b505050506040513d601f19601f82011682018060405250810190611f2391906125bb565b5050505050505094509450945050506000866001600160a01b031663c45a01556040518163ffffffff1660e01b8152600401602060405180830381865afa158015611f72573d6000803e3d6000fd5b505050506040513d601f19601f82011682018060405250810190611f9691906127be565b6040517f1698ee820000000000000000000000000000000000000000000000000000000081526001600160a01b038681166004830152858116602483015262ffffff8516604483015291925090821690631698ee8290606401602060405180830381865afa15801561200c573d6000803e3d6000fd5b505050506040513d601f19601f8201168201806040525081019061203091906127be565b979650505050505050565b600080546001600160a01b038381166001600160a01b0319831681178455604051919092169283917f8be0079c531659141344cd1fd0a4f28419497f9722a3daafe3b4186f6b6457e09190a35050565b6001600160a01b03811660009081526001830160205260408120541515611bce565b60008181526001830160205260408120546120f457508154600181810184556000848152602080822090930184905584548482528286019093526040902091909155610c7b565b506000610c7b565b600081815260018301602052604081205480156121e5576000612120600183612725565b855490915060009061213490600190612725565b9050808214612199576000866000018281548110612154576121546127db565b9060005260206000200154905080876000018481548110612177576121776127db565b6000918252602080832090910192909255918252600188019052604090208390555b85548690806121aa576121aa6127f1565b600190038181906000526020600020016000905590558560010160008681526020019081526020016000206000905560019350505050610c7b565b6000915050610c7b565b600080602060008451602086016000885af180612212576040513d6000823e3d81fd5b50506000513d9150811561222a578060011415612237565b6001600160a01b0384163b155b15611cac576040517f5274afe70000000000000000000000000000000000000000000000000000000081526001600160a01b038516600482015260240161054b565b6060816000018054806020026020016040519081016040528092919081815260200182805480156122c957602002820191906000526020600020905b8154815260200190600101908083116122b5575b50505050509050919050565b6001600160a01b0381168114611b7057600080fd5b6000602082840312156122fc57600080fd5b8135611bce816122d5565b60006020828403121561231957600080fd5b5035919050565b60008060008060006080868803121561233857600080fd5b8535612343816122d5565b94506020860135612353816122d5565b935060408601359250606086013567ffffffffffffffff81111561237657600080fd5b8601601f8101881361238757600080fd5b803567ffffffffffffffff81111561239e57600080fd5b8860208284010111156123b057600080fd5b959894975092955050506020019190565b60008082840360e08112156123d557600080fd5b8335925060c0601f19820112156123eb57600080fd5b506020830190509250929050565b602080825282518282018190526000918401906040840190835b81811015612431578351835260209384019390920191600101612413565b509095945050505050565b6001600160801b0381168114611b7057600080fd5b6000806000806080858703121561246757600080fd5b843593506020850135612479816122d5565b925060408501356124898161243c565b915060608501356124998161243c565b939692955090935050565b600080600080600060a086880312156124bc57600080fd5b85356124c7816122d5565b94506020860135935060408601356124de816122d5565b925060608601356124ee816122d5565b949793965091946080013592915050565b6000806040838503121561251257600080fd5b50508035926020909101359150565b6000806040838503121561253457600080fd5b823591506020830135612546816122d5565b809150509250929050565b60008082840360c081121561256557600080fd5b8335925060a0601f19820112156123eb57600080fd5b8051612586816122d5565b919050565b805162ffffff8116811461258657600080fd5b8051600281900b811461258657600080fd5b80516125868161243c565b6000806000806000806000806000806000806101808d8f0312156125de57600080fd5b8c516bffffffffffffffffffffffff811681146125fa57600080fd5b9b5061260860208e0161257b565b9a5061261660408e0161257b565b995061262460608e0161257b565b985061263260808e0161258b565b975061264060a08e0161259e565b965061264e60c08e0161259e565b955061265c60e08e016125b0565b6101008e01516101208f01519196509450925061267c6101408e016125b0565b915061268b6101608e016125b0565b90509295989b509295989b509295989b565b6000602082840312156126af57600080fd5b5051919050565b6000602082840312156126c857600080fd5b81518015158114611bce57600080fd5b6000806000606084860312156126ed57600080fd5b83516126f88161243c565b602085015160409095015190969495509392505050565b634e487b7160e01b600052601160045260246000fd5b81810381811115610c7b57610c7b61270f565b60006001820161274a5761274a61270f565b5060010190565b8135815260a0810160208301356127678161243c565b6001600160801b031660208301526040838101359083015260608084013590830152608092830135929091019190915290565b600080604083850312156127ad57600080fd5b505080516020909101519092909150565b6000602082840312156127d057600080fd5b8151611bce816122d5565b634e487b7160e01b600052603260045260246000fd5b634e487b7160e01b600052603160045260246000fdfea2646970667358221220cc0ef972b4520a273bbca408dd31e9dc07b0a2b297edfe2f7ccba91dce2d7e1364736f6c634300081c0033",
  "devdoc": {
    "details": "Implements the IFreeUniV3LPLocker interface",
    "errors": {
      "OwnableInvalidOwner(address)": [
        {
          "details": "The owner is not a valid owner account. (eg. `address(0)`)"
        }
      ],
      "OwnableUnauthorizedAccount(address)": [
        {
          "details": "The caller account is not authorized to perform an operation."
        }
      ],
      "ReentrancyGuardReentrantCall()": [
        {
          "details": "Unauthorized reentrant call."
        }
      ],
      "SafeERC20FailedOperation(address)": [
        {
          "details": "An operation with an ERC-20 token failed."
        }
      ]
    },
    "kind": "dev",
    "methods": {
      "acceptLock(uint256)": {
        "params": {
          "lockId_": "The ID of the lock to accept"
        }
      },
      "addSupportedNftManager(address)": {
        "params": {
          "nftManager_": "The address of the NFT position manager to add"
        }
      },
      "collect(uint256,address,uint128,uint128)": {
        "params": {
          "amount0Max_": "The maximum amount of token0 to collect",
          "amount1Max_": "The maximum amount of token1 to collect",
          "lockId_": "The ID of the lock",
          "recipient_": "The address to receive the fees"
        },
        "returns": {
          "amount0": "The amount of token0 collected",
          "amount1": "The amount of token1 collected"
        }
      },
      "constructor": {
        "params": {
          "nftManager_": "The address of the initial NFT position manager"
        }
      },
      "decreaseLiquidity(uint256,(uint256,uint128,uint256,uint256,uint256))": {
        "params": {
          "lockId_": "The ID of the lock",
          "params": "The parameters for decreasing liquidity"
        },
        "returns": {
          "amount0": "The amount of token0 received",
          "amount1": "The amount of token1 received"
        }
      },
      "getUserLocks(address)": {
        "params": {
          "user": "The address of the user"
        },
        "returns": {
          "lockIds": "An array of lock IDs"
        }
      },
      "increaseLiquidity(uint256,(uint256,uint256,uint256,uint256,uint256,uint256))": {
        "params": {
          "lockId_": "The ID of the lock",
          "params": "The parameters for increasing liquidity"
        },
        "returns": {
          "amount0": "The amount of token0 added",
          "amount1": "The amount of token1 added",
          "liquidity": "The amount of liquidity added"
        }
      },
      "lock(address,uint256,address,address,uint256)": {
        "params": {
          "collector_": "The address that can collect fees",
          "endTime_": "The timestamp when the lock expires",
          "nftId_": "The ID of the NFT position",
          "nftManager_": "The NFT position manager contract",
          "owner_": "The address that will own the locked position"
        },
        "returns": {
          "lockId": "The ID of the created lock"
        }
      },
      "owner()": {
        "details": "Returns the address of the current owner."
      },
      "relock(uint256,uint256)": {
        "params": {
          "endTime_": "The new end time for the lock",
          "lockId_": "The ID of the lock"
        }
      },
      "renounceOwnership()": {
        "details": "Leaves the contract without owner. It will not be possible to call `onlyOwner` functions. Can only be called by the current owner. NOTE: Renouncing ownership will leave the contract without an owner, thereby disabling any functionality that is only available to the owner."
      },
      "setCollectAddress(uint256,address)": {
        "params": {
          "collector_": "The address that can collect fees",
          "lockId_": "The ID of the lock"
        }
      },
      "supportedNftManager(address)": {
        "params": {
          "nftManager_": "The address of the NFT position manager to check"
        },
        "returns": {
          "_0": "True if the manager is supported, false otherwise"
        }
      },
      "transferLock(uint256,address)": {
        "params": {
          "lockId_": "The ID of the lock to transfer",
          "newOwner_": "The address of the new owner"
        }
      },
      "transferOwnership(address)": {
        "details": "Transfers ownership of the contract to a new account (`newOwner`). Can only be called by the current owner."
      },
      "unlock(uint256)": {
        "params": {
          "lockId_": "The ID of the lock to unlock"
        }
      }
    },
    "stateVariables": {
      "nextLockId": {
        "return": "The next lock ID",
        "returns": {
          "_0": "The next lock ID"
        }
      }
    },
    "title": "FreeUniV3LPLocker",
    "version": 1
  },
  "userdoc": {
    "kind": "user",
    "methods": {
      "acceptLock(uint256)": {
        "notice": "Accepts a lock transfer"
      },
      "addSupportedNftManager(address)": {
        "notice": "Adds a new supported NFT position manager"
      },
      "collect(uint256,address,uint128,uint128)": {
        "notice": "Collects fees from a locked position"
      },
      "constructor": {
        "notice": "Constructor"
      },
      "decreaseLiquidity(uint256,(uint256,uint128,uint256,uint256,uint256))": {
        "notice": "Decreases liquidity in a locked position"
      },
      "getUserLocks(address)": {
        "notice": "Returns all lock IDs owned by a user"
      },
      "increaseLiquidity(uint256,(uint256,uint256,uint256,uint256,uint256,uint256))": {
        "notice": "Increases liquidity in a locked position"
      },
      "lock(address,uint256,address,address,uint256)": {
        "notice": "Locks a Uniswap V3 LP position"
      },
      "locks(uint256)": {
        "notice": "lock details"
      },
      "nextLockId()": {
        "notice": "Returns the next available lock ID"
      },
      "relock(uint256,uint256)": {
        "notice": "Extends the lock period of a position"
      },
      "setCollectAddress(uint256,address)": {
        "notice": "Sets the address that can collect fees from a locked position"
      },
      "supportedNftManager(address)": {
        "notice": "Checks if an NFT position manager is supported"
      },
      "transferLock(uint256,address)": {
        "notice": "Transfers a lock to a new owner"
      },
      "unlock(uint256)": {
        "notice": "Unlocks a position after the lock period has ended"
      }
    },
    "notice": "Contract for locking Uniswap V3 LP positions",
    "version": 1
  },
  "storageLayout": {
    "storage": [
      {
        "astId": 3165,
        "contract": "contracts/locker/FreeUniV3LPLocker.sol:FreeUniV3LPLocker",
        "label": "_owner",
        "offset": 0,
        "slot": "0",
        "type": "t_address"
      },
      {
        "astId": 6696,
        "contract": "contracts/locker/FreeUniV3LPLocker.sol:FreeUniV3LPLocker",
        "label": "_status",
        "offset": 0,
        "slot": "1",
        "type": "t_uint256"
      },
      {
        "astId": 22752,
        "contract": "contracts/locker/FreeUniV3LPLocker.sol:FreeUniV3LPLocker",
        "label": "nextLockId",
        "offset": 0,
        "slot": "2",
        "type": "t_uint256"
      },
      {
        "astId": 22756,
        "contract": "contracts/locker/FreeUniV3LPLocker.sol:FreeUniV3LPLocker",
        "label": "nftManagers",
        "offset": 0,
        "slot": "3",
        "type": "t_struct(AddressSet)11955_storage"
      },
      {
        "astId": 22762,
        "contract": "contracts/locker/FreeUniV3LPLocker.sol:FreeUniV3LPLocker",
        "label": "locks",
        "offset": 0,
        "slot": "5",
        "type": "t_mapping(t_uint256,t_struct(LockInfo)18035_storage)"
      },
      {
        "astId": 22768,
        "contract": "contracts/locker/FreeUniV3LPLocker.sol:FreeUniV3LPLocker",
        "label": "userLocks",
        "offset": 0,
        "slot": "6",
        "type": "t_mapping(t_address,t_struct(UintSet)12112_storage)"
      }
    ],
    "types": {
      "t_address": {
        "encoding": "inplace",
        "label": "address",
        "numberOfBytes": "20"
      },
      "t_array(t_bytes32)dyn_storage": {
        "base": "t_bytes32",
        "encoding": "dynamic_array",
        "label": "bytes32[]",
        "numberOfBytes": "32"
      },
      "t_bytes32": {
        "encoding": "inplace",
        "label": "bytes32",
        "numberOfBytes": "32"
      },
      "t_contract(INonfungiblePositionManager)19038": {
        "encoding": "inplace",
        "label": "contract INonfungiblePositionManager",
        "numberOfBytes": "20"
      },
      "t_mapping(t_address,t_struct(UintSet)12112_storage)": {
        "encoding": "mapping",
        "key": "t_address",
        "label": "mapping(address => struct EnumerableSet.UintSet)",
        "numberOfBytes": "32",
        "value": "t_struct(UintSet)12112_storage"
      },
      "t_mapping(t_bytes32,t_uint256)": {
        "encoding": "mapping",
        "key": "t_bytes32",
        "label": "mapping(bytes32 => uint256)",
        "numberOfBytes": "32",
        "value": "t_uint256"
      },
      "t_mapping(t_uint256,t_struct(LockInfo)18035_storage)": {
        "encoding": "mapping",
        "key": "t_uint256",
        "label": "mapping(uint256 => struct IFreeUniV3LPLocker.LockInfo)",
        "numberOfBytes": "32",
        "value": "t_struct(LockInfo)18035_storage"
      },
      "t_struct(AddressSet)11955_storage": {
        "encoding": "inplace",
        "label": "struct EnumerableSet.AddressSet",
        "members": [
          {
            "astId": 11954,
            "contract": "contracts/locker/FreeUniV3LPLocker.sol:FreeUniV3LPLocker",
            "label": "_inner",
            "offset": 0,
            "slot": "0",
            "type": "t_struct(Set)11640_storage"
          }
        ],
        "numberOfBytes": "64"
      },
      "t_struct(LockInfo)18035_storage": {
        "encoding": "inplace",
        "label": "struct IFreeUniV3LPLocker.LockInfo",
        "members": [
          {
            "astId": 18017,
            "contract": "contracts/locker/FreeUniV3LPLocker.sol:FreeUniV3LPLocker",
            "label": "lockId",
            "offset": 0,
            "slot": "0",
            "type": "t_uint256"
          },
          {
            "astId": 18020,
            "contract": "contracts/locker/FreeUniV3LPLocker.sol:FreeUniV3LPLocker",
            "label": "nftPositionManager",
            "offset": 0,
            "slot": "1",
            "type": "t_contract(INonfungiblePositionManager)19038"
          },
          {
            "astId": 18022,
            "contract": "contracts/locker/FreeUniV3LPLocker.sol:FreeUniV3LPLocker",
            "label": "pendingOwner",
            "offset": 0,
            "slot": "2",
            "type": "t_address"
          },
          {
            "astId": 18024,
            "contract": "contracts/locker/FreeUniV3LPLocker.sol:FreeUniV3LPLocker",
            "label": "owner",
            "offset": 0,
            "slot": "3",
            "type": "t_address"
          },
          {
            "astId": 18026,
            "contract": "contracts/locker/FreeUniV3LPLocker.sol:FreeUniV3LPLocker",
            "label": "collector",
            "offset": 0,
            "slot": "4",
            "type": "t_address"
          },
          {
            "astId": 18028,
            "contract": "contracts/locker/FreeUniV3LPLocker.sol:FreeUniV3LPLocker",
            "label": "pool",
            "offset": 0,
            "slot": "5",
            "type": "t_address"
          },
          {
            "astId": 18030,
            "contract": "contracts/locker/FreeUniV3LPLocker.sol:FreeUniV3LPLocker",
            "label": "nftId",
            "offset": 0,
            "slot": "6",
            "type": "t_uint256"
          },
          {
            "astId": 18032,
            "contract": "contracts/locker/FreeUniV3LPLocker.sol:FreeUniV3LPLocker",
            "label": "startTime",
            "offset": 0,
            "slot": "7",
            "type": "t_uint256"
          },
          {
            "astId": 18034,
            "contract": "contracts/locker/FreeUniV3LPLocker.sol:FreeUniV3LPLocker",
            "label": "endTime",
            "offset": 0,
            "slot": "8",
            "type": "t_uint256"
          }
        ],
        "numberOfBytes": "288"
      },
      "t_struct(Set)11640_storage": {
        "encoding": "inplace",
        "label": "struct EnumerableSet.Set",
        "members": [
          {
            "astId": 11635,
            "contract": "contracts/locker/FreeUniV3LPLocker.sol:FreeUniV3LPLocker",
            "label": "_values",
            "offset": 0,
            "slot": "0",
            "type": "t_array(t_bytes32)dyn_storage"
          },
          {
            "astId": 11639,
            "contract": "contracts/locker/FreeUniV3LPLocker.sol:FreeUniV3LPLocker",
            "label": "_positions",
            "offset": 0,
            "slot": "1",
            "type": "t_mapping(t_bytes32,t_uint256)"
          }
        ],
        "numberOfBytes": "64"
      },
      "t_struct(UintSet)12112_storage": {
        "encoding": "inplace",
        "label": "struct EnumerableSet.UintSet",
        "members": [
          {
            "astId": 12111,
            "contract": "contracts/locker/FreeUniV3LPLocker.sol:FreeUniV3LPLocker",
            "label": "_inner",
            "offset": 0,
            "slot": "0",
            "type": "t_struct(Set)11640_storage"
          }
        ],
        "numberOfBytes": "64"
      },
      "t_uint256": {
        "encoding": "inplace",
        "label": "uint256",
        "numberOfBytes": "32"
      }
    }
  }
}