{
  "address": "0x572971B91584c613B217455461Bade4B35206aF0",
  "abi": [
    {
      "inputs": [
        {
          "internalType": "string",
          "name": "_name",
          "type": "string"
        },
        {
          "internalType": "string",
          "name": "_symbol",
          "type": "string"
        },
        {
          "internalType": "uint8",
          "name": "_decimals",
          "type": "uint8"
        }
      ],
      "stateMutability": "nonpayable",
      "type": "constructor"
    },
    {
      "inputs": [
        {
          "internalType": "address",
          "name": "spender",
          "type": "address"
        },
        {
          "internalType": "uint256",
          "name": "allowance",
          "type": "uint256"
        },
        {
          "internalType": "uint256",
          "name": "needed",
          "type": "uint256"
        }
      ],
      "name": "ERC20InsufficientAllowance",
      "type": "error"
    },
    {
      "inputs": [
        {
          "internalType": "address",
          "name": "sender",
          "type": "address"
        },
        {
          "internalType": "uint256",
          "name": "balance",
          "type": "uint256"
        },
        {
          "internalType": "uint256",
          "name": "needed",
          "type": "uint256"
        }
      ],
      "name": "ERC20InsufficientBalance",
      "type": "error"
    },
    {
      "inputs": [
        {
          "internalType": "address",
          "name": "approver",
          "type": "address"
        }
      ],
      "name": "ERC20InvalidApprover",
      "type": "error"
    },
    {
      "inputs": [
        {
          "internalType": "address",
          "name": "receiver",
          "type": "address"
        }
      ],
      "name": "ERC20InvalidReceiver",
      "type": "error"
    },
    {
      "inputs": [
        {
          "internalType": "address",
          "name": "sender",
          "type": "address"
        }
      ],
      "name": "ERC20InvalidSender",
      "type": "error"
    },
    {
      "inputs": [
        {
          "internalType": "address",
          "name": "spender",
          "type": "address"
        }
      ],
      "name": "ERC20InvalidSpender",
      "type": "error"
    },
    {
      "anonymous": false,
      "inputs": [
        {
          "indexed": true,
          "internalType": "address",
          "name": "owner",
          "type": "address"
        },
        {
          "indexed": true,
          "internalType": "address",
          "name": "spender",
          "type": "address"
        },
        {
          "indexed": false,
          "internalType": "uint256",
          "name": "value",
          "type": "uint256"
        }
      ],
      "name": "Approval",
      "type": "event"
    },
    {
      "anonymous": false,
      "inputs": [
        {
          "indexed": true,
          "internalType": "address",
          "name": "from",
          "type": "address"
        },
        {
          "indexed": true,
          "internalType": "address",
          "name": "to",
          "type": "address"
        },
        {
          "indexed": false,
          "internalType": "uint256",
          "name": "value",
          "type": "uint256"
        }
      ],
      "name": "Transfer",
      "type": "event"
    },
    {
      "inputs": [
        {
          "internalType": "address",
          "name": "owner",
          "type": "address"
        },
        {
          "internalType": "address",
          "name": "spender",
          "type": "address"
        }
      ],
      "name": "allowance",
      "outputs": [
        {
          "internalType": "uint256",
          "name": "",
          "type": "uint256"
        }
      ],
      "stateMutability": "view",
      "type": "function"
    },
    {
      "inputs": [
        {
          "internalType": "address",
          "name": "spender",
          "type": "address"
        },
        {
          "internalType": "uint256",
          "name": "value",
          "type": "uint256"
        }
      ],
      "name": "approve",
      "outputs": [
        {
          "internalType": "bool",
          "name": "",
          "type": "bool"
        }
      ],
      "stateMutability": "nonpayable",
      "type": "function"
    },
    {
      "inputs": [
        {
          "internalType": "address",
          "name": "account",
          "type": "address"
        }
      ],
      "name": "balanceOf",
      "outputs": [
        {
          "internalType": "uint256",
          "name": "",
          "type": "uint256"
        }
      ],
      "stateMutability": "view",
      "type": "function"
    },
    {
      "inputs": [
        {
          "internalType": "address",
          "name": "_to",
          "type": "address"
        },
        {
          "internalType": "uint256",
          "name": "_amount",
          "type": "uint256"
        }
      ],
      "name": "burn",
      "outputs": [],
      "stateMutability": "nonpayable",
      "type": "function"
    },
    {
      "inputs": [],
      "name": "decimals",
      "outputs": [
        {
          "internalType": "uint8",
          "name": "",
          "type": "uint8"
        }
      ],
      "stateMutability": "view",
      "type": "function"
    },
    {
      "inputs": [],
      "name": "decimals_",
      "outputs": [
        {
          "internalType": "uint8",
          "name": "",
          "type": "uint8"
        }
      ],
      "stateMutability": "view",
      "type": "function"
    },
    {
      "inputs": [
        {
          "internalType": "address",
          "name": "_to",
          "type": "address"
        },
        {
          "internalType": "uint256",
          "name": "_amount",
          "type": "uint256"
        }
      ],
      "name": "mint",
      "outputs": [],
      "stateMutability": "nonpayable",
      "type": "function"
    },
    {
      "inputs": [],
      "name": "name",
      "outputs": [
        {
          "internalType": "string",
          "name": "",
          "type": "string"
        }
      ],
      "stateMutability": "view",
      "type": "function"
    },
    {
      "inputs": [],
      "name": "symbol",
      "outputs": [
        {
          "internalType": "string",
          "name": "",
          "type": "string"
        }
      ],
      "stateMutability": "view",
      "type": "function"
    },
    {
      "inputs": [],
      "name": "totalSupply",
      "outputs": [
        {
          "internalType": "uint256",
          "name": "",
          "type": "uint256"
        }
      ],
      "stateMutability": "view",
      "type": "function"
    },
    {
      "inputs": [
        {
          "internalType": "address",
          "name": "to",
          "type": "address"
        },
        {
          "internalType": "uint256",
          "name": "value",
          "type": "uint256"
        }
      ],
      "name": "transfer",
      "outputs": [
        {
          "internalType": "bool",
          "name": "",
          "type": "bool"
        }
      ],
      "stateMutability": "nonpayable",
      "type": "function"
    },
    {
      "inputs": [
        {
          "internalType": "address",
          "name": "from",
          "type": "address"
        },
        {
          "internalType": "address",
          "name": "to",
          "type": "address"
        },
        {
          "internalType": "uint256",
          "name": "value",
          "type": "uint256"
        }
      ],
      "name": "transferFrom",
      "outputs": [
        {
          "internalType": "bool",
          "name": "",
          "type": "bool"
        }
      ],
      "stateMutability": "nonpayable",
      "type": "function"
    }
  ],
  "transactionHash": "0xdc69125409d41c293e256924fdf3791313fc33330783affb25c64acebe9abce9",
  "args": [
    "TEST MAHA",
    "TMAHA",
    18
  ],
  "numDeployments": 1,
  "solcInputHash": "5b663e734811a6fb3abc2c479b0ef212",
  "bytecode": "0x608060405234801561001057600080fd5b50604051610b86380380610b8683398101604081905261002f91610123565b8282600361003d838261022f565b50600461004a828261022f565b50506005805460ff191660ff9390931692909217909155506102ed915050565b634e487b7160e01b600052604160045260246000fd5b600082601f83011261009157600080fd5b81516001600160401b038111156100aa576100aa61006a565b604051601f8201601f19908116603f011681016001600160401b03811182821017156100d8576100d861006a565b6040528181528382016020018510156100f057600080fd5b60005b8281101561010f576020818601810151838301820152016100f3565b506000918101602001919091529392505050565b60008060006060848603121561013857600080fd5b83516001600160401b0381111561014e57600080fd5b61015a86828701610080565b602086015190945090506001600160401b0381111561017857600080fd5b61018486828701610080565b925050604084015160ff8116811461019b57600080fd5b809150509250925092565b600181811c908216806101ba57607f821691505b6020821081036101da57634e487b7160e01b600052602260045260246000fd5b50919050565b601f82111561022a57806000526020600020601f840160051c810160208510156102075750805b601f840160051c820191505b818110156102275760008155600101610213565b50505b505050565b81516001600160401b038111156102485761024861006a565b61025c8161025684546101a6565b846101e0565b6020601f82116001811461029057600083156102785750848201515b600019600385901b1c1916600184901b178455610227565b600084815260208120601f198516915b828110156102c057878501518255602094850194600190920191016102a0565b50848210156102de5786840151600019600387901b60f8161c191681555b50505050600190811b01905550565b61088a806102fc6000396000f3fe608060405234801561001057600080fd5b50600436106100d45760003560e01c806370a0823111610081578063a9059cbb1161005b578063a9059cbb146101b1578063dd62ed3e146101c4578063f785ef72146101fd57600080fd5b806370a082311461016d57806395d89b41146101965780639dc29fac1461019e57600080fd5b806323b872dd116100b257806323b872dd1461012c578063313ce5671461013f57806340c10f191461015857600080fd5b806306fdde03146100d9578063095ea7b3146100f757806318160ddd1461011a575b600080fd5b6100e161020a565b6040516100ee91906106d3565b60405180910390f35b61010a61010536600461073d565b61029c565b60405190151581526020016100ee565b6002545b6040519081526020016100ee565b61010a61013a366004610767565b6102b6565b60055460ff165b60405160ff90911681526020016100ee565b61016b61016636600461073d565b6102da565b005b61011e61017b3660046107a4565b6001600160a01b031660009081526020819052604090205490565b6100e16102e8565b61016b6101ac36600461073d565b6102f7565b61010a6101bf36600461073d565b610301565b61011e6101d23660046107c6565b6001600160a01b03918216600090815260016020908152604080832093909416825291909152205490565b6005546101469060ff1681565b606060038054610219906107f9565b80601f0160208091040260200160405190810160405280929190818152602001828054610245906107f9565b80156102925780601f1061026757610100808354040283529160200191610292565b820191906000526020600020905b81548152906001019060200180831161027557829003601f168201915b5050505050905090565b6000336102aa81858561030f565b60019150505b92915050565b6000336102c4858285610321565b6102cf8585856103be565b506001949350505050565b6102e4828261041d565b5050565b606060048054610219906107f9565b6102e48282610453565b6000336102aa8185856103be565b61031c8383836001610489565b505050565b6001600160a01b038381166000908152600160209081526040808320938616835292905220546000198110156103b857818110156103a9576040517ffb8f41b20000000000000000000000000000000000000000000000000000000081526001600160a01b038416600482015260248101829052604481018390526064015b60405180910390fd5b6103b884848484036000610489565b50505050565b6001600160a01b0383166103e857604051634b637e8f60e11b8152600060048201526024016103a0565b6001600160a01b0382166104125760405163ec442f0560e01b8152600060048201526024016103a0565b61031c838383610590565b6001600160a01b0382166104475760405163ec442f0560e01b8152600060048201526024016103a0565b6102e460008383610590565b6001600160a01b03821661047d57604051634b637e8f60e11b8152600060048201526024016103a0565b6102e482600083610590565b6001600160a01b0384166104cc576040517fe602df05000000000000000000000000000000000000000000000000000000008152600060048201526024016103a0565b6001600160a01b03831661050f576040517f94280d62000000000000000000000000000000000000000000000000000000008152600060048201526024016103a0565b6001600160a01b03808516600090815260016020908152604080832093871683529290522082905580156103b857826001600160a01b0316846001600160a01b03167f8c5be1e5ebec7d5bd14f71427d1e84f3dd0314c0f7b2291e5b200ac8c7c3b9258460405161058291815260200190565b60405180910390a350505050565b6001600160a01b0383166105bb5780600260008282546105b09190610833565b909155506106469050565b6001600160a01b03831660009081526020819052604090205481811015610627576040517fe450d38c0000000000000000000000000000000000000000000000000000000081526001600160a01b038516600482015260248101829052604481018390526064016103a0565b6001600160a01b03841660009081526020819052604090209082900390555b6001600160a01b03821661066257600280548290039055610681565b6001600160a01b03821660009081526020819052604090208054820190555b816001600160a01b0316836001600160a01b03167fddf252ad1be2c89b69c2b068fc378daa952ba7f163c4a11628f55a4df523b3ef836040516106c691815260200190565b60405180910390a3505050565b602081526000825180602084015260005b8181101561070157602081860181015160408684010152016106e4565b506000604082850101526040601f19601f83011684010191505092915050565b80356001600160a01b038116811461073857600080fd5b919050565b6000806040838503121561075057600080fd5b61075983610721565b946020939093013593505050565b60008060006060848603121561077c57600080fd5b61078584610721565b925061079360208501610721565b929592945050506040919091013590565b6000602082840312156107b657600080fd5b6107bf82610721565b9392505050565b600080604083850312156107d957600080fd5b6107e283610721565b91506107f060208401610721565b90509250929050565b600181811c9082168061080d57607f821691505b60208210810361082d57634e487b7160e01b600052602260045260246000fd5b50919050565b808201808211156102b057634e487b7160e01b600052601160045260246000fdfea2646970667358221220fc8221c08c142b5364eece4cd90614100e9c9d0cd102cfc5edf106ca00edda5464736f6c634300081c0033",
  "devdoc": {
    "errors": {
      "ERC20InsufficientAllowance(address,uint256,uint256)": [
        {
          "details": "Indicates a failure with the `spender`s `allowance`. Used in transfers.",
          "params": {
            "allowance": "Amount of tokens a `spender` is allowed to operate with.",
            "needed": "Minimum amount required to perform a transfer.",
            "spender": "Address that may be allowed to operate on tokens without being their owner."
          }
        }
      ],
      "ERC20InsufficientBalance(address,uint256,uint256)": [
        {
          "details": "Indicates an error related to the current `balance` of a `sender`. Used in transfers.",
          "params": {
            "balance": "Current balance for the interacting account.",
            "needed": "Minimum amount required to perform a transfer.",
            "sender": "Address whose tokens are being transferred."
          }
        }
      ],
      "ERC20InvalidApprover(address)": [
        {
          "details": "Indicates a failure with the `approver` of a token to be approved. Used in approvals.",
          "params": {
            "approver": "Address initiating an approval operation."
          }
        }
      ],
      "ERC20InvalidReceiver(address)": [
        {
          "details": "Indicates a failure with the token `receiver`. Used in transfers.",
          "params": {
            "receiver": "Address to which tokens are being transferred."
          }
        }
      ],
      "ERC20InvalidSender(address)": [
        {
          "details": "Indicates a failure with the token `sender`. Used in transfers.",
          "params": {
            "sender": "Address whose tokens are being transferred."
          }
        }
      ],
      "ERC20InvalidSpender(address)": [
        {
          "details": "Indicates a failure with the `spender` to be approved. Used in approvals.",
          "params": {
            "spender": "Address that may be allowed to operate on tokens without being their owner."
          }
        }
      ]
    },
    "events": {
      "Approval(address,address,uint256)": {
        "details": "Emitted when the allowance of a `spender` for an `owner` is set by a call to {approve}. `value` is the new allowance."
      },
      "Transfer(address,address,uint256)": {
        "details": "Emitted when `value` tokens are moved from one account (`from`) to another (`to`). Note that `value` may be zero."
      }
    },
    "kind": "dev",
    "methods": {
      "allowance(address,address)": {
        "details": "See {IERC20-allowance}."
      },
      "approve(address,uint256)": {
        "details": "See {IERC20-approve}. NOTE: If `value` is the maximum `uint256`, the allowance is not updated on `transferFrom`. This is semantically equivalent to an infinite approval. Requirements: - `spender` cannot be the zero address."
      },
      "balanceOf(address)": {
        "details": "See {IERC20-balanceOf}."
      },
      "decimals()": {
        "details": "Returns the number of decimals used to get its user representation. For example, if `decimals` equals `2`, a balance of `505` tokens should be displayed to a user as `5.05` (`505 / 10 ** 2`). Tokens usually opt for a value of 18, imitating the relationship between Ether and Wei. This is the default value returned by this function, unless it's overridden. NOTE: This information is only used for _display_ purposes: it in no way affects any of the arithmetic of the contract, including {IERC20-balanceOf} and {IERC20-transfer}."
      },
      "name()": {
        "details": "Returns the name of the token."
      },
      "symbol()": {
        "details": "Returns the symbol of the token, usually a shorter version of the name."
      },
      "totalSupply()": {
        "details": "See {IERC20-totalSupply}."
      },
      "transfer(address,uint256)": {
        "details": "See {IERC20-transfer}. Requirements: - `to` cannot be the zero address. - the caller must have a balance of at least `value`."
      },
      "transferFrom(address,address,uint256)": {
        "details": "See {IERC20-transferFrom}. Skips emitting an {Approval} event indicating an allowance update. This is not required by the ERC. See {xref-ERC20-_approve-address-address-uint256-bool-}[_approve]. NOTE: Does not update the allowance if the current allowance is the maximum `uint256`. Requirements: - `from` and `to` cannot be the zero address. - `from` must have a balance of at least `value`. - the caller must have allowance for ``from``'s tokens of at least `value`."
      }
    },
    "version": 1
  },
  "userdoc": {
    "kind": "user",
    "methods": {},
    "version": 1
  },
  "storageLayout": {
    "storage": [
      {
        "astId": 3998,
        "contract": "contracts/mocks/MockERC20.sol:MockERC20",
        "label": "_balances",
        "offset": 0,
        "slot": "0",
        "type": "t_mapping(t_address,t_uint256)"
      },
      {
        "astId": 4004,
        "contract": "contracts/mocks/MockERC20.sol:MockERC20",
        "label": "_allowances",
        "offset": 0,
        "slot": "1",
        "type": "t_mapping(t_address,t_mapping(t_address,t_uint256))"
      },
      {
        "astId": 4006,
        "contract": "contracts/mocks/MockERC20.sol:MockERC20",
        "label": "_totalSupply",
        "offset": 0,
        "slot": "2",
        "type": "t_uint256"
      },
      {
        "astId": 4008,
        "contract": "contracts/mocks/MockERC20.sol:MockERC20",
        "label": "_name",
        "offset": 0,
        "slot": "3",
        "type": "t_string_storage"
      },
      {
        "astId": 4010,
        "contract": "contracts/mocks/MockERC20.sol:MockERC20",
        "label": "_symbol",
        "offset": 0,
        "slot": "4",
        "type": "t_string_storage"
      },
      {
        "astId": 24899,
        "contract": "contracts/mocks/MockERC20.sol:MockERC20",
        "label": "decimals_",
        "offset": 0,
        "slot": "5",
        "type": "t_uint8"
      }
    ],
    "types": {
      "t_address": {
        "encoding": "inplace",
        "label": "address",
        "numberOfBytes": "20"
      },
      "t_mapping(t_address,t_mapping(t_address,t_uint256))": {
        "encoding": "mapping",
        "key": "t_address",
        "label": "mapping(address => mapping(address => uint256))",
        "numberOfBytes": "32",
        "value": "t_mapping(t_address,t_uint256)"
      },
      "t_mapping(t_address,t_uint256)": {
        "encoding": "mapping",
        "key": "t_address",
        "label": "mapping(address => uint256)",
        "numberOfBytes": "32",
        "value": "t_uint256"
      },
      "t_string_storage": {
        "encoding": "bytes",
        "label": "string",
        "numberOfBytes": "32"
      },
      "t_uint256": {
        "encoding": "inplace",
        "label": "uint256",
        "numberOfBytes": "32"
      },
      "t_uint8": {
        "encoding": "inplace",
        "label": "uint8",
        "numberOfBytes": "1"
      }
    }
  }
}