{
  "address": "0xA542103968C6135447ca3869F2a9F14B953B0eC7",
  "abi": [
    {
      "inputs": [
        {
          "internalType": "address",
          "name": "_launchpad",
          "type": "address"
        },
        {
          "internalType": "address",
          "name": "_clPoolFactory",
          "type": "address"
        }
      ],
      "stateMutability": "nonpayable",
      "type": "constructor"
    },
    {
      "inputs": [],
      "name": "CL_POOL_FACTORY",
      "outputs": [
        {
          "internalType": "contract IClPoolFactory",
          "name": "",
          "type": "address"
        }
      ],
      "stateMutability": "view",
      "type": "function"
    },
    {
      "inputs": [],
      "name": "LAUNCHPAD",
      "outputs": [
        {
          "internalType": "address",
          "name": "",
          "type": "address"
        }
      ],
      "stateMutability": "view",
      "type": "function"
    },
    {
      "inputs": [
        {
          "internalType": "contract IERC20",
          "name": "_tokenBase",
          "type": "address"
        },
        {
          "internalType": "contract IERC20",
          "name": "_tokenQuote",
          "type": "address"
        },
        {
          "internalType": "uint256",
          "name": "_amountBaseBeforeTick",
          "type": "uint256"
        },
        {
          "internalType": "uint256",
          "name": "_amountBaseAfterTick",
          "type": "uint256"
        },
        {
          "internalType": "uint24",
          "name": "_fee",
          "type": "uint24"
        },
        {
          "internalType": "uint160",
          "name": "_sqrtPriceX96",
          "type": "uint160"
        },
        {
          "internalType": "int24",
          "name": "_tick0",
          "type": "int24"
        },
        {
          "internalType": "int24",
          "name": "_tick1",
          "type": "int24"
        },
        {
          "internalType": "int24",
          "name": "_tick2",
          "type": "int24"
        }
      ],
      "name": "addSingleSidedLiquidity",
      "outputs": [],
      "stateMutability": "nonpayable",
      "type": "function"
    },
    {
      "inputs": [
        {
          "internalType": "address",
          "name": "_token",
          "type": "address"
        }
      ],
      "name": "claimFees",
      "outputs": [
        {
          "internalType": "uint256",
          "name": "fee0",
          "type": "uint256"
        },
        {
          "internalType": "uint256",
          "name": "fee1",
          "type": "uint256"
        }
      ],
      "stateMutability": "nonpayable",
      "type": "function"
    },
    {
      "inputs": [
        {
          "internalType": "address",
          "name": "_token",
          "type": "address"
        }
      ],
      "name": "graduated",
      "outputs": [
        {
          "internalType": "bool",
          "name": "",
          "type": "bool"
        }
      ],
      "stateMutability": "view",
      "type": "function"
    },
    {
      "inputs": [
        {
          "internalType": "contract IERC20",
          "name": "token",
          "type": "address"
        }
      ],
      "name": "launchParams",
      "outputs": [
        {
          "internalType": "contract IERC20",
          "name": "tokenBase",
          "type": "address"
        },
        {
          "internalType": "contract IERC20",
          "name": "tokenQuote",
          "type": "address"
        },
        {
          "internalType": "contract IClPool",
          "name": "pool",
          "type": "address"
        },
        {
          "internalType": "uint24",
          "name": "fee",
          "type": "uint24"
        },
        {
          "internalType": "uint256",
          "name": "amountBaseBeforeTick",
          "type": "uint256"
        },
        {
          "internalType": "uint256",
          "name": "amountBaseAfterTick",
          "type": "uint256"
        },
        {
          "internalType": "uint160",
          "name": "sqrtPriceX96",
          "type": "uint160"
        },
        {
          "internalType": "int24",
          "name": "tick0",
          "type": "int24"
        },
        {
          "internalType": "int24",
          "name": "tick1",
          "type": "int24"
        },
        {
          "internalType": "int24",
          "name": "tick2",
          "type": "int24"
        }
      ],
      "stateMutability": "view",
      "type": "function"
    },
    {
      "inputs": [
        {
          "internalType": "contract IERC20",
          "name": "_token",
          "type": "address"
        }
      ],
      "name": "launchedTokens",
      "outputs": [
        {
          "internalType": "bool",
          "name": "launched",
          "type": "bool"
        }
      ],
      "stateMutability": "view",
      "type": "function"
    },
    {
      "inputs": [
        {
          "internalType": "uint256",
          "name": "amount0",
          "type": "uint256"
        },
        {
          "internalType": "uint256",
          "name": "amount1",
          "type": "uint256"
        },
        {
          "internalType": "bytes",
          "name": "data",
          "type": "bytes"
        }
      ],
      "name": "ramsesV2MintCallback",
      "outputs": [],
      "stateMutability": "nonpayable",
      "type": "function"
    }
  ],
  "transactionHash": "0x5a872f6c4644e76e40bc4558828e6bf63e9ead76af0a576df7caa4f58c1232c3",
  "args": [
    "0xa642D54b397241222ABCB3a2aE581427868B24a3",
    "0xAAA32926fcE6bE95ea2c51cB4Fcb60836D320C42"
  ],
  "numDeployments": 1,
  "solcInputHash": "5b663e734811a6fb3abc2c479b0ef212",
  "bytecode": "0x60e060405234801561001057600080fd5b5060405161111538038061111583398101604081905261002f91610066565b6001600160a01b0391821660a052166080523060c052610099565b80516001600160a01b038116811461006157600080fd5b919050565b6000806040838503121561007957600080fd5b6100828361004a565b91506100906020840161004a565b90509250929050565b60805160a05160c0516110316100e4600039600081816103fb01526104cb0152600081816101c00152818161029701526109d00152600081816101ff0152610ad701526110316000f3fe608060405234801561001057600080fd5b50600436106100885760003560e01c806357032fac1161005b57806357032fac146101fa5780639b083ec914610221578063bfeab6e514610245578063d10c72b51461027657600080fd5b806315a0ea6a1461008d5780632b76a557146100ba5780633e48f417146101a657806351431d4f146101bb575b600080fd5b6100a061009b366004610dc1565b610289565b604080519283526020830191909152015b60405180910390f35b61013a6100c8366004610dc1565b600060208190529081526040902080546001820154600280840154600385015460048601546005909601546001600160a01b0395861696948616958381169562ffffff600160a01b9586900416959394909391831692908104820b91600160b81b8204810b91600160d01b9004900b8a565b604080516001600160a01b039b8c168152998b1660208b0152978a169789019790975262ffffff9095166060880152608087019390935260a08601919091529490941660c0840152600293840b60e0840152830b61010083015290910b610120820152610140016100b1565b6101b96101b4366004610de5565b610770565b005b6101e27f000000000000000000000000000000000000000000000000000000000000000081565b6040516001600160a01b0390911681526020016100b1565b6101e27f000000000000000000000000000000000000000000000000000000000000000081565b61023561022f366004610dc1565b50600090565b60405190151581526020016100b1565b610235610253366004610dc1565b6001600160a01b0390811660009081526020819052604090206002015416151590565b6101b9610284366004610e7f565b6109c5565b600080336001600160a01b037f000000000000000000000000000000000000000000000000000000000000000016146102f65760405162461bcd60e51b815260206004820152600a602482015269085b185d5b98da1c185960b21b60448201526064015b60405180910390fd5b6001600160a01b0380841660009081526020818152604091829020825161014081018452815485168152600182015485169281019290925260028082015480861694840185905262ffffff600160a01b9182900416606085015260038301546080850152600483015460a085015260059092015494851660c0840152908404810b60e0830152600160b81b8404810b610100830152600160d01b90930490920b6101208301526103d45760405162461bcd60e51b8152602060048201526009602482015268085b185d5b98da195960ba1b60448201526064016102ed565b60408181015160e083015161010084015192516309e3d67b60e31b81526001600160a01b037f000000000000000000000000000000000000000000000000000000000000000081166004830152600292830b60248301529390910b60448201526fffffffffffffffffffffffffffffffff60648201819052608482015260009283921690634f1eb3d89060a40160408051808303816000875af115801561047f573d6000803e3d6000fd5b505050506040513d601f19601f820116820180604052508101906104a39190610f49565b60408581015161010087015161012088015192516309e3d67b60e31b81526001600160a01b037f000000000000000000000000000000000000000000000000000000000000000081166004830152600292830b60248301529390910b60448201526fffffffffffffffffffffffffffffffff606482018190526084820181905294851696509290931693506000928392911690634f1eb3d89060a40160408051808303816000875af115801561055d573d6000803e3d6000fd5b505050506040513d601f19601f820116820180604052508101906105819190610f49565b6fffffffffffffffffffffffffffffffff91821693501690506105a48285610f7c565b96506105b08184610f7c565b955084604001516001600160a01b0316630dfe16816040518163ffffffff1660e01b8152600401602060405180830381865afa1580156105f4573d6000803e3d6000fd5b505050506040513d601f19601f820116820180604052508101906106189190610fbc565b60405163a9059cbb60e01b8152336004820152602481018990526001600160a01b03919091169063a9059cbb906044016020604051808303816000875af1158015610667573d6000803e3d6000fd5b505050506040513d601f19601f8201168201806040525081019061068b9190610fd9565b5084604001516001600160a01b031663d21220a76040518163ffffffff1660e01b8152600401602060405180830381865afa1580156106ce573d6000803e3d6000fd5b505050506040513d601f19601f820116820180604052508101906106f29190610fbc565b60405163a9059cbb60e01b8152336004820152602481018890526001600160a01b03919091169063a9059cbb906044016020604051808303816000875af1158015610741573d6000803e3d6000fd5b505050506040513d601f19601f820116820180604052508101906107659190610fd9565b505050505050915091565b6001546001600160a01b031633146107ca5760405162461bcd60e51b815260206004820152600760248201527f21636c506f6f6c0000000000000000000000000000000000000000000000000060448201526064016102ed565b6001546001600160a01b0316156109bf5783156108cd57600160009054906101000a90046001600160a01b03166001600160a01b0316630dfe16816040518163ffffffff1660e01b8152600401602060405180830381865afa158015610834573d6000803e3d6000fd5b505050506040513d601f19601f820116820180604052508101906108589190610fbc565b60405163a9059cbb60e01b8152336004820152602481018690526001600160a01b03919091169063a9059cbb906044016020604051808303816000875af11580156108a7573d6000803e3d6000fd5b505050506040513d601f19601f820116820180604052508101906108cb9190610fd9565b505b82156109bf57600160009054906101000a90046001600160a01b03166001600160a01b031663d21220a76040518163ffffffff1660e01b8152600401602060405180830381865afa158015610926573d6000803e3d6000fd5b505050506040513d601f19601f8201168201806040525081019061094a9190610fbc565b60405163a9059cbb60e01b8152336004820152602481018590526001600160a01b03919091169063a9059cbb906044016020604051808303816000875af1158015610999573d6000803e3d6000fd5b505050506040513d601f19601f820116820180604052508101906109bd9190610fd9565b505b50505050565b336001600160a01b037f00000000000000000000000000000000000000000000000000000000000000001614610a2a5760405162461bcd60e51b815260206004820152600a602482015269085b185d5b98da1c185960b21b60448201526064016102ed565b6001600160a01b038981166000908152602081905260409020600201541615610a815760405162461bcd60e51b8152602060048201526009602482015268085b185d5b98da195960ba1b60448201526064016102ed565b6040517f8e909e510000000000000000000000000000000000000000000000000000000081526001600160a01b038a81166004830152898116602483015262ffffff8716604483015285811660648301526000917f000000000000000000000000000000000000000000000000000000000000000090911690638e909e51906084016020604051808303816000875af1158015610b22573d6000803e3d6000fd5b505050506040513d601f19601f82011682018060405250810190610b469190610fbc565b90506040518061014001604052808b6001600160a01b031681526020018a6001600160a01b03168152602001826001600160a01b031681526020018762ffffff168152602001898152602001888152602001866001600160a01b031681526020018560020b81526020018460020b81526020018360020b8152506000808c6001600160a01b03166001600160a01b0316815260200190815260200160002060008201518160000160006101000a8154816001600160a01b0302191690836001600160a01b0316021790555060208201518160010160006101000a8154816001600160a01b0302191690836001600160a01b0316021790555060408201518160020160006101000a8154816001600160a01b0302191690836001600160a01b0316021790555060608201518160020160146101000a81548162ffffff021916908362ffffff1602179055506080820151816003015560a0820151816004015560c08201518160050160006101000a8154816001600160a01b0302191690836001600160a01b0316021790555060e08201518160050160146101000a81548162ffffff021916908360020b62ffffff1602179055506101008201518160050160176101000a81548162ffffff021916908360020b62ffffff16021790555061012082015181600501601a6101000a81548162ffffff021916908360020b62ffffff16021790555090505080600160006101000a8154816001600160a01b0302191690836001600160a01b031602179055506000600160006101000a8154816001600160a01b0302191690836001600160a01b0316021790555050505050505050505050565b6001600160a01b0381168114610dbe57600080fd5b50565b600060208284031215610dd357600080fd5b8135610dde81610da9565b9392505050565b60008060008060608587031215610dfb57600080fd5b8435935060208501359250604085013567ffffffffffffffff811115610e2057600080fd5b8501601f81018713610e3157600080fd5b803567ffffffffffffffff811115610e4857600080fd5b876020828401011115610e5a57600080fd5b949793965060200194505050565b8035600281900b8114610e7a57600080fd5b919050565b60008060008060008060008060006101208a8c031215610e9e57600080fd5b8935610ea981610da9565b985060208a0135610eb981610da9565b975060408a0135965060608a0135955060808a013562ffffff81168114610edf57600080fd5b945060a08a0135610eef81610da9565b9350610efd60c08b01610e68565b9250610f0b60e08b01610e68565b9150610f1a6101008b01610e68565b90509295985092959850929598565b80516fffffffffffffffffffffffffffffffff81168114610e7a57600080fd5b60008060408385031215610f5c57600080fd5b610f6583610f29565b9150610f7360208401610f29565b90509250929050565b80820180821115610fb6577f4e487b7100000000000000000000000000000000000000000000000000000000600052601160045260246000fd5b92915050565b600060208284031215610fce57600080fd5b8151610dde81610da9565b600060208284031215610feb57600080fd5b81518015158114610dde57600080fdfea26469706673582212201f37adbc7eaf46c78d4295063830635691839172f9e7a31421f6ea81715864bf64736f6c634300081c0033",
  "devdoc": {
    "kind": "dev",
    "methods": {
      "addSingleSidedLiquidity(address,address,uint256,uint256,uint24,uint160,int24,int24,int24)": {
        "details": "Provides liquidity across three ticks with different amounts"
      },
      "graduated(address)": {
        "params": {
          "_token": "The token address to check"
        },
        "returns": {
          "_0": "true if the token has graduated, false otherwise"
        }
      }
    },
    "version": 1
  },
  "userdoc": {
    "kind": "user",
    "methods": {
      "addSingleSidedLiquidity(address,address,uint256,uint256,uint24,uint160,int24,int24,int24)": {
        "notice": "Add single-sided liquidity to a concentrated pool"
      },
      "claimFees(address)": {
        "notice": "Claim accumulated fees from the pool"
      },
      "graduated(address)": {
        "notice": "Check if a token has graduated"
      }
    },
    "version": 1
  },
  "storageLayout": {
    "storage": [
      {
        "astId": 23665,
        "contract": "contracts/launchpad/clmm/dexes/RamsesAdapter.sol:RamsesAdapter",
        "label": "launchParams",
        "offset": 0,
        "slot": "0",
        "type": "t_mapping(t_contract(IERC20)4568,t_struct(LaunchTokenParams)23694_storage)"
      },
      {
        "astId": 23670,
        "contract": "contracts/launchpad/clmm/dexes/RamsesAdapter.sol:RamsesAdapter",
        "label": "transientClPool",
        "offset": 0,
        "slot": "1",
        "type": "t_contract(IClPool)22429"
      }
    ],
    "types": {
      "t_contract(IClPool)22429": {
        "encoding": "inplace",
        "label": "contract IClPool",
        "numberOfBytes": "20"
      },
      "t_contract(IERC20)4568": {
        "encoding": "inplace",
        "label": "contract IERC20",
        "numberOfBytes": "20"
      },
      "t_int24": {
        "encoding": "inplace",
        "label": "int24",
        "numberOfBytes": "3"
      },
      "t_mapping(t_contract(IERC20)4568,t_struct(LaunchTokenParams)23694_storage)": {
        "encoding": "mapping",
        "key": "t_contract(IERC20)4568",
        "label": "mapping(contract IERC20 => struct RamsesAdapter.LaunchTokenParams)",
        "numberOfBytes": "32",
        "value": "t_struct(LaunchTokenParams)23694_storage"
      },
      "t_struct(LaunchTokenParams)23694_storage": {
        "encoding": "inplace",
        "label": "struct RamsesAdapter.LaunchTokenParams",
        "members": [
          {
            "astId": 23673,
            "contract": "contracts/launchpad/clmm/dexes/RamsesAdapter.sol:RamsesAdapter",
            "label": "tokenBase",
            "offset": 0,
            "slot": "0",
            "type": "t_contract(IERC20)4568"
          },
          {
            "astId": 23676,
            "contract": "contracts/launchpad/clmm/dexes/RamsesAdapter.sol:RamsesAdapter",
            "label": "tokenQuote",
            "offset": 0,
            "slot": "1",
            "type": "t_contract(IERC20)4568"
          },
          {
            "astId": 23679,
            "contract": "contracts/launchpad/clmm/dexes/RamsesAdapter.sol:RamsesAdapter",
            "label": "pool",
            "offset": 0,
            "slot": "2",
            "type": "t_contract(IClPool)22429"
          },
          {
            "astId": 23681,
            "contract": "contracts/launchpad/clmm/dexes/RamsesAdapter.sol:RamsesAdapter",
            "label": "fee",
            "offset": 20,
            "slot": "2",
            "type": "t_uint24"
          },
          {
            "astId": 23683,
            "contract": "contracts/launchpad/clmm/dexes/RamsesAdapter.sol:RamsesAdapter",
            "label": "amountBaseBeforeTick",
            "offset": 0,
            "slot": "3",
            "type": "t_uint256"
          },
          {
            "astId": 23685,
            "contract": "contracts/launchpad/clmm/dexes/RamsesAdapter.sol:RamsesAdapter",
            "label": "amountBaseAfterTick",
            "offset": 0,
            "slot": "4",
            "type": "t_uint256"
          },
          {
            "astId": 23687,
            "contract": "contracts/launchpad/clmm/dexes/RamsesAdapter.sol:RamsesAdapter",
            "label": "sqrtPriceX96",
            "offset": 0,
            "slot": "5",
            "type": "t_uint160"
          },
          {
            "astId": 23689,
            "contract": "contracts/launchpad/clmm/dexes/RamsesAdapter.sol:RamsesAdapter",
            "label": "tick0",
            "offset": 20,
            "slot": "5",
            "type": "t_int24"
          },
          {
            "astId": 23691,
            "contract": "contracts/launchpad/clmm/dexes/RamsesAdapter.sol:RamsesAdapter",
            "label": "tick1",
            "offset": 23,
            "slot": "5",
            "type": "t_int24"
          },
          {
            "astId": 23693,
            "contract": "contracts/launchpad/clmm/dexes/RamsesAdapter.sol:RamsesAdapter",
            "label": "tick2",
            "offset": 26,
            "slot": "5",
            "type": "t_int24"
          }
        ],
        "numberOfBytes": "192"
      },
      "t_uint160": {
        "encoding": "inplace",
        "label": "uint160",
        "numberOfBytes": "20"
      },
      "t_uint24": {
        "encoding": "inplace",
        "label": "uint24",
        "numberOfBytes": "3"
      },
      "t_uint256": {
        "encoding": "inplace",
        "label": "uint256",
        "numberOfBytes": "32"
      }
    }
  }
}