{
  "address": "0x86f98e787b8FBb3C8E87Eb21b62e5E3dD043Ab72",
  "abi": [
    {
      "inputs": [],
      "name": "InvalidInitialization",
      "type": "error"
    },
    {
      "inputs": [],
      "name": "NotInitializing",
      "type": "error"
    },
    {
      "anonymous": false,
      "inputs": [
        {
          "indexed": false,
          "internalType": "uint64",
          "name": "version",
          "type": "uint64"
        }
      ],
      "name": "Initialized",
      "type": "event"
    },
    {
      "inputs": [],
      "name": "CL_POOL_FACTORY",
      "outputs": [
        {
          "internalType": "contract IClPoolFactory",
          "name": "",
          "type": "address"
        }
      ],
      "stateMutability": "view",
      "type": "function"
    },
    {
      "inputs": [],
      "name": "LAUNCHPAD",
      "outputs": [
        {
          "internalType": "address",
          "name": "",
          "type": "address"
        }
      ],
      "stateMutability": "view",
      "type": "function"
    },
    {
      "inputs": [
        {
          "internalType": "contract IERC20",
          "name": "_tokenBase",
          "type": "address"
        },
        {
          "internalType": "contract IERC20",
          "name": "_tokenQuote",
          "type": "address"
        },
        {
          "internalType": "uint24",
          "name": "_fee",
          "type": "uint24"
        },
        {
          "internalType": "int24",
          "name": "_tick0",
          "type": "int24"
        },
        {
          "internalType": "int24",
          "name": "_tick1",
          "type": "int24"
        },
        {
          "internalType": "int24",
          "name": "_tick2",
          "type": "int24"
        }
      ],
      "name": "addSingleSidedLiquidity",
      "outputs": [],
      "stateMutability": "nonpayable",
      "type": "function"
    },
    {
      "inputs": [
        {
          "internalType": "address",
          "name": "_token",
          "type": "address"
        }
      ],
      "name": "claimFees",
      "outputs": [
        {
          "internalType": "uint256",
          "name": "fee0",
          "type": "uint256"
        },
        {
          "internalType": "uint256",
          "name": "fee1",
          "type": "uint256"
        }
      ],
      "stateMutability": "nonpayable",
      "type": "function"
    },
    {
      "inputs": [
        {
          "internalType": "address",
          "name": "",
          "type": "address"
        }
      ],
      "name": "graduated",
      "outputs": [
        {
          "internalType": "bool",
          "name": "",
          "type": "bool"
        }
      ],
      "stateMutability": "pure",
      "type": "function"
    },
    {
      "inputs": [
        {
          "internalType": "address",
          "name": "_launchpad",
          "type": "address"
        },
        {
          "internalType": "address",
          "name": "_clPoolFactory",
          "type": "address"
        }
      ],
      "name": "initialize",
      "outputs": [],
      "stateMutability": "nonpayable",
      "type": "function"
    },
    {
      "inputs": [
        {
          "internalType": "contract IERC20",
          "name": "token",
          "type": "address"
        }
      ],
      "name": "launchParams",
      "outputs": [
        {
          "internalType": "contract IERC20",
          "name": "tokenBase",
          "type": "address"
        },
        {
          "internalType": "contract IERC20",
          "name": "tokenQuote",
          "type": "address"
        },
        {
          "internalType": "contract IClPool",
          "name": "pool",
          "type": "address"
        },
        {
          "internalType": "uint24",
          "name": "fee",
          "type": "uint24"
        },
        {
          "internalType": "int24",
          "name": "tick0",
          "type": "int24"
        },
        {
          "internalType": "int24",
          "name": "tick1",
          "type": "int24"
        },
        {
          "internalType": "int24",
          "name": "tick2",
          "type": "int24"
        }
      ],
      "stateMutability": "view",
      "type": "function"
    },
    {
      "inputs": [
        {
          "internalType": "contract IERC20",
          "name": "_token",
          "type": "address"
        }
      ],
      "name": "launchedTokens",
      "outputs": [
        {
          "internalType": "bool",
          "name": "launched",
          "type": "bool"
        }
      ],
      "stateMutability": "view",
      "type": "function"
    },
    {
      "inputs": [
        {
          "internalType": "uint256",
          "name": "amount0",
          "type": "uint256"
        },
        {
          "internalType": "uint256",
          "name": "amount1",
          "type": "uint256"
        },
        {
          "internalType": "bytes",
          "name": "",
          "type": "bytes"
        }
      ],
      "name": "ramsesV2MintCallback",
      "outputs": [],
      "stateMutability": "nonpayable",
      "type": "function"
    }
  ],
  "transactionHash": "0x4fbf62edecb6c65c3a872626ea4c878ba7327c64f43f71c0e1681a5f683c3feb",
  "args": [],
  "numDeployments": 1,
  "solcInputHash": "ace1de3962b9cfa6db647121f9033e9c",
  "bytecode": "0x6080604052348015600f57600080fd5b506119488061001f6000396000f3fe608060405234801561001057600080fd5b50600436106100a35760003560e01c806351431d4f116100765780637e91334d1161005b5780637e91334d146101f85780639b083ec91461020b578063bfeab6e51461022f57600080fd5b806351431d4f146101ba57806357032fac146101e557600080fd5b806315a0ea6a146100a85780632b76a557146100d55780633e48f41714610192578063485cc955146101a7575b600080fd5b6100bb6100b636600461166c565b610261565b604080519283526020830191909152015b60405180910390f35b6101406100e336600461166c565b600260208190526000918252604090912080546001820154918301546001600160a01b0391821693928216929181169162ffffff600160a01b83041691600160b81b8104820b91600160d01b8204810b91600160e81b9004900b87565b604080516001600160a01b0398891681529688166020880152969094169585019590955262ffffff9091166060840152600290810b608084015292830b60a083015290910b60c082015260e0016100cc565b6101a56101a0366004611689565b6106af565b005b6101a56101b536600461170c565b610930565b6001546101cd906001600160a01b031681565b6040516001600160a01b0390911681526020016100cc565b6000546101cd906001600160a01b031681565b6101a5610206366004611757565b610aad565b61021f61021936600461166c565b50600090565b60405190151581526020016100cc565b61021f61023d36600461166c565b6001600160a01b039081166000908152600260208190526040909120015416151590565b60015460009081906001600160a01b031633146102b25760405162461bcd60e51b815260206004820152600a602482015269085b185d5b98da1c185960b21b60448201526064015b60405180910390fd5b6001600160a01b03808416600090815260026020818152604092839020835160e081018552815486168152600182015486169281019290925282015493841692810183905262ffffff600160a01b8504166060820152600160b81b8404820b6080820152600160d01b8404820b60a0820152600160e81b909304900b60c083015261036b5760405162461bcd60e51b8152602060048201526009602482015268085b185d5b98da195960ba1b60448201526064016102a9565b604081810151600354608084015160a085015193516309e3d67b60e31b81526001600160a01b039283166004820152600291820b602482015293900b60448401526001600160801b0360648401819052608484015260009283929190911690634f1eb3d89060a40160408051808303816000875af11580156103f1573d6000803e3d6000fd5b505050506040513d601f19601f8201168201806040525081019061041591906117f0565b60408581015160035460a088015160c089015193516309e3d67b60e31b81526001600160a01b039283166004820152600291820b602482015293900b60448401526001600160801b036064840181905260848401819052948516965092909316935060009283921690634f1eb3d89060a40160408051808303816000875af11580156104a5573d6000803e3d6000fd5b505050506040513d601f19601f820116820180604052508101906104c991906117f0565b6001600160801b0391821693501690506104e38285611852565b96506104ef8184611852565b955084604001516001600160a01b0316630dfe16816040518163ffffffff1660e01b8152600401602060405180830381865afa158015610533573d6000803e3d6000fd5b505050506040513d601f19601f82011682018060405250810190610557919061186b565b60405163a9059cbb60e01b8152336004820152602481018990526001600160a01b03919091169063a9059cbb906044016020604051808303816000875af11580156105a6573d6000803e3d6000fd5b505050506040513d601f19601f820116820180604052508101906105ca9190611888565b5084604001516001600160a01b031663d21220a76040518163ffffffff1660e01b8152600401602060405180830381865afa15801561060d573d6000803e3d6000fd5b505050506040513d601f19601f82011682018060405250810190610631919061186b565b60405163a9059cbb60e01b8152336004820152602481018890526001600160a01b03919091169063a9059cbb906044016020604051808303816000875af1158015610680573d6000803e3d6000fd5b505050506040513d601f19601f820116820180604052508101906106a49190611888565b505050505050915091565b6004546001600160a01b031633146107095760405162461bcd60e51b815260206004820152600760248201527f21636c506f6f6c0000000000000000000000000000000000000000000000000060448201526064016102a9565b6004546001600160a01b03161561092a5783156108225760048054604080517f0dfe168100000000000000000000000000000000000000000000000000000000815290516001600160a01b0390921692630dfe16819282820192602092908290030181865afa158015610780573d6000803e3d6000fd5b505050506040513d601f19601f820116820180604052508101906107a4919061186b565b6001546040516323b872dd60e01b81526001600160a01b039182166004820152336024820152604481018790529116906323b872dd906064016020604051808303816000875af11580156107fc573d6000803e3d6000fd5b505050506040513d601f19601f820116820180604052508101906108209190611888565b505b821561092a5760048054604080517fd21220a700000000000000000000000000000000000000000000000000000000815290516001600160a01b039092169263d21220a79282820192602092908290030181865afa158015610888573d6000803e3d6000fd5b505050506040513d601f19601f820116820180604052508101906108ac919061186b565b6001546040516323b872dd60e01b81526001600160a01b039182166004820152336024820152604481018690529116906323b872dd906064016020604051808303816000875af1158015610904573d6000803e3d6000fd5b505050506040513d601f19601f820116820180604052508101906109289190611888565b505b50505050565b7ff0c57e16840df040f15088dc2f81fe391c3923bec73e23a9662efc9c229c6a00805468010000000000000000810460ff16159067ffffffffffffffff1660008115801561097b5750825b905060008267ffffffffffffffff1660011480156109985750303b155b9050811580156109a6575080155b156109dd576040517ff92ee8a900000000000000000000000000000000000000000000000000000000815260040160405180910390fd5b845467ffffffffffffffff191660011785558315610a1157845468ff00000000000000001916680100000000000000001785555b600180546001600160a01b03808a1673ffffffffffffffffffffffffffffffffffffffff1992831617909255600080549289169282169290921790915560038054909116301790558315610aa457845468ff000000000000000019168555604051600181527fc7f505b2f371ae2175ee4913f4499e1f2633a7b5936321eed1cdaeb6115181d29060200160405180910390a15b50505050505050565b6001546001600160a01b03163314610af45760405162461bcd60e51b815260206004820152600a602482015269085b185d5b98da1c185960b21b60448201526064016102a9565b6001600160a01b03868116600090815260026020819052604090912001541615610b4c5760405162461bcd60e51b8152602060048201526009602482015268085b185d5b98da195960ba1b60448201526064016102a9565b6000610b61610b5c6001866118aa565b61119d565b90506000610b6e8561119d565b90506000610b7b8561119d565b90506000610b888561119d565b600080546040517f8e909e510000000000000000000000000000000000000000000000000000000081526001600160a01b038e811660048301528d8116602483015262ffffff8d16604483015288811660648301529394506b01f04ef12cb04cf158000000936b014adf4b7320334b9000000093921690638e909e51906084016020604051808303816000875af1158015610c27573d6000803e3d6000fd5b505050506040513d601f19601f82011682018060405250810190610c4b919061186b565b90506040518060e001604052808e6001600160a01b031681526020018d6001600160a01b03168152602001826001600160a01b031681526020018c62ffffff1681526020018b60020b81526020018a60020b81526020018960020b815250600260008f6001600160a01b03166001600160a01b0316815260200190815260200160002060008201518160000160006101000a8154816001600160a01b0302191690836001600160a01b0316021790555060208201518160010160006101000a8154816001600160a01b0302191690836001600160a01b0316021790555060408201518160020160006101000a8154816001600160a01b0302191690836001600160a01b0316021790555060608201518160020160146101000a81548162ffffff021916908362ffffff16021790555060808201518160020160176101000a81548162ffffff021916908360020b62ffffff16021790555060a082015181600201601a6101000a81548162ffffff021916908360020b62ffffff16021790555060c082015181600201601d6101000a81548162ffffff021916908360020b62ffffff16021790555090505080600460006101000a8154816001600160a01b0302191690836001600160a01b03160217905550600460009054906101000a90046001600160a01b03166001600160a01b0316630dfe16816040518163ffffffff1660e01b8152600401602060405180830381865afa158015610e6f573d6000803e3d6000fd5b505050506040513d601f19601f82011682018060405250810190610e93919061186b565b6001600160a01b03168d6001600160a01b031603611010576000610eb887878661147e565b90506000610ec787878661147e565b600354604051633c8a7d8d60e01b81526001600160a01b03918216600482015260028f810b60248301528e900b60448201526001600160801b038516606482015260a06084820152600060a4820152919250841690633c8a7d8d9060c40160408051808303816000875af1158015610f43573d6000803e3d6000fd5b505050506040513d601f19601f82011682018060405250810190610f6791906118cf565b5050600354604051633c8a7d8d60e01b81526001600160a01b03918216600482015260028d810b60248301528c900b60448201526001600160801b038316606482015260a06084820152600060a482015290841690633c8a7d8d9060c40160408051808303816000875af1158015610fe3573d6000803e3d6000fd5b505050506040513d601f19601f8201168201806040525081019061100791906118cf565b50505050611171565b600061101d8688866114fc565b9050600061102c8688866114fc565b600354604051633c8a7d8d60e01b81526001600160a01b03918216600482015260028e810b60248301528f900b60448201526001600160801b038516606482015260a06084820152600060a4820152919250841690633c8a7d8d9060c40160408051808303816000875af11580156110a8573d6000803e3d6000fd5b505050506040513d601f19601f820116820180604052508101906110cc91906118cf565b5050600354604051633c8a7d8d60e01b81526001600160a01b03918216600482015260028c810b60248301528d900b60448201526001600160801b038316606482015260a06084820152600060a482015290841690633c8a7d8d9060c40160408051808303816000875af1158015611148573d6000803e3d6000fd5b505050506040513d601f19601f8201168201806040525081019061116c91906118cf565b505050505b50506004805473ffffffffffffffffffffffffffffffffffffffff191690555050505050505050505050565b60020b600060ff82901d80830118620d89e88111156111e0576111e07f8b86327a0000000000000000000000000000000000000000000000000000000084611543565b7001fffcb933bd6fad37aa2d162d1a5940016001821602700100000000000000000000000000000000186002821615611229576ffff97272373d413259a46990580e213a0260801c5b6004821615611248576ffff2e50f5f656932ef12357cf3c7fdcc0260801c5b6008821615611267576fffe5caca7e10e4e61c3624eaa0941cd00260801c5b6010821615611286576fffcb9843d60f6159c9db58835c9266440260801c5b60208216156112a5576fff973b41fa98c081472e6896dfb254c00260801c5b60408216156112c4576fff2ea16466c96a3843ec78b326b528610260801c5b60808216156112e3576ffe5dee046a99a2a811c461f1969c30530260801c5b610100821615611303576ffcbe86c7900a88aedcffc83b479aa3a40260801c5b610200821615611323576ff987a7253ac413176f2b074cf7815e540260801c5b610400821615611343576ff3392b0822b70005940c7a398e4b70f30260801c5b610800821615611363576fe7159475a2c29b7443b29c7fa6e889d90260801c5b611000821615611383576fd097f3bdfd2022b8845ad8f792aa58250260801c5b6120008216156113a3576fa9f746462d870fdf8a65dc1f90e061e50260801c5b6140008216156113c3576f70d869a156d2a1b890bb3df62baf32f70260801c5b6180008216156113e3576f31be135f97d08fd981231505542fcfa60260801c5b62010000821615611404576f09aa508b5b7a84e1c677de54f3e99bc90260801c5b62020000821615611424576e5d6af8dedb81196699c329225ee6040260801c5b62040000821615611443576d2216e584f5fa1ea926041bedfe980260801c5b62080000821615611460576b048a170391f7dc42444e8fa20260801c5b600084131561146e57600019045b63ffffffff0160201c9392505050565b6000826001600160a01b0316846001600160a01b0316111561149e579192915b60006114ca856001600160a01b0316856001600160a01b03166c01000000000000000000000000611554565b90506114f16114ec84836114de89896118f3565b6001600160a01b0316611554565b6115f6565b9150505b9392505050565b6000826001600160a01b0316846001600160a01b0316111561151c579192915b61153b6114ec836c010000000000000000000000006114de88886118f3565b949350505050565b816000528060020b60045260246000fd5b6000838302816000198587098281108382030391505080841161157657600080fd5b80600003611589575082900490506114f5565b6000848688096000868103871696879004966002600389028118808a02820302808a02820302808a02820302808a02820302808a02820302808a02909103029181900381900460010186841190950394909402919094039290920491909117919091029150509392505050565b806001600160801b038116811461164f5760405162461bcd60e51b815260206004820152601260248201527f6c6971756964697479206f766572666c6f77000000000000000000000000000060448201526064016102a9565b919050565b6001600160a01b038116811461166957600080fd5b50565b60006020828403121561167e57600080fd5b81356114f581611654565b6000806000806060858703121561169f57600080fd5b8435935060208501359250604085013567ffffffffffffffff8111156116c457600080fd5b8501601f810187136116d557600080fd5b803567ffffffffffffffff8111156116ec57600080fd5b8760208284010111156116fe57600080fd5b949793965060200194505050565b6000806040838503121561171f57600080fd5b823561172a81611654565b9150602083013561173a81611654565b809150509250929050565b8035600281900b811461164f57600080fd5b60008060008060008060c0878903121561177057600080fd5b863561177b81611654565b9550602087013561178b81611654565b9450604087013562ffffff811681146117a357600080fd5b93506117b160608801611745565b92506117bf60808801611745565b91506117cd60a08801611745565b90509295509295509295565b80516001600160801b038116811461164f57600080fd5b6000806040838503121561180357600080fd5b61180c836117d9565b915061181a602084016117d9565b90509250929050565b7f4e487b7100000000000000000000000000000000000000000000000000000000600052601160045260246000fd5b8082018082111561186557611865611823565b92915050565b60006020828403121561187d57600080fd5b81516114f581611654565b60006020828403121561189a57600080fd5b815180151581146114f557600080fd5b600282810b9082900b03627fffff198112627fffff8213171561186557611865611823565b600080604083850312156118e257600080fd5b505080516020909101519092909150565b6001600160a01b0382811682821603908111156118655761186561182356fea2646970667358221220080134fff1732ead100926174e905a66dbe70d4882d5fffa8dcdd84f1b60390964736f6c634300081c0033",
  "devdoc": {
    "errors": {
      "InvalidInitialization()": [
        {
          "details": "The contract is already initialized."
        }
      ],
      "NotInitializing()": [
        {
          "details": "The contract is not initializing."
        }
      ]
    },
    "events": {
      "Initialized(uint64)": {
        "details": "Triggered when the contract has been initialized or reinitialized."
      }
    },
    "kind": "dev",
    "methods": {
      "addSingleSidedLiquidity(address,address,uint24,int24,int24,int24)": {
        "details": "Provides liquidity across three ticks with different amounts"
      }
    },
    "version": 1
  },
  "userdoc": {
    "kind": "user",
    "methods": {
      "addSingleSidedLiquidity(address,address,uint24,int24,int24,int24)": {
        "notice": "Add single-sided liquidity to a concentrated pool"
      },
      "claimFees(address)": {
        "notice": "Claim accumulated fees from the pool"
      }
    },
    "version": 1
  },
  "storageLayout": {
    "storage": [
      {
        "astId": 17958,
        "contract": "contracts/launchpad/clmm/dexes/RamsesAdapter.sol:RamsesAdapter",
        "label": "CL_POOL_FACTORY",
        "offset": 0,
        "slot": "0",
        "type": "t_contract(IClPoolFactory)16899"
      },
      {
        "astId": 17960,
        "contract": "contracts/launchpad/clmm/dexes/RamsesAdapter.sol:RamsesAdapter",
        "label": "LAUNCHPAD",
        "offset": 0,
        "slot": "1",
        "type": "t_address"
      },
      {
        "astId": 17966,
        "contract": "contracts/launchpad/clmm/dexes/RamsesAdapter.sol:RamsesAdapter",
        "label": "launchParams",
        "offset": 0,
        "slot": "2",
        "type": "t_mapping(t_contract(IERC20)3670,t_struct(LaunchTokenParams)17989_storage)"
      },
      {
        "astId": 17968,
        "contract": "contracts/launchpad/clmm/dexes/RamsesAdapter.sol:RamsesAdapter",
        "label": "me",
        "offset": 0,
        "slot": "3",
        "type": "t_address"
      },
      {
        "astId": 17971,
        "contract": "contracts/launchpad/clmm/dexes/RamsesAdapter.sol:RamsesAdapter",
        "label": "transientClPool",
        "offset": 0,
        "slot": "4",
        "type": "t_contract(IClPool)16698"
      }
    ],
    "types": {
      "t_address": {
        "encoding": "inplace",
        "label": "address",
        "numberOfBytes": "20"
      },
      "t_contract(IClPool)16698": {
        "encoding": "inplace",
        "label": "contract IClPool",
        "numberOfBytes": "20"
      },
      "t_contract(IClPoolFactory)16899": {
        "encoding": "inplace",
        "label": "contract IClPoolFactory",
        "numberOfBytes": "20"
      },
      "t_contract(IERC20)3670": {
        "encoding": "inplace",
        "label": "contract IERC20",
        "numberOfBytes": "20"
      },
      "t_int24": {
        "encoding": "inplace",
        "label": "int24",
        "numberOfBytes": "3"
      },
      "t_mapping(t_contract(IERC20)3670,t_struct(LaunchTokenParams)17989_storage)": {
        "encoding": "mapping",
        "key": "t_contract(IERC20)3670",
        "label": "mapping(contract IERC20 => struct RamsesAdapter.LaunchTokenParams)",
        "numberOfBytes": "32",
        "value": "t_struct(LaunchTokenParams)17989_storage"
      },
      "t_struct(LaunchTokenParams)17989_storage": {
        "encoding": "inplace",
        "label": "struct RamsesAdapter.LaunchTokenParams",
        "members": [
          {
            "astId": 17974,
            "contract": "contracts/launchpad/clmm/dexes/RamsesAdapter.sol:RamsesAdapter",
            "label": "tokenBase",
            "offset": 0,
            "slot": "0",
            "type": "t_contract(IERC20)3670"
          },
          {
            "astId": 17977,
            "contract": "contracts/launchpad/clmm/dexes/RamsesAdapter.sol:RamsesAdapter",
            "label": "tokenQuote",
            "offset": 0,
            "slot": "1",
            "type": "t_contract(IERC20)3670"
          },
          {
            "astId": 17980,
            "contract": "contracts/launchpad/clmm/dexes/RamsesAdapter.sol:RamsesAdapter",
            "label": "pool",
            "offset": 0,
            "slot": "2",
            "type": "t_contract(IClPool)16698"
          },
          {
            "astId": 17982,
            "contract": "contracts/launchpad/clmm/dexes/RamsesAdapter.sol:RamsesAdapter",
            "label": "fee",
            "offset": 20,
            "slot": "2",
            "type": "t_uint24"
          },
          {
            "astId": 17984,
            "contract": "contracts/launchpad/clmm/dexes/RamsesAdapter.sol:RamsesAdapter",
            "label": "tick0",
            "offset": 23,
            "slot": "2",
            "type": "t_int24"
          },
          {
            "astId": 17986,
            "contract": "contracts/launchpad/clmm/dexes/RamsesAdapter.sol:RamsesAdapter",
            "label": "tick1",
            "offset": 26,
            "slot": "2",
            "type": "t_int24"
          },
          {
            "astId": 17988,
            "contract": "contracts/launchpad/clmm/dexes/RamsesAdapter.sol:RamsesAdapter",
            "label": "tick2",
            "offset": 29,
            "slot": "2",
            "type": "t_int24"
          }
        ],
        "numberOfBytes": "96"
      },
      "t_uint24": {
        "encoding": "inplace",
        "label": "uint24",
        "numberOfBytes": "3"
      }
    }
  }
}