{
  "address": "0xcf49ECd7Cd23D8B8F48DA14b887A322AaF768146",
  "abi": [
    {
      "inputs": [],
      "name": "InvalidInitialization",
      "type": "error"
    },
    {
      "inputs": [],
      "name": "NotInitializing",
      "type": "error"
    },
    {
      "inputs": [
        {
          "internalType": "address",
          "name": "token",
          "type": "address"
        }
      ],
      "name": "SafeERC20FailedOperation",
      "type": "error"
    },
    {
      "anonymous": false,
      "inputs": [
        {
          "indexed": false,
          "internalType": "uint64",
          "name": "version",
          "type": "uint64"
        }
      ],
      "name": "Initialized",
      "type": "event"
    },
    {
      "inputs": [],
      "name": "WETH9",
      "outputs": [
        {
          "internalType": "contract IWETH9",
          "name": "",
          "type": "address"
        }
      ],
      "stateMutability": "view",
      "type": "function"
    },
    {
      "inputs": [
        {
          "internalType": "contract IERC20",
          "name": "_tokenBase",
          "type": "address"
        },
        {
          "internalType": "contract IERC20",
          "name": "_tokenQuote",
          "type": "address"
        },
        {
          "internalType": "int24",
          "name": "_tick0",
          "type": "int24"
        },
        {
          "internalType": "int24",
          "name": "_tick1",
          "type": "int24"
        },
        {
          "internalType": "int24",
          "name": "_tick2",
          "type": "int24"
        }
      ],
      "name": "addSingleSidedLiquidity",
      "outputs": [],
      "stateMutability": "nonpayable",
      "type": "function"
    },
    {
      "inputs": [],
      "name": "clPoolFactory",
      "outputs": [
        {
          "internalType": "contract IClPoolFactory",
          "name": "",
          "type": "address"
        }
      ],
      "stateMutability": "view",
      "type": "function"
    },
    {
      "inputs": [
        {
          "internalType": "address",
          "name": "_token",
          "type": "address"
        }
      ],
      "name": "claimFees",
      "outputs": [
        {
          "internalType": "uint256",
          "name": "fee0",
          "type": "uint256"
        },
        {
          "internalType": "uint256",
          "name": "fee1",
          "type": "uint256"
        }
      ],
      "stateMutability": "nonpayable",
      "type": "function"
    },
    {
      "inputs": [
        {
          "internalType": "contract IERC20",
          "name": "_token",
          "type": "address"
        }
      ],
      "name": "getPool",
      "outputs": [
        {
          "internalType": "address",
          "name": "pool",
          "type": "address"
        }
      ],
      "stateMutability": "view",
      "type": "function"
    },
    {
      "inputs": [
        {
          "internalType": "address",
          "name": "token",
          "type": "address"
        }
      ],
      "name": "graduated",
      "outputs": [
        {
          "internalType": "bool",
          "name": "",
          "type": "bool"
        }
      ],
      "stateMutability": "view",
      "type": "function"
    },
    {
      "inputs": [
        {
          "internalType": "address",
          "name": "_launchpad",
          "type": "address"
        },
        {
          "internalType": "address",
          "name": "_clPoolFactory",
          "type": "address"
        },
        {
          "internalType": "address",
          "name": "_swapRouter",
          "type": "address"
        },
        {
          "internalType": "address",
          "name": "_WETH9",
          "type": "address"
        }
      ],
      "name": "initialize",
      "outputs": [],
      "stateMutability": "nonpayable",
      "type": "function"
    },
    {
      "inputs": [
        {
          "internalType": "contract IERC20",
          "name": "token",
          "type": "address"
        }
      ],
      "name": "launchParams",
      "outputs": [
        {
          "internalType": "address",
          "name": "pool",
          "type": "address"
        },
        {
          "components": [
            {
              "internalType": "Currency",
              "name": "currency0",
              "type": "address"
            },
            {
              "internalType": "Currency",
              "name": "currency1",
              "type": "address"
            },
            {
              "internalType": "uint24",
              "name": "fee",
              "type": "uint24"
            },
            {
              "internalType": "int24",
              "name": "tickSpacing",
              "type": "int24"
            },
            {
              "internalType": "contract IHooks",
              "name": "hooks",
              "type": "address"
            }
          ],
          "internalType": "struct PoolKey",
          "name": "poolKey",
          "type": "tuple"
        },
        {
          "internalType": "int24",
          "name": "tick0",
          "type": "int24"
        },
        {
          "internalType": "int24",
          "name": "tick1",
          "type": "int24"
        },
        {
          "internalType": "int24",
          "name": "tick2",
          "type": "int24"
        }
      ],
      "stateMutability": "view",
      "type": "function"
    },
    {
      "inputs": [
        {
          "internalType": "contract IERC20",
          "name": "_token",
          "type": "address"
        }
      ],
      "name": "launchedTokens",
      "outputs": [
        {
          "internalType": "bool",
          "name": "launched",
          "type": "bool"
        }
      ],
      "stateMutability": "view",
      "type": "function"
    },
    {
      "inputs": [],
      "name": "launchpad",
      "outputs": [
        {
          "internalType": "address",
          "name": "",
          "type": "address"
        }
      ],
      "stateMutability": "view",
      "type": "function"
    },
    {
      "inputs": [
        {
          "internalType": "uint256",
          "name": "amount0",
          "type": "uint256"
        },
        {
          "internalType": "uint256",
          "name": "",
          "type": "uint256"
        },
        {
          "internalType": "bytes",
          "name": "",
          "type": "bytes"
        }
      ],
      "name": "ramsesV2MintCallback",
      "outputs": [],
      "stateMutability": "nonpayable",
      "type": "function"
    },
    {
      "inputs": [],
      "name": "swapRouter",
      "outputs": [
        {
          "internalType": "contract IRamsesSwapRouter",
          "name": "",
          "type": "address"
        }
      ],
      "stateMutability": "view",
      "type": "function"
    },
    {
      "inputs": [
        {
          "internalType": "contract IERC20",
          "name": "_tokenIn",
          "type": "address"
        },
        {
          "internalType": "contract IERC20",
          "name": "_tokenOut",
          "type": "address"
        },
        {
          "internalType": "uint256",
          "name": "_amountIn",
          "type": "uint256"
        },
        {
          "internalType": "uint256",
          "name": "_minAmountOut",
          "type": "uint256"
        }
      ],
      "name": "swapWithExactInput",
      "outputs": [
        {
          "internalType": "uint256",
          "name": "amountOut",
          "type": "uint256"
        }
      ],
      "stateMutability": "nonpayable",
      "type": "function"
    },
    {
      "inputs": [
        {
          "internalType": "contract IERC20",
          "name": "_tokenIn",
          "type": "address"
        },
        {
          "internalType": "contract IERC20",
          "name": "_tokenOut",
          "type": "address"
        },
        {
          "internalType": "uint256",
          "name": "_amountOut",
          "type": "uint256"
        },
        {
          "internalType": "uint256",
          "name": "_maxAmountIn",
          "type": "uint256"
        }
      ],
      "name": "swapWithExactOutput",
      "outputs": [
        {
          "internalType": "uint256",
          "name": "amountIn",
          "type": "uint256"
        }
      ],
      "stateMutability": "nonpayable",
      "type": "function"
    },
    {
      "stateMutability": "payable",
      "type": "receive"
    }
  ],
  "transactionHash": "0x0251a6a31d55a99da34eee4485a26f9ee6e5e35e073920ce1a683d2b6157d8e4",
  "args": [],
  "numDeployments": 1,
  "solcInputHash": "6cf22050396374385f807c5259d8bf60",
  "bytecode": "0x6080604052348015600f57600080fd5b506121c28061001f6000396000f3fe6080604052600436106100e15760003560e01c80639b083ec91161007f578063bfeab6e511610059578063bfeab6e514610337578063c31c9c0714610372578063f375b5de14610392578063f8c8765e146103b257600080fd5b80639b083ec9146102ae578063b31cd0d2146102de578063bbe4f6db146102fe57600080fd5b80633e48f417116100bb5780633e48f4171461021e5780633efab2a8146102405780634aa4a4fc146102605780637f6ad71a1461028057600080fd5b806302669b52146100ed57806315a0ea6a1461012a5780632b76a5571461015f57600080fd5b366100e857005b600080fd5b3480156100f957600080fd5b5060005461010d906001600160a01b031681565b6040516001600160a01b0390911681526020015b60405180910390f35b34801561013657600080fd5b5061014a610145366004611c9a565b6103d2565b60408051928352602083019190915201610121565b34801561016b57600080fd5b5061020d61017a366004611c9a565b6002602081815260009283526040928390208054845160a08101865260018301546001600160a01b039081168252838601548082169583019590955262ffffff600160a01b86041696820196909652600160b81b909304840b6060840152600382015485166080840152600490910154931692909181810b9163010000008104820b916601000000000000909104900b85565b604051610121959493929190611cb7565b34801561022a57600080fd5b5061023e610239366004611d56565b610802565b005b34801561024c57600080fd5b5061023e61025b366004611de8565b610985565b34801561026c57600080fd5b5060015461010d906001600160a01b031681565b34801561028c57600080fd5b506102a061029b366004611e59565b61104a565b604051908152602001610121565b3480156102ba57600080fd5b506102ce6102c9366004611c9a565b6111ae565b6040519015158152602001610121565b3480156102ea57600080fd5b506102a06102f9366004611e59565b6112fa565b34801561030a57600080fd5b5061010d610319366004611c9a565b6001600160a01b039081166000908152600260205260409020541690565b34801561034357600080fd5b506102ce610352366004611c9a565b6001600160a01b0390811660009081526002602052604090205416151590565b34801561037e57600080fd5b5060055461010d906001600160a01b031681565b34801561039e57600080fd5b5060045461010d906001600160a01b031681565b3480156103be57600080fd5b5061023e6103cd366004611e9f565b611468565b6001600160a01b038082166000908152600260208181526040808420815160a0808201845282548816825283519081018452600183015488168152828601548089168287015262ffffff600160a01b82041682860152600160b81b9004860b606080830191909152600384015489166080808401919091529583019190915260049092015480860b9382019390935263010000008304850b91810191909152660100000000000090910490920b90820152805191928392166104c75760405162461bcd60e51b8152602060048201526009602482015268085b185d5b98da195960ba1b60448201526064015b60405180910390fd5b8051600354604080840151606085015191516309e3d67b60e31b81526001600160a01b039384166004820152600291820b602482015291900b60448201526001600160801b0360648201819052608482015260009283921690634f1eb3d89060a40160408051808303816000875af1158015610547573d6000803e3d6000fd5b505050506040513d601f19601f8201168201806040525081019061056b9190611f12565b8451600354606087015160808801516040516309e3d67b60e31b81526001600160a01b039384166004820152600292830b6024820152910b60448201526001600160801b03606482018190526084820181905294851696509290931693506000928392911690634f1eb3d89060a40160408051808303816000875af11580156105f8573d6000803e3d6000fd5b505050506040513d601f19601f8201168201806040525081019061061c9190611f12565b6001600160801b0391821693501690506106368285611f74565b96506106428184611f74565b955084600001516001600160a01b0316630dfe16816040518163ffffffff1660e01b8152600401602060405180830381865afa158015610686573d6000803e3d6000fd5b505050506040513d601f19601f820116820180604052508101906106aa9190611f8d565b60405163a9059cbb60e01b8152336004820152602481018990526001600160a01b03919091169063a9059cbb906044016020604051808303816000875af11580156106f9573d6000803e3d6000fd5b505050506040513d601f19601f8201168201806040525081019061071d9190611fba565b5084600001516001600160a01b031663d21220a76040518163ffffffff1660e01b8152600401602060405180830381865afa158015610760573d6000803e3d6000fd5b505050506040513d601f19601f820116820180604052508101906107849190611f8d565b60405163a9059cbb60e01b8152336004820152602481018890526001600160a01b03919091169063a9059cbb906044016020604051808303816000875af11580156107d3573d6000803e3d6000fd5b505050506040513d601f19601f820116820180604052508101906107f79190611fba565b505050505050915091565b6006546001600160a01b03163314801561082657506006546001600160a01b031615155b6108725760405162461bcd60e51b815260206004820152600760248201527f21636c506f6f6c0000000000000000000000000000000000000000000000000060448201526064016104be565b600660009054906101000a90046001600160a01b03166001600160a01b0316630dfe16816040518163ffffffff1660e01b8152600401602060405180830381865afa1580156108c5573d6000803e3d6000fd5b505050506040513d601f19601f820116820180604052508101906108e99190611f8d565b6000546040517f23b872dd0000000000000000000000000000000000000000000000000000000081526001600160a01b039182166004820152336024820152604481018790529116906323b872dd906064016020604051808303816000875af115801561095a573d6000803e3d6000fd5b505050506040513d601f19601f8201168201806040525081019061097e9190611fba565b5050505050565b6000546001600160a01b031633146109df5760405162461bcd60e51b815260206004820152600a60248201527f216c61756e63687061640000000000000000000000000000000000000000000060448201526064016104be565b6001600160a01b038581166000908152600260205260409020541615610a335760405162461bcd60e51b8152602060048201526009602482015268085b185d5b98da195960ba1b60448201526064016104be565b6000610a48610a43600186611fd5565b611626565b90506000610a5585611626565b90506000610a6285611626565b90506000610a6f85611626565b600480546040517f8e909e510000000000000000000000000000000000000000000000000000000081526001600160a01b038d8116938201939093528b83166024820152614e2060448201528783166064820152929350600092911690638e909e51906084016020604051808303816000875af1158015610af4573d6000803e3d6000fd5b505050506040513d601f19601f82011682018060405250810190610b189190611f8d565b905060006040518060a001604052808c6001600160a01b031681526020018b6001600160a01b03168152602001614e2062ffffff1681526020016101f460020b815260200160006001600160a01b031681525090506040518060a00160405280836001600160a01b031681526020018281526020018a60020b81526020018960020b81526020018860020b815250600260008d6001600160a01b03166001600160a01b0316815260200190815260200160002060008201518160000160006101000a8154816001600160a01b0302191690836001600160a01b0316021790555060208201518160010160008201518160000160006101000a8154816001600160a01b0302191690836001600160a01b0316021790555060208201518160010160006101000a8154816001600160a01b0302191690836001600160a01b0316021790555060408201518160010160146101000a81548162ffffff021916908362ffffff16021790555060608201518160010160176101000a81548162ffffff021916908360020b62ffffff16021790555060808201518160020160006101000a8154816001600160a01b0302191690836001600160a01b03160217905550505060408201518160040160006101000a81548162ffffff021916908360020b62ffffff16021790555060608201518160040160036101000a81548162ffffff021916908360020b62ffffff16021790555060808201518160040160066101000a81548162ffffff021916908360020b62ffffff160217905550905050816001600160a01b0316630dfe16816040518163ffffffff1660e01b8152600401602060405180830381865afa158015610d90573d6000803e3d6000fd5b505050506040513d601f19601f82011682018060405250810190610db49190611f8d565b6001600160a01b03168b6001600160a01b031614610e145760405162461bcd60e51b815260206004820152600760248201527f21746f6b656e300000000000000000000000000000000000000000000000000060448201526064016104be565b6040517f9b19251a0000000000000000000000000000000000000000000000000000000081526001600160a01b0383811660048301528c1690639b19251a90602401600060405180830381600087803b158015610e7057600080fd5b505af1158015610e84573d6000803e3d6000fd5b50505050506000610ea285856b01f04ef12cb04cf158000000611907565b90506000610ebd85856b014adf4b7320334b90000000611907565b6006805473ffffffffffffffffffffffffffffffffffffffff19166001600160a01b03868116918217909255600354604051633c8a7d8d60e01b81529216600483015260028d810b60248401528c900b60448301526001600160801b038516606483015260a06084830152600060a4830152919250633c8a7d8d9060c40160408051808303816000875af1158015610f59573d6000803e3d6000fd5b505050506040513d601f19601f82011682018060405250810190610f7d9190611ffa565b5050600354604051633c8a7d8d60e01b81526001600160a01b03918216600482015260028b810b60248301528a900b60448201526001600160801b038316606482015260a06084820152600060a482015290841690633c8a7d8d9060c40160408051808303816000875af1158015610ff9573d6000803e3d6000fd5b505050506040513d601f19601f8201168201806040525081019061101d9190611ffa565b50506006805473ffffffffffffffffffffffffffffffffffffffff19169055505050505050505050505050565b60006110616001600160a01b038616333086611985565b60055460405163095ea7b360e01b81526001600160a01b03918216600482015260001960248201529086169063095ea7b3906044016020604051808303816000875af11580156110b5573d6000803e3d6000fd5b505050506040513d601f19601f820116820180604052508101906110d99190611fba565b5060055460408051610100810182526001600160a01b0388811682528781166020830152614e208284015233606083015242608083015260a0820187905260c08201869052600060e083015291517f414bf389000000000000000000000000000000000000000000000000000000008152919092169163414bf3899161116291906004016120a0565b6020604051808303816000875af1158015611181573d6000803e3d6000fd5b505050506040513d601f19601f820116820180604052508101906111a591906120af565b95945050505050565b6001600160a01b038082166000908152600260208181526040808420815160a0808201845282548816825283519081018452600183015488168152828601548089168287015262ffffff600160a01b82041682860152600160b81b9004860b606080830191909152600384015489166080808401919091529583019190915260049092015480860b9382019390935263010000008304850b91810191909152660100000000000090910490920b90820152805191929091166112735750600092915050565b600081600001516001600160a01b0316633850c7bd6040518163ffffffff1660e01b815260040160e060405180830381865afa1580156112b7573d6000803e3d6000fd5b505050506040513d601f19601f820116820180604052508101906112db91906120da565b5050505050915050816060015160020b8160020b121592505050919050565b60006113116001600160a01b038616333085611985565b60055460405163095ea7b360e01b81526001600160a01b03918216600482015260001960248201529086169063095ea7b3906044016020604051808303816000875af1158015611365573d6000803e3d6000fd5b505050506040513d601f19601f820116820180604052508101906113899190611fba565b5060055460408051610100810182526001600160a01b0388811682528781166020830152614e208284015233606083015242608083015260a0820187905260c08201869052600060e083015291517fdb3e2198000000000000000000000000000000000000000000000000000000008152919092169163db3e21989161141291906004016120a0565b6020604051808303816000875af1158015611431573d6000803e3d6000fd5b505050506040513d601f19601f8201168201806040525081019061145591906120af565b905061146085611a07565b949350505050565b7ff0c57e16840df040f15088dc2f81fe391c3923bec73e23a9662efc9c229c6a00805468010000000000000000810460ff16159067ffffffffffffffff166000811580156114b35750825b905060008267ffffffffffffffff1660011480156114d05750303b155b9050811580156114de575080155b15611515576040517ff92ee8a900000000000000000000000000000000000000000000000000000000815260040160405180910390fd5b845467ffffffffffffffff19166001178555831561154957845468ff00000000000000001916680100000000000000001785555b6115938987600080546001600160a01b0393841673ffffffffffffffffffffffffffffffffffffffff19918216179091556003805482163017905560018054929093169116179055565b600480546001600160a01b03808b1673ffffffffffffffffffffffffffffffffffffffff199283161790925560058054928a1692909116919091179055831561161b57845468ff000000000000000019168555604051600181527fc7f505b2f371ae2175ee4913f4499e1f2633a7b5936321eed1cdaeb6115181d29060200160405180910390a15b505050505050505050565b60020b600060ff82901d80830118620d89e8811115611669576116697f8b86327a0000000000000000000000000000000000000000000000000000000084611ab1565b7001fffcb933bd6fad37aa2d162d1a59400160018216027001000000000000000000000000000000001860028216156116b2576ffff97272373d413259a46990580e213a0260801c5b60048216156116d1576ffff2e50f5f656932ef12357cf3c7fdcc0260801c5b60088216156116f0576fffe5caca7e10e4e61c3624eaa0941cd00260801c5b601082161561170f576fffcb9843d60f6159c9db58835c9266440260801c5b602082161561172e576fff973b41fa98c081472e6896dfb254c00260801c5b604082161561174d576fff2ea16466c96a3843ec78b326b528610260801c5b608082161561176c576ffe5dee046a99a2a811c461f1969c30530260801c5b61010082161561178c576ffcbe86c7900a88aedcffc83b479aa3a40260801c5b6102008216156117ac576ff987a7253ac413176f2b074cf7815e540260801c5b6104008216156117cc576ff3392b0822b70005940c7a398e4b70f30260801c5b6108008216156117ec576fe7159475a2c29b7443b29c7fa6e889d90260801c5b61100082161561180c576fd097f3bdfd2022b8845ad8f792aa58250260801c5b61200082161561182c576fa9f746462d870fdf8a65dc1f90e061e50260801c5b61400082161561184c576f70d869a156d2a1b890bb3df62baf32f70260801c5b61800082161561186c576f31be135f97d08fd981231505542fcfa60260801c5b6201000082161561188d576f09aa508b5b7a84e1c677de54f3e99bc90260801c5b620200008216156118ad576e5d6af8dedb81196699c329225ee6040260801c5b620400008216156118cc576d2216e584f5fa1ea926041bedfe980260801c5b620800008216156118e9576b048a170391f7dc42444e8fa20260801c5b60008413156118f757600019045b63ffffffff0160201c9392505050565b6000826001600160a01b0316846001600160a01b03161115611927579192915b6000611953856001600160a01b0316856001600160a01b03166c01000000000000000000000000611ac2565b905061197a6119758483611967898961216d565b6001600160a01b0316611ac2565b611b64565b9150505b9392505050565b6040516001600160a01b038481166024830152838116604483015260648201839052611a019186918216906323b872dd906084015b604051602081830303815290604052915060e01b6020820180517bffffffffffffffffffffffffffffffffffffffffffffffffffffffff8381831617835250505050611bc2565b50505050565b6040517f70a082310000000000000000000000000000000000000000000000000000000081523060048201526000906001600160a01b038316906370a0823190602401602060405180830381865afa158015611a67573d6000803e3d6000fd5b505050506040513d601f19601f82011682018060405250810190611a8b91906120af565b905080600003611a99575050565b611aad6001600160a01b0383163383611c4c565b5050565b816000528060020b60045260246000fd5b60008383028160001985870982811083820303915050808411611ae457600080fd5b80600003611af75750829004905061197e565b6000848688096000868103871696879004966002600389028118808a02820302808a02820302808a02820302808a02820302808a02820302808a02909103029181900381900460010186841190950394909402919094039290920491909117919091029150509392505050565b806001600160801b0381168114611bbd5760405162461bcd60e51b815260206004820152601260248201527f6c6971756964697479206f766572666c6f77000000000000000000000000000060448201526064016104be565b919050565b600080602060008451602086016000885af180611be5576040513d6000823e3d81fd5b50506000513d91508115611bfd578060011415611c0a565b6001600160a01b0384163b155b15611a01576040517f5274afe70000000000000000000000000000000000000000000000000000000081526001600160a01b03851660048201526024016104be565b6040516001600160a01b03838116602483015260448201839052611c7d91859182169063a9059cbb906064016119ba565b505050565b6001600160a01b0381168114611c9757600080fd5b50565b600060208284031215611cac57600080fd5b813561197e81611c82565b6000610120820190506001600160a01b03871682526001600160a01b0386511660208301526001600160a01b03602087015116604083015262ffffff6040870151166060830152606086015160020b60808301526001600160a01b0360808701511660a0830152611d2d60c083018660020b9052565b611d3c60e083018560020b9052565b611d4c61010083018460020b9052565b9695505050505050565b60008060008060608587031215611d6c57600080fd5b8435935060208501359250604085013567ffffffffffffffff811115611d9157600080fd5b8501601f81018713611da257600080fd5b803567ffffffffffffffff811115611db957600080fd5b876020828401011115611dcb57600080fd5b949793965060200194505050565b8060020b8114611c9757600080fd5b600080600080600060a08688031215611e0057600080fd5b8535611e0b81611c82565b94506020860135611e1b81611c82565b93506040860135611e2b81611dd9565b92506060860135611e3b81611dd9565b91506080860135611e4b81611dd9565b809150509295509295909350565b60008060008060808587031215611e6f57600080fd5b8435611e7a81611c82565b93506020850135611e8a81611c82565b93969395505050506040820135916060013590565b60008060008060808587031215611eb557600080fd5b8435611ec081611c82565b93506020850135611ed081611c82565b92506040850135611ee081611c82565b91506060850135611ef081611c82565b939692955090935050565b80516001600160801b0381168114611bbd57600080fd5b60008060408385031215611f2557600080fd5b611f2e83611efb565b9150611f3c60208401611efb565b90509250929050565b7f4e487b7100000000000000000000000000000000000000000000000000000000600052601160045260246000fd5b80820180821115611f8757611f87611f45565b92915050565b600060208284031215611f9f57600080fd5b815161197e81611c82565b80518015158114611bbd57600080fd5b600060208284031215611fcc57600080fd5b61197e82611faa565b600282810b9082900b03627fffff198112627fffff82131715611f8757611f87611f45565b6000806040838503121561200d57600080fd5b505080516020909101519092909150565b6001600160a01b0381511682526001600160a01b03602082015116602083015262ffffff6040820151166040830152606081015161206760608401826001600160a01b03169052565b506080810151608083015260a081015160a083015260c081015160c083015260e0810151611c7d60e08401826001600160a01b03169052565b6101008101611f87828461201e565b6000602082840312156120c157600080fd5b5051919050565b805161ffff81168114611bbd57600080fd5b600080600080600080600060e0888a0312156120f557600080fd5b875161210081611c82565b602089015190975061211181611dd9565b955061211f604089016120c8565b945061212d606089016120c8565b935061213b608089016120c8565b925060a088015160ff8116811461215157600080fd5b915061215f60c08901611faa565b905092959891949750929550565b6001600160a01b038281168282160390811115611f8757611f87611f4556fea264697066735822122019949cf9c5a6b34ebbb3f7b3df64f19d57b4f2e4a337fd3745657304a715c6c064736f6c634300081c0033",
  "devdoc": {
    "errors": {
      "InvalidInitialization()": [
        {
          "details": "The contract is already initialized."
        }
      ],
      "NotInitializing()": [
        {
          "details": "The contract is not initializing."
        }
      ],
      "SafeERC20FailedOperation(address)": [
        {
          "details": "An operation with an ERC-20 token failed."
        }
      ]
    },
    "events": {
      "Initialized(uint64)": {
        "details": "Triggered when the contract has been initialized or reinitialized."
      }
    },
    "kind": "dev",
    "methods": {
      "addSingleSidedLiquidity(address,address,int24,int24,int24)": {
        "details": "Provides liquidity across three ticks with different amounts"
      },
      "claimFees(address)": {
        "params": {
          "_token": "The token address to claim fees for"
        },
        "returns": {
          "fee0": "The amount of token0 fees to claim",
          "fee1": "The amount of token1 fees to claim"
        }
      },
      "getPool(address)": {
        "params": {
          "_token": "The token address"
        },
        "returns": {
          "pool": "The address of the pool"
        }
      },
      "graduated(address)": {
        "params": {
          "token": "The token to check"
        },
        "returns": {
          "_0": "true if the token has graduated, false otherwise"
        }
      },
      "initialize(address,address,address,address)": {
        "params": {
          "_WETH9": "The address of the WETH9 token",
          "_clPoolFactory": "The address of the CL pool factory",
          "_launchpad": "The address of the launchpad",
          "_swapRouter": "The address of the swap router"
        }
      },
      "launchedTokens(address)": {
        "params": {
          "_token": "The token address to check"
        },
        "returns": {
          "launched": "true if the token has been launched, false otherwise"
        }
      },
      "swapWithExactInput(address,address,uint256,uint256)": {
        "params": {
          "_amountIn": "The amount of tokens to swap",
          "_minAmountOut": "The minimum amount of tokens to receive",
          "_tokenIn": "The token to swap",
          "_tokenOut": "The token to receive"
        },
        "returns": {
          "amountOut": "The amount of tokens received"
        }
      },
      "swapWithExactOutput(address,address,uint256,uint256)": {
        "params": {
          "_amountOut": "The amount of tokens to swap",
          "_maxAmountIn": "The maximum amount of tokens to receive",
          "_tokenIn": "The token to swap",
          "_tokenOut": "The token to receive"
        },
        "returns": {
          "amountIn": "The amount of tokens received"
        }
      }
    },
    "version": 1
  },
  "userdoc": {
    "kind": "user",
    "methods": {
      "addSingleSidedLiquidity(address,address,int24,int24,int24)": {
        "notice": "Add single-sided liquidity to a concentrated pool"
      },
      "claimFees(address)": {
        "notice": "Claim accumulated fees from the pool"
      },
      "getPool(address)": {
        "notice": "Returns the address of the pool for a given token"
      },
      "graduated(address)": {
        "notice": "Checks if a token has graduated"
      },
      "initialize(address,address,address,address)": {
        "notice": "Initializes the adapter"
      },
      "launchedTokens(address)": {
        "notice": "Checks if a token has been launched"
      },
      "launchpad()": {
        "notice": "Returns the address of the Launchpad contract"
      },
      "swapWithExactInput(address,address,uint256,uint256)": {
        "notice": "Swap a token with exact input"
      },
      "swapWithExactOutput(address,address,uint256,uint256)": {
        "notice": "Swap a token with exact output"
      }
    },
    "version": 1
  },
  "storageLayout": {
    "storage": [
      {
        "astId": 19116,
        "contract": "contracts/launchpad/clmm/dexes/RamsesAdapter.sol:RamsesAdapter",
        "label": "launchpad",
        "offset": 0,
        "slot": "0",
        "type": "t_address"
      },
      {
        "astId": 19119,
        "contract": "contracts/launchpad/clmm/dexes/RamsesAdapter.sol:RamsesAdapter",
        "label": "WETH9",
        "offset": 0,
        "slot": "1",
        "type": "t_contract(IWETH9)15065"
      },
      {
        "astId": 19125,
        "contract": "contracts/launchpad/clmm/dexes/RamsesAdapter.sol:RamsesAdapter",
        "label": "launchParams",
        "offset": 0,
        "slot": "2",
        "type": "t_mapping(t_contract(IERC20)3735,t_struct(LaunchTokenParams)15889_storage)"
      },
      {
        "astId": 19127,
        "contract": "contracts/launchpad/clmm/dexes/RamsesAdapter.sol:RamsesAdapter",
        "label": "_me",
        "offset": 0,
        "slot": "3",
        "type": "t_address"
      },
      {
        "astId": 19891,
        "contract": "contracts/launchpad/clmm/dexes/RamsesAdapter.sol:RamsesAdapter",
        "label": "clPoolFactory",
        "offset": 0,
        "slot": "4",
        "type": "t_contract(IClPoolFactory)16505"
      },
      {
        "astId": 19894,
        "contract": "contracts/launchpad/clmm/dexes/RamsesAdapter.sol:RamsesAdapter",
        "label": "swapRouter",
        "offset": 0,
        "slot": "5",
        "type": "t_contract(IRamsesSwapRouter)17882"
      },
      {
        "astId": 19897,
        "contract": "contracts/launchpad/clmm/dexes/RamsesAdapter.sol:RamsesAdapter",
        "label": "_transientClPool",
        "offset": 0,
        "slot": "6",
        "type": "t_contract(IClPool)16304"
      }
    ],
    "types": {
      "t_address": {
        "encoding": "inplace",
        "label": "address",
        "numberOfBytes": "20"
      },
      "t_contract(IClPool)16304": {
        "encoding": "inplace",
        "label": "contract IClPool",
        "numberOfBytes": "20"
      },
      "t_contract(IClPoolFactory)16505": {
        "encoding": "inplace",
        "label": "contract IClPoolFactory",
        "numberOfBytes": "20"
      },
      "t_contract(IERC20)3735": {
        "encoding": "inplace",
        "label": "contract IERC20",
        "numberOfBytes": "20"
      },
      "t_contract(IHooks)10276": {
        "encoding": "inplace",
        "label": "contract IHooks",
        "numberOfBytes": "20"
      },
      "t_contract(IRamsesSwapRouter)17882": {
        "encoding": "inplace",
        "label": "contract IRamsesSwapRouter",
        "numberOfBytes": "20"
      },
      "t_contract(IWETH9)15065": {
        "encoding": "inplace",
        "label": "contract IWETH9",
        "numberOfBytes": "20"
      },
      "t_int24": {
        "encoding": "inplace",
        "label": "int24",
        "numberOfBytes": "3"
      },
      "t_mapping(t_contract(IERC20)3735,t_struct(LaunchTokenParams)15889_storage)": {
        "encoding": "mapping",
        "key": "t_contract(IERC20)3735",
        "label": "mapping(contract IERC20 => struct ICLMMAdapter.LaunchTokenParams)",
        "numberOfBytes": "32",
        "value": "t_struct(LaunchTokenParams)15889_storage"
      },
      "t_struct(LaunchTokenParams)15889_storage": {
        "encoding": "inplace",
        "label": "struct ICLMMAdapter.LaunchTokenParams",
        "members": [
          {
            "astId": 15879,
            "contract": "contracts/launchpad/clmm/dexes/RamsesAdapter.sol:RamsesAdapter",
            "label": "pool",
            "offset": 0,
            "slot": "0",
            "type": "t_address"
          },
          {
            "astId": 15882,
            "contract": "contracts/launchpad/clmm/dexes/RamsesAdapter.sol:RamsesAdapter",
            "label": "poolKey",
            "offset": 0,
            "slot": "1",
            "type": "t_struct(PoolKey)14649_storage"
          },
          {
            "astId": 15884,
            "contract": "contracts/launchpad/clmm/dexes/RamsesAdapter.sol:RamsesAdapter",
            "label": "tick0",
            "offset": 0,
            "slot": "4",
            "type": "t_int24"
          },
          {
            "astId": 15886,
            "contract": "contracts/launchpad/clmm/dexes/RamsesAdapter.sol:RamsesAdapter",
            "label": "tick1",
            "offset": 3,
            "slot": "4",
            "type": "t_int24"
          },
          {
            "astId": 15888,
            "contract": "contracts/launchpad/clmm/dexes/RamsesAdapter.sol:RamsesAdapter",
            "label": "tick2",
            "offset": 6,
            "slot": "4",
            "type": "t_int24"
          }
        ],
        "numberOfBytes": "160"
      },
      "t_struct(PoolKey)14649_storage": {
        "encoding": "inplace",
        "label": "struct PoolKey",
        "members": [
          {
            "astId": 14634,
            "contract": "contracts/launchpad/clmm/dexes/RamsesAdapter.sol:RamsesAdapter",
            "label": "currency0",
            "offset": 0,
            "slot": "0",
            "type": "t_userDefinedValueType(Currency)14303"
          },
          {
            "astId": 14638,
            "contract": "contracts/launchpad/clmm/dexes/RamsesAdapter.sol:RamsesAdapter",
            "label": "currency1",
            "offset": 0,
            "slot": "1",
            "type": "t_userDefinedValueType(Currency)14303"
          },
          {
            "astId": 14641,
            "contract": "contracts/launchpad/clmm/dexes/RamsesAdapter.sol:RamsesAdapter",
            "label": "fee",
            "offset": 20,
            "slot": "1",
            "type": "t_uint24"
          },
          {
            "astId": 14644,
            "contract": "contracts/launchpad/clmm/dexes/RamsesAdapter.sol:RamsesAdapter",
            "label": "tickSpacing",
            "offset": 23,
            "slot": "1",
            "type": "t_int24"
          },
          {
            "astId": 14648,
            "contract": "contracts/launchpad/clmm/dexes/RamsesAdapter.sol:RamsesAdapter",
            "label": "hooks",
            "offset": 0,
            "slot": "2",
            "type": "t_contract(IHooks)10276"
          }
        ],
        "numberOfBytes": "96"
      },
      "t_uint24": {
        "encoding": "inplace",
        "label": "uint24",
        "numberOfBytes": "3"
      },
      "t_userDefinedValueType(Currency)14303": {
        "encoding": "inplace",
        "label": "Currency",
        "numberOfBytes": "20"
      }
    }
  }
}