{
  "address": "0x416A9dE3b64417d9Fc61562b294E5d8c19aA04E1",
  "abi": [
    {
      "inputs": [
        {
          "internalType": "address",
          "name": "_adapter",
          "type": "address"
        },
        {
          "internalType": "address",
          "name": "_weth",
          "type": "address"
        },
        {
          "internalType": "address",
          "name": "_odos",
          "type": "address"
        }
      ],
      "stateMutability": "nonpayable",
      "type": "constructor"
    },
    {
      "inputs": [
        {
          "internalType": "address",
          "name": "token",
          "type": "address"
        }
      ],
      "name": "SafeERC20FailedOperation",
      "type": "error"
    },
    {
      "inputs": [],
      "name": "ODOS",
      "outputs": [
        {
          "internalType": "address",
          "name": "",
          "type": "address"
        }
      ],
      "stateMutability": "view",
      "type": "function"
    },
    {
      "inputs": [],
      "name": "adapter",
      "outputs": [
        {
          "internalType": "contract ICLMMAdapter",
          "name": "",
          "type": "address"
        }
      ],
      "stateMutability": "view",
      "type": "function"
    },
    {
      "inputs": [
        {
          "internalType": "contract IERC20",
          "name": "_odosTokenIn",
          "type": "address"
        },
        {
          "internalType": "contract IERC20",
          "name": "_tokenIn",
          "type": "address"
        },
        {
          "internalType": "contract IERC20",
          "name": "_tokenOut",
          "type": "address"
        },
        {
          "internalType": "uint256",
          "name": "_odosTokenInAmount",
          "type": "uint256"
        },
        {
          "internalType": "uint256",
          "name": "_minOdosTokenOut",
          "type": "uint256"
        },
        {
          "internalType": "uint256",
          "name": "_minAmountOut",
          "type": "uint256"
        },
        {
          "internalType": "bytes",
          "name": "_odosData",
          "type": "bytes"
        }
      ],
      "name": "buyWithExactInputWithOdos",
      "outputs": [
        {
          "internalType": "uint256",
          "name": "amountOut",
          "type": "uint256"
        }
      ],
      "stateMutability": "payable",
      "type": "function"
    },
    {
      "inputs": [
        {
          "internalType": "contract IERC20",
          "name": "_tokenIn",
          "type": "address"
        },
        {
          "internalType": "contract IERC20",
          "name": "_odosTokenOut",
          "type": "address"
        },
        {
          "internalType": "contract IERC20",
          "name": "_tokenOut",
          "type": "address"
        },
        {
          "internalType": "uint256",
          "name": "_tokenInAmount",
          "type": "uint256"
        },
        {
          "internalType": "uint256",
          "name": "_minOdosTokenIn",
          "type": "uint256"
        },
        {
          "internalType": "uint256",
          "name": "_minAmountOut",
          "type": "uint256"
        },
        {
          "internalType": "bytes",
          "name": "_odosData",
          "type": "bytes"
        }
      ],
      "name": "sellWithExactInputWithOdos",
      "outputs": [
        {
          "internalType": "uint256",
          "name": "amountOut",
          "type": "uint256"
        }
      ],
      "stateMutability": "payable",
      "type": "function"
    },
    {
      "inputs": [],
      "name": "weth",
      "outputs": [
        {
          "internalType": "contract IWETH9",
          "name": "",
          "type": "address"
        }
      ],
      "stateMutability": "view",
      "type": "function"
    },
    {
      "stateMutability": "payable",
      "type": "receive"
    }
  ],
  "transactionHash": "0xa3c7b0642ea5d7891b92d9e65809480117c2be7c50dc822df1fe624b34cc88cc",
  "args": [
    "0x6E4008AEf1767d10c0F6BA6Db8eB77A6d3c3D850",
    "0xe5d7c2a44ffddf6b295a15c148167daaaf5cf34f",
    "0x2d8879046f1559E53eb052E949e9544bCB72f414"
  ],
  "numDeployments": 1,
  "solcInputHash": "cb5f9c246ca21135e50c36dd43968e30",
  "bytecode": "0x60e060405234801561001057600080fd5b50604051610efd380380610efd83398101604081905261002f91610068565b6001600160a01b0392831660805290821660a0521660c0526100ab565b80516001600160a01b038116811461006357600080fd5b919050565b60008060006060848603121561007d57600080fd5b6100868461004c565b92506100946020850161004c565b91506100a26040850161004c565b90509250925092565b60805160a05160c051610ddf61011e600039600081816101220152818161028d015281816106a6015261072801526000818160ee0152818161016101528181610a160152610a7c015260008181607c015281816102040152818161049c0152818161056001526106160152610ddf6000f3fe60806040526004361061005e5760003560e01c80633fc8cef3116100435780633fc8cef3146100dc57806349df106b146101105780636e6bee161461014457600080fd5b806303eadcfc1461006a5780630dbb5447146100bb57600080fd5b3661006557005b600080fd5b34801561007657600080fd5b5061009e7f000000000000000000000000000000000000000000000000000000000000000081565b6040516001600160a01b0390911681526020015b60405180910390f35b6100ce6100c9366004610c30565b610157565b6040519081526020016100b2565b3480156100e857600080fd5b5061009e7f000000000000000000000000000000000000000000000000000000000000000081565b34801561011c57600080fd5b5061009e7f000000000000000000000000000000000000000000000000000000000000000081565b6100ce610152366004610c30565b610532565b600034156101d8577f00000000000000000000000000000000000000000000000000000000000000006001600160a01b031663d0e30db0346040518263ffffffff1660e01b81526004016000604051808303818588803b1580156101ba57600080fd5b505af11580156101ce573d6000803e3d6000fd5b50505050506101ed565b6101ed6001600160a01b038916333088610919565b60405163095ea7b360e01b81526001600160a01b037f000000000000000000000000000000000000000000000000000000000000000081166004830152600019602483015289169063095ea7b3906044016020604051808303816000875af115801561025d573d6000803e3d6000fd5b505050506040513d601f19601f820116820180604052508101906102819190610d38565b508151156103495760007f00000000000000000000000000000000000000000000000000000000000000006001600160a01b0316836040516102c39190610d61565b6000604051808303816000865af19150503d8060008114610300576040519150601f19603f3d011682016040523d82523d6000602084013e610305565b606091505b50509050806103435760405162461bcd60e51b8152602060048201526005602482015264216f646f7360d81b60448201526064015b60405180910390fd5b506103aa565b866001600160a01b0316886001600160a01b0316146103aa5760405162461bcd60e51b815260206004820152600c60248201527f216f646f73546f6b656e496e0000000000000000000000000000000000000000604482015260640161033a565b6040516370a0823160e01b81523060048201526000906001600160a01b038916906370a0823190602401602060405180830381865afa1580156103f1573d6000803e3d6000fd5b505050506040513d601f19601f820116820180604052508101906104159190610d90565b9050848110156104675760405162461bcd60e51b815260206004820152600c60248201527f216d696e416d6f756e74496e0000000000000000000000000000000000000000604482015260640161033a565b604051633fb56b8d60e11b81526001600160a01b038981166004830152888116602483015260448201839052606482018690527f00000000000000000000000000000000000000000000000000000000000000001690637f6ad71a906084016020604051808303816000875af11580156104e5573d6000803e3d6000fd5b505050506040513d601f19601f820116820180604052508101906105099190610d90565b91506105148861099b565b61051d8761099b565b6105268961099b565b50979650505050505050565b60006105496001600160a01b038916333088610919565b60405163095ea7b360e01b81526001600160a01b037f000000000000000000000000000000000000000000000000000000000000000081166004830152600019602483015289169063095ea7b3906044016020604051808303816000875af11580156105b9573d6000803e3d6000fd5b505050506040513d601f19601f820116820180604052508101906105dd9190610d38565b50604051633fb56b8d60e11b81526001600160a01b038981166004830152888116602483015260448201879052606482018690526000917f000000000000000000000000000000000000000000000000000000000000000090911690637f6ad71a906084016020604051808303816000875af1158015610661573d6000803e3d6000fd5b505050506040513d601f19601f820116820180604052508101906106859190610d90565b8351909150156108495760405163095ea7b360e01b81526001600160a01b037f000000000000000000000000000000000000000000000000000000000000000081166004830152600019602483015289169063095ea7b3906044016020604051808303816000875af11580156106ff573d6000803e3d6000fd5b505050506040513d601f19601f820116820180604052508101906107239190610d38565b5060007f00000000000000000000000000000000000000000000000000000000000000006001600160a01b03168460405161075e9190610d61565b6000604051808303816000865af19150503d806000811461079b576040519150601f19603f3d011682016040523d82523d6000602084013e6107a0565b606091505b50509050806107d95760405162461bcd60e51b8152602060048201526005602482015264216f646f7360d81b604482015260640161033a565b6040516370a0823160e01b81523060048201526001600160a01b038916906370a0823190602401602060405180830381865afa15801561081d573d6000803e3d6000fd5b505050506040513d601f19601f820116820180604052508101906108419190610d90565b9250506108ae565b866001600160a01b0316886001600160a01b0316146108aa5760405162461bcd60e51b815260206004820152600d60248201527f216f646f73546f6b656e4f757400000000000000000000000000000000000000604482015260640161033a565b8091505b838210156108fe5760405162461bcd60e51b815260206004820152600d60248201527f216d696e416d6f756e744f757400000000000000000000000000000000000000604482015260640161033a565b6109078961099b565b6109108761099b565b6105268861099b565b6040516001600160a01b0384811660248301528381166044830152606482018390526109959186918216906323b872dd906084015b604051602081830303815290604052915060e01b6020820180517bffffffffffffffffffffffffffffffffffffffffffffffffffffffff8381831617835250505050610b2a565b50505050565b6040516370a0823160e01b81523060048201526000906001600160a01b038316906370a0823190602401602060405180830381865afa1580156109e2573d6000803e3d6000fd5b505050506040513d601f19601f82011682018060405250810190610a069190610d90565b905080600003610a14575050565b7f00000000000000000000000000000000000000000000000000000000000000006001600160a01b0316826001600160a01b031603610b12576040517f2e1a7d4d000000000000000000000000000000000000000000000000000000008152600481018290527f00000000000000000000000000000000000000000000000000000000000000006001600160a01b031690632e1a7d4d90602401600060405180830381600087803b158015610ac857600080fd5b505af1158015610adc573d6000803e3d6000fd5b505060405133925083156108fc02915083906000818181858888f19350505050158015610b0d573d6000803e3d6000fd5b505050565b610b266001600160a01b0383163383610bb4565b5050565b600080602060008451602086016000885af180610b4d576040513d6000823e3d81fd5b50506000513d91508115610b65578060011415610b72565b6001600160a01b0384163b155b15610995576040517f5274afe70000000000000000000000000000000000000000000000000000000081526001600160a01b038516600482015260240161033a565b6040516001600160a01b03838116602483015260448201839052610b0d91859182169063a9059cbb9060640161094e565b80356001600160a01b0381168114610bfc57600080fd5b919050565b7f4e487b7100000000000000000000000000000000000000000000000000000000600052604160045260246000fd5b600080600080600080600060e0888a031215610c4b57600080fd5b610c5488610be5565b9650610c6260208901610be5565b9550610c7060408901610be5565b9450606088013593506080880135925060a0880135915060c088013567ffffffffffffffff811115610ca157600080fd5b8801601f81018a13610cb257600080fd5b803567ffffffffffffffff811115610ccc57610ccc610c01565b604051601f8201601f19908116603f0116810167ffffffffffffffff81118282101715610cfb57610cfb610c01565b6040528181528282016020018c1015610d1357600080fd5b8160208401602083013760006020838301015280935050505092959891949750929550565b600060208284031215610d4a57600080fd5b81518015158114610d5a57600080fd5b9392505050565b6000825160005b81811015610d825760208186018101518583015201610d68565b506000920191825250919050565b600060208284031215610da257600080fd5b505191905056fea264697066735822122058e0f2fe2a0b86b28920379017be2196db615260b0c579c1e45712bd21beb76964736f6c634300081c0033",
  "devdoc": {
    "errors": {
      "SafeERC20FailedOperation(address)": [
        {
          "details": "An operation with an ERC-20 token failed."
        }
      ]
    },
    "kind": "dev",
    "methods": {
      "buyWithExactInputWithOdos(address,address,address,uint256,uint256,uint256,bytes)": {
        "params": {
          "_minAmountOut": "The minimum amount of tokens to receive",
          "_minOdosTokenOut": "The minimum amount of ODOS tokens to receive",
          "_odosData": "The data to pass to the ODOS contract",
          "_odosTokenIn": "The ODOS token to receive",
          "_odosTokenInAmount": "The amount of ODOS tokens to receive",
          "_tokenIn": "The token to buy",
          "_tokenOut": "The token to receive"
        }
      },
      "sellWithExactInputWithOdos(address,address,address,uint256,uint256,uint256,bytes)": {
        "params": {
          "_minAmountOut": "The minimum amount of tokens to receive",
          "_minOdosTokenIn": "The minimum amount of ODOS tokens to receive",
          "_odosData": "The data to pass to the ODOS contract",
          "_odosTokenOut": "The ODOS token to receive",
          "_tokenIn": "The token to sell",
          "_tokenInAmount": "The amount of tokens to sell",
          "_tokenOut": "The token to receive"
        }
      }
    },
    "version": 1
  },
  "userdoc": {
    "kind": "user",
    "methods": {
      "buyWithExactInputWithOdos(address,address,address,uint256,uint256,uint256,bytes)": {
        "notice": "Buys a token with exact input using ODOS"
      },
      "sellWithExactInputWithOdos(address,address,address,uint256,uint256,uint256,bytes)": {
        "notice": "Sells a token with exact input using ODOS"
      }
    },
    "version": 1
  },
  "storageLayout": {
    "storage": [],
    "types": null
  }
}