{
  "address": "0x4DA4aD29a1eC96aE6fAA699Ad14CBf933682B805",
  "abi": [
    {
      "inputs": [
        {
          "internalType": "address",
          "name": "spender",
          "type": "address"
        },
        {
          "internalType": "uint256",
          "name": "allowance",
          "type": "uint256"
        },
        {
          "internalType": "uint256",
          "name": "needed",
          "type": "uint256"
        }
      ],
      "name": "ERC20InsufficientAllowance",
      "type": "error"
    },
    {
      "inputs": [
        {
          "internalType": "address",
          "name": "sender",
          "type": "address"
        },
        {
          "internalType": "uint256",
          "name": "balance",
          "type": "uint256"
        },
        {
          "internalType": "uint256",
          "name": "needed",
          "type": "uint256"
        }
      ],
      "name": "ERC20InsufficientBalance",
      "type": "error"
    },
    {
      "inputs": [
        {
          "internalType": "address",
          "name": "approver",
          "type": "address"
        }
      ],
      "name": "ERC20InvalidApprover",
      "type": "error"
    },
    {
      "inputs": [
        {
          "internalType": "address",
          "name": "receiver",
          "type": "address"
        }
      ],
      "name": "ERC20InvalidReceiver",
      "type": "error"
    },
    {
      "inputs": [
        {
          "internalType": "address",
          "name": "sender",
          "type": "address"
        }
      ],
      "name": "ERC20InvalidSender",
      "type": "error"
    },
    {
      "inputs": [
        {
          "internalType": "address",
          "name": "spender",
          "type": "address"
        }
      ],
      "name": "ERC20InvalidSpender",
      "type": "error"
    },
    {
      "inputs": [],
      "name": "InvalidInitialization",
      "type": "error"
    },
    {
      "inputs": [],
      "name": "NotInitializing",
      "type": "error"
    },
    {
      "anonymous": false,
      "inputs": [
        {
          "indexed": true,
          "internalType": "address",
          "name": "owner",
          "type": "address"
        },
        {
          "indexed": true,
          "internalType": "address",
          "name": "spender",
          "type": "address"
        },
        {
          "indexed": false,
          "internalType": "uint256",
          "name": "value",
          "type": "uint256"
        }
      ],
      "name": "Approval",
      "type": "event"
    },
    {
      "anonymous": false,
      "inputs": [
        {
          "indexed": false,
          "internalType": "uint64",
          "name": "version",
          "type": "uint64"
        }
      ],
      "name": "Initialized",
      "type": "event"
    },
    {
      "anonymous": false,
      "inputs": [
        {
          "indexed": true,
          "internalType": "address",
          "name": "from",
          "type": "address"
        },
        {
          "indexed": true,
          "internalType": "address",
          "name": "to",
          "type": "address"
        },
        {
          "indexed": false,
          "internalType": "uint256",
          "name": "value",
          "type": "uint256"
        }
      ],
      "name": "Transfer",
      "type": "event"
    },
    {
      "anonymous": false,
      "inputs": [],
      "name": "Unlocked",
      "type": "event"
    },
    {
      "anonymous": false,
      "inputs": [
        {
          "indexed": true,
          "internalType": "address",
          "name": "_address",
          "type": "address"
        }
      ],
      "name": "Whitelisted",
      "type": "event"
    },
    {
      "inputs": [
        {
          "internalType": "address",
          "name": "owner",
          "type": "address"
        },
        {
          "internalType": "address",
          "name": "spender",
          "type": "address"
        }
      ],
      "name": "allowance",
      "outputs": [
        {
          "internalType": "uint256",
          "name": "",
          "type": "uint256"
        }
      ],
      "stateMutability": "view",
      "type": "function"
    },
    {
      "inputs": [
        {
          "internalType": "address",
          "name": "spender",
          "type": "address"
        },
        {
          "internalType": "uint256",
          "name": "value",
          "type": "uint256"
        }
      ],
      "name": "approve",
      "outputs": [
        {
          "internalType": "bool",
          "name": "",
          "type": "bool"
        }
      ],
      "stateMutability": "nonpayable",
      "type": "function"
    },
    {
      "inputs": [
        {
          "internalType": "address",
          "name": "account",
          "type": "address"
        }
      ],
      "name": "balanceOf",
      "outputs": [
        {
          "internalType": "uint256",
          "name": "",
          "type": "uint256"
        }
      ],
      "stateMutability": "view",
      "type": "function"
    },
    {
      "inputs": [
        {
          "internalType": "uint256",
          "name": "value",
          "type": "uint256"
        }
      ],
      "name": "burn",
      "outputs": [],
      "stateMutability": "nonpayable",
      "type": "function"
    },
    {
      "inputs": [
        {
          "internalType": "address",
          "name": "account",
          "type": "address"
        },
        {
          "internalType": "uint256",
          "name": "value",
          "type": "uint256"
        }
      ],
      "name": "burnFrom",
      "outputs": [],
      "stateMutability": "nonpayable",
      "type": "function"
    },
    {
      "inputs": [],
      "name": "claimFees",
      "outputs": [],
      "stateMutability": "nonpayable",
      "type": "function"
    },
    {
      "inputs": [],
      "name": "decimals",
      "outputs": [
        {
          "internalType": "uint8",
          "name": "",
          "type": "uint8"
        }
      ],
      "stateMutability": "view",
      "type": "function"
    },
    {
      "inputs": [
        {
          "components": [
            {
              "internalType": "string",
              "name": "name",
              "type": "string"
            },
            {
              "internalType": "string",
              "name": "symbol",
              "type": "string"
            },
            {
              "internalType": "string",
              "name": "metadata",
              "type": "string"
            }
          ],
          "internalType": "struct ITokenTemplate.InitParams",
          "name": "p",
          "type": "tuple"
        }
      ],
      "name": "initialize",
      "outputs": [],
      "stateMutability": "nonpayable",
      "type": "function"
    },
    {
      "inputs": [],
      "name": "launchpad",
      "outputs": [
        {
          "internalType": "contract ITokenLaunchpad",
          "name": "",
          "type": "address"
        }
      ],
      "stateMutability": "view",
      "type": "function"
    },
    {
      "inputs": [],
      "name": "metadata",
      "outputs": [
        {
          "internalType": "string",
          "name": "",
          "type": "string"
        }
      ],
      "stateMutability": "view",
      "type": "function"
    },
    {
      "inputs": [],
      "name": "name",
      "outputs": [
        {
          "internalType": "string",
          "name": "",
          "type": "string"
        }
      ],
      "stateMutability": "view",
      "type": "function"
    },
    {
      "inputs": [],
      "name": "symbol",
      "outputs": [
        {
          "internalType": "string",
          "name": "",
          "type": "string"
        }
      ],
      "stateMutability": "view",
      "type": "function"
    },
    {
      "inputs": [],
      "name": "totalSupply",
      "outputs": [
        {
          "internalType": "uint256",
          "name": "",
          "type": "uint256"
        }
      ],
      "stateMutability": "view",
      "type": "function"
    },
    {
      "inputs": [
        {
          "internalType": "address",
          "name": "to",
          "type": "address"
        },
        {
          "internalType": "uint256",
          "name": "value",
          "type": "uint256"
        }
      ],
      "name": "transfer",
      "outputs": [
        {
          "internalType": "bool",
          "name": "",
          "type": "bool"
        }
      ],
      "stateMutability": "nonpayable",
      "type": "function"
    },
    {
      "inputs": [
        {
          "internalType": "address",
          "name": "from",
          "type": "address"
        },
        {
          "internalType": "address",
          "name": "to",
          "type": "address"
        },
        {
          "internalType": "uint256",
          "name": "value",
          "type": "uint256"
        }
      ],
      "name": "transferFrom",
      "outputs": [
        {
          "internalType": "bool",
          "name": "",
          "type": "bool"
        }
      ],
      "stateMutability": "nonpayable",
      "type": "function"
    }
  ],
  "transactionHash": "0x8b37ab7ea1937cc3f14d29c2b6928b480c231de2b165aba0af46674ccaf8f29d",
  "args": [],
  "numDeployments": 1,
  "solcInputHash": "79b845d378aaf4fd44af06f6dd7ef80c",
  "bytecode": "0x6080604052348015600f57600080fd5b506110e18061001f6000396000f3fe608060405234801561001057600080fd5b50600436106100f55760003560e01c8063392f37e91161009757806395d89b411161006657806395d89b4114610240578063a9059cbb14610248578063d294f0931461025b578063dd62ed3e1461026357600080fd5b8063392f37e9146101ca57806342966c68146101d257806370a08231146101e557806379cc67901461022d57600080fd5b806318160ddd116100d357806318160ddd1461016257806323b872dd14610193578063313ce567146101a657806332c5738a146101b557600080fd5b806302669b52146100fa57806306fdde031461012a578063095ea7b31461013f575b600080fd5b60015461010d906001600160a01b031681565b6040516001600160a01b0390911681526020015b60405180910390f35b6101326102bb565b6040516101219190610c31565b61015261014d366004610c9b565b610390565b6040519015158152602001610121565b7f52c63247e1f47db19d5ce0460030c497f067ca4cebf71ba98eeadabe20bace02545b604051908152602001610121565b6101526101a1366004610cc5565b6103aa565b60405160128152602001610121565b6101c86101c3366004610dd0565b6103ce565b005b610132610566565b6101c86101e0366004610e99565b6105f4565b6101856101f3366004610eb2565b6001600160a01b031660009081527f52c63247e1f47db19d5ce0460030c497f067ca4cebf71ba98eeadabe20bace00602052604090205490565b6101c861023b366004610c9b565b610601565b61013261061a565b610152610256366004610c9b565b61066b565b6101c8610679565b610185610271366004610ed4565b6001600160a01b0391821660009081527f52c63247e1f47db19d5ce0460030c497f067ca4cebf71ba98eeadabe20bace016020908152604080832093909416825291909152205490565b7f52c63247e1f47db19d5ce0460030c497f067ca4cebf71ba98eeadabe20bace0380546060917f52c63247e1f47db19d5ce0460030c497f067ca4cebf71ba98eeadabe20bace009161030c90610f07565b80601f016020809104026020016040519081016040528092919081815260200182805461033890610f07565b80156103855780601f1061035a57610100808354040283529160200191610385565b820191906000526020600020905b81548152906001019060200180831161036857829003601f168201915b505050505091505090565b60003361039e8185856106f1565b60019150505b92915050565b6000336103b8858285610703565b6103c38585856107b9565b506001949350505050565b7ff0c57e16840df040f15088dc2f81fe391c3923bec73e23a9662efc9c229c6a00805468010000000000000000810460ff16159067ffffffffffffffff166000811580156104195750825b905060008267ffffffffffffffff1660011480156104365750303b155b905081158015610444575080155b1561047b576040517ff92ee8a900000000000000000000000000000000000000000000000000000000815260040160405180910390fd5b845467ffffffffffffffff1916600117855583156104af57845468ff00000000000000001916680100000000000000001785555b60408601516000906104c19082610f88565b50600180547fffffffffffffffffffffffff00000000000000000000000000000000000000001633179055855160208701516104fd9190610818565b610513336b033b2e3c9fd0803ce800000061082a565b831561055e57845468ff000000000000000019168555604051600181527fc7f505b2f371ae2175ee4913f4499e1f2633a7b5936321eed1cdaeb6115181d29060200160405180910390a15b505050505050565b6000805461057390610f07565b80601f016020809104026020016040519081016040528092919081815260200182805461059f90610f07565b80156105ec5780601f106105c1576101008083540402835291602001916105ec565b820191906000526020600020905b8154815290600101906020018083116105cf57829003601f168201915b505050505081565b6105fe3382610860565b50565b61060c823383610703565b6106168282610860565b5050565b7f52c63247e1f47db19d5ce0460030c497f067ca4cebf71ba98eeadabe20bace0480546060917f52c63247e1f47db19d5ce0460030c497f067ca4cebf71ba98eeadabe20bace009161030c90610f07565b60003361039e8185856107b9565b6001546040517f15a0ea6a0000000000000000000000000000000000000000000000000000000081523060048201526001600160a01b03909116906315a0ea6a90602401600060405180830381600087803b1580156106d757600080fd5b505af11580156106eb573d6000803e3d6000fd5b50505050565b6106fe8383836001610896565b505050565b6001600160a01b0383811660009081527f52c63247e1f47db19d5ce0460030c497f067ca4cebf71ba98eeadabe20bace0160209081526040808320938616835292905220546000198110156106eb57818110156107aa576040517ffb8f41b20000000000000000000000000000000000000000000000000000000081526001600160a01b038416600482015260248101829052604481018390526064015b60405180910390fd5b6106eb84848484036000610896565b6001600160a01b0383166107e357604051634b637e8f60e11b8152600060048201526024016107a1565b6001600160a01b03821661080d5760405163ec442f0560e01b8152600060048201526024016107a1565b6106fe8383836109c2565b6108206109fc565b6106168282610a65565b6001600160a01b0382166108545760405163ec442f0560e01b8152600060048201526024016107a1565b610616600083836109c2565b6001600160a01b03821661088a57604051634b637e8f60e11b8152600060048201526024016107a1565b610616826000836109c2565b7f52c63247e1f47db19d5ce0460030c497f067ca4cebf71ba98eeadabe20bace006001600160a01b0385166108fa576040517fe602df05000000000000000000000000000000000000000000000000000000008152600060048201526024016107a1565b6001600160a01b03841661093d576040517f94280d62000000000000000000000000000000000000000000000000000000008152600060048201526024016107a1565b6001600160a01b038086166000908152600183016020908152604080832093881683529290522083905581156109bb57836001600160a01b0316856001600160a01b03167f8c5be1e5ebec7d5bd14f71427d1e84f3dd0314c0f7b2291e5b200ac8c7c3b925856040516109b291815260200190565b60405180910390a35b5050505050565b6109cd838383610ac8565b60646002600081546109de9061105d565b91829055506109ed9190611076565b6000036106fe576106fe610679565b7ff0c57e16840df040f15088dc2f81fe391c3923bec73e23a9662efc9c229c6a005468010000000000000000900460ff16610a63576040517fd7e6bcf800000000000000000000000000000000000000000000000000000000815260040160405180910390fd5b565b610a6d6109fc565b7f52c63247e1f47db19d5ce0460030c497f067ca4cebf71ba98eeadabe20bace007f52c63247e1f47db19d5ce0460030c497f067ca4cebf71ba98eeadabe20bace03610ab98482610f88565b50600481016106eb8382610f88565b7f52c63247e1f47db19d5ce0460030c497f067ca4cebf71ba98eeadabe20bace006001600160a01b038416610b165781816002016000828254610b0b9190611098565b90915550610ba19050565b6001600160a01b03841660009081526020829052604090205482811015610b82576040517fe450d38c0000000000000000000000000000000000000000000000000000000081526001600160a01b038616600482015260248101829052604481018490526064016107a1565b6001600160a01b03851660009081526020839052604090209083900390555b6001600160a01b038316610bbf576002810180548390039055610bde565b6001600160a01b03831660009081526020829052604090208054830190555b826001600160a01b0316846001600160a01b03167fddf252ad1be2c89b69c2b068fc378daa952ba7f163c4a11628f55a4df523b3ef84604051610c2391815260200190565b60405180910390a350505050565b602081526000825180602084015260005b81811015610c5f5760208186018101516040868401015201610c42565b506000604082850101526040601f19601f83011684010191505092915050565b80356001600160a01b0381168114610c9657600080fd5b919050565b60008060408385031215610cae57600080fd5b610cb783610c7f565b946020939093013593505050565b600080600060608486031215610cda57600080fd5b610ce384610c7f565b9250610cf160208501610c7f565b929592945050506040919091013590565b634e487b7160e01b600052604160045260246000fd5b6040516060810167ffffffffffffffff81118282101715610d3b57610d3b610d02565b60405290565b600082601f830112610d5257600080fd5b813567ffffffffffffffff811115610d6c57610d6c610d02565b604051601f8201601f19908116603f0116810167ffffffffffffffff81118282101715610d9b57610d9b610d02565b604052818152838201602001851015610db357600080fd5b816020850160208301376000918101602001919091529392505050565b600060208284031215610de257600080fd5b813567ffffffffffffffff811115610df957600080fd5b820160608185031215610e0b57600080fd5b610e13610d18565b813567ffffffffffffffff811115610e2a57600080fd5b610e3686828501610d41565b825250602082013567ffffffffffffffff811115610e5357600080fd5b610e5f86828501610d41565b602083015250604082013567ffffffffffffffff811115610e7f57600080fd5b610e8b86828501610d41565b604083015250949350505050565b600060208284031215610eab57600080fd5b5035919050565b600060208284031215610ec457600080fd5b610ecd82610c7f565b9392505050565b60008060408385031215610ee757600080fd5b610ef083610c7f565b9150610efe60208401610c7f565b90509250929050565b600181811c90821680610f1b57607f821691505b602082108103610f3b57634e487b7160e01b600052602260045260246000fd5b50919050565b601f8211156106fe57806000526020600020601f840160051c81016020851015610f685750805b601f840160051c820191505b818110156109bb5760008155600101610f74565b815167ffffffffffffffff811115610fa257610fa2610d02565b610fb681610fb08454610f07565b84610f41565b6020601f821160018114610fea5760008315610fd25750848201515b600019600385901b1c1916600184901b1784556109bb565b600084815260208120601f198516915b8281101561101a5787850151825560209485019460019092019101610ffa565b50848210156110385786840151600019600387901b60f8161c191681555b50505050600190811b01905550565b634e487b7160e01b600052601160045260246000fd5b60006001820161106f5761106f611047565b5060010190565b60008261109357634e487b7160e01b600052601260045260246000fd5b500690565b808201808211156103a4576103a461104756fea2646970667358221220e6e83da698467d45b9e09399622a9435ddc3f6a027b78ed7fd83f93f37fe9fef64736f6c634300081c0033",
  "devdoc": {
    "errors": {
      "ERC20InsufficientAllowance(address,uint256,uint256)": [
        {
          "details": "Indicates a failure with the `spender`s `allowance`. Used in transfers.",
          "params": {
            "allowance": "Amount of tokens a `spender` is allowed to operate with.",
            "needed": "Minimum amount required to perform a transfer.",
            "spender": "Address that may be allowed to operate on tokens without being their owner."
          }
        }
      ],
      "ERC20InsufficientBalance(address,uint256,uint256)": [
        {
          "details": "Indicates an error related to the current `balance` of a `sender`. Used in transfers.",
          "params": {
            "balance": "Current balance for the interacting account.",
            "needed": "Minimum amount required to perform a transfer.",
            "sender": "Address whose tokens are being transferred."
          }
        }
      ],
      "ERC20InvalidApprover(address)": [
        {
          "details": "Indicates a failure with the `approver` of a token to be approved. Used in approvals.",
          "params": {
            "approver": "Address initiating an approval operation."
          }
        }
      ],
      "ERC20InvalidReceiver(address)": [
        {
          "details": "Indicates a failure with the token `receiver`. Used in transfers.",
          "params": {
            "receiver": "Address to which tokens are being transferred."
          }
        }
      ],
      "ERC20InvalidSender(address)": [
        {
          "details": "Indicates a failure with the token `sender`. Used in transfers.",
          "params": {
            "sender": "Address whose tokens are being transferred."
          }
        }
      ],
      "ERC20InvalidSpender(address)": [
        {
          "details": "Indicates a failure with the `spender` to be approved. Used in approvals.",
          "params": {
            "spender": "Address that may be allowed to operate on tokens without being their owner."
          }
        }
      ],
      "InvalidInitialization()": [
        {
          "details": "The contract is already initialized."
        }
      ],
      "NotInitializing()": [
        {
          "details": "The contract is not initializing."
        }
      ]
    },
    "events": {
      "Approval(address,address,uint256)": {
        "details": "Emitted when the allowance of a `spender` for an `owner` is set by a call to {approve}. `value` is the new allowance."
      },
      "Initialized(uint64)": {
        "details": "Triggered when the contract has been initialized or reinitialized."
      },
      "Transfer(address,address,uint256)": {
        "details": "Emitted when `value` tokens are moved from one account (`from`) to another (`to`). Note that `value` may be zero."
      },
      "Whitelisted(address)": {
        "params": {
          "_address": "The whitelisted address"
        }
      }
    },
    "kind": "dev",
    "methods": {
      "allowance(address,address)": {
        "details": "See {IERC20-allowance}."
      },
      "approve(address,uint256)": {
        "details": "See {IERC20-approve}. NOTE: If `value` is the maximum `uint256`, the allowance is not updated on `transferFrom`. This is semantically equivalent to an infinite approval. Requirements: - `spender` cannot be the zero address."
      },
      "balanceOf(address)": {
        "details": "See {IERC20-balanceOf}."
      },
      "burn(uint256)": {
        "details": "Destroys a `value` amount of tokens from the caller. See {ERC20-_burn}."
      },
      "burnFrom(address,uint256)": {
        "details": "Destroys a `value` amount of tokens from `account`, deducting from the caller's allowance. See {ERC20-_burn} and {ERC20-allowance}. Requirements: - the caller must have allowance for ``accounts``'s tokens of at least `value`."
      },
      "claimFees()": {
        "details": "This function is called automatically every 100 transactions"
      },
      "decimals()": {
        "details": "Returns the number of decimals used to get its user representation. For example, if `decimals` equals `2`, a balance of `505` tokens should be displayed to a user as `5.05` (`505 / 10 ** 2`). Tokens usually opt for a value of 18, imitating the relationship between Ether and Wei. This is the default value returned by this function, unless it's overridden. NOTE: This information is only used for _display_ purposes: it in no way affects any of the arithmetic of the contract, including {IERC20-balanceOf} and {IERC20-transfer}."
      },
      "initialize((string,string,string))": {
        "params": {
          "p": "The initialization parameters"
        }
      },
      "name()": {
        "details": "Returns the name of the token."
      },
      "symbol()": {
        "details": "Returns the symbol of the token, usually a shorter version of the name."
      },
      "totalSupply()": {
        "details": "See {IERC20-totalSupply}."
      },
      "transfer(address,uint256)": {
        "details": "See {IERC20-transfer}. Requirements: - `to` cannot be the zero address. - the caller must have a balance of at least `value`."
      },
      "transferFrom(address,address,uint256)": {
        "details": "See {IERC20-transferFrom}. Skips emitting an {Approval} event indicating an allowance update. This is not required by the ERC. See {xref-ERC20-_approve-address-address-uint256-bool-}[_approve]. NOTE: Does not update the allowance if the current allowance is the maximum `uint256`. Requirements: - `from` and `to` cannot be the zero address. - `from` must have a balance of at least `value`. - the caller must have allowance for ``from``'s tokens of at least `value`."
      }
    },
    "stateVariables": {
      "txCount": {
        "details": "counts the number of transactions to claim fees"
      }
    },
    "title": "WAGMIEToken",
    "version": 1
  },
  "userdoc": {
    "events": {
      "Unlocked()": {
        "notice": "Emitted when the token is unlocked for unrestricted transfers"
      },
      "Whitelisted(address)": {
        "notice": "Emitted when an address is whitelisted"
      }
    },
    "kind": "user",
    "methods": {
      "claimFees()": {
        "notice": "Claims the fees for the token"
      },
      "initialize((string,string,string))": {
        "notice": "Initializes the token with the given parameters"
      },
      "launchpad()": {
        "notice": "The launchpad contract"
      },
      "metadata()": {
        "notice": "The metadata of the token"
      }
    },
    "notice": "A contract for creating and managing tokens with presale functionality",
    "version": 1
  },
  "storageLayout": {
    "storage": [
      {
        "astId": 1922,
        "contract": "contracts/WAGMIEToken.sol:WAGMIEToken",
        "label": "metadata",
        "offset": 0,
        "slot": "0",
        "type": "t_string_storage"
      },
      {
        "astId": 1926,
        "contract": "contracts/WAGMIEToken.sol:WAGMIEToken",
        "label": "launchpad",
        "offset": 0,
        "slot": "1",
        "type": "t_contract(ITokenLaunchpad)2151"
      },
      {
        "astId": 1929,
        "contract": "contracts/WAGMIEToken.sol:WAGMIEToken",
        "label": "txCount",
        "offset": 0,
        "slot": "2",
        "type": "t_uint256"
      }
    ],
    "types": {
      "t_contract(ITokenLaunchpad)2151": {
        "encoding": "inplace",
        "label": "contract ITokenLaunchpad",
        "numberOfBytes": "20"
      },
      "t_string_storage": {
        "encoding": "bytes",
        "label": "string",
        "numberOfBytes": "32"
      },
      "t_uint256": {
        "encoding": "inplace",
        "label": "uint256",
        "numberOfBytes": "32"
      }
    }
  }
}