{
  "address": "0x8290159955e3C4BF20007fD45bf68C3ef7736d28",
  "abi": [
    {
      "inputs": [
        {
          "internalType": "address",
          "name": "spender",
          "type": "address"
        },
        {
          "internalType": "uint256",
          "name": "allowance",
          "type": "uint256"
        },
        {
          "internalType": "uint256",
          "name": "needed",
          "type": "uint256"
        }
      ],
      "name": "ERC20InsufficientAllowance",
      "type": "error"
    },
    {
      "inputs": [
        {
          "internalType": "address",
          "name": "sender",
          "type": "address"
        },
        {
          "internalType": "uint256",
          "name": "balance",
          "type": "uint256"
        },
        {
          "internalType": "uint256",
          "name": "needed",
          "type": "uint256"
        }
      ],
      "name": "ERC20InsufficientBalance",
      "type": "error"
    },
    {
      "inputs": [
        {
          "internalType": "address",
          "name": "approver",
          "type": "address"
        }
      ],
      "name": "ERC20InvalidApprover",
      "type": "error"
    },
    {
      "inputs": [
        {
          "internalType": "address",
          "name": "receiver",
          "type": "address"
        }
      ],
      "name": "ERC20InvalidReceiver",
      "type": "error"
    },
    {
      "inputs": [
        {
          "internalType": "address",
          "name": "sender",
          "type": "address"
        }
      ],
      "name": "ERC20InvalidSender",
      "type": "error"
    },
    {
      "inputs": [
        {
          "internalType": "address",
          "name": "spender",
          "type": "address"
        }
      ],
      "name": "ERC20InvalidSpender",
      "type": "error"
    },
    {
      "inputs": [],
      "name": "InvalidInitialization",
      "type": "error"
    },
    {
      "inputs": [],
      "name": "NotInitializing",
      "type": "error"
    },
    {
      "anonymous": false,
      "inputs": [
        {
          "indexed": true,
          "internalType": "address",
          "name": "owner",
          "type": "address"
        },
        {
          "indexed": true,
          "internalType": "address",
          "name": "spender",
          "type": "address"
        },
        {
          "indexed": false,
          "internalType": "uint256",
          "name": "value",
          "type": "uint256"
        }
      ],
      "name": "Approval",
      "type": "event"
    },
    {
      "anonymous": false,
      "inputs": [
        {
          "indexed": false,
          "internalType": "uint64",
          "name": "version",
          "type": "uint64"
        }
      ],
      "name": "Initialized",
      "type": "event"
    },
    {
      "anonymous": false,
      "inputs": [
        {
          "indexed": true,
          "internalType": "address",
          "name": "from",
          "type": "address"
        },
        {
          "indexed": true,
          "internalType": "address",
          "name": "to",
          "type": "address"
        },
        {
          "indexed": false,
          "internalType": "uint256",
          "name": "value",
          "type": "uint256"
        }
      ],
      "name": "Transfer",
      "type": "event"
    },
    {
      "anonymous": false,
      "inputs": [],
      "name": "Unlocked",
      "type": "event"
    },
    {
      "anonymous": false,
      "inputs": [
        {
          "indexed": true,
          "internalType": "address",
          "name": "_address",
          "type": "address"
        }
      ],
      "name": "Whitelisted",
      "type": "event"
    },
    {
      "inputs": [],
      "name": "adapter",
      "outputs": [
        {
          "internalType": "contract ICLMMAdapter",
          "name": "",
          "type": "address"
        }
      ],
      "stateMutability": "view",
      "type": "function"
    },
    {
      "inputs": [
        {
          "internalType": "address",
          "name": "owner",
          "type": "address"
        },
        {
          "internalType": "address",
          "name": "spender",
          "type": "address"
        }
      ],
      "name": "allowance",
      "outputs": [
        {
          "internalType": "uint256",
          "name": "",
          "type": "uint256"
        }
      ],
      "stateMutability": "view",
      "type": "function"
    },
    {
      "inputs": [
        {
          "internalType": "address",
          "name": "spender",
          "type": "address"
        },
        {
          "internalType": "uint256",
          "name": "value",
          "type": "uint256"
        }
      ],
      "name": "approve",
      "outputs": [
        {
          "internalType": "bool",
          "name": "",
          "type": "bool"
        }
      ],
      "stateMutability": "nonpayable",
      "type": "function"
    },
    {
      "inputs": [
        {
          "internalType": "address",
          "name": "account",
          "type": "address"
        }
      ],
      "name": "balanceOf",
      "outputs": [
        {
          "internalType": "uint256",
          "name": "",
          "type": "uint256"
        }
      ],
      "stateMutability": "view",
      "type": "function"
    },
    {
      "inputs": [
        {
          "internalType": "uint256",
          "name": "value",
          "type": "uint256"
        }
      ],
      "name": "burn",
      "outputs": [],
      "stateMutability": "nonpayable",
      "type": "function"
    },
    {
      "inputs": [
        {
          "internalType": "address",
          "name": "account",
          "type": "address"
        },
        {
          "internalType": "uint256",
          "name": "value",
          "type": "uint256"
        }
      ],
      "name": "burnFrom",
      "outputs": [],
      "stateMutability": "nonpayable",
      "type": "function"
    },
    {
      "inputs": [],
      "name": "decimals",
      "outputs": [
        {
          "internalType": "uint8",
          "name": "",
          "type": "uint8"
        }
      ],
      "stateMutability": "view",
      "type": "function"
    },
    {
      "inputs": [
        {
          "components": [
            {
              "internalType": "string",
              "name": "name",
              "type": "string"
            },
            {
              "internalType": "string",
              "name": "symbol",
              "type": "string"
            },
            {
              "internalType": "string",
              "name": "metadata",
              "type": "string"
            },
            {
              "internalType": "uint256",
              "name": "limitPerWallet",
              "type": "uint256"
            },
            {
              "internalType": "address",
              "name": "adapter",
              "type": "address"
            }
          ],
          "internalType": "struct ITokenTemplate.InitParams",
          "name": "p",
          "type": "tuple"
        }
      ],
      "name": "initialize",
      "outputs": [],
      "stateMutability": "nonpayable",
      "type": "function"
    },
    {
      "inputs": [
        {
          "internalType": "address",
          "name": "_address",
          "type": "address"
        }
      ],
      "name": "isWhitelisted",
      "outputs": [
        {
          "internalType": "bool",
          "name": "",
          "type": "bool"
        }
      ],
      "stateMutability": "view",
      "type": "function"
    },
    {
      "inputs": [],
      "name": "limitPerWallet",
      "outputs": [
        {
          "internalType": "uint256",
          "name": "",
          "type": "uint256"
        }
      ],
      "stateMutability": "view",
      "type": "function"
    },
    {
      "inputs": [],
      "name": "metadata",
      "outputs": [
        {
          "internalType": "string",
          "name": "",
          "type": "string"
        }
      ],
      "stateMutability": "view",
      "type": "function"
    },
    {
      "inputs": [],
      "name": "name",
      "outputs": [
        {
          "internalType": "string",
          "name": "",
          "type": "string"
        }
      ],
      "stateMutability": "view",
      "type": "function"
    },
    {
      "inputs": [],
      "name": "symbol",
      "outputs": [
        {
          "internalType": "string",
          "name": "",
          "type": "string"
        }
      ],
      "stateMutability": "view",
      "type": "function"
    },
    {
      "inputs": [],
      "name": "totalSupply",
      "outputs": [
        {
          "internalType": "uint256",
          "name": "",
          "type": "uint256"
        }
      ],
      "stateMutability": "view",
      "type": "function"
    },
    {
      "inputs": [
        {
          "internalType": "address",
          "name": "to",
          "type": "address"
        },
        {
          "internalType": "uint256",
          "name": "value",
          "type": "uint256"
        }
      ],
      "name": "transfer",
      "outputs": [
        {
          "internalType": "bool",
          "name": "",
          "type": "bool"
        }
      ],
      "stateMutability": "nonpayable",
      "type": "function"
    },
    {
      "inputs": [
        {
          "internalType": "address",
          "name": "from",
          "type": "address"
        },
        {
          "internalType": "address",
          "name": "to",
          "type": "address"
        },
        {
          "internalType": "uint256",
          "name": "value",
          "type": "uint256"
        }
      ],
      "name": "transferFrom",
      "outputs": [
        {
          "internalType": "bool",
          "name": "",
          "type": "bool"
        }
      ],
      "stateMutability": "nonpayable",
      "type": "function"
    },
    {
      "inputs": [],
      "name": "unlocked",
      "outputs": [
        {
          "internalType": "bool",
          "name": "",
          "type": "bool"
        }
      ],
      "stateMutability": "view",
      "type": "function"
    },
    {
      "inputs": [
        {
          "internalType": "address",
          "name": "_address",
          "type": "address"
        }
      ],
      "name": "whitelist",
      "outputs": [],
      "stateMutability": "nonpayable",
      "type": "function"
    },
    {
      "inputs": [
        {
          "internalType": "address",
          "name": "",
          "type": "address"
        }
      ],
      "name": "whitelisted",
      "outputs": [
        {
          "internalType": "bool",
          "name": "",
          "type": "bool"
        }
      ],
      "stateMutability": "view",
      "type": "function"
    }
  ],
  "transactionHash": "0x6ab805fc58ffcba910bdc72b4746dcf8489257a079ecbd743408460d2ff0b7ff",
  "args": [],
  "numDeployments": 1,
  "solcInputHash": "bf00ff585e67620048bc695bec449c5a",
  "bytecode": "0x6080604052348015600f57600080fd5b506114ca8061001f6000396000f3fe608060405234801561001057600080fd5b50600436106101515760003560e01c80636a5e2650116100cd578063a620ce5a11610081578063d936547e11610066578063d936547e146102f9578063dd62ed3e1461031c578063f97bcfa61461037457600080fd5b8063a620ce5a146102dd578063a9059cbb146102e657600080fd5b806379cc6790116100b257806379cc6790146102af57806395d89b41146102c25780639b19251a146102ca57600080fd5b80636a5e26501461025a57806370a082311461026757600080fd5b806323b872dd11610124578063392f37e911610109578063392f37e9146102115780633af32abf1461021957806342966c681461024557600080fd5b806323b872dd146101ef578063313ce5671461020257600080fd5b806303eadcfc1461015657806306fdde0314610186578063095ea7b31461019b57806318160ddd146101be575b600080fd5b600454610169906001600160a01b031681565b6040516001600160a01b0390911681526020015b60405180910390f35b61018e610387565b60405161017d9190610fb9565b6101ae6101a9366004611023565b61045c565b604051901515815260200161017d565b7f52c63247e1f47db19d5ce0460030c497f067ca4cebf71ba98eeadabe20bace02545b60405190815260200161017d565b6101ae6101fd36600461104d565b610476565b6040516012815260200161017d565b61018e61049a565b6101ae61022736600461108a565b6001600160a01b031660009081526003602052604090205460ff1690565b6102586102533660046110ac565b610528565b005b6001546101ae9060ff1681565b6101e161027536600461108a565b6001600160a01b031660009081527f52c63247e1f47db19d5ce0460030c497f067ca4cebf71ba98eeadabe20bace00602052604090205490565b6102586102bd366004611023565b610535565b61018e61054e565b6102586102d836600461108a565b61059f565b6101e160025481565b6101ae6102f4366004611023565b61064a565b6101ae61030736600461108a565b60036020526000908152604090205460ff1681565b6101e161032a3660046110c5565b6001600160a01b0391821660009081527f52c63247e1f47db19d5ce0460030c497f067ca4cebf71ba98eeadabe20bace016020908152604080832093909416825291909152205490565b6102586103823660046111c6565b610658565b7f52c63247e1f47db19d5ce0460030c497f067ca4cebf71ba98eeadabe20bace0380546060917f52c63247e1f47db19d5ce0460030c497f067ca4cebf71ba98eeadabe20bace00916103d8906112aa565b80601f0160208091040260200160405190810160405280929190818152602001828054610404906112aa565b80156104515780601f1061042657610100808354040283529160200191610451565b820191906000526020600020905b81548152906001019060200180831161043457829003601f168201915b505050505091505090565b60003361046a81858561087a565b60019150505b92915050565b60003361048485828561088c565b61048f858585610943565b506001949350505050565b600080546104a7906112aa565b80601f01602080910402602001604051908101604052809291908181526020018280546104d3906112aa565b80156105205780601f106104f557610100808354040283529160200191610520565b820191906000526020600020905b81548152906001019060200180831161050357829003601f168201915b505050505081565b61053233826109a2565b50565b61054082338361088c565b61054a82826109a2565b5050565b7f52c63247e1f47db19d5ce0460030c497f067ca4cebf71ba98eeadabe20bace0480546060917f52c63247e1f47db19d5ce0460030c497f067ca4cebf71ba98eeadabe20bace00916103d8906112aa565b6004546001600160a01b031633146105fe5760405162461bcd60e51b815260206004820152600a60248201527f2177686974656c6973740000000000000000000000000000000000000000000060448201526064015b60405180910390fd5b6001600160a01b038116600081815260036020526040808220805460ff19166001179055517faab7954e9d246b167ef88aeddad35209ca2489d95a8aeb59e288d9b19fae5a549190a250565b60003361046a818585610943565b7ff0c57e16840df040f15088dc2f81fe391c3923bec73e23a9662efc9c229c6a00805468010000000000000000810460ff16159067ffffffffffffffff166000811580156106a35750825b905060008267ffffffffffffffff1660011480156106c05750303b155b9050811580156106ce575080155b15610705576040517ff92ee8a900000000000000000000000000000000000000000000000000000000815260040160405180910390fd5b845467ffffffffffffffff19166001178555831561073957845468ff00000000000000001916680100000000000000001785555b60608601516002556040860151600090610753908261132b565b506001805460ff191690556080860151600480547fffffffffffffffffffffffff0000000000000000000000000000000000000000166001600160a01b03909216919091179055855160208701516107ab91906109d8565b336000818152600360205260408082208054600160ff1991821681179092556004546001600160a01b0316845291832080548316821790559180527f3617319a054d772f909f7c479a2cebe5066e836a939412e32403c99029b92eff80549091169091179055610827906b033b2e3c9fd0803ce80000006109ea565b831561087257845468ff000000000000000019168555604051600181527fc7f505b2f371ae2175ee4913f4499e1f2633a7b5936321eed1cdaeb6115181d29060200160405180910390a15b505050505050565b6108878383836001610a20565b505050565b6001600160a01b0383811660009081527f52c63247e1f47db19d5ce0460030c497f067ca4cebf71ba98eeadabe20bace01602090815260408083209386168352929052205460001981101561093d578181101561092e576040517ffb8f41b20000000000000000000000000000000000000000000000000000000081526001600160a01b038416600482015260248101829052604481018390526064016105f5565b61093d84848484036000610a20565b50505050565b6001600160a01b03831661096d57604051634b637e8f60e11b8152600060048201526024016105f5565b6001600160a01b0382166109975760405163ec442f0560e01b8152600060048201526024016105f5565b610887838383610b4c565b6001600160a01b0382166109cc57604051634b637e8f60e11b8152600060048201526024016105f5565b61054a82600083610b4c565b6109e0610c18565b61054a8282610c81565b6001600160a01b038216610a145760405163ec442f0560e01b8152600060048201526024016105f5565b61054a60008383610b4c565b7f52c63247e1f47db19d5ce0460030c497f067ca4cebf71ba98eeadabe20bace006001600160a01b038516610a84576040517fe602df05000000000000000000000000000000000000000000000000000000008152600060048201526024016105f5565b6001600160a01b038416610ac7576040517f94280d62000000000000000000000000000000000000000000000000000000008152600060048201526024016105f5565b6001600160a01b03808616600090815260018301602090815260408083209388168352929052208390558115610b4557836001600160a01b0316856001600160a01b03167f8c5be1e5ebec7d5bd14f71427d1e84f3dd0314c0f7b2291e5b200ac8c7c3b92585604051610b3c91815260200190565b60405180910390a35b5050505050565b610b57838383610ce4565b60015460ff16610b6a57610b6a82610e4d565b6064600560008154610b7b90611400565b9182905550610b8a9190611419565b60000361088757600480546040517f15a0ea6a00000000000000000000000000000000000000000000000000000000815230928101929092526001600160a01b0316906315a0ea6a9060240160408051808303816000875af1158015610bf4573d6000803e3d6000fd5b505050506040513d601f19601f82011682018060405250810190610b45919061143b565b7ff0c57e16840df040f15088dc2f81fe391c3923bec73e23a9662efc9c229c6a005468010000000000000000900460ff16610c7f576040517fd7e6bcf800000000000000000000000000000000000000000000000000000000815260040160405180910390fd5b565b610c89610c18565b7f52c63247e1f47db19d5ce0460030c497f067ca4cebf71ba98eeadabe20bace007f52c63247e1f47db19d5ce0460030c497f067ca4cebf71ba98eeadabe20bace03610cd5848261132b565b506004810161093d838261132b565b7f52c63247e1f47db19d5ce0460030c497f067ca4cebf71ba98eeadabe20bace006001600160a01b038416610d325781816002016000828254610d27919061145f565b90915550610dbd9050565b6001600160a01b03841660009081526020829052604090205482811015610d9e576040517fe450d38c0000000000000000000000000000000000000000000000000000000081526001600160a01b038616600482015260248101829052604481018490526064016105f5565b6001600160a01b03851660009081526020839052604090209083900390555b6001600160a01b038316610ddb576002810180548390039055610dfa565b6001600160a01b03831660009081526020829052604090208054830190555b826001600160a01b0316846001600160a01b03167fddf252ad1be2c89b69c2b068fc378daa952ba7f163c4a11628f55a4df523b3ef84604051610e3f91815260200190565b60405180910390a350505050565b6001600160a01b03811660009081526003602052604090205460ff16610ef6576002546001600160a01b03821660009081527f52c63247e1f47db19d5ce0460030c497f067ca4cebf71ba98eeadabe20bace0060205260409020541115610ef65760405162461bcd60e51b815260206004820152601360248201527f216c696d697450657257616c6c6574205f746f0000000000000000000000000060448201526064016105f5565b600480546040517f9b083ec900000000000000000000000000000000000000000000000000000000815230928101929092526001600160a01b031690639b083ec990602401602060405180830381865afa158015610f58573d6000803e3d6000fd5b505050506040513d601f19601f82011682018060405250810190610f7c9190611472565b15610532576001805460ff1916811790556040517f19aad37188a1d3921e29eb3c66acf43d81975e107cb650d58cca878627955fd690600090a150565b602081526000825180602084015260005b81811015610fe75760208186018101516040868401015201610fca565b506000604082850101526040601f19601f83011684010191505092915050565b80356001600160a01b038116811461101e57600080fd5b919050565b6000806040838503121561103657600080fd5b61103f83611007565b946020939093013593505050565b60008060006060848603121561106257600080fd5b61106b84611007565b925061107960208501611007565b929592945050506040919091013590565b60006020828403121561109c57600080fd5b6110a582611007565b9392505050565b6000602082840312156110be57600080fd5b5035919050565b600080604083850312156110d857600080fd5b6110e183611007565b91506110ef60208401611007565b90509250929050565b634e487b7160e01b600052604160045260246000fd5b60405160a0810167ffffffffffffffff81118282101715611131576111316110f8565b60405290565b600082601f83011261114857600080fd5b813567ffffffffffffffff811115611162576111626110f8565b604051601f8201601f19908116603f0116810167ffffffffffffffff81118282101715611191576111916110f8565b6040528181528382016020018510156111a957600080fd5b816020850160208301376000918101602001919091529392505050565b6000602082840312156111d857600080fd5b813567ffffffffffffffff8111156111ef57600080fd5b820160a0818503121561120157600080fd5b61120961110e565b813567ffffffffffffffff81111561122057600080fd5b61122c86828501611137565b825250602082013567ffffffffffffffff81111561124957600080fd5b61125586828501611137565b602083015250604082013567ffffffffffffffff81111561127557600080fd5b61128186828501611137565b6040830152506060828101359082015261129d60808301611007565b6080820152949350505050565b600181811c908216806112be57607f821691505b6020821081036112de57634e487b7160e01b600052602260045260246000fd5b50919050565b601f82111561088757806000526020600020601f840160051c8101602085101561130b5750805b601f840160051c820191505b81811015610b455760008155600101611317565b815167ffffffffffffffff811115611345576113456110f8565b6113598161135384546112aa565b846112e4565b6020601f82116001811461138d57600083156113755750848201515b600019600385901b1c1916600184901b178455610b45565b600084815260208120601f198516915b828110156113bd578785015182556020948501946001909201910161139d565b50848210156113db5786840151600019600387901b60f8161c191681555b50505050600190811b01905550565b634e487b7160e01b600052601160045260246000fd5b600060018201611412576114126113ea565b5060010190565b60008261143657634e487b7160e01b600052601260045260246000fd5b500690565b6000806040838503121561144e57600080fd5b505080516020909101519092909150565b80820180821115610470576104706113ea565b60006020828403121561148457600080fd5b815180151581146110a557600080fdfea264697066735822122005e9bf767351f22595f6eba18a921153583671dcd173684daf9d2325a092d00b64736f6c634300081c0033",
  "devdoc": {
    "errors": {
      "ERC20InsufficientAllowance(address,uint256,uint256)": [
        {
          "details": "Indicates a failure with the `spender`s `allowance`. Used in transfers.",
          "params": {
            "allowance": "Amount of tokens a `spender` is allowed to operate with.",
            "needed": "Minimum amount required to perform a transfer.",
            "spender": "Address that may be allowed to operate on tokens without being their owner."
          }
        }
      ],
      "ERC20InsufficientBalance(address,uint256,uint256)": [
        {
          "details": "Indicates an error related to the current `balance` of a `sender`. Used in transfers.",
          "params": {
            "balance": "Current balance for the interacting account.",
            "needed": "Minimum amount required to perform a transfer.",
            "sender": "Address whose tokens are being transferred."
          }
        }
      ],
      "ERC20InvalidApprover(address)": [
        {
          "details": "Indicates a failure with the `approver` of a token to be approved. Used in approvals.",
          "params": {
            "approver": "Address initiating an approval operation."
          }
        }
      ],
      "ERC20InvalidReceiver(address)": [
        {
          "details": "Indicates a failure with the token `receiver`. Used in transfers.",
          "params": {
            "receiver": "Address to which tokens are being transferred."
          }
        }
      ],
      "ERC20InvalidSender(address)": [
        {
          "details": "Indicates a failure with the token `sender`. Used in transfers.",
          "params": {
            "sender": "Address whose tokens are being transferred."
          }
        }
      ],
      "ERC20InvalidSpender(address)": [
        {
          "details": "Indicates a failure with the `spender` to be approved. Used in approvals.",
          "params": {
            "spender": "Address that may be allowed to operate on tokens without being their owner."
          }
        }
      ],
      "InvalidInitialization()": [
        {
          "details": "The contract is already initialized."
        }
      ],
      "NotInitializing()": [
        {
          "details": "The contract is not initializing."
        }
      ]
    },
    "events": {
      "Approval(address,address,uint256)": {
        "details": "Emitted when the allowance of a `spender` for an `owner` is set by a call to {approve}. `value` is the new allowance."
      },
      "Initialized(uint64)": {
        "details": "Triggered when the contract has been initialized or reinitialized."
      },
      "Transfer(address,address,uint256)": {
        "details": "Emitted when `value` tokens are moved from one account (`from`) to another (`to`). Note that `value` may be zero."
      },
      "Whitelisted(address)": {
        "params": {
          "_address": "The whitelisted address"
        }
      }
    },
    "kind": "dev",
    "methods": {
      "allowance(address,address)": {
        "details": "See {IERC20-allowance}."
      },
      "approve(address,uint256)": {
        "details": "See {IERC20-approve}. NOTE: If `value` is the maximum `uint256`, the allowance is not updated on `transferFrom`. This is semantically equivalent to an infinite approval. Requirements: - `spender` cannot be the zero address."
      },
      "balanceOf(address)": {
        "details": "See {IERC20-balanceOf}."
      },
      "burn(uint256)": {
        "details": "Destroys a `value` amount of tokens from the caller. See {ERC20-_burn}."
      },
      "burnFrom(address,uint256)": {
        "details": "Destroys a `value` amount of tokens from `account`, deducting from the caller's allowance. See {ERC20-_burn} and {ERC20-allowance}. Requirements: - the caller must have allowance for ``accounts``'s tokens of at least `value`."
      },
      "decimals()": {
        "details": "Returns the number of decimals used to get its user representation. For example, if `decimals` equals `2`, a balance of `505` tokens should be displayed to a user as `5.05` (`505 / 10 ** 2`). Tokens usually opt for a value of 18, imitating the relationship between Ether and Wei. This is the default value returned by this function, unless it's overridden. NOTE: This information is only used for _display_ purposes: it in no way affects any of the arithmetic of the contract, including {IERC20-balanceOf} and {IERC20-transfer}."
      },
      "initialize((string,string,string,uint256,address))": {
        "params": {
          "p": "The initialization parameters"
        }
      },
      "isWhitelisted(address)": {
        "params": {
          "_address": "The address to check"
        },
        "returns": {
          "_0": "bool True if whitelisted, false otherwise"
        }
      },
      "name()": {
        "details": "Returns the name of the token."
      },
      "symbol()": {
        "details": "Returns the symbol of the token, usually a shorter version of the name."
      },
      "totalSupply()": {
        "details": "See {IERC20-totalSupply}."
      },
      "transfer(address,uint256)": {
        "details": "See {IERC20-transfer}. Requirements: - `to` cannot be the zero address. - the caller must have a balance of at least `value`."
      },
      "transferFrom(address,address,uint256)": {
        "details": "See {IERC20-transferFrom}. Skips emitting an {Approval} event indicating an allowance update. This is not required by the ERC. See {xref-ERC20-_approve-address-address-uint256-bool-}[_approve]. NOTE: Does not update the allowance if the current allowance is the maximum `uint256`. Requirements: - `from` and `to` cannot be the zero address. - `from` must have a balance of at least `value`. - the caller must have allowance for ``from``'s tokens of at least `value`."
      },
      "whitelist(address)": {
        "params": {
          "_address": "The address to whitelist"
        }
      }
    },
    "stateVariables": {
      "txCount": {
        "details": "counts the number of transactions to claim fees"
      }
    },
    "title": "TokenTemplate",
    "version": 1
  },
  "userdoc": {
    "events": {
      "Unlocked()": {
        "notice": "Emitted when the token is unlocked for unrestricted transfers"
      },
      "Whitelisted(address)": {
        "notice": "Emitted when an address is whitelisted"
      }
    },
    "kind": "user",
    "methods": {
      "adapter()": {
        "notice": "The adapter contract"
      },
      "initialize((string,string,string,uint256,address))": {
        "notice": "Initializes the token with the given parameters"
      },
      "isWhitelisted(address)": {
        "notice": "Checks if an address is whitelisted"
      },
      "limitPerWallet()": {
        "notice": "The limit of tokens per wallet before the token is graduated"
      },
      "metadata()": {
        "notice": "The metadata of the token"
      },
      "unlocked()": {
        "notice": "Whether the token is unlocked for transfers"
      },
      "whitelist(address)": {
        "notice": "Adds an address to the whitelist"
      },
      "whitelisted(address)": {
        "notice": "The whitelist of addresses that can transfer tokens before the token is graduated"
      }
    },
    "notice": "A contract for creating and managing tokens with presale functionality",
    "version": 1
  },
  "storageLayout": {
    "storage": [
      {
        "astId": 12835,
        "contract": "contracts/TokenTemplate.sol:TokenTemplate",
        "label": "metadata",
        "offset": 0,
        "slot": "0",
        "type": "t_string_storage"
      },
      {
        "astId": 12838,
        "contract": "contracts/TokenTemplate.sol:TokenTemplate",
        "label": "unlocked",
        "offset": 0,
        "slot": "1",
        "type": "t_bool"
      },
      {
        "astId": 12841,
        "contract": "contracts/TokenTemplate.sol:TokenTemplate",
        "label": "limitPerWallet",
        "offset": 0,
        "slot": "2",
        "type": "t_uint256"
      },
      {
        "astId": 12846,
        "contract": "contracts/TokenTemplate.sol:TokenTemplate",
        "label": "whitelisted",
        "offset": 0,
        "slot": "3",
        "type": "t_mapping(t_address,t_bool)"
      },
      {
        "astId": 12850,
        "contract": "contracts/TokenTemplate.sol:TokenTemplate",
        "label": "adapter",
        "offset": 0,
        "slot": "4",
        "type": "t_contract(ICLMMAdapter)13160"
      },
      {
        "astId": 12853,
        "contract": "contracts/TokenTemplate.sol:TokenTemplate",
        "label": "txCount",
        "offset": 0,
        "slot": "5",
        "type": "t_uint256"
      }
    ],
    "types": {
      "t_address": {
        "encoding": "inplace",
        "label": "address",
        "numberOfBytes": "20"
      },
      "t_bool": {
        "encoding": "inplace",
        "label": "bool",
        "numberOfBytes": "1"
      },
      "t_contract(ICLMMAdapter)13160": {
        "encoding": "inplace",
        "label": "contract ICLMMAdapter",
        "numberOfBytes": "20"
      },
      "t_mapping(t_address,t_bool)": {
        "encoding": "mapping",
        "key": "t_address",
        "label": "mapping(address => bool)",
        "numberOfBytes": "32",
        "value": "t_bool"
      },
      "t_string_storage": {
        "encoding": "bytes",
        "label": "string",
        "numberOfBytes": "32"
      },
      "t_uint256": {
        "encoding": "inplace",
        "label": "uint256",
        "numberOfBytes": "32"
      }
    }
  }
}