{
  "address": "0x343d9e708269dbDc18a866a3977c3995DB4A88Ad",
  "abi": [
    {
      "inputs": [],
      "name": "ERC721EnumerableForbiddenBatchMint",
      "type": "error"
    },
    {
      "inputs": [
        {
          "internalType": "address",
          "name": "sender",
          "type": "address"
        },
        {
          "internalType": "uint256",
          "name": "tokenId",
          "type": "uint256"
        },
        {
          "internalType": "address",
          "name": "owner",
          "type": "address"
        }
      ],
      "name": "ERC721IncorrectOwner",
      "type": "error"
    },
    {
      "inputs": [
        {
          "internalType": "address",
          "name": "operator",
          "type": "address"
        },
        {
          "internalType": "uint256",
          "name": "tokenId",
          "type": "uint256"
        }
      ],
      "name": "ERC721InsufficientApproval",
      "type": "error"
    },
    {
      "inputs": [
        {
          "internalType": "address",
          "name": "approver",
          "type": "address"
        }
      ],
      "name": "ERC721InvalidApprover",
      "type": "error"
    },
    {
      "inputs": [
        {
          "internalType": "address",
          "name": "operator",
          "type": "address"
        }
      ],
      "name": "ERC721InvalidOperator",
      "type": "error"
    },
    {
      "inputs": [
        {
          "internalType": "address",
          "name": "owner",
          "type": "address"
        }
      ],
      "name": "ERC721InvalidOwner",
      "type": "error"
    },
    {
      "inputs": [
        {
          "internalType": "address",
          "name": "receiver",
          "type": "address"
        }
      ],
      "name": "ERC721InvalidReceiver",
      "type": "error"
    },
    {
      "inputs": [
        {
          "internalType": "address",
          "name": "sender",
          "type": "address"
        }
      ],
      "name": "ERC721InvalidSender",
      "type": "error"
    },
    {
      "inputs": [
        {
          "internalType": "uint256",
          "name": "tokenId",
          "type": "uint256"
        }
      ],
      "name": "ERC721NonexistentToken",
      "type": "error"
    },
    {
      "inputs": [
        {
          "internalType": "address",
          "name": "owner",
          "type": "address"
        },
        {
          "internalType": "uint256",
          "name": "index",
          "type": "uint256"
        }
      ],
      "name": "ERC721OutOfBoundsIndex",
      "type": "error"
    },
    {
      "inputs": [],
      "name": "FailedDeployment",
      "type": "error"
    },
    {
      "inputs": [
        {
          "internalType": "uint256",
          "name": "balance",
          "type": "uint256"
        },
        {
          "internalType": "uint256",
          "name": "needed",
          "type": "uint256"
        }
      ],
      "name": "InsufficientBalance",
      "type": "error"
    },
    {
      "inputs": [],
      "name": "InvalidInitialization",
      "type": "error"
    },
    {
      "inputs": [],
      "name": "NotInitializing",
      "type": "error"
    },
    {
      "inputs": [
        {
          "internalType": "address",
          "name": "owner",
          "type": "address"
        }
      ],
      "name": "OwnableInvalidOwner",
      "type": "error"
    },
    {
      "inputs": [
        {
          "internalType": "address",
          "name": "account",
          "type": "address"
        }
      ],
      "name": "OwnableUnauthorizedAccount",
      "type": "error"
    },
    {
      "inputs": [
        {
          "internalType": "address",
          "name": "token",
          "type": "address"
        }
      ],
      "name": "SafeERC20FailedOperation",
      "type": "error"
    },
    {
      "anonymous": false,
      "inputs": [
        {
          "indexed": true,
          "internalType": "address",
          "name": "owner",
          "type": "address"
        },
        {
          "indexed": true,
          "internalType": "address",
          "name": "approved",
          "type": "address"
        },
        {
          "indexed": true,
          "internalType": "uint256",
          "name": "tokenId",
          "type": "uint256"
        }
      ],
      "name": "Approval",
      "type": "event"
    },
    {
      "anonymous": false,
      "inputs": [
        {
          "indexed": true,
          "internalType": "address",
          "name": "owner",
          "type": "address"
        },
        {
          "indexed": true,
          "internalType": "address",
          "name": "operator",
          "type": "address"
        },
        {
          "indexed": false,
          "internalType": "bool",
          "name": "approved",
          "type": "bool"
        }
      ],
      "name": "ApprovalForAll",
      "type": "event"
    },
    {
      "anonymous": false,
      "inputs": [
        {
          "indexed": true,
          "internalType": "address",
          "name": "feeDestination",
          "type": "address"
        },
        {
          "indexed": false,
          "internalType": "uint256",
          "name": "fee",
          "type": "uint256"
        }
      ],
      "name": "FeeUpdated",
      "type": "event"
    },
    {
      "anonymous": false,
      "inputs": [
        {
          "indexed": false,
          "internalType": "uint64",
          "name": "version",
          "type": "uint64"
        }
      ],
      "name": "Initialized",
      "type": "event"
    },
    {
      "anonymous": false,
      "inputs": [
        {
          "indexed": true,
          "internalType": "address",
          "name": "previousOwner",
          "type": "address"
        },
        {
          "indexed": true,
          "internalType": "address",
          "name": "newOwner",
          "type": "address"
        }
      ],
      "name": "OwnershipTransferred",
      "type": "event"
    },
    {
      "anonymous": false,
      "inputs": [
        {
          "indexed": true,
          "internalType": "address",
          "name": "referralDestination",
          "type": "address"
        },
        {
          "indexed": false,
          "internalType": "uint256",
          "name": "referralFee",
          "type": "uint256"
        }
      ],
      "name": "ReferralUpdated",
      "type": "event"
    },
    {
      "anonymous": false,
      "inputs": [
        {
          "indexed": false,
          "internalType": "contract ITokenTemplate",
          "name": "token",
          "type": "address"
        },
        {
          "indexed": false,
          "internalType": "contract IERC20",
          "name": "fundingToken",
          "type": "address"
        },
        {
          "indexed": false,
          "internalType": "int24",
          "name": "launchTick",
          "type": "int24"
        },
        {
          "indexed": false,
          "internalType": "int24",
          "name": "graduationTick",
          "type": "int24"
        },
        {
          "indexed": false,
          "internalType": "int24",
          "name": "upperMaxTick",
          "type": "int24"
        },
        {
          "indexed": false,
          "internalType": "string",
          "name": "name",
          "type": "string"
        },
        {
          "indexed": false,
          "internalType": "string",
          "name": "symbol",
          "type": "string"
        },
        {
          "indexed": false,
          "internalType": "string",
          "name": "metadata",
          "type": "string"
        }
      ],
      "name": "TokenLaunchParams",
      "type": "event"
    },
    {
      "anonymous": false,
      "inputs": [
        {
          "indexed": true,
          "internalType": "contract ITokenTemplate",
          "name": "token",
          "type": "address"
        },
        {
          "indexed": true,
          "internalType": "address",
          "name": "pool",
          "type": "address"
        },
        {
          "components": [
            {
              "internalType": "string",
              "name": "name",
              "type": "string"
            },
            {
              "internalType": "string",
              "name": "symbol",
              "type": "string"
            },
            {
              "internalType": "string",
              "name": "metadata",
              "type": "string"
            },
            {
              "internalType": "address",
              "name": "adapter",
              "type": "address"
            }
          ],
          "indexed": false,
          "internalType": "struct ITokenTemplate.InitParams",
          "name": "params",
          "type": "tuple"
        }
      ],
      "name": "TokenLaunched",
      "type": "event"
    },
    {
      "anonymous": false,
      "inputs": [
        {
          "indexed": true,
          "internalType": "address",
          "name": "from",
          "type": "address"
        },
        {
          "indexed": true,
          "internalType": "address",
          "name": "to",
          "type": "address"
        },
        {
          "indexed": true,
          "internalType": "uint256",
          "name": "tokenId",
          "type": "uint256"
        }
      ],
      "name": "Transfer",
      "type": "event"
    },
    {
      "inputs": [],
      "name": "adapter",
      "outputs": [
        {
          "internalType": "contract ICLMMAdapter",
          "name": "",
          "type": "address"
        }
      ],
      "stateMutability": "view",
      "type": "function"
    },
    {
      "inputs": [
        {
          "internalType": "address",
          "name": "to",
          "type": "address"
        },
        {
          "internalType": "uint256",
          "name": "tokenId",
          "type": "uint256"
        }
      ],
      "name": "approve",
      "outputs": [],
      "stateMutability": "nonpayable",
      "type": "function"
    },
    {
      "inputs": [
        {
          "internalType": "address",
          "name": "owner",
          "type": "address"
        }
      ],
      "name": "balanceOf",
      "outputs": [
        {
          "internalType": "uint256",
          "name": "",
          "type": "uint256"
        }
      ],
      "stateMutability": "view",
      "type": "function"
    },
    {
      "inputs": [
        {
          "internalType": "contract ITokenTemplate",
          "name": "_token",
          "type": "address"
        }
      ],
      "name": "claimFees",
      "outputs": [],
      "stateMutability": "nonpayable",
      "type": "function"
    },
    {
      "inputs": [
        {
          "components": [
            {
              "internalType": "string",
              "name": "name",
              "type": "string"
            },
            {
              "internalType": "string",
              "name": "symbol",
              "type": "string"
            },
            {
              "internalType": "string",
              "name": "metadata",
              "type": "string"
            },
            {
              "internalType": "contract IERC20",
              "name": "fundingToken",
              "type": "address"
            },
            {
              "internalType": "bytes32",
              "name": "salt",
              "type": "bytes32"
            },
            {
              "internalType": "int24",
              "name": "launchTick",
              "type": "int24"
            },
            {
              "internalType": "int24",
              "name": "graduationTick",
              "type": "int24"
            },
            {
              "internalType": "int24",
              "name": "upperMaxTick",
              "type": "int24"
            },
            {
              "internalType": "bool",
              "name": "isFeeDiscounted",
              "type": "bool"
            }
          ],
          "internalType": "struct ITokenLaunchpad.CreateParams",
          "name": "p",
          "type": "tuple"
        },
        {
          "internalType": "address",
          "name": "expected",
          "type": "address"
        },
        {
          "internalType": "uint256",
          "name": "amount",
          "type": "uint256"
        }
      ],
      "name": "createAndBuy",
      "outputs": [
        {
          "internalType": "address",
          "name": "",
          "type": "address"
        },
        {
          "internalType": "uint256",
          "name": "",
          "type": "uint256"
        },
        {
          "internalType": "uint256",
          "name": "",
          "type": "uint256"
        }
      ],
      "stateMutability": "payable",
      "type": "function"
    },
    {
      "inputs": [],
      "name": "creationFee",
      "outputs": [
        {
          "internalType": "uint256",
          "name": "",
          "type": "uint256"
        }
      ],
      "stateMutability": "view",
      "type": "function"
    },
    {
      "inputs": [],
      "name": "feeDestination",
      "outputs": [
        {
          "internalType": "address",
          "name": "",
          "type": "address"
        }
      ],
      "stateMutability": "view",
      "type": "function"
    },
    {
      "inputs": [],
      "name": "feeDiscountAmount",
      "outputs": [
        {
          "internalType": "uint256",
          "name": "",
          "type": "uint256"
        }
      ],
      "stateMutability": "view",
      "type": "function"
    },
    {
      "inputs": [],
      "name": "feeDiscountToken",
      "outputs": [
        {
          "internalType": "contract IERC20",
          "name": "",
          "type": "address"
        }
      ],
      "stateMutability": "view",
      "type": "function"
    },
    {
      "inputs": [
        {
          "internalType": "uint256",
          "name": "tokenId",
          "type": "uint256"
        }
      ],
      "name": "getApproved",
      "outputs": [
        {
          "internalType": "address",
          "name": "",
          "type": "address"
        }
      ],
      "stateMutability": "view",
      "type": "function"
    },
    {
      "inputs": [],
      "name": "getTotalTokens",
      "outputs": [
        {
          "internalType": "uint256",
          "name": "",
          "type": "uint256"
        }
      ],
      "stateMutability": "view",
      "type": "function"
    },
    {
      "inputs": [
        {
          "internalType": "address",
          "name": "_adapter",
          "type": "address"
        },
        {
          "internalType": "address",
          "name": "_tokenImplementation",
          "type": "address"
        },
        {
          "internalType": "address",
          "name": "_owner",
          "type": "address"
        },
        {
          "internalType": "address",
          "name": "_weth",
          "type": "address"
        },
        {
          "internalType": "address",
          "name": "_feeDiscountToken",
          "type": "address"
        },
        {
          "internalType": "uint256",
          "name": "_feeDiscountAmount",
          "type": "uint256"
        }
      ],
      "name": "initialize",
      "outputs": [],
      "stateMutability": "nonpayable",
      "type": "function"
    },
    {
      "inputs": [
        {
          "internalType": "address",
          "name": "owner",
          "type": "address"
        },
        {
          "internalType": "address",
          "name": "operator",
          "type": "address"
        }
      ],
      "name": "isApprovedForAll",
      "outputs": [
        {
          "internalType": "bool",
          "name": "",
          "type": "bool"
        }
      ],
      "stateMutability": "view",
      "type": "function"
    },
    {
      "inputs": [
        {
          "internalType": "contract ITokenTemplate",
          "name": "token",
          "type": "address"
        }
      ],
      "name": "launchParams",
      "outputs": [
        {
          "internalType": "string",
          "name": "name",
          "type": "string"
        },
        {
          "internalType": "string",
          "name": "symbol",
          "type": "string"
        },
        {
          "internalType": "string",
          "name": "metadata",
          "type": "string"
        },
        {
          "internalType": "contract IERC20",
          "name": "fundingToken",
          "type": "address"
        },
        {
          "internalType": "bytes32",
          "name": "salt",
          "type": "bytes32"
        },
        {
          "internalType": "int24",
          "name": "launchTick",
          "type": "int24"
        },
        {
          "internalType": "int24",
          "name": "graduationTick",
          "type": "int24"
        },
        {
          "internalType": "int24",
          "name": "upperMaxTick",
          "type": "int24"
        },
        {
          "internalType": "bool",
          "name": "isFeeDiscounted",
          "type": "bool"
        }
      ],
      "stateMutability": "view",
      "type": "function"
    },
    {
      "inputs": [],
      "name": "name",
      "outputs": [
        {
          "internalType": "string",
          "name": "",
          "type": "string"
        }
      ],
      "stateMutability": "view",
      "type": "function"
    },
    {
      "inputs": [],
      "name": "owner",
      "outputs": [
        {
          "internalType": "address",
          "name": "",
          "type": "address"
        }
      ],
      "stateMutability": "view",
      "type": "function"
    },
    {
      "inputs": [
        {
          "internalType": "uint256",
          "name": "tokenId",
          "type": "uint256"
        }
      ],
      "name": "ownerOf",
      "outputs": [
        {
          "internalType": "address",
          "name": "",
          "type": "address"
        }
      ],
      "stateMutability": "view",
      "type": "function"
    },
    {
      "inputs": [],
      "name": "referralDestination",
      "outputs": [
        {
          "internalType": "contract IReferralDistributor",
          "name": "",
          "type": "address"
        }
      ],
      "stateMutability": "view",
      "type": "function"
    },
    {
      "inputs": [],
      "name": "referralFee",
      "outputs": [
        {
          "internalType": "uint256",
          "name": "",
          "type": "uint256"
        }
      ],
      "stateMutability": "view",
      "type": "function"
    },
    {
      "inputs": [],
      "name": "renounceOwnership",
      "outputs": [],
      "stateMutability": "nonpayable",
      "type": "function"
    },
    {
      "inputs": [
        {
          "internalType": "address",
          "name": "from",
          "type": "address"
        },
        {
          "internalType": "address",
          "name": "to",
          "type": "address"
        },
        {
          "internalType": "uint256",
          "name": "tokenId",
          "type": "uint256"
        }
      ],
      "name": "safeTransferFrom",
      "outputs": [],
      "stateMutability": "nonpayable",
      "type": "function"
    },
    {
      "inputs": [
        {
          "internalType": "address",
          "name": "from",
          "type": "address"
        },
        {
          "internalType": "address",
          "name": "to",
          "type": "address"
        },
        {
          "internalType": "uint256",
          "name": "tokenId",
          "type": "uint256"
        },
        {
          "internalType": "bytes",
          "name": "data",
          "type": "bytes"
        }
      ],
      "name": "safeTransferFrom",
      "outputs": [],
      "stateMutability": "nonpayable",
      "type": "function"
    },
    {
      "inputs": [
        {
          "internalType": "address",
          "name": "operator",
          "type": "address"
        },
        {
          "internalType": "bool",
          "name": "approved",
          "type": "bool"
        }
      ],
      "name": "setApprovalForAll",
      "outputs": [],
      "stateMutability": "nonpayable",
      "type": "function"
    },
    {
      "inputs": [
        {
          "internalType": "address",
          "name": "_feeDestination",
          "type": "address"
        },
        {
          "internalType": "uint256",
          "name": "_fee",
          "type": "uint256"
        },
        {
          "internalType": "uint256",
          "name": "_feeDiscountAmount",
          "type": "uint256"
        }
      ],
      "name": "setFeeSettings",
      "outputs": [],
      "stateMutability": "nonpayable",
      "type": "function"
    },
    {
      "inputs": [
        {
          "internalType": "address",
          "name": "_referralDestination",
          "type": "address"
        },
        {
          "internalType": "uint256",
          "name": "_referralFee",
          "type": "uint256"
        }
      ],
      "name": "setReferralSettings",
      "outputs": [],
      "stateMutability": "nonpayable",
      "type": "function"
    },
    {
      "inputs": [
        {
          "internalType": "bytes4",
          "name": "interfaceId",
          "type": "bytes4"
        }
      ],
      "name": "supportsInterface",
      "outputs": [
        {
          "internalType": "bool",
          "name": "",
          "type": "bool"
        }
      ],
      "stateMutability": "view",
      "type": "function"
    },
    {
      "inputs": [],
      "name": "symbol",
      "outputs": [
        {
          "internalType": "string",
          "name": "",
          "type": "string"
        }
      ],
      "stateMutability": "view",
      "type": "function"
    },
    {
      "inputs": [
        {
          "internalType": "uint256",
          "name": "index",
          "type": "uint256"
        }
      ],
      "name": "tokenByIndex",
      "outputs": [
        {
          "internalType": "uint256",
          "name": "",
          "type": "uint256"
        }
      ],
      "stateMutability": "view",
      "type": "function"
    },
    {
      "inputs": [],
      "name": "tokenImplementation",
      "outputs": [
        {
          "internalType": "address",
          "name": "",
          "type": "address"
        }
      ],
      "stateMutability": "view",
      "type": "function"
    },
    {
      "inputs": [
        {
          "internalType": "address",
          "name": "owner",
          "type": "address"
        },
        {
          "internalType": "uint256",
          "name": "index",
          "type": "uint256"
        }
      ],
      "name": "tokenOfOwnerByIndex",
      "outputs": [
        {
          "internalType": "uint256",
          "name": "",
          "type": "uint256"
        }
      ],
      "stateMutability": "view",
      "type": "function"
    },
    {
      "inputs": [
        {
          "internalType": "contract ITokenTemplate",
          "name": "token",
          "type": "address"
        }
      ],
      "name": "tokenToNftId",
      "outputs": [
        {
          "internalType": "uint256",
          "name": "",
          "type": "uint256"
        }
      ],
      "stateMutability": "view",
      "type": "function"
    },
    {
      "inputs": [
        {
          "internalType": "uint256",
          "name": "tokenId",
          "type": "uint256"
        }
      ],
      "name": "tokenURI",
      "outputs": [
        {
          "internalType": "string",
          "name": "",
          "type": "string"
        }
      ],
      "stateMutability": "view",
      "type": "function"
    },
    {
      "inputs": [
        {
          "internalType": "uint256",
          "name": "",
          "type": "uint256"
        }
      ],
      "name": "tokens",
      "outputs": [
        {
          "internalType": "contract IERC20",
          "name": "",
          "type": "address"
        }
      ],
      "stateMutability": "view",
      "type": "function"
    },
    {
      "inputs": [],
      "name": "totalSupply",
      "outputs": [
        {
          "internalType": "uint256",
          "name": "",
          "type": "uint256"
        }
      ],
      "stateMutability": "view",
      "type": "function"
    },
    {
      "inputs": [
        {
          "internalType": "address",
          "name": "from",
          "type": "address"
        },
        {
          "internalType": "address",
          "name": "to",
          "type": "address"
        },
        {
          "internalType": "uint256",
          "name": "tokenId",
          "type": "uint256"
        }
      ],
      "name": "transferFrom",
      "outputs": [],
      "stateMutability": "nonpayable",
      "type": "function"
    },
    {
      "inputs": [
        {
          "internalType": "address",
          "name": "newOwner",
          "type": "address"
        }
      ],
      "name": "transferOwnership",
      "outputs": [],
      "stateMutability": "nonpayable",
      "type": "function"
    },
    {
      "inputs": [],
      "name": "weth",
      "outputs": [
        {
          "internalType": "contract IWETH9",
          "name": "",
          "type": "address"
        }
      ],
      "stateMutability": "view",
      "type": "function"
    },
    {
      "stateMutability": "payable",
      "type": "receive"
    }
  ],
  "transactionHash": "0xc585569cff430371bd64f4d003b68ec51b46a352beac79e18b8077c8032dbb46",
  "args": [],
  "numDeployments": 1,
  "solcInputHash": "cb5f9c246ca21135e50c36dd43968e30",
  "bytecode": "0x6080604052348015600f57600080fd5b50613e2a8061001f6000396000f3fe60806040526004361061026e5760003560e01c8063715018a611610153578063cb8d6fb7116100cb578063e4d8c2c51161007f578063f08b82e611610064578063f08b82e61461077e578063f2fde38b14610793578063fa1d576d146107b357600080fd5b8063e4d8c2c5146106f6578063e985e9c51461071657600080fd5b8063d28cf535116100b0578063d28cf535146106a0578063dce0b4e4146106c0578063de53fcd5146106d657600080fd5b8063cb8d6fb714610660578063d10c21611461068057600080fd5b806395d89b4111610122578063b499ccee11610107578063b499ccee146105e8578063b88d4fde14610620578063c87b56dd1461064057600080fd5b806395d89b41146105b3578063a22cb465146105c857600080fd5b8063715018a61461052b57806384ae2bc6146105405780638da5cb5b1461055657806395b6ef0c1461059357600080fd5b80632f3a3d5d116101e65780634f64b2be116101b55780636352211e1161019a5780636352211e146104be5780636755908d146104de57806370a082311461050b57600080fd5b80634f64b2be1461047e5780634f6ccce71461049e57600080fd5b80632f3a3d5d146103fe5780632f745c591461041e5780633fc8cef31461043e57806342842e0e1461045e57600080fd5b8063095ea7b31161023d57806318160ddd1161022257806318160ddd1461036b57806323b872dd146103a95780632b76a557146103c957600080fd5b8063095ea7b31461032957806315a0ea6a1461034b57600080fd5b806301ffc9a71461027a57806303eadcfc146102af57806306fdde03146102e7578063081812fc1461030957600080fd5b3661027557005b600080fd5b34801561028657600080fd5b5061029a61029536600461344b565b6107c9565b60405190151581526020015b60405180910390f35b3480156102bb57600080fd5b506002546102cf906001600160a01b031681565b6040516001600160a01b0390911681526020016102a6565b3480156102f357600080fd5b506102fc61080d565b6040516102a691906134b8565b34801561031557600080fd5b506102cf6103243660046134cb565b6108c3565b34801561033557600080fd5b50610349610344366004613509565b61090b565b005b34801561035757600080fd5b50610349610366366004613535565b61091a565b34801561037757600080fd5b507f645e039705490088daad89bae25049a34f4a9072d398537b1ab2425f24cbed02545b6040519081526020016102a6565b3480156103b557600080fd5b506103496103c4366004613552565b610a93565b3480156103d557600080fd5b506103e96103e4366004613535565b610b36565b6040516102a699989796959493929190613593565b34801561040a57600080fd5b506001546102cf906001600160a01b031681565b34801561042a57600080fd5b5061039b610439366004613509565b610d3b565b34801561044a57600080fd5b506006546102cf906001600160a01b031681565b34801561046a57600080fd5b50610349610479366004613552565b610dc1565b34801561048a57600080fd5b506102cf6104993660046134cb565b610de1565b3480156104aa57600080fd5b5061039b6104b93660046134cb565b610e0b565b3480156104ca57600080fd5b506102cf6104d93660046134cb565b610ea7565b3480156104ea57600080fd5b5061039b6104f9366004613535565b600b6020526000908152604090205481565b34801561051757600080fd5b5061039b610526366004613535565b610eb2565b34801561053757600080fd5b50610349610f39565b34801561054c57600080fd5b5061039b60095481565b34801561056257600080fd5b507f9016d09d72d40fdae2fd8ceac6b6234c7706214fd39c1cd1e609a0528c199300546001600160a01b03166102cf565b34801561059f57600080fd5b506103496105ae366004613613565b610f4d565b3480156105bf57600080fd5b506102fc611152565b3480156105d457600080fd5b506103496105e33660046136a5565b6111a3565b6105fb6105f63660046137ca565b6111ae565b604080516001600160a01b0390941684526020840192909252908201526060016102a6565b34801561062c57600080fd5b5061034961063b366004613900565b611c17565b34801561064c57600080fd5b506102fc61065b3660046134cb565b611c2f565b34801561066c57600080fd5b506003546102cf906001600160a01b031681565b34801561068c57600080fd5b506005546102cf906001600160a01b031681565b3480156106ac57600080fd5b506103496106bb366004613509565b611ca4565b3480156106cc57600080fd5b5061039b60075481565b3480156106e257600080fd5b506000546102cf906001600160a01b031681565b34801561070257600080fd5b50610349610711366004613980565b611d06565b34801561072257600080fd5b5061029a6107313660046139b5565b6001600160a01b0391821660009081527f80bb2b638cc20bc4d0a60d66940f3ab4a00c1d7b313497ca82fb0b4ab00793056020908152604080832093909416825291909152205460ff1690565b34801561078a57600080fd5b5060045461039b565b34801561079f57600080fd5b506103496107ae366004613535565b611d6e565b3480156107bf57600080fd5b5061039b60085481565b60006001600160e01b031982167f780e9d63000000000000000000000000000000000000000000000000000000001480610807575061080782611dc5565b92915050565b7f80bb2b638cc20bc4d0a60d66940f3ab4a00c1d7b313497ca82fb0b4ab0079300805460609190819061083f906139e3565b80601f016020809104026020016040519081016040528092919081815260200182805461086b906139e3565b80156108b85780601f1061088d576101008083540402835291602001916108b8565b820191906000526020600020905b81548152906001019060200180831161089b57829003601f168201915b505050505091505090565b60006108ce82611e60565b5060008281527f80bb2b638cc20bc4d0a60d66940f3ab4a00c1d7b313497ca82fb0b4ab007930460205260409020546001600160a01b0316610807565b610916828233611eb8565b5050565b6001600160a01b038181166000818152600a60205260408082206003015460025491517f15a0ea6a00000000000000000000000000000000000000000000000000000000815260048101949094528416939192839291909116906315a0ea6a9060240160408051808303816000875af115801561099b573d6000803e3d6000fd5b505050506040513d601f19601f820116820180604052508101906109bf9190613a1d565b600954919350915015610a5d5760006064600954846109de9190613a57565b6109e89190613a6e565b905060006064600954846109fc9190613a57565b610a069190613a6e565b9050610a1486868484611ec5565b6001600160a01b0386166000908152600b6020526040902054610a56908790610a3c90610ea7565b87610a478689613a90565b610a518689613a90565b61205d565b5050610a8d565b6001600160a01b0384166000908152600b6020526040902054610a8d908590610a8590610ea7565b85858561205d565b50505050565b6001600160a01b038216610ac257604051633250574960e11b8152600060048201526024015b60405180910390fd5b6000610acf838333612425565b9050836001600160a01b0316816001600160a01b031614610a8d576040517f64283d7b0000000000000000000000000000000000000000000000000000000081526001600160a01b0380861660048301526024820184905282166044820152606401610ab9565b600a60205260009081526040902080548190610b51906139e3565b80601f0160208091040260200160405190810160405280929190818152602001828054610b7d906139e3565b8015610bca5780601f10610b9f57610100808354040283529160200191610bca565b820191906000526020600020905b815481529060010190602001808311610bad57829003601f168201915b505050505090806001018054610bdf906139e3565b80601f0160208091040260200160405190810160405280929190818152602001828054610c0b906139e3565b8015610c585780601f10610c2d57610100808354040283529160200191610c58565b820191906000526020600020905b815481529060010190602001808311610c3b57829003601f168201915b505050505090806002018054610c6d906139e3565b80601f0160208091040260200160405190810160405280929190818152602001828054610c99906139e3565b8015610ce65780601f10610cbb57610100808354040283529160200191610ce6565b820191906000526020600020905b815481529060010190602001808311610cc957829003601f168201915b505050506003830154600484015460059094015492936001600160a01b0390911692909150600281810b9163010000008104820b9166010000000000008204900b906901000000000000000000900460ff1689565b60007f645e039705490088daad89bae25049a34f4a9072d398537b1ab2425f24cbed00610d6784610eb2565b8310610d985760405163295f44f760e21b81526001600160a01b038516600482015260248101849052604401610ab9565b6001600160a01b0384166000908152602091825260408082208583529092522054905092915050565b610ddc83838360405180602001604052806000815250611c17565b505050565b60048181548110610df157600080fd5b6000918252602090912001546001600160a01b0316905081565b60007f645e039705490088daad89bae25049a34f4a9072d398537b1ab2425f24cbed00610e567f645e039705490088daad89bae25049a34f4a9072d398537b1ab2425f24cbed025490565b8310610e7f5760405163295f44f760e21b81526000600482015260248101849052604401610ab9565b806002018381548110610e9457610e94613aa3565b9060005260206000200154915050919050565b600061080782611e60565b60007f80bb2b638cc20bc4d0a60d66940f3ab4a00c1d7b313497ca82fb0b4ab00793006001600160a01b038316610f18576040517f89c62b6400000000000000000000000000000000000000000000000000000000815260006004820152602401610ab9565b6001600160a01b039092166000908152600390920160205250604090205490565b610f41612538565b610f4b60006125ac565b565b7ff0c57e16840df040f15088dc2f81fe391c3923bec73e23a9662efc9c229c6a00805468010000000000000000810460ff16159067ffffffffffffffff16600081158015610f985750825b905060008267ffffffffffffffff166001148015610fb55750303b155b905081158015610fc3575080155b15610ffa576040517ff92ee8a900000000000000000000000000000000000000000000000000000000815260040160405180910390fd5b845467ffffffffffffffff19166001178555831561102e57845468ff00000000000000001916680100000000000000001785555b600280546001600160a01b03808e166001600160a01b031992831617909255600180548d8416908316179055600680548b841690831617905560038054928a169290911691909117905560088690556110868961261d565b6110fa6040518060400160405280601081526020017f5741474d4945204c61756e6368706164000000000000000000000000000000008152506040518060400160405280600681526020017f5741474d4945000000000000000000000000000000000000000000000000000081525061262e565b831561114557845468ff000000000000000019168555604051600181527fc7f505b2f371ae2175ee4913f4499e1f2633a7b5936321eed1cdaeb6115181d29060200160405180910390a15b5050505050505050505050565b7f80bb2b638cc20bc4d0a60d66940f3ab4a00c1d7b313497ca82fb0b4ab007930180546060917f80bb2b638cc20bc4d0a60d66940f3ab4a00c1d7b313497ca82fb0b4ab00793009161083f906139e3565b610916338383612640565b60008060008060075411156111fa57600080546007546040516001600160a01b039092169281156108fc029290818181858888f193505050501580156111f8573d6000803e3d6000fd5b505b471561126a57600660009054906101000a90046001600160a01b03166001600160a01b031663d0e30db0476040518263ffffffff1660e01b81526004016000604051808303818588803b15801561125057600080fd5b505af1158015611264573d6000803e3d6000fd5b50505050505b85610100015115611313576003546000546008546040517f23b872dd0000000000000000000000000000000000000000000000000000000081523360048201526001600160a01b03928316602482015260448101919091529116906323b872dd906064016020604051808303816000875af11580156112ed573d6000803e3d6000fd5b505050506040513d601f19601f820116820180604052508101906113119190613ab9565b505b831561142d5760608601516040516370a0823160e01b81523060048201526000916001600160a01b0316906370a0823190602401602060405180830381865afa158015611364573d6000803e3d6000fd5b505050506040513d601f19601f820116820180604052508101906113889190613ad6565b90508481101561142b5760608701516001600160a01b03166323b872dd33306113b1858a613a90565b6040516001600160e01b031960e086901b1681526001600160a01b03938416600482015292909116602483015260448201526064016020604051808303816000875af1158015611405573d6000803e3d6000fd5b505050506040513d601f19601f820116820180604052508101906114299190613ab9565b505b505b6040805160808082018352885182526020808a018051828501528a850151848601526002546001600160a01b03166060850152918a01518a5192519451600095869461147e94339391929101613aef565b60408051601f1981840301815291905280516020909101206001549091506114af906001600160a01b03168261271c565b92506001600160a01b03881615806114d85750876001600160a01b0316836001600160a01b0316145b61153e576040517f08c379a000000000000000000000000000000000000000000000000000000000815260206004820152601560248201527f496e76616c696420746f6b656e206164647265737300000000000000000000006044820152606401610ab9565b6040517f377134e00000000000000000000000000000000000000000000000000000000081526001600160a01b0384169063377134e090611583908590600401613b34565b600060405180830381600087803b15801561159d57600080fd5b505af11580156115b1573d6000803e3d6000fd5b5050600480546001600160a01b0387166000818152600b60209081526040808320859055600185019095557f8a35acfbc15ff81a39ae7d344fd709f28e8600b4aa8c65c6b64bfe7fe36bd19b90930180546001600160a01b031916909217909155600a909152208b518c9350909150819061162c9082613bf2565b50602082015160018201906116419082613bf2565b50604082015160028201906116569082613bf2565b5060608201516003820180546001600160a01b039283166001600160a01b0319909116179055608083015160048084019190915560a08401516005909301805460c086015160e087015161010090970151151569010000000000000000000269ff0000000000000000001962ffffff9889166601000000000000021669ffffffff0000000000001992891663010000000265ffffffffffff1990941698909716979097179190911716939093179390931790915560025460405163095ea7b360e01b81528683169363095ea7b39361174893169160001991016001600160a01b03929092168252602082015260400190565b6020604051808303816000875af1158015611767573d6000803e3d6000fd5b505050506040513d601f19601f8201168201806040525081019061178b9190613ab9565b506002805460608b015160a08c015160c08d015160e08e01516040517f3efab2a80000000000000000000000000000000000000000000000000000000081526001600160a01b038a81166004830152948516602482015292860b604484015290850b606483015290930b60848401521690633efab2a89060a401600060405180830381600087803b15801561181f57600080fd5b505af1158015611833573d6000803e3d6000fd5b50506002546040517fbbe4f6db0000000000000000000000000000000000000000000000000000000081526001600160a01b038781166004830152909116925063bbe4f6db9150602401602060405180830381865afa15801561189a573d6000803e3d6000fd5b505050506040513d601f19601f820116820180604052508101906118be9190613cb1565b6001600160a01b0316836001600160a01b03167f6a989b53ad32bf609a50b61fd7c8beb67b12d3ddde50b263fdb762f65faa761c846040516119009190613b34565b60405180910390a350507f3096a42106bc0b604935d86a5b597741db0ef81e0fbb14690476f5623db270fd8188606001518960a001518a60c001518b60e001518c600001518d602001518e60400151604051611963989796959493929190613cce565b60405180910390a16001600160a01b0381166000908152600b602052604090205461198f90339061272a565b606087015160025460405163095ea7b360e01b81526001600160a01b039182166004820152600019602482015291169063095ea7b3906044016020604051808303816000875af11580156119e7573d6000803e3d6000fd5b505050506040513d601f19601f82011682018060405250810190611a0b9190613ab9565b5060608701516040516370a0823160e01b81523060048201526000916001600160a01b0316906370a0823190602401602060405180830381865afa158015611a57573d6000803e3d6000fd5b505050506040513d601f19601f82011682018060405250810190611a7b9190613ad6565b60025460608a01516040517fb31cd0d20000000000000000000000000000000000000000000000000000000081526001600160a01b0391821660048201528582166024820152670de0b6b3a764000060448201526064810184905292935060009291169063b31cd0d2906084016020604051808303816000875af1158015611b07573d6000803e3d6000fd5b505050506040513d601f19601f82011682018060405250810190611b2b9190613ad6565b905060008715611bdc5760025460608b01516001600160a01b0390911690637f6ad71a9086611b5a868d613a90565b6040516001600160e01b031960e086901b1681526001600160a01b0393841660048201529290911660248301526044820152600060648201526084016020604051808303816000875af1158015611bb5573d6000803e3d6000fd5b505050506040513d601f19601f82011682018060405250810190611bd99190613ad6565b90505b611be5846127a8565b611bf28a606001516127a8565b600654611c07906001600160a01b03166127a8565b9299929850965090945050505050565b611c22848484610a93565b610a8d33858585856128ef565b6060611c3a82611e60565b506000611c5260408051602081019091526000815290565b90506000815111611c725760405180602001604052806000815250611c9d565b80611c7c84612a1a565b604051602001611c8d929190613d51565b6040516020818303038152906040525b9392505050565b611cac612538565b600580546001600160a01b0319166001600160a01b03841690811790915560098290556040518281527f6a865a099cc391df89f1dd66aadf8ffd4e3a827c1c8c3e46ccbfd92565840bd69060200160405180910390a25050565b611d0e612538565b600080546001600160a01b0319166001600160a01b038516908117909155600783905560088290556040518381527f6f0eaf2c2f89fb4cfe96a1dee5e764d60b52c7f48aaa590f0850e308aa1b953a9060200160405180910390a2505050565b611d76612538565b6001600160a01b038116611db9576040517f1e4fbdf700000000000000000000000000000000000000000000000000000000815260006004820152602401610ab9565b611dc2816125ac565b50565b60006001600160e01b031982167f80ac58cd000000000000000000000000000000000000000000000000000000001480611e2857506001600160e01b031982167f5b5e139f00000000000000000000000000000000000000000000000000000000145b8061080757507f01ffc9a7000000000000000000000000000000000000000000000000000000006001600160e01b0319831614610807565b60008181527f80bb2b638cc20bc4d0a60d66940f3ab4a00c1d7b313497ca82fb0b4ab007930260205260408120546001600160a01b03168061080757604051637e27328960e01b815260048101849052602401610ab9565b610ddc8383836001612aba565b6005546001600160a01b031615610a8d5760055460405163095ea7b360e01b81526001600160a01b039182166004820152602481018490529085169063095ea7b3906044016020604051808303816000875af1158015611f29573d6000803e3d6000fd5b505050506040513d601f19601f82011682018060405250810190611f4d9190613ab9565b5060055460405163095ea7b360e01b81526001600160a01b039182166004820152602481018390529084169063095ea7b3906044016020604051808303816000875af1158015611fa1573d6000803e3d6000fd5b505050506040513d601f19601f82011682018060405250810190611fc59190613ab9565b506005546040517f5b4dba680000000000000000000000000000000000000000000000000000000081526001600160a01b03868116600483015285811660248301526044820185905260648201849052909116908190635b4dba6890608401600060405180830381600087803b15801561203e57600080fd5b505af1158015612052573d6000803e3d6000fd5b505050505050505050565b73f0fffd0292de675e865a9b506bd2c434e0813d74737202136d70026da33628dd3f3efccb43f62a2469734c11f940e2d09ef9d5000668c1c9410f0aaf08336001600160a01b03881663a9059cbb8460646120b9896014613a57565b6120c39190613a6e565b6040516001600160e01b031960e085901b1681526001600160a01b03909216600483015260248201526044016020604051808303816000875af115801561210e573d6000803e3d6000fd5b505050506040513d601f19601f820116820180604052508101906121329190613ab9565b506001600160a01b03881663a9059cbb836064612150896028613a57565b61215a9190613a6e565b6040516001600160e01b031960e085901b1681526001600160a01b03909216600483015260248201526044016020604051808303816000875af11580156121a5573d6000803e3d6000fd5b505050506040513d601f19601f820116820180604052508101906121c99190613ab9565b506001600160a01b03881663a9059cbb8260646121e7896028613a57565b6121f19190613a6e565b6040516001600160e01b031960e085901b1681526001600160a01b03909216600483015260248201526044016020604051808303816000875af115801561223c573d6000803e3d6000fd5b505050506040513d601f19601f820116820180604052508101906122609190613ab9565b506001600160a01b03861663a9059cbb84606461227e886014613a57565b6122889190613a6e565b6040516001600160e01b031960e085901b1681526001600160a01b03909216600483015260248201526044016020604051808303816000875af11580156122d3573d6000803e3d6000fd5b505050506040513d601f19601f820116820180604052508101906122f79190613ab9565b506001600160a01b03861663a9059cbb836064612315886028613a57565b61231f9190613a6e565b6040516001600160e01b031960e085901b1681526001600160a01b03909216600483015260248201526044016020604051808303816000875af115801561236a573d6000803e3d6000fd5b505050506040513d601f19601f8201168201806040525081019061238e9190613ab9565b506001600160a01b03861663a9059cbb8260646123ac886028613a57565b6123b69190613a6e565b6040516001600160e01b031960e085901b1681526001600160a01b03909216600483015260248201526044016020604051808303816000875af1158015612401573d6000803e3d6000fd5b505050506040513d601f19601f820116820180604052508101906120529190613ab9565b600080612433858585612c39565b90506001600160a01b0381166124ce576124c9847f645e039705490088daad89bae25049a34f4a9072d398537b1ab2425f24cbed02805460008381527f645e039705490088daad89bae25049a34f4a9072d398537b1ab2425f24cbed0360205260408120829055600182018355919091527fa42f15e5d656f8155fd7419d740a6073999f19cd6e061449ce4a257150545bf20155565b6124f1565b846001600160a01b0316816001600160a01b0316146124f1576124f18185612d7a565b6001600160a01b03851661250d5761250884612e28565b612530565b846001600160a01b0316816001600160a01b031614612530576125308585612f23565b949350505050565b3361256a7f9016d09d72d40fdae2fd8ceac6b6234c7706214fd39c1cd1e609a0528c199300546001600160a01b031690565b6001600160a01b031614610f4b576040517f118cdaa7000000000000000000000000000000000000000000000000000000008152336004820152602401610ab9565b7f9016d09d72d40fdae2fd8ceac6b6234c7706214fd39c1cd1e609a0528c19930080546001600160a01b031981166001600160a01b03848116918217845560405192169182907f8be0079c531659141344cd1fd0a4f28419497f9722a3daafe3b4186f6b6457e090600090a3505050565b612625612f90565b611dc281612ff7565b612636612f90565b6109168282612fff565b7f80bb2b638cc20bc4d0a60d66940f3ab4a00c1d7b313497ca82fb0b4ab00793006001600160a01b0383166126ac576040517f5b08ba180000000000000000000000000000000000000000000000000000000081526001600160a01b0384166004820152602401610ab9565b6001600160a01b038481166000818152600584016020908152604080832094881680845294825291829020805460ff191687151590811790915591519182527f17307eab39ab6107e8899845ad3d59bd9653f200f220920489ca2b5937696c31910160405180910390a350505050565b6000611c9d83836000613042565b6001600160a01b03821661275457604051633250574960e11b815260006004820152602401610ab9565b600061276283836000612425565b90506001600160a01b03811615610ddc576040517f73c6ac6e00000000000000000000000000000000000000000000000000000000815260006004820152602401610ab9565b6040516370a0823160e01b81523060048201526000906001600160a01b038316906370a0823190602401602060405180830381865afa1580156127ef573d6000803e3d6000fd5b505050506040513d601f19601f820116820180604052508101906128139190613ad6565b905080600003612821575050565b6006546001600160a01b03908116908316036128db576006546040517f2e1a7d4d000000000000000000000000000000000000000000000000000000008152600481018390526001600160a01b0390911690632e1a7d4d90602401600060405180830381600087803b15801561289657600080fd5b505af11580156128aa573d6000803e3d6000fd5b505060405133925083156108fc02915083906000818181858888f19350505050158015610ddc573d6000803e3d6000fd5b6109166001600160a01b038316338361310b565b6001600160a01b0383163b15612a1357604051630a85bd0160e11b81526001600160a01b0384169063150b7a0290612931908890889087908790600401613d80565b6020604051808303816000875af192505050801561296c575060408051601f3d908101601f1916820190925261296991810190613dc1565b60015b6129d5573d80801561299a576040519150601f19603f3d011682016040523d82523d6000602084013e61299f565b606091505b5080516000036129cd57604051633250574960e11b81526001600160a01b0385166004820152602401610ab9565b805181602001fd5b6001600160e01b03198116630a85bd0160e11b14612a1157604051633250574960e11b81526001600160a01b0385166004820152602401610ab9565b505b5050505050565b60606000612a278361318b565b600101905060008167ffffffffffffffff811115612a4757612a476136de565b6040519080825280601f01601f191660200182016040528015612a71576020820181803683370190505b5090508181016020015b600019017f3031323334353637383961626364656600000000000000000000000000000000600a86061a8153600a8504945084612a7b57509392505050565b7f80bb2b638cc20bc4d0a60d66940f3ab4a00c1d7b313497ca82fb0b4ab00793008180612aef57506001600160a01b03831615155b15612c08576000612aff85611e60565b90506001600160a01b03841615801590612b2b5750836001600160a01b0316816001600160a01b031614155b8015612b7c57506001600160a01b0380821660009081527f80bb2b638cc20bc4d0a60d66940f3ab4a00c1d7b313497ca82fb0b4ab0079305602090815260408083209388168352929052205460ff16155b15612bbe576040517fa9fbf51f0000000000000000000000000000000000000000000000000000000081526001600160a01b0385166004820152602401610ab9565b8215612c065784866001600160a01b0316826001600160a01b03167f8c5be1e5ebec7d5bd14f71427d1e84f3dd0314c0f7b2291e5b200ac8c7c3b92560405160405180910390a45b505b600093845260040160205250506040902080546001600160a01b0319166001600160a01b0392909216919091179055565b60008281527f80bb2b638cc20bc4d0a60d66940f3ab4a00c1d7b313497ca82fb0b4ab007930260205260408120547f80bb2b638cc20bc4d0a60d66940f3ab4a00c1d7b313497ca82fb0b4ab0079300906001600160a01b0390811690841615612ca757612ca781858761326d565b6001600160a01b03811615612ce757612cc4600086600080612aba565b6001600160a01b0381166000908152600383016020526040902080546000190190555b6001600160a01b03861615612d18576001600160a01b03861660009081526003830160205260409020805460010190555b600085815260028301602052604080822080546001600160a01b0319166001600160a01b038a811691821790925591518893918516917fddf252ad1be2c89b69c2b068fc378daa952ba7f163c4a11628f55a4df523b3ef91a495945050505050565b7f645e039705490088daad89bae25049a34f4a9072d398537b1ab2425f24cbed006000612da684610eb2565b60008481526001840160209081526040808320546001600160a01b03891684529186905290912091925090818314612e00576000838152602082815260408083205485845281842081905583526001870190915290208290555b6000948552600190930160209081526040808620869055928552929092528220919091555050565b7f645e039705490088daad89bae25049a34f4a9072d398537b1ab2425f24cbed02547f645e039705490088daad89bae25049a34f4a9072d398537b1ab2425f24cbed0090600090612e7b90600190613a90565b6000848152600384016020526040812054600285018054939450909284908110612ea757612ea7613aa3565b9060005260206000200154905080846002018381548110612eca57612eca613aa3565b600091825260208083209091019290925582815260038601909152604080822084905586825281205560028401805480612f0657612f06613dde565b600190038181906000526020600020016000905590555050505050565b7f645e039705490088daad89bae25049a34f4a9072d398537b1ab2425f24cbed0060006001612f5185610eb2565b612f5b9190613a90565b6001600160a01b0390941660009081526020838152604080832087845282528083208690559482526001909301909252502055565b7ff0c57e16840df040f15088dc2f81fe391c3923bec73e23a9662efc9c229c6a005468010000000000000000900460ff16610f4b576040517fd7e6bcf800000000000000000000000000000000000000000000000000000000815260040160405180910390fd5b611d76612f90565b613007612f90565b7f80bb2b638cc20bc4d0a60d66940f3ab4a00c1d7b313497ca82fb0b4ab0079300806130338482613bf2565b5060018101610a8d8382613bf2565b600081471015613087576040517fcf47918100000000000000000000000000000000000000000000000000000000815247600482015260248101839052604401610ab9565b763d602d80600a3d3981f3363d3d373d3d3d363d730000008460601b60e81c176000526e5af43d82803e903d91602b57fd5bf38460781b17602052826037600984f590506001600160a01b038116611c9d576040517fb06ebf3d00000000000000000000000000000000000000000000000000000000815260040160405180910390fd5b604080516001600160a01b038416602482015260448082018490528251808303909101815260649091019091526020810180517bffffffffffffffffffffffffffffffffffffffffffffffffffffffff167fa9059cbb00000000000000000000000000000000000000000000000000000000179052610ddc9084906132ea565b6000807a184f03e93ff9f4daa797ed6e38ed64bf6a1f01000000000000000083106131d4577a184f03e93ff9f4daa797ed6e38ed64bf6a1f010000000000000000830492506040015b6d04ee2d6d415b85acef81000000008310613200576d04ee2d6d415b85acef8100000000830492506020015b662386f26fc10000831061321e57662386f26fc10000830492506010015b6305f5e1008310613236576305f5e100830492506008015b612710831061324a57612710830492506004015b6064831061325c576064830492506002015b600a83106108075760010192915050565b613278838383613374565b610ddc576001600160a01b0383166132a657604051637e27328960e01b815260048101829052602401610ab9565b6040517f177e802f0000000000000000000000000000000000000000000000000000000081526001600160a01b038316600482015260248101829052604401610ab9565b600080602060008451602086016000885af18061330d576040513d6000823e3d81fd5b50506000513d91508115613325578060011415613332565b6001600160a01b0384163b155b15610a8d576040517f5274afe70000000000000000000000000000000000000000000000000000000081526001600160a01b0385166004820152602401610ab9565b60006001600160a01b038316158015906125305750826001600160a01b0316846001600160a01b031614806133ed57506001600160a01b0380851660009081527f80bb2b638cc20bc4d0a60d66940f3ab4a00c1d7b313497ca82fb0b4ab0079305602090815260408083209387168352929052205460ff165b8061253057505060009081527f80bb2b638cc20bc4d0a60d66940f3ab4a00c1d7b313497ca82fb0b4ab007930460205260409020546001600160a01b03908116911614919050565b6001600160e01b031981168114611dc257600080fd5b60006020828403121561345d57600080fd5b8135611c9d81613435565b60005b8381101561348357818101518382015260200161346b565b50506000910152565b600081518084526134a4816020860160208601613468565b601f01601f19169290920160200192915050565b602081526000611c9d602083018461348c565b6000602082840312156134dd57600080fd5b5035919050565b6001600160a01b0381168114611dc257600080fd5b8035613504816134e4565b919050565b6000806040838503121561351c57600080fd5b8235613527816134e4565b946020939093013593505050565b60006020828403121561354757600080fd5b8135611c9d816134e4565b60008060006060848603121561356757600080fd5b8335613572816134e4565b92506020840135613582816134e4565b929592945050506040919091013590565b610120815260006135a861012083018c61348c565b82810360208401526135ba818c61348c565b905082810360408401526135ce818b61348c565b6001600160a01b0399909916606084015250506080810195909552600293840b60a086015291830b60c085015290910b60e08301521515610100909101529392505050565b60008060008060008060c0878903121561362c57600080fd5b8635613637816134e4565b95506020870135613647816134e4565b94506040870135613657816134e4565b93506060870135613667816134e4565b92506080870135613677816134e4565b9598949750929591949360a090920135925050565b8015158114611dc257600080fd5b80356135048161368c565b600080604083850312156136b857600080fd5b82356136c3816134e4565b915060208301356136d38161368c565b809150509250929050565b634e487b7160e01b600052604160045260246000fd5b604051610120810167ffffffffffffffff81118282101715613718576137186136de565b60405290565b60008067ffffffffffffffff841115613739576137396136de565b50604051601f19601f85018116603f0116810181811067ffffffffffffffff82111715613768576137686136de565b60405283815290508082840185101561378057600080fd5b83836020830137600060208583010152509392505050565b600082601f8301126137a957600080fd5b611c9d8383356020850161371e565b8035600281900b811461350457600080fd5b6000806000606084860312156137df57600080fd5b833567ffffffffffffffff8111156137f657600080fd5b8401610120818703121561380957600080fd5b6138116136f4565b813567ffffffffffffffff81111561382857600080fd5b61383488828501613798565b825250602082013567ffffffffffffffff81111561385157600080fd5b61385d88828501613798565b602083015250604082013567ffffffffffffffff81111561387d57600080fd5b61388988828501613798565b60408301525061389b606083016134f9565b6060820152608082810135908201526138b660a083016137b8565b60a08201526138c760c083016137b8565b60c08201526138d860e083016137b8565b60e08201526138ea610100830161369a565b61010082015293506135829050602085016134f9565b6000806000806080858703121561391657600080fd5b8435613921816134e4565b93506020850135613931816134e4565b925060408501359150606085013567ffffffffffffffff81111561395457600080fd5b8501601f8101871361396557600080fd5b6139748782356020840161371e565b91505092959194509250565b60008060006060848603121561399557600080fd5b83356139a0816134e4565b95602085013595506040909401359392505050565b600080604083850312156139c857600080fd5b82356139d3816134e4565b915060208301356136d3816134e4565b600181811c908216806139f757607f821691505b602082108103613a1757634e487b7160e01b600052602260045260246000fd5b50919050565b60008060408385031215613a3057600080fd5b505080516020909101519092909150565b634e487b7160e01b600052601160045260246000fd5b808202811582820484141761080757610807613a41565b600082613a8b57634e487b7160e01b600052601260045260246000fd5b500490565b8181038181111561080757610807613a41565b634e487b7160e01b600052603260045260246000fd5b600060208284031215613acb57600080fd5b8151611c9d8161368c565b600060208284031215613ae857600080fd5b5051919050565b8481526001600160a01b0384166020820152608060408201526000613b17608083018561348c565b8281036060840152613b29818561348c565b979650505050505050565b602081526000825160806020840152613b5060a084018261348c565b90506020840151601f19848303016040850152613b6d828261348c565b9150506040840151601f19848303016060850152613b8b828261348c565b9150506001600160a01b0360608501511660808401528091505092915050565b601f821115610ddc57806000526020600020601f840160051c81016020851015613bd25750805b601f840160051c820191505b81811015612a135760008155600101613bde565b815167ffffffffffffffff811115613c0c57613c0c6136de565b613c2081613c1a84546139e3565b84613bab565b6020601f821160018114613c545760008315613c3c5750848201515b600019600385901b1c1916600184901b178455612a13565b600084815260208120601f198516915b82811015613c845787850151825560209485019460019092019101613c64565b5084821015613ca25786840151600019600387901b60f8161c191681555b50505050600190811b01905550565b600060208284031215613cc357600080fd5b8151611c9d816134e4565b6001600160a01b03891681526001600160a01b03881660208201528660020b60408201528560020b60608201528460020b608082015261010060a08201526000613d1c61010083018661348c565b82810360c0840152613d2e818661348c565b905082810360e0840152613d42818561348c565b9b9a5050505050505050505050565b60008351613d63818460208801613468565b835190830190613d77818360208801613468565b01949350505050565b6001600160a01b03851681526001600160a01b0384166020820152826040820152608060608201526000613db7608083018461348c565b9695505050505050565b600060208284031215613dd357600080fd5b8151611c9d81613435565b634e487b7160e01b600052603160045260246000fdfea26469706673582212207070aa3511f6749c961e7f5c21a80235fcdde86eea72f7f50c203a5d34fc4f5864736f6c634300081c0033",
  "devdoc": {
    "errors": {
      "ERC721EnumerableForbiddenBatchMint()": [
        {
          "details": "Batch mint is not allowed."
        }
      ],
      "ERC721IncorrectOwner(address,uint256,address)": [
        {
          "details": "Indicates an error related to the ownership over a particular token. Used in transfers.",
          "params": {
            "owner": "Address of the current owner of a token.",
            "sender": "Address whose tokens are being transferred.",
            "tokenId": "Identifier number of a token."
          }
        }
      ],
      "ERC721InsufficientApproval(address,uint256)": [
        {
          "details": "Indicates a failure with the `operator`s approval. Used in transfers.",
          "params": {
            "operator": "Address that may be allowed to operate on tokens without being their owner.",
            "tokenId": "Identifier number of a token."
          }
        }
      ],
      "ERC721InvalidApprover(address)": [
        {
          "details": "Indicates a failure with the `approver` of a token to be approved. Used in approvals.",
          "params": {
            "approver": "Address initiating an approval operation."
          }
        }
      ],
      "ERC721InvalidOperator(address)": [
        {
          "details": "Indicates a failure with the `operator` to be approved. Used in approvals.",
          "params": {
            "operator": "Address that may be allowed to operate on tokens without being their owner."
          }
        }
      ],
      "ERC721InvalidOwner(address)": [
        {
          "details": "Indicates that an address can't be an owner. For example, `address(0)` is a forbidden owner in ERC-20. Used in balance queries.",
          "params": {
            "owner": "Address of the current owner of a token."
          }
        }
      ],
      "ERC721InvalidReceiver(address)": [
        {
          "details": "Indicates a failure with the token `receiver`. Used in transfers.",
          "params": {
            "receiver": "Address to which tokens are being transferred."
          }
        }
      ],
      "ERC721InvalidSender(address)": [
        {
          "details": "Indicates a failure with the token `sender`. Used in transfers.",
          "params": {
            "sender": "Address whose tokens are being transferred."
          }
        }
      ],
      "ERC721NonexistentToken(uint256)": [
        {
          "details": "Indicates a `tokenId` whose `owner` is the zero address.",
          "params": {
            "tokenId": "Identifier number of a token."
          }
        }
      ],
      "ERC721OutOfBoundsIndex(address,uint256)": [
        {
          "details": "An `owner`'s token query was out of bounds for `index`. NOTE: The owner being `address(0)` indicates a global out of bounds index."
        }
      ],
      "FailedDeployment()": [
        {
          "details": "The deployment failed."
        }
      ],
      "InsufficientBalance(uint256,uint256)": [
        {
          "details": "The ETH balance of the account is not enough to perform the operation."
        }
      ],
      "InvalidInitialization()": [
        {
          "details": "The contract is already initialized."
        }
      ],
      "NotInitializing()": [
        {
          "details": "The contract is not initializing."
        }
      ],
      "OwnableInvalidOwner(address)": [
        {
          "details": "The owner is not a valid owner account. (eg. `address(0)`)"
        }
      ],
      "OwnableUnauthorizedAccount(address)": [
        {
          "details": "The caller account is not authorized to perform an operation."
        }
      ],
      "SafeERC20FailedOperation(address)": [
        {
          "details": "An operation with an ERC-20 token failed."
        }
      ]
    },
    "events": {
      "Approval(address,address,uint256)": {
        "details": "Emitted when `owner` enables `approved` to manage the `tokenId` token."
      },
      "ApprovalForAll(address,address,bool)": {
        "details": "Emitted when `owner` enables or disables (`approved`) `operator` to manage all of its assets."
      },
      "FeeUpdated(address,uint256)": {
        "params": {
          "fee": "The new fee amount",
          "feeDestination": "The address where fees will be sent"
        }
      },
      "Initialized(uint64)": {
        "details": "Triggered when the contract has been initialized or reinitialized."
      },
      "ReferralUpdated(address,uint256)": {
        "params": {
          "referralDestination": "The address where referrals will be sent",
          "referralFee": "The new referral fee amount"
        }
      },
      "TokenLaunchParams(address,address,int24,int24,int24,string,string,string)": {
        "params": {
          "fundingToken": "The token used for funding the launch",
          "graduationTick": "The tick that must be reached for graduation",
          "launchTick": "The tick at which the token launches",
          "token": "The token that was launched",
          "upperMaxTick": "The maximum tick allowed"
        }
      },
      "TokenLaunched(address,address,(string,string,string,address))": {
        "params": {
          "params": "The parameters used to launch the token",
          "pool": "The address of the pool for the token",
          "token": "The token that was launched"
        }
      },
      "Transfer(address,address,uint256)": {
        "details": "Emitted when `tokenId` token is transferred from `from` to `to`."
      }
    },
    "kind": "dev",
    "methods": {
      "approve(address,uint256)": {
        "details": "See {IERC721-approve}."
      },
      "balanceOf(address)": {
        "details": "See {IERC721-balanceOf}."
      },
      "claimFees(address)": {
        "params": {
          "_token": "The token to claim fees for"
        }
      },
      "createAndBuy((string,string,string,address,bytes32,int24,int24,int24,bool),address,uint256)": {
        "params": {
          "expected": "The expected address where token will be deployed",
          "p": "The parameters for the token launch"
        },
        "returns": {
          "_0": "The address of the newly created token",
          "_1": "The amount of tokens received if the user chooses to buy at launch",
          "_2": "The amount of tokens swapped if the user chooses to swap at launch"
        }
      },
      "getApproved(uint256)": {
        "details": "See {IERC721-getApproved}."
      },
      "getTotalTokens()": {
        "returns": {
          "_0": "The total count of launched tokens"
        }
      },
      "initialize(address,address,address,address,address,uint256)": {
        "params": {
          "_adapter": "The DEX adapter contract address",
          "_feeDiscountAmount": "The amount of fee discount",
          "_feeDiscountToken": "The token used for fee discount",
          "_owner": "The owner address",
          "_tokenImplementation": "The implementation contract for new tokens",
          "_weth": "The WETH9 contract address"
        }
      },
      "isApprovedForAll(address,address)": {
        "details": "See {IERC721-isApprovedForAll}."
      },
      "name()": {
        "details": "See {IERC721Metadata-name}."
      },
      "owner()": {
        "details": "Returns the address of the current owner."
      },
      "ownerOf(uint256)": {
        "details": "See {IERC721-ownerOf}."
      },
      "renounceOwnership()": {
        "details": "Leaves the contract without owner. It will not be possible to call `onlyOwner` functions. Can only be called by the current owner. NOTE: Renouncing ownership will leave the contract without an owner, thereby disabling any functionality that is only available to the owner."
      },
      "safeTransferFrom(address,address,uint256)": {
        "details": "See {IERC721-safeTransferFrom}."
      },
      "safeTransferFrom(address,address,uint256,bytes)": {
        "details": "See {IERC721-safeTransferFrom}."
      },
      "setApprovalForAll(address,bool)": {
        "details": "See {IERC721-setApprovalForAll}."
      },
      "setFeeSettings(address,uint256,uint256)": {
        "params": {
          "_fee": "The new fee amount",
          "_feeDestination": "The address to receive fees",
          "_feeDiscountAmount": "The amount of fee discount"
        }
      },
      "setReferralSettings(address,uint256)": {
        "params": {
          "_referralDestination": "The address to receive referrals",
          "_referralFee": "The new referral fee amount"
        }
      },
      "supportsInterface(bytes4)": {
        "details": "See {IERC165-supportsInterface}."
      },
      "symbol()": {
        "details": "See {IERC721Metadata-symbol}."
      },
      "tokenByIndex(uint256)": {
        "details": "See {IERC721Enumerable-tokenByIndex}."
      },
      "tokenOfOwnerByIndex(address,uint256)": {
        "details": "See {IERC721Enumerable-tokenOfOwnerByIndex}."
      },
      "tokenURI(uint256)": {
        "details": "See {IERC721Metadata-tokenURI}."
      },
      "totalSupply()": {
        "details": "See {IERC721Enumerable-totalSupply}."
      },
      "transferFrom(address,address,uint256)": {
        "details": "See {IERC721-transferFrom}."
      },
      "transferOwnership(address)": {
        "details": "Transfers ownership of the contract to a new account (`newOwner`). Can only be called by the current owner."
      }
    },
    "version": 1
  },
  "userdoc": {
    "events": {
      "FeeUpdated(address,uint256)": {
        "notice": "Emitted when fee settings are updated"
      },
      "ReferralUpdated(address,uint256)": {
        "notice": "Emitted when referral settings are updated"
      },
      "TokenLaunchParams(address,address,int24,int24,int24,string,string,string)": {
        "notice": "Emitted when a token is launched"
      },
      "TokenLaunched(address,address,(string,string,string,address))": {
        "notice": "Emitted when a token is launched"
      }
    },
    "kind": "user",
    "methods": {
      "claimFees(address)": {
        "notice": "Claims accumulated fees for a specific token"
      },
      "createAndBuy((string,string,string,address,bytes32,int24,int24,int24,bool),address,uint256)": {
        "notice": "Creates a new token launch"
      },
      "getTotalTokens()": {
        "notice": "Gets the total number of tokens launched"
      },
      "initialize(address,address,address,address,address,uint256)": {
        "notice": "Initializes the launchpad contract"
      },
      "setFeeSettings(address,uint256,uint256)": {
        "notice": "Updates the fee settings"
      },
      "setReferralSettings(address,uint256)": {
        "notice": "Updates the referral settings"
      }
    },
    "version": 1
  },
  "storageLayout": {
    "storage": [
      {
        "astId": 17422,
        "contract": "contracts/launchpad/clmm/TokenLaunchpadLinea.sol:TokenLaunchpadLinea",
        "label": "feeDestination",
        "offset": 0,
        "slot": "0",
        "type": "t_address"
      },
      {
        "astId": 17424,
        "contract": "contracts/launchpad/clmm/TokenLaunchpadLinea.sol:TokenLaunchpadLinea",
        "label": "tokenImplementation",
        "offset": 0,
        "slot": "1",
        "type": "t_address"
      },
      {
        "astId": 17427,
        "contract": "contracts/launchpad/clmm/TokenLaunchpadLinea.sol:TokenLaunchpadLinea",
        "label": "adapter",
        "offset": 0,
        "slot": "2",
        "type": "t_contract(ICLMMAdapter)15511"
      },
      {
        "astId": 17430,
        "contract": "contracts/launchpad/clmm/TokenLaunchpadLinea.sol:TokenLaunchpadLinea",
        "label": "feeDiscountToken",
        "offset": 0,
        "slot": "3",
        "type": "t_contract(IERC20)3735"
      },
      {
        "astId": 17434,
        "contract": "contracts/launchpad/clmm/TokenLaunchpadLinea.sol:TokenLaunchpadLinea",
        "label": "tokens",
        "offset": 0,
        "slot": "4",
        "type": "t_array(t_contract(IERC20)3735)dyn_storage"
      },
      {
        "astId": 17437,
        "contract": "contracts/launchpad/clmm/TokenLaunchpadLinea.sol:TokenLaunchpadLinea",
        "label": "referralDestination",
        "offset": 0,
        "slot": "5",
        "type": "t_contract(IReferralDistributor)15793"
      },
      {
        "astId": 17440,
        "contract": "contracts/launchpad/clmm/TokenLaunchpadLinea.sol:TokenLaunchpadLinea",
        "label": "weth",
        "offset": 0,
        "slot": "6",
        "type": "t_contract(IWETH9)14714"
      },
      {
        "astId": 17442,
        "contract": "contracts/launchpad/clmm/TokenLaunchpadLinea.sol:TokenLaunchpadLinea",
        "label": "creationFee",
        "offset": 0,
        "slot": "7",
        "type": "t_uint256"
      },
      {
        "astId": 17444,
        "contract": "contracts/launchpad/clmm/TokenLaunchpadLinea.sol:TokenLaunchpadLinea",
        "label": "feeDiscountAmount",
        "offset": 0,
        "slot": "8",
        "type": "t_uint256"
      },
      {
        "astId": 17446,
        "contract": "contracts/launchpad/clmm/TokenLaunchpadLinea.sol:TokenLaunchpadLinea",
        "label": "referralFee",
        "offset": 0,
        "slot": "9",
        "type": "t_uint256"
      },
      {
        "astId": 17452,
        "contract": "contracts/launchpad/clmm/TokenLaunchpadLinea.sol:TokenLaunchpadLinea",
        "label": "launchParams",
        "offset": 0,
        "slot": "10",
        "type": "t_mapping(t_contract(ITokenTemplate)15965,t_struct(CreateParams)15821_storage)"
      },
      {
        "astId": 17457,
        "contract": "contracts/launchpad/clmm/TokenLaunchpadLinea.sol:TokenLaunchpadLinea",
        "label": "tokenToNftId",
        "offset": 0,
        "slot": "11",
        "type": "t_mapping(t_contract(ITokenTemplate)15965,t_uint256)"
      }
    ],
    "types": {
      "t_address": {
        "encoding": "inplace",
        "label": "address",
        "numberOfBytes": "20"
      },
      "t_array(t_contract(IERC20)3735)dyn_storage": {
        "base": "t_contract(IERC20)3735",
        "encoding": "dynamic_array",
        "label": "contract IERC20[]",
        "numberOfBytes": "32"
      },
      "t_bool": {
        "encoding": "inplace",
        "label": "bool",
        "numberOfBytes": "1"
      },
      "t_bytes32": {
        "encoding": "inplace",
        "label": "bytes32",
        "numberOfBytes": "32"
      },
      "t_contract(ICLMMAdapter)15511": {
        "encoding": "inplace",
        "label": "contract ICLMMAdapter",
        "numberOfBytes": "20"
      },
      "t_contract(IERC20)3735": {
        "encoding": "inplace",
        "label": "contract IERC20",
        "numberOfBytes": "20"
      },
      "t_contract(IReferralDistributor)15793": {
        "encoding": "inplace",
        "label": "contract IReferralDistributor",
        "numberOfBytes": "20"
      },
      "t_contract(ITokenTemplate)15965": {
        "encoding": "inplace",
        "label": "contract ITokenTemplate",
        "numberOfBytes": "20"
      },
      "t_contract(IWETH9)14714": {
        "encoding": "inplace",
        "label": "contract IWETH9",
        "numberOfBytes": "20"
      },
      "t_int24": {
        "encoding": "inplace",
        "label": "int24",
        "numberOfBytes": "3"
      },
      "t_mapping(t_contract(ITokenTemplate)15965,t_struct(CreateParams)15821_storage)": {
        "encoding": "mapping",
        "key": "t_contract(ITokenTemplate)15965",
        "label": "mapping(contract ITokenTemplate => struct ITokenLaunchpad.CreateParams)",
        "numberOfBytes": "32",
        "value": "t_struct(CreateParams)15821_storage"
      },
      "t_mapping(t_contract(ITokenTemplate)15965,t_uint256)": {
        "encoding": "mapping",
        "key": "t_contract(ITokenTemplate)15965",
        "label": "mapping(contract ITokenTemplate => uint256)",
        "numberOfBytes": "32",
        "value": "t_uint256"
      },
      "t_string_storage": {
        "encoding": "bytes",
        "label": "string",
        "numberOfBytes": "32"
      },
      "t_struct(CreateParams)15821_storage": {
        "encoding": "inplace",
        "label": "struct ITokenLaunchpad.CreateParams",
        "members": [
          {
            "astId": 15803,
            "contract": "contracts/launchpad/clmm/TokenLaunchpadLinea.sol:TokenLaunchpadLinea",
            "label": "name",
            "offset": 0,
            "slot": "0",
            "type": "t_string_storage"
          },
          {
            "astId": 15805,
            "contract": "contracts/launchpad/clmm/TokenLaunchpadLinea.sol:TokenLaunchpadLinea",
            "label": "symbol",
            "offset": 0,
            "slot": "1",
            "type": "t_string_storage"
          },
          {
            "astId": 15807,
            "contract": "contracts/launchpad/clmm/TokenLaunchpadLinea.sol:TokenLaunchpadLinea",
            "label": "metadata",
            "offset": 0,
            "slot": "2",
            "type": "t_string_storage"
          },
          {
            "astId": 15810,
            "contract": "contracts/launchpad/clmm/TokenLaunchpadLinea.sol:TokenLaunchpadLinea",
            "label": "fundingToken",
            "offset": 0,
            "slot": "3",
            "type": "t_contract(IERC20)3735"
          },
          {
            "astId": 15812,
            "contract": "contracts/launchpad/clmm/TokenLaunchpadLinea.sol:TokenLaunchpadLinea",
            "label": "salt",
            "offset": 0,
            "slot": "4",
            "type": "t_bytes32"
          },
          {
            "astId": 15814,
            "contract": "contracts/launchpad/clmm/TokenLaunchpadLinea.sol:TokenLaunchpadLinea",
            "label": "launchTick",
            "offset": 0,
            "slot": "5",
            "type": "t_int24"
          },
          {
            "astId": 15816,
            "contract": "contracts/launchpad/clmm/TokenLaunchpadLinea.sol:TokenLaunchpadLinea",
            "label": "graduationTick",
            "offset": 3,
            "slot": "5",
            "type": "t_int24"
          },
          {
            "astId": 15818,
            "contract": "contracts/launchpad/clmm/TokenLaunchpadLinea.sol:TokenLaunchpadLinea",
            "label": "upperMaxTick",
            "offset": 6,
            "slot": "5",
            "type": "t_int24"
          },
          {
            "astId": 15820,
            "contract": "contracts/launchpad/clmm/TokenLaunchpadLinea.sol:TokenLaunchpadLinea",
            "label": "isFeeDiscounted",
            "offset": 9,
            "slot": "5",
            "type": "t_bool"
          }
        ],
        "numberOfBytes": "192"
      },
      "t_uint256": {
        "encoding": "inplace",
        "label": "uint256",
        "numberOfBytes": "32"
      }
    }
  }
}