{
  "address": "0x5b33Caeaf91964463cc3387010aB600BB306C083",
  "abi": [
    {
      "inputs": [],
      "name": "ERC721EnumerableForbiddenBatchMint",
      "type": "error"
    },
    {
      "inputs": [
        {
          "internalType": "address",
          "name": "sender",
          "type": "address"
        },
        {
          "internalType": "uint256",
          "name": "tokenId",
          "type": "uint256"
        },
        {
          "internalType": "address",
          "name": "owner",
          "type": "address"
        }
      ],
      "name": "ERC721IncorrectOwner",
      "type": "error"
    },
    {
      "inputs": [
        {
          "internalType": "address",
          "name": "operator",
          "type": "address"
        },
        {
          "internalType": "uint256",
          "name": "tokenId",
          "type": "uint256"
        }
      ],
      "name": "ERC721InsufficientApproval",
      "type": "error"
    },
    {
      "inputs": [
        {
          "internalType": "address",
          "name": "approver",
          "type": "address"
        }
      ],
      "name": "ERC721InvalidApprover",
      "type": "error"
    },
    {
      "inputs": [
        {
          "internalType": "address",
          "name": "operator",
          "type": "address"
        }
      ],
      "name": "ERC721InvalidOperator",
      "type": "error"
    },
    {
      "inputs": [
        {
          "internalType": "address",
          "name": "owner",
          "type": "address"
        }
      ],
      "name": "ERC721InvalidOwner",
      "type": "error"
    },
    {
      "inputs": [
        {
          "internalType": "address",
          "name": "receiver",
          "type": "address"
        }
      ],
      "name": "ERC721InvalidReceiver",
      "type": "error"
    },
    {
      "inputs": [
        {
          "internalType": "address",
          "name": "sender",
          "type": "address"
        }
      ],
      "name": "ERC721InvalidSender",
      "type": "error"
    },
    {
      "inputs": [
        {
          "internalType": "uint256",
          "name": "tokenId",
          "type": "uint256"
        }
      ],
      "name": "ERC721NonexistentToken",
      "type": "error"
    },
    {
      "inputs": [
        {
          "internalType": "address",
          "name": "owner",
          "type": "address"
        },
        {
          "internalType": "uint256",
          "name": "index",
          "type": "uint256"
        }
      ],
      "name": "ERC721OutOfBoundsIndex",
      "type": "error"
    },
    {
      "inputs": [],
      "name": "FailedDeployment",
      "type": "error"
    },
    {
      "inputs": [
        {
          "internalType": "uint256",
          "name": "balance",
          "type": "uint256"
        },
        {
          "internalType": "uint256",
          "name": "needed",
          "type": "uint256"
        }
      ],
      "name": "InsufficientBalance",
      "type": "error"
    },
    {
      "inputs": [],
      "name": "InvalidInitialization",
      "type": "error"
    },
    {
      "inputs": [],
      "name": "NotInitializing",
      "type": "error"
    },
    {
      "inputs": [
        {
          "internalType": "address",
          "name": "owner",
          "type": "address"
        }
      ],
      "name": "OwnableInvalidOwner",
      "type": "error"
    },
    {
      "inputs": [
        {
          "internalType": "address",
          "name": "account",
          "type": "address"
        }
      ],
      "name": "OwnableUnauthorizedAccount",
      "type": "error"
    },
    {
      "anonymous": false,
      "inputs": [
        {
          "indexed": true,
          "internalType": "address",
          "name": "owner",
          "type": "address"
        },
        {
          "indexed": true,
          "internalType": "address",
          "name": "approved",
          "type": "address"
        },
        {
          "indexed": true,
          "internalType": "uint256",
          "name": "tokenId",
          "type": "uint256"
        }
      ],
      "name": "Approval",
      "type": "event"
    },
    {
      "anonymous": false,
      "inputs": [
        {
          "indexed": true,
          "internalType": "address",
          "name": "owner",
          "type": "address"
        },
        {
          "indexed": true,
          "internalType": "address",
          "name": "operator",
          "type": "address"
        },
        {
          "indexed": false,
          "internalType": "bool",
          "name": "approved",
          "type": "bool"
        }
      ],
      "name": "ApprovalForAll",
      "type": "event"
    },
    {
      "anonymous": false,
      "inputs": [
        {
          "indexed": true,
          "internalType": "address",
          "name": "feeDestination",
          "type": "address"
        },
        {
          "indexed": false,
          "internalType": "uint256",
          "name": "fee",
          "type": "uint256"
        }
      ],
      "name": "FeeUpdated",
      "type": "event"
    },
    {
      "anonymous": false,
      "inputs": [
        {
          "indexed": false,
          "internalType": "uint64",
          "name": "version",
          "type": "uint64"
        }
      ],
      "name": "Initialized",
      "type": "event"
    },
    {
      "anonymous": false,
      "inputs": [
        {
          "indexed": true,
          "internalType": "address",
          "name": "previousOwner",
          "type": "address"
        },
        {
          "indexed": true,
          "internalType": "address",
          "name": "newOwner",
          "type": "address"
        }
      ],
      "name": "OwnershipTransferred",
      "type": "event"
    },
    {
      "anonymous": false,
      "inputs": [
        {
          "indexed": true,
          "internalType": "contract ITokenTemplate",
          "name": "token",
          "type": "address"
        },
        {
          "indexed": true,
          "internalType": "address",
          "name": "pool",
          "type": "address"
        },
        {
          "components": [
            {
              "internalType": "string",
              "name": "name",
              "type": "string"
            },
            {
              "internalType": "string",
              "name": "symbol",
              "type": "string"
            },
            {
              "internalType": "string",
              "name": "metadata",
              "type": "string"
            },
            {
              "internalType": "uint256",
              "name": "limitPerWallet",
              "type": "uint256"
            },
            {
              "internalType": "address",
              "name": "adapter",
              "type": "address"
            }
          ],
          "indexed": false,
          "internalType": "struct ITokenTemplate.InitParams",
          "name": "params",
          "type": "tuple"
        }
      ],
      "name": "TokenLaunched",
      "type": "event"
    },
    {
      "anonymous": false,
      "inputs": [
        {
          "indexed": true,
          "internalType": "address",
          "name": "from",
          "type": "address"
        },
        {
          "indexed": true,
          "internalType": "address",
          "name": "to",
          "type": "address"
        },
        {
          "indexed": true,
          "internalType": "uint256",
          "name": "tokenId",
          "type": "uint256"
        }
      ],
      "name": "Transfer",
      "type": "event"
    },
    {
      "inputs": [],
      "name": "adapter",
      "outputs": [
        {
          "internalType": "contract ICLMMAdapter",
          "name": "",
          "type": "address"
        }
      ],
      "stateMutability": "view",
      "type": "function"
    },
    {
      "inputs": [
        {
          "internalType": "address",
          "name": "to",
          "type": "address"
        },
        {
          "internalType": "uint256",
          "name": "tokenId",
          "type": "uint256"
        }
      ],
      "name": "approve",
      "outputs": [],
      "stateMutability": "nonpayable",
      "type": "function"
    },
    {
      "inputs": [
        {
          "internalType": "address",
          "name": "owner",
          "type": "address"
        }
      ],
      "name": "balanceOf",
      "outputs": [
        {
          "internalType": "uint256",
          "name": "",
          "type": "uint256"
        }
      ],
      "stateMutability": "view",
      "type": "function"
    },
    {
      "inputs": [
        {
          "internalType": "contract ITokenTemplate",
          "name": "_token",
          "type": "address"
        }
      ],
      "name": "claimFees",
      "outputs": [],
      "stateMutability": "nonpayable",
      "type": "function"
    },
    {
      "inputs": [
        {
          "components": [
            {
              "internalType": "string",
              "name": "name",
              "type": "string"
            },
            {
              "internalType": "string",
              "name": "symbol",
              "type": "string"
            },
            {
              "internalType": "string",
              "name": "metadata",
              "type": "string"
            },
            {
              "internalType": "contract IERC20",
              "name": "fundingToken",
              "type": "address"
            },
            {
              "internalType": "uint24",
              "name": "fee",
              "type": "uint24"
            },
            {
              "internalType": "uint256",
              "name": "limitPerWallet",
              "type": "uint256"
            },
            {
              "internalType": "bytes32",
              "name": "salt",
              "type": "bytes32"
            },
            {
              "internalType": "int24",
              "name": "launchTick",
              "type": "int24"
            },
            {
              "internalType": "int24",
              "name": "graduationTick",
              "type": "int24"
            },
            {
              "internalType": "int24",
              "name": "upperMaxTick",
              "type": "int24"
            }
          ],
          "internalType": "struct ITokenLaunchpad.CreateParams",
          "name": "p",
          "type": "tuple"
        },
        {
          "internalType": "address",
          "name": "expected",
          "type": "address"
        }
      ],
      "name": "create",
      "outputs": [
        {
          "internalType": "address",
          "name": "",
          "type": "address"
        }
      ],
      "stateMutability": "payable",
      "type": "function"
    },
    {
      "inputs": [],
      "name": "creationFee",
      "outputs": [
        {
          "internalType": "uint256",
          "name": "",
          "type": "uint256"
        }
      ],
      "stateMutability": "view",
      "type": "function"
    },
    {
      "inputs": [],
      "name": "feeDestination",
      "outputs": [
        {
          "internalType": "address",
          "name": "",
          "type": "address"
        }
      ],
      "stateMutability": "view",
      "type": "function"
    },
    {
      "inputs": [
        {
          "internalType": "uint256",
          "name": "tokenId",
          "type": "uint256"
        }
      ],
      "name": "getApproved",
      "outputs": [
        {
          "internalType": "address",
          "name": "",
          "type": "address"
        }
      ],
      "stateMutability": "view",
      "type": "function"
    },
    {
      "inputs": [],
      "name": "getTotalTokens",
      "outputs": [
        {
          "internalType": "uint256",
          "name": "",
          "type": "uint256"
        }
      ],
      "stateMutability": "view",
      "type": "function"
    },
    {
      "inputs": [
        {
          "internalType": "address",
          "name": "_adapter",
          "type": "address"
        },
        {
          "internalType": "address",
          "name": "_tokenImplementation",
          "type": "address"
        },
        {
          "internalType": "address",
          "name": "_owner",
          "type": "address"
        }
      ],
      "name": "initialize",
      "outputs": [],
      "stateMutability": "nonpayable",
      "type": "function"
    },
    {
      "inputs": [
        {
          "internalType": "address",
          "name": "owner",
          "type": "address"
        },
        {
          "internalType": "address",
          "name": "operator",
          "type": "address"
        }
      ],
      "name": "isApprovedForAll",
      "outputs": [
        {
          "internalType": "bool",
          "name": "",
          "type": "bool"
        }
      ],
      "stateMutability": "view",
      "type": "function"
    },
    {
      "inputs": [
        {
          "internalType": "contract ITokenTemplate",
          "name": "token",
          "type": "address"
        }
      ],
      "name": "launchParams",
      "outputs": [
        {
          "internalType": "string",
          "name": "name",
          "type": "string"
        },
        {
          "internalType": "string",
          "name": "symbol",
          "type": "string"
        },
        {
          "internalType": "string",
          "name": "metadata",
          "type": "string"
        },
        {
          "internalType": "contract IERC20",
          "name": "fundingToken",
          "type": "address"
        },
        {
          "internalType": "uint24",
          "name": "fee",
          "type": "uint24"
        },
        {
          "internalType": "uint256",
          "name": "limitPerWallet",
          "type": "uint256"
        },
        {
          "internalType": "bytes32",
          "name": "salt",
          "type": "bytes32"
        },
        {
          "internalType": "int24",
          "name": "launchTick",
          "type": "int24"
        },
        {
          "internalType": "int24",
          "name": "graduationTick",
          "type": "int24"
        },
        {
          "internalType": "int24",
          "name": "upperMaxTick",
          "type": "int24"
        }
      ],
      "stateMutability": "view",
      "type": "function"
    },
    {
      "inputs": [],
      "name": "name",
      "outputs": [
        {
          "internalType": "string",
          "name": "",
          "type": "string"
        }
      ],
      "stateMutability": "view",
      "type": "function"
    },
    {
      "inputs": [],
      "name": "owner",
      "outputs": [
        {
          "internalType": "address",
          "name": "",
          "type": "address"
        }
      ],
      "stateMutability": "view",
      "type": "function"
    },
    {
      "inputs": [
        {
          "internalType": "uint256",
          "name": "tokenId",
          "type": "uint256"
        }
      ],
      "name": "ownerOf",
      "outputs": [
        {
          "internalType": "address",
          "name": "",
          "type": "address"
        }
      ],
      "stateMutability": "view",
      "type": "function"
    },
    {
      "inputs": [],
      "name": "renounceOwnership",
      "outputs": [],
      "stateMutability": "nonpayable",
      "type": "function"
    },
    {
      "inputs": [
        {
          "internalType": "address",
          "name": "from",
          "type": "address"
        },
        {
          "internalType": "address",
          "name": "to",
          "type": "address"
        },
        {
          "internalType": "uint256",
          "name": "tokenId",
          "type": "uint256"
        }
      ],
      "name": "safeTransferFrom",
      "outputs": [],
      "stateMutability": "nonpayable",
      "type": "function"
    },
    {
      "inputs": [
        {
          "internalType": "address",
          "name": "from",
          "type": "address"
        },
        {
          "internalType": "address",
          "name": "to",
          "type": "address"
        },
        {
          "internalType": "uint256",
          "name": "tokenId",
          "type": "uint256"
        },
        {
          "internalType": "bytes",
          "name": "data",
          "type": "bytes"
        }
      ],
      "name": "safeTransferFrom",
      "outputs": [],
      "stateMutability": "nonpayable",
      "type": "function"
    },
    {
      "inputs": [
        {
          "internalType": "address",
          "name": "operator",
          "type": "address"
        },
        {
          "internalType": "bool",
          "name": "approved",
          "type": "bool"
        }
      ],
      "name": "setApprovalForAll",
      "outputs": [],
      "stateMutability": "nonpayable",
      "type": "function"
    },
    {
      "inputs": [
        {
          "internalType": "address",
          "name": "_feeDestination",
          "type": "address"
        },
        {
          "internalType": "uint256",
          "name": "_fee",
          "type": "uint256"
        }
      ],
      "name": "setFeeSettings",
      "outputs": [],
      "stateMutability": "nonpayable",
      "type": "function"
    },
    {
      "inputs": [
        {
          "internalType": "bytes4",
          "name": "interfaceId",
          "type": "bytes4"
        }
      ],
      "name": "supportsInterface",
      "outputs": [
        {
          "internalType": "bool",
          "name": "",
          "type": "bool"
        }
      ],
      "stateMutability": "view",
      "type": "function"
    },
    {
      "inputs": [],
      "name": "symbol",
      "outputs": [
        {
          "internalType": "string",
          "name": "",
          "type": "string"
        }
      ],
      "stateMutability": "view",
      "type": "function"
    },
    {
      "inputs": [
        {
          "internalType": "uint256",
          "name": "index",
          "type": "uint256"
        }
      ],
      "name": "tokenByIndex",
      "outputs": [
        {
          "internalType": "uint256",
          "name": "",
          "type": "uint256"
        }
      ],
      "stateMutability": "view",
      "type": "function"
    },
    {
      "inputs": [],
      "name": "tokenImplementation",
      "outputs": [
        {
          "internalType": "address",
          "name": "",
          "type": "address"
        }
      ],
      "stateMutability": "view",
      "type": "function"
    },
    {
      "inputs": [
        {
          "internalType": "address",
          "name": "owner",
          "type": "address"
        },
        {
          "internalType": "uint256",
          "name": "index",
          "type": "uint256"
        }
      ],
      "name": "tokenOfOwnerByIndex",
      "outputs": [
        {
          "internalType": "uint256",
          "name": "",
          "type": "uint256"
        }
      ],
      "stateMutability": "view",
      "type": "function"
    },
    {
      "inputs": [
        {
          "internalType": "contract ITokenTemplate",
          "name": "token",
          "type": "address"
        }
      ],
      "name": "tokenToNftId",
      "outputs": [
        {
          "internalType": "uint256",
          "name": "",
          "type": "uint256"
        }
      ],
      "stateMutability": "view",
      "type": "function"
    },
    {
      "inputs": [
        {
          "internalType": "uint256",
          "name": "tokenId",
          "type": "uint256"
        }
      ],
      "name": "tokenURI",
      "outputs": [
        {
          "internalType": "string",
          "name": "",
          "type": "string"
        }
      ],
      "stateMutability": "view",
      "type": "function"
    },
    {
      "inputs": [
        {
          "internalType": "uint256",
          "name": "",
          "type": "uint256"
        }
      ],
      "name": "tokens",
      "outputs": [
        {
          "internalType": "contract IERC20",
          "name": "",
          "type": "address"
        }
      ],
      "stateMutability": "view",
      "type": "function"
    },
    {
      "inputs": [],
      "name": "totalSupply",
      "outputs": [
        {
          "internalType": "uint256",
          "name": "",
          "type": "uint256"
        }
      ],
      "stateMutability": "view",
      "type": "function"
    },
    {
      "inputs": [
        {
          "internalType": "address",
          "name": "from",
          "type": "address"
        },
        {
          "internalType": "address",
          "name": "to",
          "type": "address"
        },
        {
          "internalType": "uint256",
          "name": "tokenId",
          "type": "uint256"
        }
      ],
      "name": "transferFrom",
      "outputs": [],
      "stateMutability": "nonpayable",
      "type": "function"
    },
    {
      "inputs": [
        {
          "internalType": "address",
          "name": "newOwner",
          "type": "address"
        }
      ],
      "name": "transferOwnership",
      "outputs": [],
      "stateMutability": "nonpayable",
      "type": "function"
    },
    {
      "stateMutability": "payable",
      "type": "receive"
    }
  ],
  "transactionHash": "0x25e6c7ecc393969d1ab959a361b563fa534368125d04793e0373044ddd3c7896",
  "args": [],
  "numDeployments": 1,
  "solcInputHash": "11c7d4219292158ada19cd9ab7ca3da0",
  "bytecode": "0x6080604052348015600f57600080fd5b5061323d8061001f6000396000f3fe6080604052600436106101dc5760003560e01c80636755908d11610102578063c87b56dd11610095578063e985e9c511610064578063e985e9c5146105b7578063eb3ae5551461061f578063f08b82e614610632578063f2fde38b1461064757600080fd5b8063c87b56dd14610541578063dce0b4e414610561578063de53fcd514610577578063e34dfd9d1461059757600080fd5b806395d89b41116100d157806395d89b41146104cc578063a22cb465146104e1578063b88d4fde14610501578063c0c53b8b1461052157600080fd5b80636755908d1461042d57806370a082311461045a578063715018a61461047a5780638da5cb5b1461048f57600080fd5b806323b872dd1161017a57806342842e0e1161014957806342842e0e146103ad5780634f64b2be146103cd5780634f6ccce7146103ed5780636352211e1461040d57600080fd5b806323b872dd146103175780632b76a557146103375780632f3a3d5d1461036d5780632f745c591461038d57600080fd5b8063081812fc116101b6578063081812fc14610277578063095ea7b31461029757806315a0ea6a146102b957806318160ddd146102d957600080fd5b806301ffc9a7146101e857806303eadcfc1461021d57806306fdde031461025557600080fd5b366101e357005b600080fd5b3480156101f457600080fd5b5061020861020336600461292b565b610667565b60405190151581526020015b60405180910390f35b34801561022957600080fd5b5060045461023d906001600160a01b031681565b6040516001600160a01b039091168152602001610214565b34801561026157600080fd5b5061026a6106ab565b6040516102149190612998565b34801561028357600080fd5b5061023d6102923660046129ab565b610761565b3480156102a357600080fd5b506102b76102b23660046129e9565b6107a9565b005b3480156102c557600080fd5b506102b76102d4366004612a15565b6107b8565b3480156102e557600080fd5b507f645e039705490088daad89bae25049a34f4a9072d398537b1ab2425f24cbed02545b604051908152602001610214565b34801561032357600080fd5b506102b7610332366004612a32565b610898565b34801561034357600080fd5b50610357610352366004612a15565b61093b565b6040516102149a99989796959493929190612a73565b34801561037957600080fd5b5060005461023d906001600160a01b031681565b34801561039957600080fd5b506103096103a83660046129e9565b610b42565b3480156103b957600080fd5b506102b76103c8366004612a32565b610bc8565b3480156103d957600080fd5b5061023d6103e83660046129ab565b610be8565b3480156103f957600080fd5b506103096104083660046129ab565b610c12565b34801561041957600080fd5b5061023d6104283660046129ab565b610cae565b34801561043957600080fd5b50610309610448366004612a15565b60066020526000908152604090205481565b34801561046657600080fd5b50610309610475366004612a15565b610cb9565b34801561048657600080fd5b506102b7610d40565b34801561049b57600080fd5b507f9016d09d72d40fdae2fd8ceac6b6234c7706214fd39c1cd1e609a0528c199300546001600160a01b031661023d565b3480156104d857600080fd5b5061026a610d54565b3480156104ed57600080fd5b506102b76104fc366004612b0e565b610da5565b34801561050d57600080fd5b506102b761051c366004612c01565b610db0565b34801561052d57600080fd5b506102b761053c366004612c81565b610dc8565b34801561054d57600080fd5b5061026a61055c3660046129ab565b610fab565b34801561056d57600080fd5b5061030960025481565b34801561058357600080fd5b5060035461023d906001600160a01b031681565b3480156105a357600080fd5b506102b76105b23660046129e9565b611020565b3480156105c357600080fd5b506102086105d2366004612ccc565b6001600160a01b0391821660009081527f80bb2b638cc20bc4d0a60d66940f3ab4a00c1d7b313497ca82fb0b4ab00793056020908152604080832093909416825291909152205460ff1690565b61023d61062d366004612d3f565b611082565b34801561063e57600080fd5b50600154610309565b34801561065357600080fd5b506102b7610662366004612a15565b61163f565b60006001600160e01b031982167f780e9d630000000000000000000000000000000000000000000000000000000014806106a557506106a582611696565b92915050565b7f80bb2b638cc20bc4d0a60d66940f3ab4a00c1d7b313497ca82fb0b4ab007930080546060919081906106dd90612e88565b80601f016020809104026020016040519081016040528092919081815260200182805461070990612e88565b80156107565780601f1061072b57610100808354040283529160200191610756565b820191906000526020600020905b81548152906001019060200180831161073957829003601f168201915b505050505091505090565b600061076c82611731565b5060008281527f80bb2b638cc20bc4d0a60d66940f3ab4a00c1d7b313497ca82fb0b4ab007930460205260409020546001600160a01b03166106a5565b6107b4828233611789565b5050565b6001600160a01b03818116600081815260056020526040808220600301546004805492517f15a0ea6a000000000000000000000000000000000000000000000000000000008152908101949094528416939192839291909116906315a0ea6a9060240160408051808303816000875af1158015610839573d6000803e3d6000fd5b505050506040513d601f19601f8201168201806040525081019061085d9190612ec2565b6001600160a01b038616600090815260066020526040902054919350915061089290859061088a90610cae565b858585611796565b50505050565b6001600160a01b0382166108c757604051633250574960e11b8152600060048201526024015b60405180910390fd5b60006108d4838333611b56565b9050836001600160a01b0316816001600160a01b031614610892576040517f64283d7b0000000000000000000000000000000000000000000000000000000081526001600160a01b03808616600483015260248201849052821660448201526064016108be565b60056020526000908152604090208054819061095690612e88565b80601f016020809104026020016040519081016040528092919081815260200182805461098290612e88565b80156109cf5780601f106109a4576101008083540402835291602001916109cf565b820191906000526020600020905b8154815290600101906020018083116109b257829003601f168201915b5050505050908060010180546109e490612e88565b80601f0160208091040260200160405190810160405280929190818152602001828054610a1090612e88565b8015610a5d5780601f10610a3257610100808354040283529160200191610a5d565b820191906000526020600020905b815481529060010190602001808311610a4057829003601f168201915b505050505090806002018054610a7290612e88565b80601f0160208091040260200160405190810160405280929190818152602001828054610a9e90612e88565b8015610aeb5780601f10610ac057610100808354040283529160200191610aeb565b820191906000526020600020905b815481529060010190602001808311610ace57829003601f168201915b5050505060038301546004840154600585015460069095015493946001600160a01b03831694600160a01b90930462ffffff1693509091600281810b9163010000008104820b916601000000000000909104900b8a565b60007f645e039705490088daad89bae25049a34f4a9072d398537b1ab2425f24cbed00610b6e84610cb9565b8310610b9f5760405163295f44f760e21b81526001600160a01b0385166004820152602481018490526044016108be565b6001600160a01b0384166000908152602091825260408082208583529092522054905092915050565b610be383838360405180602001604052806000815250610db0565b505050565b60018181548110610bf857600080fd5b6000918252602090912001546001600160a01b0316905081565b60007f645e039705490088daad89bae25049a34f4a9072d398537b1ab2425f24cbed00610c5d7f645e039705490088daad89bae25049a34f4a9072d398537b1ab2425f24cbed025490565b8310610c865760405163295f44f760e21b815260006004820152602481018490526044016108be565b806002018381548110610c9b57610c9b612ee6565b9060005260206000200154915050919050565b60006106a582611731565b60007f80bb2b638cc20bc4d0a60d66940f3ab4a00c1d7b313497ca82fb0b4ab00793006001600160a01b038316610d1f576040517f89c62b64000000000000000000000000000000000000000000000000000000008152600060048201526024016108be565b6001600160a01b039092166000908152600390920160205250604090205490565b610d48611c69565b610d526000611cdd565b565b7f80bb2b638cc20bc4d0a60d66940f3ab4a00c1d7b313497ca82fb0b4ab007930180546060917f80bb2b638cc20bc4d0a60d66940f3ab4a00c1d7b313497ca82fb0b4ab0079300916106dd90612e88565b6107b4338383611d4e565b610dbb848484610898565b6108923385858585611e2a565b7ff0c57e16840df040f15088dc2f81fe391c3923bec73e23a9662efc9c229c6a00805468010000000000000000810460ff16159067ffffffffffffffff16600081158015610e135750825b905060008267ffffffffffffffff166001148015610e305750303b155b905081158015610e3e575080155b15610e75576040517ff92ee8a900000000000000000000000000000000000000000000000000000000815260040160405180910390fd5b845467ffffffffffffffff191660011785558315610ea957845468ff00000000000000001916680100000000000000001785555b600480546001600160a01b03808b166001600160a01b03199283161790925560008054928a1692909116919091179055610ee286611f55565b610f566040518060400160405280601081526020017f5741474d4945204c61756e6368706164000000000000000000000000000000008152506040518060400160405280600681526020017f5741474d49450000000000000000000000000000000000000000000000000000815250611f66565b8315610fa157845468ff000000000000000019168555604051600181527fc7f505b2f371ae2175ee4913f4499e1f2633a7b5936321eed1cdaeb6115181d29060200160405180910390a15b5050505050505050565b6060610fb682611731565b506000610fce60408051602081019091526000815290565b90506000815111610fee5760405180602001604052806000815250611019565b80610ff884611f78565b604051602001611009929190612efc565b6040516020818303038152906040525b9392505050565b611028611c69565b600380546001600160a01b0319166001600160a01b03841690811790915560028290556040518281527f6f0eaf2c2f89fb4cfe96a1dee5e764d60b52c7f48aaa590f0850e308aa1b953a9060200160405180910390a25050565b6002546000901561111d576002543410156110df5760405162461bcd60e51b815260206004820152600c60248201527f216372656174696f6e466565000000000000000000000000000000000000000060448201526064016108be565b6003546002546040516001600160a01b039092169181156108fc0291906000818181858888f1935050505015801561111b573d6000803e3d6000fd5b505b6040805160a0808201835285518252602080870180518285015287850151848601529187015160608401526004546001600160a01b0316608084015260c087015187519251945193946000946111799492933393929101612f2b565b60408051601f19818403018152919052805160209091012060008054919250906111ac906001600160a01b031683612018565b90506001600160a01b03851615806111d55750846001600160a01b0316816001600160a01b0316145b6112215760405162461bcd60e51b815260206004820152601560248201527f496e76616c696420746f6b656e2061646472657373000000000000000000000060448201526064016108be565b6040517ff97bcfa60000000000000000000000000000000000000000000000000000000081526001600160a01b0382169063f97bcfa690611266908690600401612f70565b600060405180830381600087803b15801561128057600080fd5b505af1158015611294573d6000803e3d6000fd5b50506001805480820182557fb10e2d527612073b26eecdfd717e6a320cf44b4afac2b0732d9fcbe2b7fa0cf60180546001600160a01b0319166001600160a01b03861690811790915590546000918252600660209081526040808420929092556005905290208851899350909150819061130e9082613038565b50602082015160018201906113239082613038565b50604082015160028201906113389082613038565b506060820151600382018054608085015162ffffff908116600160a01b027fffffffffffffffffff00000000000000000000000000000000000000000000009092166001600160a01b03948516179190911790915560a084015160048085019190915560c0850151600585015560e08501516006909401805461010087015161012090970151841666010000000000000268ffffff0000000000001997851663010000000265ffffffffffff19909216969094169590951794909417949094161790915581546040517f095ea7b300000000000000000000000000000000000000000000000000000000815290821692810192909252600019602483015282169063095ea7b3906044016020604051808303816000875af1158015611461573d6000803e3d6000fd5b505050506040513d601f19601f8201168201806040525081019061148591906130f7565b5060048054606088015160e08901516101008a01516101208b01516040517f7e91334d0000000000000000000000000000000000000000000000000000000081526001600160a01b038881169782019790975293861660248501526127106044850152600292830b606485015290820b6084840152900b60a4820152911690637e91334d9060c401600060405180830381600087803b15801561152757600080fd5b505af115801561153b573d6000803e3d6000fd5b5050600480546040517fbbe4f6db0000000000000000000000000000000000000000000000000000000081526001600160a01b03868116938201939093529116925063bbe4f6db9150602401602060405180830381865afa1580156115a4573d6000803e3d6000fd5b505050506040513d601f19601f820116820180604052508101906115c89190613114565b6001600160a01b0316816001600160a01b03167fb47618b36cde3985f233f05e056955bf903439799ba91fd88f72e42ac9344e238560405161160a9190612f70565b60405180910390a36001600160a01b038116600090815260066020526040902054611636903390612026565b95945050505050565b611647611c69565b6001600160a01b03811661168a576040517f1e4fbdf7000000000000000000000000000000000000000000000000000000008152600060048201526024016108be565b61169381611cdd565b50565b60006001600160e01b031982167f80ac58cd0000000000000000000000000000000000000000000000000000000014806116f957506001600160e01b031982167f5b5e139f00000000000000000000000000000000000000000000000000000000145b806106a557507f01ffc9a7000000000000000000000000000000000000000000000000000000006001600160e01b03198316146106a5565b60008181527f80bb2b638cc20bc4d0a60d66940f3ab4a00c1d7b313497ca82fb0b4ab007930260205260408120546001600160a01b0316806106a557604051637e27328960e01b8152600481018490526024016108be565b610be383838360016120a4565b73f0fffd0292de675e865a9b506bd2c434e0813d74737202136d70026da33628dd3f3efccb43f62a246960006001600160a01b03881663a9059cbb8460646117df896014613147565b6117e9919061315e565b6040516001600160e01b031960e085901b1681526001600160a01b03909216600483015260248201526044016020604051808303816000875af1158015611834573d6000803e3d6000fd5b505050506040513d601f19601f8201168201806040525081019061185891906130f7565b506001600160a01b03881663a9059cbb836064611876896028613147565b611880919061315e565b6040516001600160e01b031960e085901b1681526001600160a01b03909216600483015260248201526044016020604051808303816000875af11580156118cb573d6000803e3d6000fd5b505050506040513d601f19601f820116820180604052508101906118ef91906130f7565b506001600160a01b03881663a9059cbb82606461190d896028613147565b611917919061315e565b6040516001600160e01b031960e085901b1681526001600160a01b03909216600483015260248201526044016020604051808303816000875af1158015611962573d6000803e3d6000fd5b505050506040513d601f19601f8201168201806040525081019061198691906130f7565b506001600160a01b03861663a9059cbb8460646119a4886014613147565b6119ae919061315e565b6040516001600160e01b031960e085901b1681526001600160a01b03909216600483015260248201526044016020604051808303816000875af11580156119f9573d6000803e3d6000fd5b505050506040513d601f19601f82011682018060405250810190611a1d91906130f7565b506001600160a01b03861663a9059cbb836064611a3b886028613147565b611a45919061315e565b6040516001600160e01b031960e085901b1681526001600160a01b03909216600483015260248201526044016020604051808303816000875af1158015611a90573d6000803e3d6000fd5b505050506040513d601f19601f82011682018060405250810190611ab491906130f7565b506001600160a01b03861663a9059cbb826064611ad2886028613147565b611adc919061315e565b6040516001600160e01b031960e085901b1681526001600160a01b03909216600483015260248201526044016020604051808303816000875af1158015611b27573d6000803e3d6000fd5b505050506040513d601f19601f82011682018060405250810190611b4b91906130f7565b505050505050505050565b600080611b64858585612223565b90506001600160a01b038116611bff57611bfa847f645e039705490088daad89bae25049a34f4a9072d398537b1ab2425f24cbed02805460008381527f645e039705490088daad89bae25049a34f4a9072d398537b1ab2425f24cbed0360205260408120829055600182018355919091527fa42f15e5d656f8155fd7419d740a6073999f19cd6e061449ce4a257150545bf20155565b611c22565b846001600160a01b0316816001600160a01b031614611c2257611c228185612364565b6001600160a01b038516611c3e57611c3984612412565b611c61565b846001600160a01b0316816001600160a01b031614611c6157611c61858561250d565b949350505050565b33611c9b7f9016d09d72d40fdae2fd8ceac6b6234c7706214fd39c1cd1e609a0528c199300546001600160a01b031690565b6001600160a01b031614610d52576040517f118cdaa70000000000000000000000000000000000000000000000000000000081523360048201526024016108be565b7f9016d09d72d40fdae2fd8ceac6b6234c7706214fd39c1cd1e609a0528c19930080546001600160a01b031981166001600160a01b03848116918217845560405192169182907f8be0079c531659141344cd1fd0a4f28419497f9722a3daafe3b4186f6b6457e090600090a3505050565b7f80bb2b638cc20bc4d0a60d66940f3ab4a00c1d7b313497ca82fb0b4ab00793006001600160a01b038316611dba576040517f5b08ba180000000000000000000000000000000000000000000000000000000081526001600160a01b03841660048201526024016108be565b6001600160a01b038481166000818152600584016020908152604080832094881680845294825291829020805460ff191687151590811790915591519182527f17307eab39ab6107e8899845ad3d59bd9653f200f220920489ca2b5937696c31910160405180910390a350505050565b6001600160a01b0383163b15611f4e57604051630a85bd0160e11b81526001600160a01b0384169063150b7a0290611e6c908890889087908790600401613180565b6020604051808303816000875af1925050508015611ea7575060408051601f3d908101601f19168201909252611ea4918101906131c1565b60015b611f10573d808015611ed5576040519150601f19603f3d011682016040523d82523d6000602084013e611eda565b606091505b508051600003611f0857604051633250574960e11b81526001600160a01b03851660048201526024016108be565b805181602001fd5b6001600160e01b03198116630a85bd0160e11b14611f4c57604051633250574960e11b81526001600160a01b03851660048201526024016108be565b505b5050505050565b611f5d61257a565b611693816125e1565b611f6e61257a565b6107b482826125e9565b60606000611f858361262c565b600101905060008167ffffffffffffffff811115611fa557611fa5612b47565b6040519080825280601f01601f191660200182016040528015611fcf576020820181803683370190505b5090508181016020015b600019017f3031323334353637383961626364656600000000000000000000000000000000600a86061a8153600a8504945084611fd957509392505050565b60006110198383600061270e565b6001600160a01b03821661205057604051633250574960e11b8152600060048201526024016108be565b600061205e83836000611b56565b90506001600160a01b03811615610be3576040517f73c6ac6e000000000000000000000000000000000000000000000000000000008152600060048201526024016108be565b7f80bb2b638cc20bc4d0a60d66940f3ab4a00c1d7b313497ca82fb0b4ab007930081806120d957506001600160a01b03831615155b156121f25760006120e985611731565b90506001600160a01b038416158015906121155750836001600160a01b0316816001600160a01b031614155b801561216657506001600160a01b0380821660009081527f80bb2b638cc20bc4d0a60d66940f3ab4a00c1d7b313497ca82fb0b4ab0079305602090815260408083209388168352929052205460ff16155b156121a8576040517fa9fbf51f0000000000000000000000000000000000000000000000000000000081526001600160a01b03851660048201526024016108be565b82156121f05784866001600160a01b0316826001600160a01b03167f8c5be1e5ebec7d5bd14f71427d1e84f3dd0314c0f7b2291e5b200ac8c7c3b92560405160405180910390a45b505b600093845260040160205250506040902080546001600160a01b0319166001600160a01b0392909216919091179055565b60008281527f80bb2b638cc20bc4d0a60d66940f3ab4a00c1d7b313497ca82fb0b4ab007930260205260408120547f80bb2b638cc20bc4d0a60d66940f3ab4a00c1d7b313497ca82fb0b4ab0079300906001600160a01b0390811690841615612291576122918185876127d7565b6001600160a01b038116156122d1576122ae6000866000806120a4565b6001600160a01b0381166000908152600383016020526040902080546000190190555b6001600160a01b03861615612302576001600160a01b03861660009081526003830160205260409020805460010190555b600085815260028301602052604080822080546001600160a01b0319166001600160a01b038a811691821790925591518893918516917fddf252ad1be2c89b69c2b068fc378daa952ba7f163c4a11628f55a4df523b3ef91a495945050505050565b7f645e039705490088daad89bae25049a34f4a9072d398537b1ab2425f24cbed00600061239084610cb9565b60008481526001840160209081526040808320546001600160a01b038916845291869052909120919250908183146123ea576000838152602082815260408083205485845281842081905583526001870190915290208290555b6000948552600190930160209081526040808620869055928552929092528220919091555050565b7f645e039705490088daad89bae25049a34f4a9072d398537b1ab2425f24cbed02547f645e039705490088daad89bae25049a34f4a9072d398537b1ab2425f24cbed0090600090612465906001906131de565b600084815260038401602052604081205460028501805493945090928490811061249157612491612ee6565b90600052602060002001549050808460020183815481106124b4576124b4612ee6565b6000918252602080832090910192909255828152600386019091526040808220849055868252812055600284018054806124f0576124f06131f1565b600190038181906000526020600020016000905590555050505050565b7f645e039705490088daad89bae25049a34f4a9072d398537b1ab2425f24cbed006000600161253b85610cb9565b61254591906131de565b6001600160a01b0390941660009081526020838152604080832087845282528083208690559482526001909301909252502055565b7ff0c57e16840df040f15088dc2f81fe391c3923bec73e23a9662efc9c229c6a005468010000000000000000900460ff16610d52576040517fd7e6bcf800000000000000000000000000000000000000000000000000000000815260040160405180910390fd5b61164761257a565b6125f161257a565b7f80bb2b638cc20bc4d0a60d66940f3ab4a00c1d7b313497ca82fb0b4ab00793008061261d8482613038565b50600181016108928382613038565b6000807a184f03e93ff9f4daa797ed6e38ed64bf6a1f0100000000000000008310612675577a184f03e93ff9f4daa797ed6e38ed64bf6a1f010000000000000000830492506040015b6d04ee2d6d415b85acef810000000083106126a1576d04ee2d6d415b85acef8100000000830492506020015b662386f26fc1000083106126bf57662386f26fc10000830492506010015b6305f5e10083106126d7576305f5e100830492506008015b61271083106126eb57612710830492506004015b606483106126fd576064830492506002015b600a83106106a55760010192915050565b600081471015612753576040517fcf479181000000000000000000000000000000000000000000000000000000008152476004820152602481018390526044016108be565b763d602d80600a3d3981f3363d3d373d3d3d363d730000008460601b60e81c176000526e5af43d82803e903d91602b57fd5bf38460781b17602052826037600984f590506001600160a01b038116611019576040517fb06ebf3d00000000000000000000000000000000000000000000000000000000815260040160405180910390fd5b6127e2838383612854565b610be3576001600160a01b03831661281057604051637e27328960e01b8152600481018290526024016108be565b6040517f177e802f0000000000000000000000000000000000000000000000000000000081526001600160a01b0383166004820152602481018290526044016108be565b60006001600160a01b03831615801590611c615750826001600160a01b0316846001600160a01b031614806128cd57506001600160a01b0380851660009081527f80bb2b638cc20bc4d0a60d66940f3ab4a00c1d7b313497ca82fb0b4ab0079305602090815260408083209387168352929052205460ff165b80611c6157505060009081527f80bb2b638cc20bc4d0a60d66940f3ab4a00c1d7b313497ca82fb0b4ab007930460205260409020546001600160a01b03908116911614919050565b6001600160e01b03198116811461169357600080fd5b60006020828403121561293d57600080fd5b813561101981612915565b60005b8381101561296357818101518382015260200161294b565b50506000910152565b60008151808452612984816020860160208601612948565b601f01601f19169290920160200192915050565b602081526000611019602083018461296c565b6000602082840312156129bd57600080fd5b5035919050565b6001600160a01b038116811461169357600080fd5b80356129e4816129c4565b919050565b600080604083850312156129fc57600080fd5b8235612a07816129c4565b946020939093013593505050565b600060208284031215612a2757600080fd5b8135611019816129c4565b600080600060608486031215612a4757600080fd5b8335612a52816129c4565b92506020840135612a62816129c4565b929592945050506040919091013590565b61014081526000612a8861014083018d61296c565b8281036020840152612a9a818d61296c565b90508281036040840152612aae818c61296c565b6001600160a01b039a909a166060840152505062ffffff96909616608087015260a086019490945260c0850192909252600290810b60e085015290810b6101008401520b610120909101529392505050565b801515811461169357600080fd5b60008060408385031215612b2157600080fd5b8235612b2c816129c4565b91506020830135612b3c81612b00565b809150509250929050565b634e487b7160e01b600052604160045260246000fd5b604051610140810167ffffffffffffffff81118282101715612b8157612b81612b47565b60405290565b60008067ffffffffffffffff841115612ba257612ba2612b47565b50604051601f19601f85018116603f0116810181811067ffffffffffffffff82111715612bd157612bd1612b47565b604052838152905080828401851015612be957600080fd5b83836020830137600060208583010152509392505050565b60008060008060808587031215612c1757600080fd5b8435612c22816129c4565b93506020850135612c32816129c4565b925060408501359150606085013567ffffffffffffffff811115612c5557600080fd5b8501601f81018713612c6657600080fd5b612c7587823560208401612b87565b91505092959194509250565b600080600060608486031215612c9657600080fd5b8335612ca1816129c4565b92506020840135612cb1816129c4565b91506040840135612cc1816129c4565b809150509250925092565b60008060408385031215612cdf57600080fd5b8235612cea816129c4565b91506020830135612b3c816129c4565b600082601f830112612d0b57600080fd5b61101983833560208501612b87565b803562ffffff811681146129e457600080fd5b8035600281900b81146129e457600080fd5b60008060408385031215612d5257600080fd5b823567ffffffffffffffff811115612d6957600080fd5b83016101408186031215612d7c57600080fd5b612d84612b5d565b813567ffffffffffffffff811115612d9b57600080fd5b612da787828501612cfa565b825250602082013567ffffffffffffffff811115612dc457600080fd5b612dd087828501612cfa565b602083015250604082013567ffffffffffffffff811115612df057600080fd5b612dfc87828501612cfa565b604083015250612e0e606083016129d9565b6060820152612e1f60808301612d1a565b608082015260a0828101359082015260c08083013590820152612e4460e08301612d2d565b60e0820152612e566101008301612d2d565b610100820152612e696101208301612d2d565b6101208201529250612e7f9050602084016129d9565b90509250929050565b600181811c90821680612e9c57607f821691505b602082108103612ebc57634e487b7160e01b600052602260045260246000fd5b50919050565b60008060408385031215612ed557600080fd5b505080516020909101519092909150565b634e487b7160e01b600052603260045260246000fd5b60008351612f0e818460208801612948565b835190830190612f22818360208801612948565b01949350505050565b8481526001600160a01b0384166020820152608060408201526000612f53608083018561296c565b8281036060840152612f65818561296c565b979650505050505050565b602081526000825160a06020840152612f8c60c084018261296c565b90506020840151601f19848303016040850152612fa9828261296c565b9150506040840151601f19848303016060850152612fc7828261296c565b915050606084015160808401526001600160a01b0360808501511660a08401528091505092915050565b601f821115610be357806000526020600020601f840160051c810160208510156130185750805b601f840160051c820191505b81811015611f4e5760008155600101613024565b815167ffffffffffffffff81111561305257613052612b47565b613066816130608454612e88565b84612ff1565b6020601f82116001811461309a57600083156130825750848201515b600019600385901b1c1916600184901b178455611f4e565b600084815260208120601f198516915b828110156130ca57878501518255602094850194600190920191016130aa565b50848210156130e85786840151600019600387901b60f8161c191681555b50505050600190811b01905550565b60006020828403121561310957600080fd5b815161101981612b00565b60006020828403121561312657600080fd5b8151611019816129c4565b634e487b7160e01b600052601160045260246000fd5b80820281158282048414176106a5576106a5613131565b60008261317b57634e487b7160e01b600052601260045260246000fd5b500490565b6001600160a01b03851681526001600160a01b03841660208201528260408201526080606082015260006131b7608083018461296c565b9695505050505050565b6000602082840312156131d357600080fd5b815161101981612915565b818103818111156106a5576106a5613131565b634e487b7160e01b600052603160045260246000fdfea2646970667358221220138a274580deaa6f13d2e9b10e075f44ab3e69ec9c4aec48beeff8082f80ca4164736f6c634300081c0033",
  "devdoc": {
    "errors": {
      "ERC721EnumerableForbiddenBatchMint()": [
        {
          "details": "Batch mint is not allowed."
        }
      ],
      "ERC721IncorrectOwner(address,uint256,address)": [
        {
          "details": "Indicates an error related to the ownership over a particular token. Used in transfers.",
          "params": {
            "owner": "Address of the current owner of a token.",
            "sender": "Address whose tokens are being transferred.",
            "tokenId": "Identifier number of a token."
          }
        }
      ],
      "ERC721InsufficientApproval(address,uint256)": [
        {
          "details": "Indicates a failure with the `operator`s approval. Used in transfers.",
          "params": {
            "operator": "Address that may be allowed to operate on tokens without being their owner.",
            "tokenId": "Identifier number of a token."
          }
        }
      ],
      "ERC721InvalidApprover(address)": [
        {
          "details": "Indicates a failure with the `approver` of a token to be approved. Used in approvals.",
          "params": {
            "approver": "Address initiating an approval operation."
          }
        }
      ],
      "ERC721InvalidOperator(address)": [
        {
          "details": "Indicates a failure with the `operator` to be approved. Used in approvals.",
          "params": {
            "operator": "Address that may be allowed to operate on tokens without being their owner."
          }
        }
      ],
      "ERC721InvalidOwner(address)": [
        {
          "details": "Indicates that an address can't be an owner. For example, `address(0)` is a forbidden owner in ERC-20. Used in balance queries.",
          "params": {
            "owner": "Address of the current owner of a token."
          }
        }
      ],
      "ERC721InvalidReceiver(address)": [
        {
          "details": "Indicates a failure with the token `receiver`. Used in transfers.",
          "params": {
            "receiver": "Address to which tokens are being transferred."
          }
        }
      ],
      "ERC721InvalidSender(address)": [
        {
          "details": "Indicates a failure with the token `sender`. Used in transfers.",
          "params": {
            "sender": "Address whose tokens are being transferred."
          }
        }
      ],
      "ERC721NonexistentToken(uint256)": [
        {
          "details": "Indicates a `tokenId` whose `owner` is the zero address.",
          "params": {
            "tokenId": "Identifier number of a token."
          }
        }
      ],
      "ERC721OutOfBoundsIndex(address,uint256)": [
        {
          "details": "An `owner`'s token query was out of bounds for `index`. NOTE: The owner being `address(0)` indicates a global out of bounds index."
        }
      ],
      "FailedDeployment()": [
        {
          "details": "The deployment failed."
        }
      ],
      "InsufficientBalance(uint256,uint256)": [
        {
          "details": "The ETH balance of the account is not enough to perform the operation."
        }
      ],
      "InvalidInitialization()": [
        {
          "details": "The contract is already initialized."
        }
      ],
      "NotInitializing()": [
        {
          "details": "The contract is not initializing."
        }
      ],
      "OwnableInvalidOwner(address)": [
        {
          "details": "The owner is not a valid owner account. (eg. `address(0)`)"
        }
      ],
      "OwnableUnauthorizedAccount(address)": [
        {
          "details": "The caller account is not authorized to perform an operation."
        }
      ]
    },
    "events": {
      "Approval(address,address,uint256)": {
        "details": "Emitted when `owner` enables `approved` to manage the `tokenId` token."
      },
      "ApprovalForAll(address,address,bool)": {
        "details": "Emitted when `owner` enables or disables (`approved`) `operator` to manage all of its assets."
      },
      "FeeUpdated(address,uint256)": {
        "params": {
          "fee": "The new fee amount",
          "feeDestination": "The address where fees will be sent"
        }
      },
      "Initialized(uint64)": {
        "details": "Triggered when the contract has been initialized or reinitialized."
      },
      "TokenLaunched(address,address,(string,string,string,uint256,address))": {
        "params": {
          "params": "The parameters used to launch the token",
          "pool": "The address of the pool for the token",
          "token": "The token that was launched"
        }
      },
      "Transfer(address,address,uint256)": {
        "details": "Emitted when `tokenId` token is transferred from `from` to `to`."
      }
    },
    "kind": "dev",
    "methods": {
      "approve(address,uint256)": {
        "details": "See {IERC721-approve}."
      },
      "balanceOf(address)": {
        "details": "See {IERC721-balanceOf}."
      },
      "claimFees(address)": {
        "params": {
          "_token": "The token to claim fees for"
        }
      },
      "create((string,string,string,address,uint24,uint256,bytes32,int24,int24,int24),address)": {
        "params": {
          "expected": "The expected address where token will be deployed",
          "p": "The parameters for the token launch"
        },
        "returns": {
          "_0": "The address of the newly created token"
        }
      },
      "getApproved(uint256)": {
        "details": "See {IERC721-getApproved}."
      },
      "getTotalTokens()": {
        "returns": {
          "_0": "The total count of launched tokens"
        }
      },
      "initialize(address,address,address)": {
        "params": {
          "_adapter": "The DEX adapter contract address",
          "_owner": "The owner address",
          "_tokenImplementation": "The implementation contract for new tokens"
        }
      },
      "isApprovedForAll(address,address)": {
        "details": "See {IERC721-isApprovedForAll}."
      },
      "name()": {
        "details": "See {IERC721Metadata-name}."
      },
      "owner()": {
        "details": "Returns the address of the current owner."
      },
      "ownerOf(uint256)": {
        "details": "See {IERC721-ownerOf}."
      },
      "renounceOwnership()": {
        "details": "Leaves the contract without owner. It will not be possible to call `onlyOwner` functions. Can only be called by the current owner. NOTE: Renouncing ownership will leave the contract without an owner, thereby disabling any functionality that is only available to the owner."
      },
      "safeTransferFrom(address,address,uint256)": {
        "details": "See {IERC721-safeTransferFrom}."
      },
      "safeTransferFrom(address,address,uint256,bytes)": {
        "details": "See {IERC721-safeTransferFrom}."
      },
      "setApprovalForAll(address,bool)": {
        "details": "See {IERC721-setApprovalForAll}."
      },
      "setFeeSettings(address,uint256)": {
        "params": {
          "_fee": "The new fee amount",
          "_feeDestination": "The address to receive fees"
        }
      },
      "supportsInterface(bytes4)": {
        "details": "See {IERC165-supportsInterface}."
      },
      "symbol()": {
        "details": "See {IERC721Metadata-symbol}."
      },
      "tokenByIndex(uint256)": {
        "details": "See {IERC721Enumerable-tokenByIndex}."
      },
      "tokenOfOwnerByIndex(address,uint256)": {
        "details": "See {IERC721Enumerable-tokenOfOwnerByIndex}."
      },
      "tokenURI(uint256)": {
        "details": "See {IERC721Metadata-tokenURI}."
      },
      "totalSupply()": {
        "details": "See {IERC721Enumerable-totalSupply}."
      },
      "transferFrom(address,address,uint256)": {
        "details": "See {IERC721-transferFrom}."
      },
      "transferOwnership(address)": {
        "details": "Transfers ownership of the contract to a new account (`newOwner`). Can only be called by the current owner."
      }
    },
    "version": 1
  },
  "userdoc": {
    "events": {
      "FeeUpdated(address,uint256)": {
        "notice": "Emitted when fee settings are updated"
      },
      "TokenLaunched(address,address,(string,string,string,uint256,address))": {
        "notice": "Emitted when a token is launched"
      }
    },
    "kind": "user",
    "methods": {
      "claimFees(address)": {
        "notice": "Claims accumulated fees for a specific token"
      },
      "create((string,string,string,address,uint24,uint256,bytes32,int24,int24,int24),address)": {
        "notice": "Creates a new token launch"
      },
      "getTotalTokens()": {
        "notice": "Gets the total number of tokens launched"
      },
      "initialize(address,address,address)": {
        "notice": "Initializes the launchpad contract"
      },
      "setFeeSettings(address,uint256)": {
        "notice": "Updates the fee settings"
      }
    },
    "version": 1
  },
  "storageLayout": {
    "storage": [
      {
        "astId": 12764,
        "contract": "contracts/launchpad/clmm/TokenLaunchpadLinea.sol:TokenLaunchpadLinea",
        "label": "tokenImplementation",
        "offset": 0,
        "slot": "0",
        "type": "t_address"
      },
      {
        "astId": 12768,
        "contract": "contracts/launchpad/clmm/TokenLaunchpadLinea.sol:TokenLaunchpadLinea",
        "label": "tokens",
        "offset": 0,
        "slot": "1",
        "type": "t_array(t_contract(IERC20)2712)dyn_storage"
      },
      {
        "astId": 12770,
        "contract": "contracts/launchpad/clmm/TokenLaunchpadLinea.sol:TokenLaunchpadLinea",
        "label": "creationFee",
        "offset": 0,
        "slot": "2",
        "type": "t_uint256"
      },
      {
        "astId": 12772,
        "contract": "contracts/launchpad/clmm/TokenLaunchpadLinea.sol:TokenLaunchpadLinea",
        "label": "feeDestination",
        "offset": 0,
        "slot": "3",
        "type": "t_address"
      },
      {
        "astId": 12775,
        "contract": "contracts/launchpad/clmm/TokenLaunchpadLinea.sol:TokenLaunchpadLinea",
        "label": "adapter",
        "offset": 0,
        "slot": "4",
        "type": "t_contract(ICLMMAdapter)12649"
      },
      {
        "astId": 12781,
        "contract": "contracts/launchpad/clmm/TokenLaunchpadLinea.sol:TokenLaunchpadLinea",
        "label": "launchParams",
        "offset": 0,
        "slot": "5",
        "type": "t_mapping(t_contract(ITokenTemplate)12583,t_struct(CreateParams)12679_storage)"
      },
      {
        "astId": 12786,
        "contract": "contracts/launchpad/clmm/TokenLaunchpadLinea.sol:TokenLaunchpadLinea",
        "label": "tokenToNftId",
        "offset": 0,
        "slot": "6",
        "type": "t_mapping(t_contract(ITokenTemplate)12583,t_uint256)"
      }
    ],
    "types": {
      "t_address": {
        "encoding": "inplace",
        "label": "address",
        "numberOfBytes": "20"
      },
      "t_array(t_contract(IERC20)2712)dyn_storage": {
        "base": "t_contract(IERC20)2712",
        "encoding": "dynamic_array",
        "label": "contract IERC20[]",
        "numberOfBytes": "32"
      },
      "t_bytes32": {
        "encoding": "inplace",
        "label": "bytes32",
        "numberOfBytes": "32"
      },
      "t_contract(ITokenTemplate)12583": {
        "encoding": "inplace",
        "label": "contract ITokenTemplate",
        "numberOfBytes": "20"
      },
      "t_contract(ICLMMAdapter)12649": {
        "encoding": "inplace",
        "label": "contract ICLMMAdapter",
        "numberOfBytes": "20"
      },
      "t_contract(IERC20)2712": {
        "encoding": "inplace",
        "label": "contract IERC20",
        "numberOfBytes": "20"
      },
      "t_int24": {
        "encoding": "inplace",
        "label": "int24",
        "numberOfBytes": "3"
      },
      "t_mapping(t_contract(ITokenTemplate)12583,t_struct(CreateParams)12679_storage)": {
        "encoding": "mapping",
        "key": "t_contract(ITokenTemplate)12583",
        "label": "mapping(contract ITokenTemplate => struct ITokenLaunchpad.CreateParams)",
        "numberOfBytes": "32",
        "value": "t_struct(CreateParams)12679_storage"
      },
      "t_mapping(t_contract(ITokenTemplate)12583,t_uint256)": {
        "encoding": "mapping",
        "key": "t_contract(ITokenTemplate)12583",
        "label": "mapping(contract ITokenTemplate => uint256)",
        "numberOfBytes": "32",
        "value": "t_uint256"
      },
      "t_string_storage": {
        "encoding": "bytes",
        "label": "string",
        "numberOfBytes": "32"
      },
      "t_struct(CreateParams)12679_storage": {
        "encoding": "inplace",
        "label": "struct ITokenLaunchpad.CreateParams",
        "members": [
          {
            "astId": 12659,
            "contract": "contracts/launchpad/clmm/TokenLaunchpadLinea.sol:TokenLaunchpadLinea",
            "label": "name",
            "offset": 0,
            "slot": "0",
            "type": "t_string_storage"
          },
          {
            "astId": 12661,
            "contract": "contracts/launchpad/clmm/TokenLaunchpadLinea.sol:TokenLaunchpadLinea",
            "label": "symbol",
            "offset": 0,
            "slot": "1",
            "type": "t_string_storage"
          },
          {
            "astId": 12663,
            "contract": "contracts/launchpad/clmm/TokenLaunchpadLinea.sol:TokenLaunchpadLinea",
            "label": "metadata",
            "offset": 0,
            "slot": "2",
            "type": "t_string_storage"
          },
          {
            "astId": 12666,
            "contract": "contracts/launchpad/clmm/TokenLaunchpadLinea.sol:TokenLaunchpadLinea",
            "label": "fundingToken",
            "offset": 0,
            "slot": "3",
            "type": "t_contract(IERC20)2712"
          },
          {
            "astId": 12668,
            "contract": "contracts/launchpad/clmm/TokenLaunchpadLinea.sol:TokenLaunchpadLinea",
            "label": "fee",
            "offset": 20,
            "slot": "3",
            "type": "t_uint24"
          },
          {
            "astId": 12670,
            "contract": "contracts/launchpad/clmm/TokenLaunchpadLinea.sol:TokenLaunchpadLinea",
            "label": "limitPerWallet",
            "offset": 0,
            "slot": "4",
            "type": "t_uint256"
          },
          {
            "astId": 12672,
            "contract": "contracts/launchpad/clmm/TokenLaunchpadLinea.sol:TokenLaunchpadLinea",
            "label": "salt",
            "offset": 0,
            "slot": "5",
            "type": "t_bytes32"
          },
          {
            "astId": 12674,
            "contract": "contracts/launchpad/clmm/TokenLaunchpadLinea.sol:TokenLaunchpadLinea",
            "label": "launchTick",
            "offset": 0,
            "slot": "6",
            "type": "t_int24"
          },
          {
            "astId": 12676,
            "contract": "contracts/launchpad/clmm/TokenLaunchpadLinea.sol:TokenLaunchpadLinea",
            "label": "graduationTick",
            "offset": 3,
            "slot": "6",
            "type": "t_int24"
          },
          {
            "astId": 12678,
            "contract": "contracts/launchpad/clmm/TokenLaunchpadLinea.sol:TokenLaunchpadLinea",
            "label": "upperMaxTick",
            "offset": 6,
            "slot": "6",
            "type": "t_int24"
          }
        ],
        "numberOfBytes": "224"
      },
      "t_uint24": {
        "encoding": "inplace",
        "label": "uint24",
        "numberOfBytes": "3"
      },
      "t_uint256": {
        "encoding": "inplace",
        "label": "uint256",
        "numberOfBytes": "32"
      }
    }
  }
}